{
	"ExampleModifier.sol": {
		"ExampleModifier": {
			"abi": [
				{
					"inputs": [],
					"stateMutability": "nonpayable",
					"type": "constructor"
				},
				{
					"inputs": [],
					"name": "account",
					"outputs": [
						{
							"internalType": "uint256",
							"name": "",
							"type": "uint256"
						}
					],
					"stateMutability": "view",
					"type": "function"
				},
				{
					"inputs": [],
					"name": "owner",
					"outputs": [
						{
							"internalType": "address",
							"name": "",
							"type": "address"
						}
					],
					"stateMutability": "view",
					"type": "function"
				},
				{
					"inputs": [
						{
							"internalType": "uint256",
							"name": "money",
							"type": "uint256"
						}
					],
					"name": "updateAccount",
					"outputs": [],
					"stateMutability": "nonpayable",
					"type": "function"
				}
			],
			"devdoc": {
				"kind": "dev",
				"methods": {},
				"version": 1
			},
			"evm": {
				"assembly": "    /* \"ExampleModifier.sol\":59:1017  contract ExampleModifier {... */\n  mstore(0x40, 0x80)\n    /* \"ExampleModifier.sol\":145:215  constructor() {... */\n  callvalue\n  dup1\n  iszero\n  tag_1\n  jumpi\n  revert(0x00, 0x00)\ntag_1:\n  pop\n    /* \"ExampleModifier.sol\":177:187  msg.sender */\n  caller\n    /* \"ExampleModifier.sol\":169:174  owner */\n  0x00\n  0x00\n    /* \"ExampleModifier.sol\":169:187  owner = msg.sender */\n  0x0100\n  exp\n  dup2\n  sload\n  dup2\n  0xffffffffffffffffffffffffffffffffffffffff\n  mul\n  not\n  and\n  swap1\n  dup4\n  0xffffffffffffffffffffffffffffffffffffffff\n  and\n  mul\n  or\n  swap1\n  sstore\n  pop\n    /* \"ExampleModifier.sol\":207:208  0 */\n  0x00\n    /* \"ExampleModifier.sol\":197:204  account */\n  0x01\n    /* \"ExampleModifier.sol\":197:208  account = 0 */\n  dup2\n  swap1\n  sstore\n  pop\n    /* \"ExampleModifier.sol\":59:1017  contract ExampleModifier {... */\n  dataSize(sub_0)\n  dup1\n  dataOffset(sub_0)\n  0x00\n  codecopy\n  0x00\n  return\nstop\n\nsub_0: assembly {\n        /* \"ExampleModifier.sol\":59:1017  contract ExampleModifier {... */\n      mstore(0x40, 0x80)\n      callvalue\n      dup1\n      iszero\n      tag_1\n      jumpi\n      revert(0x00, 0x00)\n    tag_1:\n      pop\n      jumpi(tag_2, lt(calldatasize, 0x04))\n      shr(0xe0, calldataload(0x00))\n      dup1\n      0x2f5b38be\n      eq\n      tag_3\n      jumpi\n      dup1\n      0x5dab2420\n      eq\n      tag_4\n      jumpi\n      dup1\n      0x8da5cb5b\n      eq\n      tag_5\n      jumpi\n    tag_2:\n      revert(0x00, 0x00)\n        /* \"ExampleModifier.sol\":829:1015  function updateAccount(uint256 money) public onlyOwner validBalance(money) {... */\n    tag_3:\n      tag_6\n      0x04\n      dup1\n      calldatasize\n      sub\n      dup2\n      add\n      swap1\n      tag_7\n      swap2\n      swap1\n      tag_8\n      jump\t// in\n    tag_7:\n      tag_9\n      jump\t// in\n    tag_6:\n      stop\n        /* \"ExampleModifier.sol\":116:138  uint256 public account */\n    tag_4:\n      tag_10\n      tag_11\n      jump\t// in\n    tag_10:\n      mload(0x40)\n      tag_12\n      swap2\n      swap1\n      tag_13\n      jump\t// in\n    tag_12:\n      mload(0x40)\n      dup1\n      swap2\n      sub\n      swap1\n      return\n        /* \"ExampleModifier.sol\":90:110  address public owner */\n    tag_5:\n      tag_14\n      tag_15\n      jump\t// in\n    tag_14:\n      mload(0x40)\n      tag_16\n      swap2\n      swap1\n      tag_17\n      jump\t// in\n    tag_16:\n      mload(0x40)\n      dup1\n      swap2\n      sub\n      swap1\n      return\n        /* \"ExampleModifier.sol\":829:1015  function updateAccount(uint256 money) public onlyOwner validBalance(money) {... */\n    tag_9:\n        /* \"ExampleModifier.sol\":457:462  owner */\n      0x00\n      0x00\n      swap1\n      sload\n      swap1\n      0x0100\n      exp\n      swap1\n      div\n      0xffffffffffffffffffffffffffffffffffffffff\n      and\n        /* \"ExampleModifier.sol\":443:462  msg.sender == owner */\n      0xffffffffffffffffffffffffffffffffffffffff\n      and\n        /* \"ExampleModifier.sol\":443:453  msg.sender */\n      caller\n        /* \"ExampleModifier.sol\":443:462  msg.sender == owner */\n      0xffffffffffffffffffffffffffffffffffffffff\n      and\n      eq\n        /* \"ExampleModifier.sol\":435:477  require(msg.sender == owner, \"only owner\") */\n      tag_19\n      jumpi\n      mload(0x40)\n      0x08c379a000000000000000000000000000000000000000000000000000000000\n      dup2\n      mstore\n      0x04\n      add\n      tag_20\n      swap1\n      tag_21\n      jump\t// in\n    tag_20:\n      mload(0x40)\n      dup1\n      swap2\n      sub\n      swap1\n      revert\n    tag_19:\n        /* \"ExampleModifier.sol\":897:902  money */\n      dup1\n        /* \"ExampleModifier.sol\":784:787  100 */\n      0x64\n        /* \"ExampleModifier.sol\":776:781  money */\n      dup2\n        /* \"ExampleModifier.sol\":776:787  money > 100 */\n      gt\n        /* \"ExampleModifier.sol\":768:805  require(money > 100, \"invalid money\") */\n      tag_23\n      jumpi\n      mload(0x40)\n      0x08c379a000000000000000000000000000000000000000000000000000000000\n      dup2\n      mstore\n      0x04\n      add\n      tag_24\n      swap1\n      tag_25\n      jump\t// in\n    tag_24:\n      mload(0x40)\n      dup1\n      swap2\n      sub\n      swap1\n      revert\n    tag_23:\n        /* \"ExampleModifier.sol\":1003:1008  money */\n      dup2\n        /* \"ExampleModifier.sol\":993:1000  account */\n      sload(0x01)\n        /* \"ExampleModifier.sol\":993:1008  account + money */\n      tag_27\n      swap2\n      swap1\n      tag_28\n      jump\t// in\n    tag_27:\n        /* \"ExampleModifier.sol\":983:990  account */\n      0x01\n        /* \"ExampleModifier.sol\":983:1008  account = account + money */\n      dup2\n      swap1\n      sstore\n      pop\n        /* \"ExampleModifier.sol\":650:651  _ */\n      pop\n        /* \"ExampleModifier.sol\":829:1015  function updateAccount(uint256 money) public onlyOwner validBalance(money) {... */\n      pop\n      jump\t// out\n        /* \"ExampleModifier.sol\":116:138  uint256 public account */\n    tag_11:\n      sload(0x01)\n      dup2\n      jump\t// out\n        /* \"ExampleModifier.sol\":90:110  address public owner */\n    tag_15:\n      0x00\n      0x00\n      swap1\n      sload\n      swap1\n      0x0100\n      exp\n      swap1\n      div\n      0xffffffffffffffffffffffffffffffffffffffff\n      and\n      dup2\n      jump\t// out\n        /* \"#utility.yul\":88:205   */\n    tag_30:\n        /* \"#utility.yul\":197:198   */\n      0x00\n        /* \"#utility.yul\":194:195   */\n      0x00\n        /* \"#utility.yul\":187:199   */\n      revert\n        /* \"#utility.yul\":334:411   */\n    tag_32:\n        /* \"#utility.yul\":371:378   */\n      0x00\n        /* \"#utility.yul\":400:405   */\n      dup2\n        /* \"#utility.yul\":389:405   */\n      swap1\n      pop\n        /* \"#utility.yul\":334:411   */\n      swap2\n      swap1\n      pop\n      jump\t// out\n        /* \"#utility.yul\":417:539   */\n    tag_33:\n        /* \"#utility.yul\":490:514   */\n      tag_51\n        /* \"#utility.yul\":508:513   */\n      dup2\n        /* \"#utility.yul\":490:514   */\n      tag_32\n      jump\t// in\n    tag_51:\n        /* \"#utility.yul\":483:488   */\n      dup2\n        /* \"#utility.yul\":480:515   */\n      eq\n        /* \"#utility.yul\":470:533   */\n      tag_52\n      jumpi\n        /* \"#utility.yul\":529:530   */\n      0x00\n        /* \"#utility.yul\":526:527   */\n      0x00\n        /* \"#utility.yul\":519:531   */\n      revert\n        /* \"#utility.yul\":470:533   */\n    tag_52:\n        /* \"#utility.yul\":417:539   */\n      pop\n      jump\t// out\n        /* \"#utility.yul\":545:684   */\n    tag_34:\n        /* \"#utility.yul\":591:596   */\n      0x00\n        /* \"#utility.yul\":629:635   */\n      dup2\n        /* \"#utility.yul\":616:636   */\n      calldataload\n        /* \"#utility.yul\":607:636   */\n      swap1\n      pop\n        /* \"#utility.yul\":645:678   */\n      tag_54\n        /* \"#utility.yul\":672:677   */\n      dup2\n        /* \"#utility.yul\":645:678   */\n      tag_33\n      jump\t// in\n    tag_54:\n        /* \"#utility.yul\":545:684   */\n      swap3\n      swap2\n      pop\n      pop\n      jump\t// out\n        /* \"#utility.yul\":690:1019   */\n    tag_8:\n        /* \"#utility.yul\":749:755   */\n      0x00\n        /* \"#utility.yul\":798:800   */\n      0x20\n        /* \"#utility.yul\":786:795   */\n      dup3\n        /* \"#utility.yul\":777:784   */\n      dup5\n        /* \"#utility.yul\":773:796   */\n      sub\n        /* \"#utility.yul\":769:801   */\n      slt\n        /* \"#utility.yul\":766:885   */\n      iszero\n      tag_56\n      jumpi\n        /* \"#utility.yul\":804:883   */\n      tag_57\n      tag_30\n      jump\t// in\n    tag_57:\n        /* \"#utility.yul\":766:885   */\n    tag_56:\n        /* \"#utility.yul\":924:925   */\n      0x00\n        /* \"#utility.yul\":949:1002   */\n      tag_58\n        /* \"#utility.yul\":994:1001   */\n      dup5\n        /* \"#utility.yul\":985:991   */\n      dup3\n        /* \"#utility.yul\":974:983   */\n      dup6\n        /* \"#utility.yul\":970:992   */\n      add\n        /* \"#utility.yul\":949:1002   */\n      tag_34\n      jump\t// in\n    tag_58:\n        /* \"#utility.yul\":939:1002   */\n      swap2\n      pop\n        /* \"#utility.yul\":895:1012   */\n      pop\n        /* \"#utility.yul\":690:1019   */\n      swap3\n      swap2\n      pop\n      pop\n      jump\t// out\n        /* \"#utility.yul\":1025:1143   */\n    tag_35:\n        /* \"#utility.yul\":1112:1136   */\n      tag_60\n        /* \"#utility.yul\":1130:1135   */\n      dup2\n        /* \"#utility.yul\":1112:1136   */\n      tag_32\n      jump\t// in\n    tag_60:\n        /* \"#utility.yul\":1107:1110   */\n      dup3\n        /* \"#utility.yul\":1100:1137   */\n      mstore\n        /* \"#utility.yul\":1025:1143   */\n      pop\n      pop\n      jump\t// out\n        /* \"#utility.yul\":1149:1371   */\n    tag_13:\n        /* \"#utility.yul\":1242:1246   */\n      0x00\n        /* \"#utility.yul\":1280:1282   */\n      0x20\n        /* \"#utility.yul\":1269:1278   */\n      dup3\n        /* \"#utility.yul\":1265:1283   */\n      add\n        /* \"#utility.yul\":1257:1283   */\n      swap1\n      pop\n        /* \"#utility.yul\":1293:1364   */\n      tag_62\n        /* \"#utility.yul\":1361:1362   */\n      0x00\n        /* \"#utility.yul\":1350:1359   */\n      dup4\n        /* \"#utility.yul\":1346:1363   */\n      add\n        /* \"#utility.yul\":1337:1343   */\n      dup5\n        /* \"#utility.yul\":1293:1364   */\n      tag_35\n      jump\t// in\n    tag_62:\n        /* \"#utility.yul\":1149:1371   */\n      swap3\n      swap2\n      pop\n      pop\n      jump\t// out\n        /* \"#utility.yul\":1377:1503   */\n    tag_36:\n        /* \"#utility.yul\":1414:1421   */\n      0x00\n        /* \"#utility.yul\":1454:1496   */\n      0xffffffffffffffffffffffffffffffffffffffff\n        /* \"#utility.yul\":1447:1452   */\n      dup3\n        /* \"#utility.yul\":1443:1497   */\n      and\n        /* \"#utility.yul\":1432:1497   */\n      swap1\n      pop\n        /* \"#utility.yul\":1377:1503   */\n      swap2\n      swap1\n      pop\n      jump\t// out\n        /* \"#utility.yul\":1509:1605   */\n    tag_37:\n        /* \"#utility.yul\":1546:1553   */\n      0x00\n        /* \"#utility.yul\":1575:1599   */\n      tag_65\n        /* \"#utility.yul\":1593:1598   */\n      dup3\n        /* \"#utility.yul\":1575:1599   */\n      tag_36\n      jump\t// in\n    tag_65:\n        /* \"#utility.yul\":1564:1599   */\n      swap1\n      pop\n        /* \"#utility.yul\":1509:1605   */\n      swap2\n      swap1\n      pop\n      jump\t// out\n        /* \"#utility.yul\":1611:1729   */\n    tag_38:\n        /* \"#utility.yul\":1698:1722   */\n      tag_67\n        /* \"#utility.yul\":1716:1721   */\n      dup2\n        /* \"#utility.yul\":1698:1722   */\n      tag_37\n      jump\t// in\n    tag_67:\n        /* \"#utility.yul\":1693:1696   */\n      dup3\n        /* \"#utility.yul\":1686:1723   */\n      mstore\n        /* \"#utility.yul\":1611:1729   */\n      pop\n      pop\n      jump\t// out\n        /* \"#utility.yul\":1735:1957   */\n    tag_17:\n        /* \"#utility.yul\":1828:1832   */\n      0x00\n        /* \"#utility.yul\":1866:1868   */\n      0x20\n        /* \"#utility.yul\":1855:1864   */\n      dup3\n        /* \"#utility.yul\":1851:1869   */\n      add\n        /* \"#utility.yul\":1843:1869   */\n      swap1\n      pop\n        /* \"#utility.yul\":1879:1950   */\n      tag_69\n        /* \"#utility.yul\":1947:1948   */\n      0x00\n        /* \"#utility.yul\":1936:1945   */\n      dup4\n        /* \"#utility.yul\":1932:1949   */\n      add\n        /* \"#utility.yul\":1923:1929   */\n      dup5\n        /* \"#utility.yul\":1879:1950   */\n      tag_38\n      jump\t// in\n    tag_69:\n        /* \"#utility.yul\":1735:1957   */\n      swap3\n      swap2\n      pop\n      pop\n      jump\t// out\n        /* \"#utility.yul\":1963:2132   */\n    tag_39:\n        /* \"#utility.yul\":2047:2058   */\n      0x00\n        /* \"#utility.yul\":2081:2087   */\n      dup3\n        /* \"#utility.yul\":2076:2079   */\n      dup3\n        /* \"#utility.yul\":2069:2088   */\n      mstore\n        /* \"#utility.yul\":2121:2125   */\n      0x20\n        /* \"#utility.yul\":2116:2119   */\n      dup3\n        /* \"#utility.yul\":2112:2126   */\n      add\n        /* \"#utility.yul\":2097:2126   */\n      swap1\n      pop\n        /* \"#utility.yul\":1963:2132   */\n      swap3\n      swap2\n      pop\n      pop\n      jump\t// out\n        /* \"#utility.yul\":2138:2298   */\n    tag_40:\n        /* \"#utility.yul\":2278:2290   */\n      0x6f6e6c79206f776e657200000000000000000000000000000000000000000000\n        /* \"#utility.yul\":2274:2275   */\n      0x00\n        /* \"#utility.yul\":2266:2272   */\n      dup3\n        /* \"#utility.yul\":2262:2276   */\n      add\n        /* \"#utility.yul\":2255:2291   */\n      mstore\n        /* \"#utility.yul\":2138:2298   */\n      pop\n      jump\t// out\n        /* \"#utility.yul\":2304:2670   */\n    tag_41:\n        /* \"#utility.yul\":2446:2449   */\n      0x00\n        /* \"#utility.yul\":2467:2534   */\n      tag_73\n        /* \"#utility.yul\":2531:2533   */\n      0x0a\n        /* \"#utility.yul\":2526:2529   */\n      dup4\n        /* \"#utility.yul\":2467:2534   */\n      tag_39\n      jump\t// in\n    tag_73:\n        /* \"#utility.yul\":2460:2534   */\n      swap2\n      pop\n        /* \"#utility.yul\":2543:2636   */\n      tag_74\n        /* \"#utility.yul\":2632:2635   */\n      dup3\n        /* \"#utility.yul\":2543:2636   */\n      tag_40\n      jump\t// in\n    tag_74:\n        /* \"#utility.yul\":2661:2663   */\n      0x20\n        /* \"#utility.yul\":2656:2659   */\n      dup3\n        /* \"#utility.yul\":2652:2664   */\n      add\n        /* \"#utility.yul\":2645:2664   */\n      swap1\n      pop\n        /* \"#utility.yul\":2304:2670   */\n      swap2\n      swap1\n      pop\n      jump\t// out\n        /* \"#utility.yul\":2676:3095   */\n    tag_21:\n        /* \"#utility.yul\":2842:2846   */\n      0x00\n        /* \"#utility.yul\":2880:2882   */\n      0x20\n        /* \"#utility.yul\":2869:2878   */\n      dup3\n        /* \"#utility.yul\":2865:2883   */\n      add\n        /* \"#utility.yul\":2857:2883   */\n      swap1\n      pop\n        /* \"#utility.yul\":2929:2938   */\n      dup2\n        /* \"#utility.yul\":2923:2927   */\n      dup2\n        /* \"#utility.yul\":2919:2939   */\n      sub\n        /* \"#utility.yul\":2915:2916   */\n      0x00\n        /* \"#utility.yul\":2904:2913   */\n      dup4\n        /* \"#utility.yul\":2900:2917   */\n      add\n        /* \"#utility.yul\":2893:2940   */\n      mstore\n        /* \"#utility.yul\":2957:3088   */\n      tag_76\n        /* \"#utility.yul\":3083:3087   */\n      dup2\n        /* \"#utility.yul\":2957:3088   */\n      tag_41\n      jump\t// in\n    tag_76:\n        /* \"#utility.yul\":2949:3088   */\n      swap1\n      pop\n        /* \"#utility.yul\":2676:3095   */\n      swap2\n      swap1\n      pop\n      jump\t// out\n        /* \"#utility.yul\":3101:3264   */\n    tag_42:\n        /* \"#utility.yul\":3241:3256   */\n      0x696e76616c6964206d6f6e657900000000000000000000000000000000000000\n        /* \"#utility.yul\":3237:3238   */\n      0x00\n        /* \"#utility.yul\":3229:3235   */\n      dup3\n        /* \"#utility.yul\":3225:3239   */\n      add\n        /* \"#utility.yul\":3218:3257   */\n      mstore\n        /* \"#utility.yul\":3101:3264   */\n      pop\n      jump\t// out\n        /* \"#utility.yul\":3270:3636   */\n    tag_43:\n        /* \"#utility.yul\":3412:3415   */\n      0x00\n        /* \"#utility.yul\":3433:3500   */\n      tag_79\n        /* \"#utility.yul\":3497:3499   */\n      0x0d\n        /* \"#utility.yul\":3492:3495   */\n      dup4\n        /* \"#utility.yul\":3433:3500   */\n      tag_39\n      jump\t// in\n    tag_79:\n        /* \"#utility.yul\":3426:3500   */\n      swap2\n      pop\n        /* \"#utility.yul\":3509:3602   */\n      tag_80\n        /* \"#utility.yul\":3598:3601   */\n      dup3\n        /* \"#utility.yul\":3509:3602   */\n      tag_42\n      jump\t// in\n    tag_80:\n        /* \"#utility.yul\":3627:3629   */\n      0x20\n        /* \"#utility.yul\":3622:3625   */\n      dup3\n        /* \"#utility.yul\":3618:3630   */\n      add\n        /* \"#utility.yul\":3611:3630   */\n      swap1\n      pop\n        /* \"#utility.yul\":3270:3636   */\n      swap2\n      swap1\n      pop\n      jump\t// out\n        /* \"#utility.yul\":3642:4061   */\n    tag_25:\n        /* \"#utility.yul\":3808:3812   */\n      0x00\n        /* \"#utility.yul\":3846:3848   */\n      0x20\n        /* \"#utility.yul\":3835:3844   */\n      dup3\n        /* \"#utility.yul\":3831:3849   */\n      add\n        /* \"#utility.yul\":3823:3849   */\n      swap1\n      pop\n        /* \"#utility.yul\":3895:3904   */\n      dup2\n        /* \"#utility.yul\":3889:3893   */\n      dup2\n        /* \"#utility.yul\":3885:3905   */\n      sub\n        /* \"#utility.yul\":3881:3882   */\n      0x00\n        /* \"#utility.yul\":3870:3879   */\n      dup4\n        /* \"#utility.yul\":3866:3883   */\n      add\n        /* \"#utility.yul\":3859:3906   */\n      mstore\n        /* \"#utility.yul\":3923:4054   */\n      tag_82\n        /* \"#utility.yul\":4049:4053   */\n      dup2\n        /* \"#utility.yul\":3923:4054   */\n      tag_43\n      jump\t// in\n    tag_82:\n        /* \"#utility.yul\":3915:4054   */\n      swap1\n      pop\n        /* \"#utility.yul\":3642:4061   */\n      swap2\n      swap1\n      pop\n      jump\t// out\n        /* \"#utility.yul\":4067:4247   */\n    tag_44:\n        /* \"#utility.yul\":4115:4192   */\n      0x4e487b7100000000000000000000000000000000000000000000000000000000\n        /* \"#utility.yul\":4112:4113   */\n      0x00\n        /* \"#utility.yul\":4105:4193   */\n      mstore\n        /* \"#utility.yul\":4212:4216   */\n      0x11\n        /* \"#utility.yul\":4209:4210   */\n      0x04\n        /* \"#utility.yul\":4202:4217   */\n      mstore\n        /* \"#utility.yul\":4236:4240   */\n      0x24\n        /* \"#utility.yul\":4233:4234   */\n      0x00\n        /* \"#utility.yul\":4226:4241   */\n      revert\n        /* \"#utility.yul\":4253:4444   */\n    tag_28:\n        /* \"#utility.yul\":4293:4296   */\n      0x00\n        /* \"#utility.yul\":4312:4332   */\n      tag_85\n        /* \"#utility.yul\":4330:4331   */\n      dup3\n        /* \"#utility.yul\":4312:4332   */\n      tag_32\n      jump\t// in\n    tag_85:\n        /* \"#utility.yul\":4307:4332   */\n      swap2\n      pop\n        /* \"#utility.yul\":4346:4366   */\n      tag_86\n        /* \"#utility.yul\":4364:4365   */\n      dup4\n        /* \"#utility.yul\":4346:4366   */\n      tag_32\n      jump\t// in\n    tag_86:\n        /* \"#utility.yul\":4341:4366   */\n      swap3\n      pop\n        /* \"#utility.yul\":4389:4390   */\n      dup3\n        /* \"#utility.yul\":4386:4387   */\n      dup3\n        /* \"#utility.yul\":4382:4391   */\n      add\n        /* \"#utility.yul\":4375:4391   */\n      swap1\n      pop\n        /* \"#utility.yul\":4410:4413   */\n      dup1\n        /* \"#utility.yul\":4407:4408   */\n      dup3\n        /* \"#utility.yul\":4404:4414   */\n      gt\n        /* \"#utility.yul\":4401:4437   */\n      iszero\n      tag_87\n      jumpi\n        /* \"#utility.yul\":4417:4435   */\n      tag_88\n      tag_44\n      jump\t// in\n    tag_88:\n        /* \"#utility.yul\":4401:4437   */\n    tag_87:\n        /* \"#utility.yul\":4253:4444   */\n      swap3\n      swap2\n      pop\n      pop\n      jump\t// out\n\n    auxdata: 0xa2646970667358221220fd58f3338f189023cf7e12de5cf2215d0228a435a9c818247393737785fe1f5364736f6c634300081e0033\n}\n",
				"bytecode": {
					"linkReferences": {},
					"object": "6080604052348015600e575f5ffd5b50335f5f6101000a81548173ffffffffffffffffffffffffffffffffffffffff021916908373ffffffffffffffffffffffffffffffffffffffff1602179055505f600181905550610407806100625f395ff3fe608060405234801561000f575f5ffd5b506004361061003f575f3560e01c80632f5b38be146100435780635dab24201461005f5780638da5cb5b1461007d575b5f5ffd5b61005d600480360381019061005891906101e6565b61009b565b005b610067610185565b6040516100749190610220565b60405180910390f35b61008561018b565b6040516100929190610278565b60405180910390f35b5f5f9054906101000a900473ffffffffffffffffffffffffffffffffffffffff1673ffffffffffffffffffffffffffffffffffffffff163373ffffffffffffffffffffffffffffffffffffffff1614610129576040517f08c379a0000000000000000000000000000000000000000000000000000000008152600401610120906102eb565b60405180910390fd5b806064811161016d576040517f08c379a000000000000000000000000000000000000000000000000000000000815260040161016490610353565b60405180910390fd5b8160015461017b919061039e565b6001819055505050565b60015481565b5f5f9054906101000a900473ffffffffffffffffffffffffffffffffffffffff1681565b5f5ffd5b5f819050919050565b6101c5816101b3565b81146101cf575f5ffd5b50565b5f813590506101e0816101bc565b92915050565b5f602082840312156101fb576101fa6101af565b5b5f610208848285016101d2565b91505092915050565b61021a816101b3565b82525050565b5f6020820190506102335f830184610211565b92915050565b5f73ffffffffffffffffffffffffffffffffffffffff82169050919050565b5f61026282610239565b9050919050565b61027281610258565b82525050565b5f60208201905061028b5f830184610269565b92915050565b5f82825260208201905092915050565b7f6f6e6c79206f776e6572000000000000000000000000000000000000000000005f82015250565b5f6102d5600a83610291565b91506102e0826102a1565b602082019050919050565b5f6020820190508181035f830152610302816102c9565b9050919050565b7f696e76616c6964206d6f6e6579000000000000000000000000000000000000005f82015250565b5f61033d600d83610291565b915061034882610309565b602082019050919050565b5f6020820190508181035f83015261036a81610331565b9050919050565b7f4e487b71000000000000000000000000000000000000000000000000000000005f52601160045260245ffd5b5f6103a8826101b3565b91506103b3836101b3565b92508282019050808211156103cb576103ca610371565b5b9291505056fea2646970667358221220fd58f3338f189023cf7e12de5cf2215d0228a435a9c818247393737785fe1f5364736f6c634300081e0033",
					"opcodes": "PUSH1 0x80 PUSH1 0x40 MSTORE CALLVALUE DUP1 ISZERO PUSH1 0xE JUMPI PUSH0 PUSH0 REVERT JUMPDEST POP CALLER PUSH0 PUSH0 PUSH2 0x100 EXP DUP2 SLOAD DUP2 PUSH20 0xFFFFFFFFFFFFFFFFFFFFFFFFFFFFFFFFFFFFFFFF MUL NOT AND SWAP1 DUP4 PUSH20 0xFFFFFFFFFFFFFFFFFFFFFFFFFFFFFFFFFFFFFFFF AND MUL OR SWAP1 SSTORE POP PUSH0 PUSH1 0x1 DUP2 SWAP1 SSTORE POP PUSH2 0x407 DUP1 PUSH2 0x62 PUSH0 CODECOPY PUSH0 RETURN INVALID PUSH1 0x80 PUSH1 0x40 MSTORE CALLVALUE DUP1 ISZERO PUSH2 0xF JUMPI PUSH0 PUSH0 REVERT JUMPDEST POP PUSH1 0x4 CALLDATASIZE LT PUSH2 0x3F JUMPI PUSH0 CALLDATALOAD PUSH1 0xE0 SHR DUP1 PUSH4 0x2F5B38BE EQ PUSH2 0x43 JUMPI DUP1 PUSH4 0x5DAB2420 EQ PUSH2 0x5F JUMPI DUP1 PUSH4 0x8DA5CB5B EQ PUSH2 0x7D JUMPI JUMPDEST PUSH0 PUSH0 REVERT JUMPDEST PUSH2 0x5D PUSH1 0x4 DUP1 CALLDATASIZE SUB DUP2 ADD SWAP1 PUSH2 0x58 SWAP2 SWAP1 PUSH2 0x1E6 JUMP JUMPDEST PUSH2 0x9B JUMP JUMPDEST STOP JUMPDEST PUSH2 0x67 PUSH2 0x185 JUMP JUMPDEST PUSH1 0x40 MLOAD PUSH2 0x74 SWAP2 SWAP1 PUSH2 0x220 JUMP JUMPDEST PUSH1 0x40 MLOAD DUP1 SWAP2 SUB SWAP1 RETURN JUMPDEST PUSH2 0x85 PUSH2 0x18B JUMP JUMPDEST PUSH1 0x40 MLOAD PUSH2 0x92 SWAP2 SWAP1 PUSH2 0x278 JUMP JUMPDEST PUSH1 0x40 MLOAD DUP1 SWAP2 SUB SWAP1 RETURN JUMPDEST PUSH0 PUSH0 SWAP1 SLOAD SWAP1 PUSH2 0x100 EXP SWAP1 DIV PUSH20 0xFFFFFFFFFFFFFFFFFFFFFFFFFFFFFFFFFFFFFFFF AND PUSH20 0xFFFFFFFFFFFFFFFFFFFFFFFFFFFFFFFFFFFFFFFF AND CALLER PUSH20 0xFFFFFFFFFFFFFFFFFFFFFFFFFFFFFFFFFFFFFFFF AND EQ PUSH2 0x129 JUMPI PUSH1 0x40 MLOAD PUSH32 0x8C379A000000000000000000000000000000000000000000000000000000000 DUP2 MSTORE PUSH1 0x4 ADD PUSH2 0x120 SWAP1 PUSH2 0x2EB JUMP JUMPDEST PUSH1 0x40 MLOAD DUP1 SWAP2 SUB SWAP1 REVERT JUMPDEST DUP1 PUSH1 0x64 DUP2 GT PUSH2 0x16D JUMPI PUSH1 0x40 MLOAD PUSH32 0x8C379A000000000000000000000000000000000000000000000000000000000 DUP2 MSTORE PUSH1 0x4 ADD PUSH2 0x164 SWAP1 PUSH2 0x353 JUMP JUMPDEST PUSH1 0x40 MLOAD DUP1 SWAP2 SUB SWAP1 REVERT JUMPDEST DUP2 PUSH1 0x1 SLOAD PUSH2 0x17B SWAP2 SWAP1 PUSH2 0x39E JUMP JUMPDEST PUSH1 0x1 DUP2 SWAP1 SSTORE POP POP POP JUMP JUMPDEST PUSH1 0x1 SLOAD DUP2 JUMP JUMPDEST PUSH0 PUSH0 SWAP1 SLOAD SWAP1 PUSH2 0x100 EXP SWAP1 DIV PUSH20 0xFFFFFFFFFFFFFFFFFFFFFFFFFFFFFFFFFFFFFFFF AND DUP2 JUMP JUMPDEST PUSH0 PUSH0 REVERT JUMPDEST PUSH0 DUP2 SWAP1 POP SWAP2 SWAP1 POP JUMP JUMPDEST PUSH2 0x1C5 DUP2 PUSH2 0x1B3 JUMP JUMPDEST DUP2 EQ PUSH2 0x1CF JUMPI PUSH0 PUSH0 REVERT JUMPDEST POP JUMP JUMPDEST PUSH0 DUP2 CALLDATALOAD SWAP1 POP PUSH2 0x1E0 DUP2 PUSH2 0x1BC JUMP JUMPDEST SWAP3 SWAP2 POP POP JUMP JUMPDEST PUSH0 PUSH1 0x20 DUP3 DUP5 SUB SLT ISZERO PUSH2 0x1FB JUMPI PUSH2 0x1FA PUSH2 0x1AF JUMP JUMPDEST JUMPDEST PUSH0 PUSH2 0x208 DUP5 DUP3 DUP6 ADD PUSH2 0x1D2 JUMP JUMPDEST SWAP2 POP POP SWAP3 SWAP2 POP POP JUMP JUMPDEST PUSH2 0x21A DUP2 PUSH2 0x1B3 JUMP JUMPDEST DUP3 MSTORE POP POP JUMP JUMPDEST PUSH0 PUSH1 0x20 DUP3 ADD SWAP1 POP PUSH2 0x233 PUSH0 DUP4 ADD DUP5 PUSH2 0x211 JUMP JUMPDEST SWAP3 SWAP2 POP POP JUMP JUMPDEST PUSH0 PUSH20 0xFFFFFFFFFFFFFFFFFFFFFFFFFFFFFFFFFFFFFFFF DUP3 AND SWAP1 POP SWAP2 SWAP1 POP JUMP JUMPDEST PUSH0 PUSH2 0x262 DUP3 PUSH2 0x239 JUMP JUMPDEST SWAP1 POP SWAP2 SWAP1 POP JUMP JUMPDEST PUSH2 0x272 DUP2 PUSH2 0x258 JUMP JUMPDEST DUP3 MSTORE POP POP JUMP JUMPDEST PUSH0 PUSH1 0x20 DUP3 ADD SWAP1 POP PUSH2 0x28B PUSH0 DUP4 ADD DUP5 PUSH2 0x269 JUMP JUMPDEST SWAP3 SWAP2 POP POP JUMP JUMPDEST PUSH0 DUP3 DUP3 MSTORE PUSH1 0x20 DUP3 ADD SWAP1 POP SWAP3 SWAP2 POP POP JUMP JUMPDEST PUSH32 0x6F6E6C79206F776E657200000000000000000000000000000000000000000000 PUSH0 DUP3 ADD MSTORE POP JUMP JUMPDEST PUSH0 PUSH2 0x2D5 PUSH1 0xA DUP4 PUSH2 0x291 JUMP JUMPDEST SWAP2 POP PUSH2 0x2E0 DUP3 PUSH2 0x2A1 JUMP JUMPDEST PUSH1 0x20 DUP3 ADD SWAP1 POP SWAP2 SWAP1 POP JUMP JUMPDEST PUSH0 PUSH1 0x20 DUP3 ADD SWAP1 POP DUP2 DUP2 SUB PUSH0 DUP4 ADD MSTORE PUSH2 0x302 DUP2 PUSH2 0x2C9 JUMP JUMPDEST SWAP1 POP SWAP2 SWAP1 POP JUMP JUMPDEST PUSH32 0x696E76616C6964206D6F6E657900000000000000000000000000000000000000 PUSH0 DUP3 ADD MSTORE POP JUMP JUMPDEST PUSH0 PUSH2 0x33D PUSH1 0xD DUP4 PUSH2 0x291 JUMP JUMPDEST SWAP2 POP PUSH2 0x348 DUP3 PUSH2 0x309 JUMP JUMPDEST PUSH1 0x20 DUP3 ADD SWAP1 POP SWAP2 SWAP1 POP JUMP JUMPDEST PUSH0 PUSH1 0x20 DUP3 ADD SWAP1 POP DUP2 DUP2 SUB PUSH0 DUP4 ADD MSTORE PUSH2 0x36A DUP2 PUSH2 0x331 JUMP JUMPDEST SWAP1 POP SWAP2 SWAP1 POP JUMP JUMPDEST PUSH32 0x4E487B7100000000000000000000000000000000000000000000000000000000 PUSH0 MSTORE PUSH1 0x11 PUSH1 0x4 MSTORE PUSH1 0x24 PUSH0 REVERT JUMPDEST PUSH0 PUSH2 0x3A8 DUP3 PUSH2 0x1B3 JUMP JUMPDEST SWAP2 POP PUSH2 0x3B3 DUP4 PUSH2 0x1B3 JUMP JUMPDEST SWAP3 POP DUP3 DUP3 ADD SWAP1 POP DUP1 DUP3 GT ISZERO PUSH2 0x3CB JUMPI PUSH2 0x3CA PUSH2 0x371 JUMP JUMPDEST JUMPDEST SWAP3 SWAP2 POP POP JUMP INVALID LOG2 PUSH5 0x6970667358 0x22 SLT KECCAK256 REVERT PC RETURN CALLER DUP16 XOR SWAP1 0x23 0xCF PUSH31 0x12DE5CF2215D0228A435A9C818247393737785FE1F5364736F6C634300081E STOP CALLER "
				},
				"gasEstimates": {
					"creation": {
						"codeDepositCost": "206200",
						"executionCost": "29526",
						"totalCost": "235726"
					},
					"external": {
						"account()": "2425",
						"owner()": "2529",
						"updateAccount(uint256)": "infinite"
					}
				},
				"methodIdentifiers": {
					"account()": "5dab2420",
					"owner()": "8da5cb5b",
					"updateAccount(uint256)": "2f5b38be"
				}
			},
			"storageLayout": {
				"storage": [
					{
						"astId": 3,
						"contract": "ExampleModifier.sol:ExampleModifier",
						"label": "owner",
						"offset": 0,
						"slot": "0",
						"type": "t_address"
					},
					{
						"astId": 5,
						"contract": "ExampleModifier.sol:ExampleModifier",
						"label": "account",
						"offset": 0,
						"slot": "1",
						"type": "t_uint256"
					}
				],
				"types": {
					"t_address": {
						"encoding": "inplace",
						"label": "address",
						"numberOfBytes": "20"
					},
					"t_uint256": {
						"encoding": "inplace",
						"label": "uint256",
						"numberOfBytes": "32"
					}
				}
			},
			"userdoc": {
				"kind": "user",
				"methods": {},
				"version": 1
			}
		}
	}
}