{
	"ExamplePay.sol": {
		"ExamplePay": {
			"abi": [
				{
					"anonymous": false,
					"inputs": [
						{
							"indexed": false,
							"internalType": "bool",
							"name": "success",
							"type": "bool"
						},
						{
							"indexed": false,
							"internalType": "bytes",
							"name": "data",
							"type": "bytes"
						}
					],
					"name": "response",
					"type": "event"
				},
				{
					"inputs": [
						{
							"internalType": "address payable",
							"name": "_to",
							"type": "address"
						}
					],
					"name": "call",
					"outputs": [],
					"stateMutability": "payable",
					"type": "function"
				},
				{
					"inputs": [
						{
							"internalType": "address payable",
							"name": "_to",
							"type": "address"
						}
					],
					"name": "send",
					"outputs": [],
					"stateMutability": "payable",
					"type": "function"
				},
				{
					"inputs": [
						{
							"internalType": "address payable",
							"name": "_to",
							"type": "address"
						}
					],
					"name": "transfer",
					"outputs": [],
					"stateMutability": "payable",
					"type": "function"
				}
			],
			"devdoc": {
				"kind": "dev",
				"methods": {},
				"version": 1
			},
			"evm": {
				"assembly": "    /* \"ExamplePay.sol\":59:540  contract ExamplePay {... */\n  mstore(0x40, 0x80)\n  callvalue\n  dup1\n  iszero\n  tag_1\n  jumpi\n  revert(0x00, 0x00)\ntag_1:\n  pop\n  dataSize(sub_0)\n  dup1\n  dataOffset(sub_0)\n  0x00\n  codecopy\n  0x00\n  return\nstop\n\nsub_0: assembly {\n        /* \"ExamplePay.sol\":59:540  contract ExamplePay {... */\n      mstore(0x40, 0x80)\n      jumpi(tag_1, lt(calldatasize, 0x04))\n      shr(0xe0, calldataload(0x00))\n      dup1\n      0x1a695230\n      eq\n      tag_2\n      jumpi\n      dup1\n      0x3e58c58c\n      eq\n      tag_3\n      jumpi\n      dup1\n      0xf55332ab\n      eq\n      tag_4\n      jumpi\n    tag_1:\n      revert(0x00, 0x00)\n        /* \"ExamplePay.sol\":278:372  function transfer(address payable _to) public payable {... */\n    tag_2:\n      tag_5\n      0x04\n      dup1\n      calldatasize\n      sub\n      dup2\n      add\n      swap1\n      tag_6\n      swap2\n      swap1\n      tag_7\n      jump\t// in\n    tag_6:\n      tag_8\n      jump\t// in\n    tag_5:\n      stop\n        /* \"ExamplePay.sol\":132:272  function send(address payable _to) public payable {... */\n    tag_3:\n      tag_9\n      0x04\n      dup1\n      calldatasize\n      sub\n      dup2\n      add\n      swap1\n      tag_10\n      swap2\n      swap1\n      tag_7\n      jump\t// in\n    tag_10:\n      tag_11\n      jump\t// in\n    tag_9:\n      stop\n        /* \"ExamplePay.sol\":378:538  function call(address payable _to) public payable {... */\n    tag_4:\n      tag_12\n      0x04\n      dup1\n      calldatasize\n      sub\n      dup2\n      add\n      swap1\n      tag_13\n      swap2\n      swap1\n      tag_7\n      jump\t// in\n    tag_13:\n      tag_14\n      jump\t// in\n    tag_12:\n      stop\n        /* \"ExamplePay.sol\":278:372  function transfer(address payable _to) public payable {... */\n    tag_8:\n        /* \"ExamplePay.sol\":342:345  _to */\n      dup1\n        /* \"ExamplePay.sol\":342:354  _to.transfer */\n      0xffffffffffffffffffffffffffffffffffffffff\n      and\n        /* \"ExamplePay.sol\":342:365  _to.transfer(msg.value) */\n      0x08fc\n        /* \"ExamplePay.sol\":355:364  msg.value */\n      callvalue\n        /* \"ExamplePay.sol\":342:365  _to.transfer(msg.value) */\n      swap1\n      dup2\n      iszero\n      mul\n      swap1\n      mload(0x40)\n      0x00\n      mload(0x40)\n      dup1\n      dup4\n      sub\n      dup2\n      dup6\n      dup9\n      dup9\n      call\n      swap4\n      pop\n      pop\n      pop\n      pop\n      iszero\n      dup1\n      iszero\n      tag_17\n      jumpi\n      returndatacopy(0x00, 0x00, returndatasize)\n      revert(0x00, returndatasize)\n    tag_17:\n      pop\n        /* \"ExamplePay.sol\":278:372  function transfer(address payable _to) public payable {... */\n      pop\n      jump\t// out\n        /* \"ExamplePay.sol\":132:272  function send(address payable _to) public payable {... */\n    tag_11:\n        /* \"ExamplePay.sol\":192:204  bool hasSend */\n      0x00\n        /* \"ExamplePay.sol\":207:210  _to */\n      dup2\n        /* \"ExamplePay.sol\":207:215  _to.send */\n      0xffffffffffffffffffffffffffffffffffffffff\n      and\n        /* \"ExamplePay.sol\":207:226  _to.send(msg.value) */\n      0x08fc\n        /* \"ExamplePay.sol\":216:225  msg.value */\n      callvalue\n        /* \"ExamplePay.sol\":207:226  _to.send(msg.value) */\n      swap1\n      dup2\n      iszero\n      mul\n      swap1\n      mload(0x40)\n      0x00\n      mload(0x40)\n      dup1\n      dup4\n      sub\n      dup2\n      dup6\n      dup9\n      dup9\n      call\n      swap4\n      pop\n      pop\n      pop\n      pop\n        /* \"ExamplePay.sol\":192:226  bool hasSend = _to.send(msg.value) */\n      swap1\n      pop\n        /* \"ExamplePay.sol\":244:251  hasSend */\n      dup1\n        /* \"ExamplePay.sol\":236:265  require(hasSend, \"send fail\") */\n      tag_20\n      jumpi\n      mload(0x40)\n      0x08c379a000000000000000000000000000000000000000000000000000000000\n      dup2\n      mstore\n      0x04\n      add\n      tag_21\n      swap1\n      tag_22\n      jump\t// in\n    tag_21:\n      mload(0x40)\n      dup1\n      swap2\n      sub\n      swap1\n      revert\n    tag_20:\n        /* \"ExamplePay.sol\":182:272  {... */\n      pop\n        /* \"ExamplePay.sol\":132:272  function send(address payable _to) public payable {... */\n      pop\n      jump\t// out\n        /* \"ExamplePay.sol\":378:538  function call(address payable _to) public payable {... */\n    tag_14:\n        /* \"ExamplePay.sol\":439:451  bool hasSend */\n      0x00\n        /* \"ExamplePay.sol\":457:460  _to */\n      dup2\n        /* \"ExamplePay.sol\":457:465  _to.call */\n      0xffffffffffffffffffffffffffffffffffffffff\n      and\n        /* \"ExamplePay.sol\":473:482  msg.value */\n      callvalue\n        /* \"ExamplePay.sol\":457:487  _to.call{value: msg.value}(\"\") */\n      mload(0x40)\n      tag_24\n      swap1\n      tag_25\n      jump\t// in\n    tag_24:\n      0x00\n      mload(0x40)\n      dup1\n      dup4\n      sub\n      dup2\n      dup6\n      dup8\n      gas\n      call\n      swap3\n      pop\n      pop\n      pop\n      returndatasize\n      dup1\n      0x00\n      dup2\n      eq\n      tag_28\n      jumpi\n      mload(0x40)\n      swap2\n      pop\n      and(add(returndatasize, 0x3f), not(0x1f))\n      dup3\n      add\n      0x40\n      mstore\n      returndatasize\n      dup3\n      mstore\n      returndatasize\n      0x00\n      0x20\n      dup5\n      add\n      returndatacopy\n      jump(tag_27)\n    tag_28:\n      0x60\n      swap2\n      pop\n    tag_27:\n      pop\n        /* \"ExamplePay.sol\":438:487  (bool hasSend, ) = _to.call{value: msg.value}(\"\") */\n      pop\n      swap1\n      pop\n        /* \"ExamplePay.sol\":505:512  hasSend */\n      dup1\n        /* \"ExamplePay.sol\":497:531  require(hasSend, \"call send fail\") */\n      tag_29\n      jumpi\n      mload(0x40)\n      0x08c379a000000000000000000000000000000000000000000000000000000000\n      dup2\n      mstore\n      0x04\n      add\n      tag_30\n      swap1\n      tag_31\n      jump\t// in\n    tag_30:\n      mload(0x40)\n      dup1\n      swap2\n      sub\n      swap1\n      revert\n    tag_29:\n        /* \"ExamplePay.sol\":428:538  {... */\n      pop\n        /* \"ExamplePay.sol\":378:538  function call(address payable _to) public payable {... */\n      pop\n      jump\t// out\n        /* \"#utility.yul\":88:205   */\n    tag_33:\n        /* \"#utility.yul\":197:198   */\n      0x00\n        /* \"#utility.yul\":194:195   */\n      0x00\n        /* \"#utility.yul\":187:199   */\n      revert\n        /* \"#utility.yul\":334:460   */\n    tag_35:\n        /* \"#utility.yul\":371:378   */\n      0x00\n        /* \"#utility.yul\":411:453   */\n      0xffffffffffffffffffffffffffffffffffffffff\n        /* \"#utility.yul\":404:409   */\n      dup3\n        /* \"#utility.yul\":400:454   */\n      and\n        /* \"#utility.yul\":389:454   */\n      swap1\n      pop\n        /* \"#utility.yul\":334:460   */\n      swap2\n      swap1\n      pop\n      jump\t// out\n        /* \"#utility.yul\":466:570   */\n    tag_36:\n        /* \"#utility.yul\":511:518   */\n      0x00\n        /* \"#utility.yul\":540:564   */\n      tag_53\n        /* \"#utility.yul\":558:563   */\n      dup3\n        /* \"#utility.yul\":540:564   */\n      tag_35\n      jump\t// in\n    tag_53:\n        /* \"#utility.yul\":529:564   */\n      swap1\n      pop\n        /* \"#utility.yul\":466:570   */\n      swap2\n      swap1\n      pop\n      jump\t// out\n        /* \"#utility.yul\":576:714   */\n    tag_37:\n        /* \"#utility.yul\":657:689   */\n      tag_55\n        /* \"#utility.yul\":683:688   */\n      dup2\n        /* \"#utility.yul\":657:689   */\n      tag_36\n      jump\t// in\n    tag_55:\n        /* \"#utility.yul\":650:655   */\n      dup2\n        /* \"#utility.yul\":647:690   */\n      eq\n        /* \"#utility.yul\":637:708   */\n      tag_56\n      jumpi\n        /* \"#utility.yul\":704:705   */\n      0x00\n        /* \"#utility.yul\":701:702   */\n      0x00\n        /* \"#utility.yul\":694:706   */\n      revert\n        /* \"#utility.yul\":637:708   */\n    tag_56:\n        /* \"#utility.yul\":576:714   */\n      pop\n      jump\t// out\n        /* \"#utility.yul\":720:875   */\n    tag_38:\n        /* \"#utility.yul\":774:779   */\n      0x00\n        /* \"#utility.yul\":812:818   */\n      dup2\n        /* \"#utility.yul\":799:819   */\n      calldataload\n        /* \"#utility.yul\":790:819   */\n      swap1\n      pop\n        /* \"#utility.yul\":828:869   */\n      tag_58\n        /* \"#utility.yul\":863:868   */\n      dup2\n        /* \"#utility.yul\":828:869   */\n      tag_37\n      jump\t// in\n    tag_58:\n        /* \"#utility.yul\":720:875   */\n      swap3\n      swap2\n      pop\n      pop\n      jump\t// out\n        /* \"#utility.yul\":881:1226   */\n    tag_7:\n        /* \"#utility.yul\":948:954   */\n      0x00\n        /* \"#utility.yul\":997:999   */\n      0x20\n        /* \"#utility.yul\":985:994   */\n      dup3\n        /* \"#utility.yul\":976:983   */\n      dup5\n        /* \"#utility.yul\":972:995   */\n      sub\n        /* \"#utility.yul\":968:1000   */\n      slt\n        /* \"#utility.yul\":965:1084   */\n      iszero\n      tag_60\n      jumpi\n        /* \"#utility.yul\":1003:1082   */\n      tag_61\n      tag_33\n      jump\t// in\n    tag_61:\n        /* \"#utility.yul\":965:1084   */\n    tag_60:\n        /* \"#utility.yul\":1123:1124   */\n      0x00\n        /* \"#utility.yul\":1148:1209   */\n      tag_62\n        /* \"#utility.yul\":1201:1208   */\n      dup5\n        /* \"#utility.yul\":1192:1198   */\n      dup3\n        /* \"#utility.yul\":1181:1190   */\n      dup6\n        /* \"#utility.yul\":1177:1199   */\n      add\n        /* \"#utility.yul\":1148:1209   */\n      tag_38\n      jump\t// in\n    tag_62:\n        /* \"#utility.yul\":1138:1209   */\n      swap2\n      pop\n        /* \"#utility.yul\":1094:1219   */\n      pop\n        /* \"#utility.yul\":881:1226   */\n      swap3\n      swap2\n      pop\n      pop\n      jump\t// out\n        /* \"#utility.yul\":1232:1401   */\n    tag_39:\n        /* \"#utility.yul\":1316:1327   */\n      0x00\n        /* \"#utility.yul\":1350:1356   */\n      dup3\n        /* \"#utility.yul\":1345:1348   */\n      dup3\n        /* \"#utility.yul\":1338:1357   */\n      mstore\n        /* \"#utility.yul\":1390:1394   */\n      0x20\n        /* \"#utility.yul\":1385:1388   */\n      dup3\n        /* \"#utility.yul\":1381:1395   */\n      add\n        /* \"#utility.yul\":1366:1395   */\n      swap1\n      pop\n        /* \"#utility.yul\":1232:1401   */\n      swap3\n      swap2\n      pop\n      pop\n      jump\t// out\n        /* \"#utility.yul\":1407:1566   */\n    tag_40:\n        /* \"#utility.yul\":1547:1558   */\n      0x73656e64206661696c0000000000000000000000000000000000000000000000\n        /* \"#utility.yul\":1543:1544   */\n      0x00\n        /* \"#utility.yul\":1535:1541   */\n      dup3\n        /* \"#utility.yul\":1531:1545   */\n      add\n        /* \"#utility.yul\":1524:1559   */\n      mstore\n        /* \"#utility.yul\":1407:1566   */\n      pop\n      jump\t// out\n        /* \"#utility.yul\":1572:1937   */\n    tag_41:\n        /* \"#utility.yul\":1714:1717   */\n      0x00\n        /* \"#utility.yul\":1735:1801   */\n      tag_66\n        /* \"#utility.yul\":1799:1800   */\n      0x09\n        /* \"#utility.yul\":1794:1797   */\n      dup4\n        /* \"#utility.yul\":1735:1801   */\n      tag_39\n      jump\t// in\n    tag_66:\n        /* \"#utility.yul\":1728:1801   */\n      swap2\n      pop\n        /* \"#utility.yul\":1810:1903   */\n      tag_67\n        /* \"#utility.yul\":1899:1902   */\n      dup3\n        /* \"#utility.yul\":1810:1903   */\n      tag_40\n      jump\t// in\n    tag_67:\n        /* \"#utility.yul\":1928:1930   */\n      0x20\n        /* \"#utility.yul\":1923:1926   */\n      dup3\n        /* \"#utility.yul\":1919:1931   */\n      add\n        /* \"#utility.yul\":1912:1931   */\n      swap1\n      pop\n        /* \"#utility.yul\":1572:1937   */\n      swap2\n      swap1\n      pop\n      jump\t// out\n        /* \"#utility.yul\":1943:2362   */\n    tag_22:\n        /* \"#utility.yul\":2109:2113   */\n      0x00\n        /* \"#utility.yul\":2147:2149   */\n      0x20\n        /* \"#utility.yul\":2136:2145   */\n      dup3\n        /* \"#utility.yul\":2132:2150   */\n      add\n        /* \"#utility.yul\":2124:2150   */\n      swap1\n      pop\n        /* \"#utility.yul\":2196:2205   */\n      dup2\n        /* \"#utility.yul\":2190:2194   */\n      dup2\n        /* \"#utility.yul\":2186:2206   */\n      sub\n        /* \"#utility.yul\":2182:2183   */\n      0x00\n        /* \"#utility.yul\":2171:2180   */\n      dup4\n        /* \"#utility.yul\":2167:2184   */\n      add\n        /* \"#utility.yul\":2160:2207   */\n      mstore\n        /* \"#utility.yul\":2224:2355   */\n      tag_69\n        /* \"#utility.yul\":2350:2354   */\n      dup2\n        /* \"#utility.yul\":2224:2355   */\n      tag_41\n      jump\t// in\n    tag_69:\n        /* \"#utility.yul\":2216:2355   */\n      swap1\n      pop\n        /* \"#utility.yul\":1943:2362   */\n      swap2\n      swap1\n      pop\n      jump\t// out\n        /* \"#utility.yul\":2368:2515   */\n    tag_42:\n        /* \"#utility.yul\":2469:2480   */\n      0x00\n        /* \"#utility.yul\":2506:2509   */\n      dup2\n        /* \"#utility.yul\":2491:2509   */\n      swap1\n      pop\n        /* \"#utility.yul\":2368:2515   */\n      swap3\n      swap2\n      pop\n      pop\n      jump\t// out\n        /* \"#utility.yul\":2521:2635   */\n    tag_43:\n      pop\n      jump\t// out\n        /* \"#utility.yul\":2641:3039   */\n    tag_44:\n        /* \"#utility.yul\":2800:2803   */\n      0x00\n        /* \"#utility.yul\":2821:2904   */\n      tag_73\n        /* \"#utility.yul\":2902:2903   */\n      0x00\n        /* \"#utility.yul\":2897:2900   */\n      dup4\n        /* \"#utility.yul\":2821:2904   */\n      tag_42\n      jump\t// in\n    tag_73:\n        /* \"#utility.yul\":2814:2904   */\n      swap2\n      pop\n        /* \"#utility.yul\":2913:3006   */\n      tag_74\n        /* \"#utility.yul\":3002:3005   */\n      dup3\n        /* \"#utility.yul\":2913:3006   */\n      tag_43\n      jump\t// in\n    tag_74:\n        /* \"#utility.yul\":3031:3032   */\n      0x00\n        /* \"#utility.yul\":3026:3029   */\n      dup3\n        /* \"#utility.yul\":3022:3033   */\n      add\n        /* \"#utility.yul\":3015:3033   */\n      swap1\n      pop\n        /* \"#utility.yul\":2641:3039   */\n      swap2\n      swap1\n      pop\n      jump\t// out\n        /* \"#utility.yul\":3045:3424   */\n    tag_25:\n        /* \"#utility.yul\":3229:3232   */\n      0x00\n        /* \"#utility.yul\":3251:3398   */\n      tag_76\n        /* \"#utility.yul\":3394:3397   */\n      dup3\n        /* \"#utility.yul\":3251:3398   */\n      tag_44\n      jump\t// in\n    tag_76:\n        /* \"#utility.yul\":3244:3398   */\n      swap2\n      pop\n        /* \"#utility.yul\":3415:3418   */\n      dup2\n        /* \"#utility.yul\":3408:3418   */\n      swap1\n      pop\n        /* \"#utility.yul\":3045:3424   */\n      swap2\n      swap1\n      pop\n      jump\t// out\n        /* \"#utility.yul\":3430:3594   */\n    tag_45:\n        /* \"#utility.yul\":3570:3586   */\n      0x63616c6c2073656e64206661696c000000000000000000000000000000000000\n        /* \"#utility.yul\":3566:3567   */\n      0x00\n        /* \"#utility.yul\":3558:3564   */\n      dup3\n        /* \"#utility.yul\":3554:3568   */\n      add\n        /* \"#utility.yul\":3547:3587   */\n      mstore\n        /* \"#utility.yul\":3430:3594   */\n      pop\n      jump\t// out\n        /* \"#utility.yul\":3600:3966   */\n    tag_46:\n        /* \"#utility.yul\":3742:3745   */\n      0x00\n        /* \"#utility.yul\":3763:3830   */\n      tag_79\n        /* \"#utility.yul\":3827:3829   */\n      0x0e\n        /* \"#utility.yul\":3822:3825   */\n      dup4\n        /* \"#utility.yul\":3763:3830   */\n      tag_39\n      jump\t// in\n    tag_79:\n        /* \"#utility.yul\":3756:3830   */\n      swap2\n      pop\n        /* \"#utility.yul\":3839:3932   */\n      tag_80\n        /* \"#utility.yul\":3928:3931   */\n      dup3\n        /* \"#utility.yul\":3839:3932   */\n      tag_45\n      jump\t// in\n    tag_80:\n        /* \"#utility.yul\":3957:3959   */\n      0x20\n        /* \"#utility.yul\":3952:3955   */\n      dup3\n        /* \"#utility.yul\":3948:3960   */\n      add\n        /* \"#utility.yul\":3941:3960   */\n      swap1\n      pop\n        /* \"#utility.yul\":3600:3966   */\n      swap2\n      swap1\n      pop\n      jump\t// out\n        /* \"#utility.yul\":3972:4391   */\n    tag_31:\n        /* \"#utility.yul\":4138:4142   */\n      0x00\n        /* \"#utility.yul\":4176:4178   */\n      0x20\n        /* \"#utility.yul\":4165:4174   */\n      dup3\n        /* \"#utility.yul\":4161:4179   */\n      add\n        /* \"#utility.yul\":4153:4179   */\n      swap1\n      pop\n        /* \"#utility.yul\":4225:4234   */\n      dup2\n        /* \"#utility.yul\":4219:4223   */\n      dup2\n        /* \"#utility.yul\":4215:4235   */\n      sub\n        /* \"#utility.yul\":4211:4212   */\n      0x00\n        /* \"#utility.yul\":4200:4209   */\n      dup4\n        /* \"#utility.yul\":4196:4213   */\n      add\n        /* \"#utility.yul\":4189:4236   */\n      mstore\n        /* \"#utility.yul\":4253:4384   */\n      tag_82\n        /* \"#utility.yul\":4379:4383   */\n      dup2\n        /* \"#utility.yul\":4253:4384   */\n      tag_46\n      jump\t// in\n    tag_82:\n        /* \"#utility.yul\":4245:4384   */\n      swap1\n      pop\n        /* \"#utility.yul\":3972:4391   */\n      swap2\n      swap1\n      pop\n      jump\t// out\n\n    auxdata: 0xa2646970667358221220653c8959e15b42511da00154dfb53ad5e2da557dd29841c3c2b3608640f2434664736f6c634300081e0033\n}\n",
				"bytecode": {
					"linkReferences": {},
					"object": "6080604052348015600e575f5ffd5b506103d98061001c5f395ff3fe608060405260043610610033575f3560e01c80631a695230146100375780633e58c58c14610053578063f55332ab1461006f575b5f5ffd5b610051600480360381019061004c9190610257565b61008b565b005b61006d60048036038101906100689190610257565b6100d2565b005b61008960048036038101906100849190610257565b61014d565b005b8073ffffffffffffffffffffffffffffffffffffffff166108fc3490811502906040515f60405180830381858888f193505050501580156100ce573d5f5f3e3d5ffd5b5050565b5f8173ffffffffffffffffffffffffffffffffffffffff166108fc3490811502906040515f60405180830381858888f19350505050905080610149576040517f08c379a0000000000000000000000000000000000000000000000000000000008152600401610140906102dc565b60405180910390fd5b5050565b5f8173ffffffffffffffffffffffffffffffffffffffff163460405161017290610327565b5f6040518083038185875af1925050503d805f81146101ac576040519150601f19603f3d011682016040523d82523d5f602084013e6101b1565b606091505b50509050806101f5576040517f08c379a00000000000000000000000000000000000000000000000000000000081526004016101ec90610385565b60405180910390fd5b5050565b5f5ffd5b5f73ffffffffffffffffffffffffffffffffffffffff82169050919050565b5f610226826101fd565b9050919050565b6102368161021c565b8114610240575f5ffd5b50565b5f813590506102518161022d565b92915050565b5f6020828403121561026c5761026b6101f9565b5b5f61027984828501610243565b91505092915050565b5f82825260208201905092915050565b7f73656e64206661696c00000000000000000000000000000000000000000000005f82015250565b5f6102c6600983610282565b91506102d182610292565b602082019050919050565b5f6020820190508181035f8301526102f3816102ba565b9050919050565b5f81905092915050565b50565b5f6103125f836102fa565b915061031d82610304565b5f82019050919050565b5f61033182610307565b9150819050919050565b7f63616c6c2073656e64206661696c0000000000000000000000000000000000005f82015250565b5f61036f600e83610282565b915061037a8261033b565b602082019050919050565b5f6020820190508181035f83015261039c81610363565b905091905056fea2646970667358221220653c8959e15b42511da00154dfb53ad5e2da557dd29841c3c2b3608640f2434664736f6c634300081e0033",
					"opcodes": "PUSH1 0x80 PUSH1 0x40 MSTORE CALLVALUE DUP1 ISZERO PUSH1 0xE JUMPI PUSH0 PUSH0 REVERT JUMPDEST POP PUSH2 0x3D9 DUP1 PUSH2 0x1C PUSH0 CODECOPY PUSH0 RETURN INVALID PUSH1 0x80 PUSH1 0x40 MSTORE PUSH1 0x4 CALLDATASIZE LT PUSH2 0x33 JUMPI PUSH0 CALLDATALOAD PUSH1 0xE0 SHR DUP1 PUSH4 0x1A695230 EQ PUSH2 0x37 JUMPI DUP1 PUSH4 0x3E58C58C EQ PUSH2 0x53 JUMPI DUP1 PUSH4 0xF55332AB EQ PUSH2 0x6F JUMPI JUMPDEST PUSH0 PUSH0 REVERT JUMPDEST PUSH2 0x51 PUSH1 0x4 DUP1 CALLDATASIZE SUB DUP2 ADD SWAP1 PUSH2 0x4C SWAP2 SWAP1 PUSH2 0x257 JUMP JUMPDEST PUSH2 0x8B JUMP JUMPDEST STOP JUMPDEST PUSH2 0x6D PUSH1 0x4 DUP1 CALLDATASIZE SUB DUP2 ADD SWAP1 PUSH2 0x68 SWAP2 SWAP1 PUSH2 0x257 JUMP JUMPDEST PUSH2 0xD2 JUMP JUMPDEST STOP JUMPDEST PUSH2 0x89 PUSH1 0x4 DUP1 CALLDATASIZE SUB DUP2 ADD SWAP1 PUSH2 0x84 SWAP2 SWAP1 PUSH2 0x257 JUMP JUMPDEST PUSH2 0x14D JUMP JUMPDEST STOP JUMPDEST DUP1 PUSH20 0xFFFFFFFFFFFFFFFFFFFFFFFFFFFFFFFFFFFFFFFF AND PUSH2 0x8FC CALLVALUE SWAP1 DUP2 ISZERO MUL SWAP1 PUSH1 0x40 MLOAD PUSH0 PUSH1 0x40 MLOAD DUP1 DUP4 SUB DUP2 DUP6 DUP9 DUP9 CALL SWAP4 POP POP POP POP ISZERO DUP1 ISZERO PUSH2 0xCE JUMPI RETURNDATASIZE PUSH0 PUSH0 RETURNDATACOPY RETURNDATASIZE PUSH0 REVERT JUMPDEST POP POP JUMP JUMPDEST PUSH0 DUP2 PUSH20 0xFFFFFFFFFFFFFFFFFFFFFFFFFFFFFFFFFFFFFFFF AND PUSH2 0x8FC CALLVALUE SWAP1 DUP2 ISZERO MUL SWAP1 PUSH1 0x40 MLOAD PUSH0 PUSH1 0x40 MLOAD DUP1 DUP4 SUB DUP2 DUP6 DUP9 DUP9 CALL SWAP4 POP POP POP POP SWAP1 POP DUP1 PUSH2 0x149 JUMPI PUSH1 0x40 MLOAD PUSH32 0x8C379A000000000000000000000000000000000000000000000000000000000 DUP2 MSTORE PUSH1 0x4 ADD PUSH2 0x140 SWAP1 PUSH2 0x2DC JUMP JUMPDEST PUSH1 0x40 MLOAD DUP1 SWAP2 SUB SWAP1 REVERT JUMPDEST POP POP JUMP JUMPDEST PUSH0 DUP2 PUSH20 0xFFFFFFFFFFFFFFFFFFFFFFFFFFFFFFFFFFFFFFFF AND CALLVALUE PUSH1 0x40 MLOAD PUSH2 0x172 SWAP1 PUSH2 0x327 JUMP JUMPDEST PUSH0 PUSH1 0x40 MLOAD DUP1 DUP4 SUB DUP2 DUP6 DUP8 GAS CALL SWAP3 POP POP POP RETURNDATASIZE DUP1 PUSH0 DUP2 EQ PUSH2 0x1AC JUMPI PUSH1 0x40 MLOAD SWAP2 POP PUSH1 0x1F NOT PUSH1 0x3F RETURNDATASIZE ADD AND DUP3 ADD PUSH1 0x40 MSTORE RETURNDATASIZE DUP3 MSTORE RETURNDATASIZE PUSH0 PUSH1 0x20 DUP5 ADD RETURNDATACOPY PUSH2 0x1B1 JUMP JUMPDEST PUSH1 0x60 SWAP2 POP JUMPDEST POP POP SWAP1 POP DUP1 PUSH2 0x1F5 JUMPI PUSH1 0x40 MLOAD PUSH32 0x8C379A000000000000000000000000000000000000000000000000000000000 DUP2 MSTORE PUSH1 0x4 ADD PUSH2 0x1EC SWAP1 PUSH2 0x385 JUMP JUMPDEST PUSH1 0x40 MLOAD DUP1 SWAP2 SUB SWAP1 REVERT JUMPDEST POP POP JUMP JUMPDEST PUSH0 PUSH0 REVERT JUMPDEST PUSH0 PUSH20 0xFFFFFFFFFFFFFFFFFFFFFFFFFFFFFFFFFFFFFFFF DUP3 AND SWAP1 POP SWAP2 SWAP1 POP JUMP JUMPDEST PUSH0 PUSH2 0x226 DUP3 PUSH2 0x1FD JUMP JUMPDEST SWAP1 POP SWAP2 SWAP1 POP JUMP JUMPDEST PUSH2 0x236 DUP2 PUSH2 0x21C JUMP JUMPDEST DUP2 EQ PUSH2 0x240 JUMPI PUSH0 PUSH0 REVERT JUMPDEST POP JUMP JUMPDEST PUSH0 DUP2 CALLDATALOAD SWAP1 POP PUSH2 0x251 DUP2 PUSH2 0x22D JUMP JUMPDEST SWAP3 SWAP2 POP POP JUMP JUMPDEST PUSH0 PUSH1 0x20 DUP3 DUP5 SUB SLT ISZERO PUSH2 0x26C JUMPI PUSH2 0x26B PUSH2 0x1F9 JUMP JUMPDEST JUMPDEST PUSH0 PUSH2 0x279 DUP5 DUP3 DUP6 ADD PUSH2 0x243 JUMP JUMPDEST SWAP2 POP POP SWAP3 SWAP2 POP POP JUMP JUMPDEST PUSH0 DUP3 DUP3 MSTORE PUSH1 0x20 DUP3 ADD SWAP1 POP SWAP3 SWAP2 POP POP JUMP JUMPDEST PUSH32 0x73656E64206661696C0000000000000000000000000000000000000000000000 PUSH0 DUP3 ADD MSTORE POP JUMP JUMPDEST PUSH0 PUSH2 0x2C6 PUSH1 0x9 DUP4 PUSH2 0x282 JUMP JUMPDEST SWAP2 POP PUSH2 0x2D1 DUP3 PUSH2 0x292 JUMP JUMPDEST PUSH1 0x20 DUP3 ADD SWAP1 POP SWAP2 SWAP1 POP JUMP JUMPDEST PUSH0 PUSH1 0x20 DUP3 ADD SWAP1 POP DUP2 DUP2 SUB PUSH0 DUP4 ADD MSTORE PUSH2 0x2F3 DUP2 PUSH2 0x2BA JUMP JUMPDEST SWAP1 POP SWAP2 SWAP1 POP JUMP JUMPDEST PUSH0 DUP2 SWAP1 POP SWAP3 SWAP2 POP POP JUMP JUMPDEST POP JUMP JUMPDEST PUSH0 PUSH2 0x312 PUSH0 DUP4 PUSH2 0x2FA JUMP JUMPDEST SWAP2 POP PUSH2 0x31D DUP3 PUSH2 0x304 JUMP JUMPDEST PUSH0 DUP3 ADD SWAP1 POP SWAP2 SWAP1 POP JUMP JUMPDEST PUSH0 PUSH2 0x331 DUP3 PUSH2 0x307 JUMP JUMPDEST SWAP2 POP DUP2 SWAP1 POP SWAP2 SWAP1 POP JUMP JUMPDEST PUSH32 0x63616C6C2073656E64206661696C000000000000000000000000000000000000 PUSH0 DUP3 ADD MSTORE POP JUMP JUMPDEST PUSH0 PUSH2 0x36F PUSH1 0xE DUP4 PUSH2 0x282 JUMP JUMPDEST SWAP2 POP PUSH2 0x37A DUP3 PUSH2 0x33B JUMP JUMPDEST PUSH1 0x20 DUP3 ADD SWAP1 POP SWAP2 SWAP1 POP JUMP JUMPDEST PUSH0 PUSH1 0x20 DUP3 ADD SWAP1 POP DUP2 DUP2 SUB PUSH0 DUP4 ADD MSTORE PUSH2 0x39C DUP2 PUSH2 0x363 JUMP JUMPDEST SWAP1 POP SWAP2 SWAP1 POP JUMP INVALID LOG2 PUSH5 0x6970667358 0x22 SLT KECCAK256 PUSH6 0x3C8959E15B42 MLOAD SAR LOG0 ADD SLOAD 0xDF 0xB5 GASPRICE 0xD5 0xE2 0xDA SSTORE PUSH30 0xD29841C3C2B3608640F2434664736F6C634300081E003300000000000000 "
				},
				"gasEstimates": {
					"creation": {
						"codeDepositCost": "197000",
						"executionCost": "236",
						"totalCost": "197236"
					},
					"external": {
						"call(address)": "infinite",
						"send(address)": "infinite",
						"transfer(address)": "infinite"
					}
				},
				"methodIdentifiers": {
					"call(address)": "f55332ab",
					"send(address)": "3e58c58c",
					"transfer(address)": "1a695230"
				}
			},
			"storageLayout": {
				"storage": [],
				"types": null
			},
			"userdoc": {
				"kind": "user",
				"methods": {},
				"version": 1
			}
		}
	}
}