{
	"ExampleCall.sol": {
		"Caller": {
			"abi": [
				{
					"inputs": [],
					"stateMutability": "nonpayable",
					"type": "constructor"
				},
				{
					"anonymous": false,
					"inputs": [
						{
							"indexed": false,
							"internalType": "bool",
							"name": "success",
							"type": "bool"
						},
						{
							"indexed": false,
							"internalType": "bytes",
							"name": "data",
							"type": "bytes"
						}
					],
					"name": "response",
					"type": "event"
				},
				{
					"inputs": [],
					"name": "getAddress",
					"outputs": [
						{
							"internalType": "address",
							"name": "",
							"type": "address"
						}
					],
					"stateMutability": "view",
					"type": "function"
				},
				{
					"inputs": [],
					"name": "getBalance",
					"outputs": [
						{
							"internalType": "uint256",
							"name": "",
							"type": "uint256"
						}
					],
					"stateMutability": "view",
					"type": "function"
				},
				{
					"inputs": [
						{
							"internalType": "address payable",
							"name": "_addr",
							"type": "address"
						}
					],
					"name": "testCall",
					"outputs": [],
					"stateMutability": "payable",
					"type": "function"
				},
				{
					"inputs": [
						{
							"internalType": "address payable",
							"name": "_addr",
							"type": "address"
						},
						{
							"internalType": "uint256",
							"name": "_y",
							"type": "uint256"
						}
					],
					"name": "testCallFoo",
					"outputs": [],
					"stateMutability": "payable",
					"type": "function"
				}
			],
			"devdoc": {
				"kind": "dev",
				"methods": {},
				"version": 1
			},
			"evm": {
				"assembly": "    /* \"ExampleCall.sol\":796:1678  contract Caller {... */\n  mstore(0x40, 0x80)\n    /* \"ExampleCall.sol\":842:898  constructor() {... */\n  callvalue\n  dup1\n  iszero\n  tag_1\n  jumpi\n  revert(0x00, 0x00)\ntag_1:\n  pop\n    /* \"ExampleCall.sol\":877:891  new Receiver() */\n  mload(0x40)\n  tag_4\n  swap1\n  tag_5\n  jump\t// in\ntag_4:\n  mload(0x40)\n  dup1\n  swap2\n  sub\n  swap1\n  0x00\n  create\n  dup1\n  iszero\n  dup1\n  iszero\n  tag_6\n  jumpi\n  returndatacopy(0x00, 0x00, returndatasize)\n  revert(0x00, returndatasize)\ntag_6:\n  pop\n    /* \"ExampleCall.sol\":866:874  receiver */\n  0x00\n  0x00\n    /* \"ExampleCall.sol\":866:891  receiver = new Receiver() */\n  0x0100\n  exp\n  dup2\n  sload\n  dup2\n  0xffffffffffffffffffffffffffffffffffffffff\n  mul\n  not\n  and\n  swap1\n  dup4\n  0xffffffffffffffffffffffffffffffffffffffff\n  and\n  mul\n  or\n  swap1\n  sstore\n  pop\n    /* \"ExampleCall.sol\":796:1678  contract Caller {... */\n  jump(tag_7)\ntag_5:\n  dataSize(sub_1)\n  dup1\n  dataOffset(sub_1)\n  dup4\n  codecopy\n  add\n  swap1\n  jump\t// out\ntag_7:\n  dataSize(sub_0)\n  dup1\n  dataOffset(sub_0)\n  0x00\n  codecopy\n  0x00\n  return\nstop\n\nsub_0: assembly {\n        /* \"ExampleCall.sol\":796:1678  contract Caller {... */\n      mstore(0x40, 0x80)\n      jumpi(tag_1, lt(calldatasize, 0x04))\n      shr(0xe0, calldataload(0x00))\n      dup1\n      0x12065fe0\n      eq\n      tag_2\n      jumpi\n      dup1\n      0x2799b47d\n      eq\n      tag_3\n      jumpi\n      dup1\n      0x38cc4831\n      eq\n      tag_4\n      jumpi\n      dup1\n      0x9fc78a19\n      eq\n      tag_5\n      jumpi\n    tag_1:\n      revert(0x00, 0x00)\n        /* \"ExampleCall.sol\":1547:1676  function getBalance() public view returns (uint256) {... */\n    tag_2:\n      callvalue\n      dup1\n      iszero\n      tag_6\n      jumpi\n      revert(0x00, 0x00)\n    tag_6:\n      pop\n      tag_7\n      tag_8\n      jump\t// in\n    tag_7:\n      mload(0x40)\n      tag_9\n      swap2\n      swap1\n      tag_10\n      jump\t// in\n    tag_9:\n      mload(0x40)\n      dup1\n      swap2\n      sub\n      swap1\n      return\n        /* \"ExampleCall.sol\":1139:1402  function testCallFoo(address payable _addr,uint _y) public payable {... */\n    tag_3:\n      tag_11\n      0x04\n      dup1\n      calldatasize\n      sub\n      dup2\n      add\n      swap1\n      tag_12\n      swap2\n      swap1\n      tag_13\n      jump\t// in\n    tag_12:\n      tag_14\n      jump\t// in\n    tag_11:\n      stop\n        /* \"ExampleCall.sol\":1442:1541  function getAddress() external view returns (address) {... */\n    tag_4:\n      callvalue\n      dup1\n      iszero\n      tag_15\n      jumpi\n      revert(0x00, 0x00)\n    tag_15:\n      pop\n      tag_16\n      tag_17\n      jump\t// in\n    tag_16:\n      mload(0x40)\n      tag_18\n      swap2\n      swap1\n      tag_19\n      jump\t// in\n    tag_18:\n      mload(0x40)\n      dup1\n      swap2\n      sub\n      swap1\n      return\n        /* \"ExampleCall.sol\":951:1133  function testCall(address payable _addr) public payable {... */\n    tag_5:\n      tag_20\n      0x04\n      dup1\n      calldatasize\n      sub\n      dup2\n      add\n      swap1\n      tag_21\n      swap2\n      swap1\n      tag_22\n      jump\t// in\n    tag_21:\n      tag_23\n      jump\t// in\n    tag_20:\n      stop\n        /* \"ExampleCall.sol\":1547:1676  function getBalance() public view returns (uint256) {... */\n    tag_8:\n        /* \"ExampleCall.sol\":1590:1597  uint256 */\n      0x00\n        /* \"ExampleCall.sol\":1648:1656  receiver */\n      0x00\n      0x00\n      swap1\n      sload\n      swap1\n      0x0100\n      exp\n      swap1\n      div\n      0xffffffffffffffffffffffffffffffffffffffff\n      and\n        /* \"ExampleCall.sol\":1648:1667  receiver.getBalance */\n      0xffffffffffffffffffffffffffffffffffffffff\n      and\n      0x12065fe0\n        /* \"ExampleCall.sol\":1648:1669  receiver.getBalance() */\n      mload(0x40)\n      dup2\n      0xffffffff\n      and\n      0xe0\n      shl\n      dup2\n      mstore\n      0x04\n      add\n      0x20\n      mload(0x40)\n      dup1\n      dup4\n      sub\n      dup2\n      dup7\n      gas\n      staticcall\n      iszero\n      dup1\n      iszero\n      tag_26\n      jumpi\n      returndatacopy(0x00, 0x00, returndatasize)\n      revert(0x00, returndatasize)\n    tag_26:\n      pop\n      pop\n      pop\n      pop\n      mload(0x40)\n      returndatasize\n      not(0x1f)\n      0x1f\n      dup3\n      add\n      and\n      dup3\n      add\n      dup1\n      0x40\n      mstore\n      pop\n      dup2\n      add\n      swap1\n      tag_27\n      swap2\n      swap1\n      tag_28\n      jump\t// in\n    tag_27:\n        /* \"ExampleCall.sol\":1641:1669  return receiver.getBalance() */\n      swap1\n      pop\n        /* \"ExampleCall.sol\":1547:1676  function getBalance() public view returns (uint256) {... */\n      swap1\n      jump\t// out\n        /* \"ExampleCall.sol\":1139:1402  function testCallFoo(address payable _addr,uint _y) public payable {... */\n    tag_14:\n        /* \"ExampleCall.sol\":1217:1229  bool hasSend */\n      0x00\n        /* \"ExampleCall.sol\":1231:1248  bytes memory data */\n      0x00\n        /* \"ExampleCall.sol\":1252:1257  _addr */\n      dup4\n        /* \"ExampleCall.sol\":1252:1262  _addr.call */\n      0xffffffffffffffffffffffffffffffffffffffff\n      and\n        /* \"ExampleCall.sol\":1270:1279  msg.value */\n      callvalue\n        /* \"ExampleCall.sol\":1352:1354  _y */\n      dup5\n        /* \"ExampleCall.sol\":1294:1355  abi.encodeWithSignature(\"foo(string,uint256)\", \"call foo\",_y) */\n      add(0x24, mload(0x40))\n      tag_30\n      swap2\n      swap1\n      tag_31\n      jump\t// in\n    tag_30:\n      mload(0x40)\n      0x20\n      dup2\n      dup4\n      sub\n      sub\n      dup2\n      mstore\n      swap1\n      0x40\n      mstore\n      and(not(0xffffffffffffffffffffffffffffffffffffffffffffffffffffffff), 0x24ccab8f00000000000000000000000000000000000000000000000000000000)\n      0x20\n      dup3\n      add\n      dup1\n      mload\n      0xffffffffffffffffffffffffffffffffffffffffffffffffffffffff\n      dup4\n      dup2\n      dup4\n      and\n      or\n      dup4\n      mstore\n      pop\n      pop\n      pop\n      pop\n        /* \"ExampleCall.sol\":1252:1356  _addr.call{value: msg.value}(... */\n      mload(0x40)\n      tag_32\n      swap2\n      swap1\n      tag_33\n      jump\t// in\n    tag_32:\n      0x00\n      mload(0x40)\n      dup1\n      dup4\n      sub\n      dup2\n      dup6\n      dup8\n      gas\n      call\n      swap3\n      pop\n      pop\n      pop\n      returndatasize\n      dup1\n      0x00\n      dup2\n      eq\n      tag_36\n      jumpi\n      mload(0x40)\n      swap2\n      pop\n      and(add(returndatasize, 0x3f), not(0x1f))\n      dup3\n      add\n      0x40\n      mstore\n      returndatasize\n      dup3\n      mstore\n      returndatasize\n      0x00\n      0x20\n      dup5\n      add\n      returndatacopy\n      jump(tag_35)\n    tag_36:\n      0x60\n      swap2\n      pop\n    tag_35:\n      pop\n        /* \"ExampleCall.sol\":1216:1356  (bool hasSend, bytes memory data) = _addr.call{value: msg.value}(... */\n      swap2\n      pop\n      swap2\n      pop\n        /* \"ExampleCall.sol\":1372:1395  response(hasSend, data) */\n      0x63180fd95ddebb9c3c86fc19b9d99b20fcfc6dae8653a0d87538132947191270\n        /* \"ExampleCall.sol\":1381:1388  hasSend */\n      dup3\n        /* \"ExampleCall.sol\":1390:1394  data */\n      dup3\n        /* \"ExampleCall.sol\":1372:1395  response(hasSend, data) */\n      mload(0x40)\n      tag_37\n      swap3\n      swap2\n      swap1\n      tag_38\n      jump\t// in\n    tag_37:\n      mload(0x40)\n      dup1\n      swap2\n      sub\n      swap1\n      log1\n        /* \"ExampleCall.sol\":1206:1402  {... */\n      pop\n      pop\n        /* \"ExampleCall.sol\":1139:1402  function testCallFoo(address payable _addr,uint _y) public payable {... */\n      pop\n      pop\n      jump\t// out\n        /* \"ExampleCall.sol\":1442:1541  function getAddress() external view returns (address) {... */\n    tag_17:\n        /* \"ExampleCall.sol\":1487:1494  address */\n      0x00\n        /* \"ExampleCall.sol\":1513:1521  receiver */\n      0x00\n      0x00\n      swap1\n      sload\n      swap1\n      0x0100\n      exp\n      swap1\n      div\n      0xffffffffffffffffffffffffffffffffffffffff\n      and\n        /* \"ExampleCall.sol\":1513:1532  receiver.getAddress */\n      0xffffffffffffffffffffffffffffffffffffffff\n      and\n      0x38cc4831\n        /* \"ExampleCall.sol\":1513:1534  receiver.getAddress() */\n      mload(0x40)\n      dup2\n      0xffffffff\n      and\n      0xe0\n      shl\n      dup2\n      mstore\n      0x04\n      add\n      0x20\n      mload(0x40)\n      dup1\n      dup4\n      sub\n      dup2\n      dup7\n      gas\n      staticcall\n      iszero\n      dup1\n      iszero\n      tag_41\n      jumpi\n      returndatacopy(0x00, 0x00, returndatasize)\n      revert(0x00, returndatasize)\n    tag_41:\n      pop\n      pop\n      pop\n      pop\n      mload(0x40)\n      returndatasize\n      not(0x1f)\n      0x1f\n      dup3\n      add\n      and\n      dup3\n      add\n      dup1\n      0x40\n      mstore\n      pop\n      dup2\n      add\n      swap1\n      tag_42\n      swap2\n      swap1\n      tag_43\n      jump\t// in\n    tag_42:\n        /* \"ExampleCall.sol\":1506:1534  return receiver.getAddress() */\n      swap1\n      pop\n        /* \"ExampleCall.sol\":1442:1541  function getAddress() external view returns (address) {... */\n      swap1\n      jump\t// out\n        /* \"ExampleCall.sol\":951:1133  function testCall(address payable _addr) public payable {... */\n    tag_23:\n        /* \"ExampleCall.sol\":1018:1030  bool hasSend */\n      0x00\n        /* \"ExampleCall.sol\":1032:1049  bytes memory data */\n      0x00\n        /* \"ExampleCall.sol\":1053:1058  _addr */\n      dup3\n        /* \"ExampleCall.sol\":1053:1063  _addr.call */\n      0xffffffffffffffffffffffffffffffffffffffff\n      and\n        /* \"ExampleCall.sol\":1071:1080  msg.value */\n      callvalue\n        /* \"ExampleCall.sol\":1053:1088  _addr.call{value: msg.value}(\"xyz\") */\n      mload(0x40)\n      tag_45\n      swap1\n      tag_46\n      jump\t// in\n    tag_45:\n      0x00\n      mload(0x40)\n      dup1\n      dup4\n      sub\n      dup2\n      dup6\n      dup8\n      gas\n      call\n      swap3\n      pop\n      pop\n      pop\n      returndatasize\n      dup1\n      0x00\n      dup2\n      eq\n      tag_49\n      jumpi\n      mload(0x40)\n      swap2\n      pop\n      and(add(returndatasize, 0x3f), not(0x1f))\n      dup3\n      add\n      0x40\n      mstore\n      returndatasize\n      dup3\n      mstore\n      returndatasize\n      0x00\n      0x20\n      dup5\n      add\n      returndatacopy\n      jump(tag_48)\n    tag_49:\n      0x60\n      swap2\n      pop\n    tag_48:\n      pop\n        /* \"ExampleCall.sol\":1017:1088  (bool hasSend, bytes memory data) = _addr.call{value: msg.value}(\"xyz\") */\n      swap2\n      pop\n      swap2\n      pop\n        /* \"ExampleCall.sol\":1103:1126  response(hasSend, data) */\n      0x63180fd95ddebb9c3c86fc19b9d99b20fcfc6dae8653a0d87538132947191270\n        /* \"ExampleCall.sol\":1112:1119  hasSend */\n      dup3\n        /* \"ExampleCall.sol\":1121:1125  data */\n      dup3\n        /* \"ExampleCall.sol\":1103:1126  response(hasSend, data) */\n      mload(0x40)\n      tag_50\n      swap3\n      swap2\n      swap1\n      tag_38\n      jump\t// in\n    tag_50:\n      mload(0x40)\n      dup1\n      swap2\n      sub\n      swap1\n      log1\n        /* \"ExampleCall.sol\":1007:1133  {... */\n      pop\n      pop\n        /* \"ExampleCall.sol\":951:1133  function testCall(address payable _addr) public payable {... */\n      pop\n      jump\t// out\n        /* \"#utility.yul\":7:84   */\n    tag_51:\n        /* \"#utility.yul\":44:51   */\n      0x00\n        /* \"#utility.yul\":73:78   */\n      dup2\n        /* \"#utility.yul\":62:78   */\n      swap1\n      pop\n        /* \"#utility.yul\":7:84   */\n      swap2\n      swap1\n      pop\n      jump\t// out\n        /* \"#utility.yul\":90:208   */\n    tag_52:\n        /* \"#utility.yul\":177:201   */\n      tag_84\n        /* \"#utility.yul\":195:200   */\n      dup2\n        /* \"#utility.yul\":177:201   */\n      tag_51\n      jump\t// in\n    tag_84:\n        /* \"#utility.yul\":172:175   */\n      dup3\n        /* \"#utility.yul\":165:202   */\n      mstore\n        /* \"#utility.yul\":90:208   */\n      pop\n      pop\n      jump\t// out\n        /* \"#utility.yul\":214:436   */\n    tag_10:\n        /* \"#utility.yul\":307:311   */\n      0x00\n        /* \"#utility.yul\":345:347   */\n      0x20\n        /* \"#utility.yul\":334:343   */\n      dup3\n        /* \"#utility.yul\":330:348   */\n      add\n        /* \"#utility.yul\":322:348   */\n      swap1\n      pop\n        /* \"#utility.yul\":358:429   */\n      tag_86\n        /* \"#utility.yul\":426:427   */\n      0x00\n        /* \"#utility.yul\":415:424   */\n      dup4\n        /* \"#utility.yul\":411:428   */\n      add\n        /* \"#utility.yul\":402:408   */\n      dup5\n        /* \"#utility.yul\":358:429   */\n      tag_52\n      jump\t// in\n    tag_86:\n        /* \"#utility.yul\":214:436   */\n      swap3\n      swap2\n      pop\n      pop\n      jump\t// out\n        /* \"#utility.yul\":523:640   */\n    tag_54:\n        /* \"#utility.yul\":632:633   */\n      0x00\n        /* \"#utility.yul\":629:630   */\n      0x00\n        /* \"#utility.yul\":622:634   */\n      revert\n        /* \"#utility.yul\":769:895   */\n    tag_56:\n        /* \"#utility.yul\":806:813   */\n      0x00\n        /* \"#utility.yul\":846:888   */\n      0xffffffffffffffffffffffffffffffffffffffff\n        /* \"#utility.yul\":839:844   */\n      dup3\n        /* \"#utility.yul\":835:889   */\n      and\n        /* \"#utility.yul\":824:889   */\n      swap1\n      pop\n        /* \"#utility.yul\":769:895   */\n      swap2\n      swap1\n      pop\n      jump\t// out\n        /* \"#utility.yul\":901:1005   */\n    tag_57:\n        /* \"#utility.yul\":946:953   */\n      0x00\n        /* \"#utility.yul\":975:999   */\n      tag_92\n        /* \"#utility.yul\":993:998   */\n      dup3\n        /* \"#utility.yul\":975:999   */\n      tag_56\n      jump\t// in\n    tag_92:\n        /* \"#utility.yul\":964:999   */\n      swap1\n      pop\n        /* \"#utility.yul\":901:1005   */\n      swap2\n      swap1\n      pop\n      jump\t// out\n        /* \"#utility.yul\":1011:1149   */\n    tag_58:\n        /* \"#utility.yul\":1092:1124   */\n      tag_94\n        /* \"#utility.yul\":1118:1123   */\n      dup2\n        /* \"#utility.yul\":1092:1124   */\n      tag_57\n      jump\t// in\n    tag_94:\n        /* \"#utility.yul\":1085:1090   */\n      dup2\n        /* \"#utility.yul\":1082:1125   */\n      eq\n        /* \"#utility.yul\":1072:1143   */\n      tag_95\n      jumpi\n        /* \"#utility.yul\":1139:1140   */\n      0x00\n        /* \"#utility.yul\":1136:1137   */\n      0x00\n        /* \"#utility.yul\":1129:1141   */\n      revert\n        /* \"#utility.yul\":1072:1143   */\n    tag_95:\n        /* \"#utility.yul\":1011:1149   */\n      pop\n      jump\t// out\n        /* \"#utility.yul\":1155:1310   */\n    tag_59:\n        /* \"#utility.yul\":1209:1214   */\n      0x00\n        /* \"#utility.yul\":1247:1253   */\n      dup2\n        /* \"#utility.yul\":1234:1254   */\n      calldataload\n        /* \"#utility.yul\":1225:1254   */\n      swap1\n      pop\n        /* \"#utility.yul\":1263:1304   */\n      tag_97\n        /* \"#utility.yul\":1298:1303   */\n      dup2\n        /* \"#utility.yul\":1263:1304   */\n      tag_58\n      jump\t// in\n    tag_97:\n        /* \"#utility.yul\":1155:1310   */\n      swap3\n      swap2\n      pop\n      pop\n      jump\t// out\n        /* \"#utility.yul\":1316:1438   */\n    tag_60:\n        /* \"#utility.yul\":1389:1413   */\n      tag_99\n        /* \"#utility.yul\":1407:1412   */\n      dup2\n        /* \"#utility.yul\":1389:1413   */\n      tag_51\n      jump\t// in\n    tag_99:\n        /* \"#utility.yul\":1382:1387   */\n      dup2\n        /* \"#utility.yul\":1379:1414   */\n      eq\n        /* \"#utility.yul\":1369:1432   */\n      tag_100\n      jumpi\n        /* \"#utility.yul\":1428:1429   */\n      0x00\n        /* \"#utility.yul\":1425:1426   */\n      0x00\n        /* \"#utility.yul\":1418:1430   */\n      revert\n        /* \"#utility.yul\":1369:1432   */\n    tag_100:\n        /* \"#utility.yul\":1316:1438   */\n      pop\n      jump\t// out\n        /* \"#utility.yul\":1444:1583   */\n    tag_61:\n        /* \"#utility.yul\":1490:1495   */\n      0x00\n        /* \"#utility.yul\":1528:1534   */\n      dup2\n        /* \"#utility.yul\":1515:1535   */\n      calldataload\n        /* \"#utility.yul\":1506:1535   */\n      swap1\n      pop\n        /* \"#utility.yul\":1544:1577   */\n      tag_102\n        /* \"#utility.yul\":1571:1576   */\n      dup2\n        /* \"#utility.yul\":1544:1577   */\n      tag_60\n      jump\t// in\n    tag_102:\n        /* \"#utility.yul\":1444:1583   */\n      swap3\n      swap2\n      pop\n      pop\n      jump\t// out\n        /* \"#utility.yul\":1589:2079   */\n    tag_13:\n        /* \"#utility.yul\":1665:1671   */\n      0x00\n        /* \"#utility.yul\":1673:1679   */\n      0x00\n        /* \"#utility.yul\":1722:1724   */\n      0x40\n        /* \"#utility.yul\":1710:1719   */\n      dup4\n        /* \"#utility.yul\":1701:1708   */\n      dup6\n        /* \"#utility.yul\":1697:1720   */\n      sub\n        /* \"#utility.yul\":1693:1725   */\n      slt\n        /* \"#utility.yul\":1690:1809   */\n      iszero\n      tag_104\n      jumpi\n        /* \"#utility.yul\":1728:1807   */\n      tag_105\n      tag_54\n      jump\t// in\n    tag_105:\n        /* \"#utility.yul\":1690:1809   */\n    tag_104:\n        /* \"#utility.yul\":1848:1849   */\n      0x00\n        /* \"#utility.yul\":1873:1934   */\n      tag_106\n        /* \"#utility.yul\":1926:1933   */\n      dup6\n        /* \"#utility.yul\":1917:1923   */\n      dup3\n        /* \"#utility.yul\":1906:1915   */\n      dup7\n        /* \"#utility.yul\":1902:1924   */\n      add\n        /* \"#utility.yul\":1873:1934   */\n      tag_59\n      jump\t// in\n    tag_106:\n        /* \"#utility.yul\":1863:1934   */\n      swap3\n      pop\n        /* \"#utility.yul\":1819:1944   */\n      pop\n        /* \"#utility.yul\":1983:1985   */\n      0x20\n        /* \"#utility.yul\":2009:2062   */\n      tag_107\n        /* \"#utility.yul\":2054:2061   */\n      dup6\n        /* \"#utility.yul\":2045:2051   */\n      dup3\n        /* \"#utility.yul\":2034:2043   */\n      dup7\n        /* \"#utility.yul\":2030:2052   */\n      add\n        /* \"#utility.yul\":2009:2062   */\n      tag_61\n      jump\t// in\n    tag_107:\n        /* \"#utility.yul\":1999:2062   */\n      swap2\n      pop\n        /* \"#utility.yul\":1954:2072   */\n      pop\n        /* \"#utility.yul\":1589:2079   */\n      swap3\n      pop\n      swap3\n      swap1\n      pop\n      jump\t// out\n        /* \"#utility.yul\":2085:2181   */\n    tag_62:\n        /* \"#utility.yul\":2122:2129   */\n      0x00\n        /* \"#utility.yul\":2151:2175   */\n      tag_109\n        /* \"#utility.yul\":2169:2174   */\n      dup3\n        /* \"#utility.yul\":2151:2175   */\n      tag_56\n      jump\t// in\n    tag_109:\n        /* \"#utility.yul\":2140:2175   */\n      swap1\n      pop\n        /* \"#utility.yul\":2085:2181   */\n      swap2\n      swap1\n      pop\n      jump\t// out\n        /* \"#utility.yul\":2187:2305   */\n    tag_63:\n        /* \"#utility.yul\":2274:2298   */\n      tag_111\n        /* \"#utility.yul\":2292:2297   */\n      dup2\n        /* \"#utility.yul\":2274:2298   */\n      tag_62\n      jump\t// in\n    tag_111:\n        /* \"#utility.yul\":2269:2272   */\n      dup3\n        /* \"#utility.yul\":2262:2299   */\n      mstore\n        /* \"#utility.yul\":2187:2305   */\n      pop\n      pop\n      jump\t// out\n        /* \"#utility.yul\":2311:2533   */\n    tag_19:\n        /* \"#utility.yul\":2404:2408   */\n      0x00\n        /* \"#utility.yul\":2442:2444   */\n      0x20\n        /* \"#utility.yul\":2431:2440   */\n      dup3\n        /* \"#utility.yul\":2427:2445   */\n      add\n        /* \"#utility.yul\":2419:2445   */\n      swap1\n      pop\n        /* \"#utility.yul\":2455:2526   */\n      tag_113\n        /* \"#utility.yul\":2523:2524   */\n      0x00\n        /* \"#utility.yul\":2512:2521   */\n      dup4\n        /* \"#utility.yul\":2508:2525   */\n      add\n        /* \"#utility.yul\":2499:2505   */\n      dup5\n        /* \"#utility.yul\":2455:2526   */\n      tag_63\n      jump\t// in\n    tag_113:\n        /* \"#utility.yul\":2311:2533   */\n      swap3\n      swap2\n      pop\n      pop\n      jump\t// out\n        /* \"#utility.yul\":2539:2884   */\n    tag_22:\n        /* \"#utility.yul\":2606:2612   */\n      0x00\n        /* \"#utility.yul\":2655:2657   */\n      0x20\n        /* \"#utility.yul\":2643:2652   */\n      dup3\n        /* \"#utility.yul\":2634:2641   */\n      dup5\n        /* \"#utility.yul\":2630:2653   */\n      sub\n        /* \"#utility.yul\":2626:2658   */\n      slt\n        /* \"#utility.yul\":2623:2742   */\n      iszero\n      tag_115\n      jumpi\n        /* \"#utility.yul\":2661:2740   */\n      tag_116\n      tag_54\n      jump\t// in\n    tag_116:\n        /* \"#utility.yul\":2623:2742   */\n    tag_115:\n        /* \"#utility.yul\":2781:2782   */\n      0x00\n        /* \"#utility.yul\":2806:2867   */\n      tag_117\n        /* \"#utility.yul\":2859:2866   */\n      dup5\n        /* \"#utility.yul\":2850:2856   */\n      dup3\n        /* \"#utility.yul\":2839:2848   */\n      dup6\n        /* \"#utility.yul\":2835:2857   */\n      add\n        /* \"#utility.yul\":2806:2867   */\n      tag_59\n      jump\t// in\n    tag_117:\n        /* \"#utility.yul\":2796:2867   */\n      swap2\n      pop\n        /* \"#utility.yul\":2752:2877   */\n      pop\n        /* \"#utility.yul\":2539:2884   */\n      swap3\n      swap2\n      pop\n      pop\n      jump\t// out\n        /* \"#utility.yul\":2890:3033   */\n    tag_64:\n        /* \"#utility.yul\":2947:2952   */\n      0x00\n        /* \"#utility.yul\":2978:2984   */\n      dup2\n        /* \"#utility.yul\":2972:2985   */\n      mload\n        /* \"#utility.yul\":2963:2985   */\n      swap1\n      pop\n        /* \"#utility.yul\":2994:3027   */\n      tag_119\n        /* \"#utility.yul\":3021:3026   */\n      dup2\n        /* \"#utility.yul\":2994:3027   */\n      tag_60\n      jump\t// in\n    tag_119:\n        /* \"#utility.yul\":2890:3033   */\n      swap3\n      swap2\n      pop\n      pop\n      jump\t// out\n        /* \"#utility.yul\":3039:3390   */\n    tag_28:\n        /* \"#utility.yul\":3109:3115   */\n      0x00\n        /* \"#utility.yul\":3158:3160   */\n      0x20\n        /* \"#utility.yul\":3146:3155   */\n      dup3\n        /* \"#utility.yul\":3137:3144   */\n      dup5\n        /* \"#utility.yul\":3133:3156   */\n      sub\n        /* \"#utility.yul\":3129:3161   */\n      slt\n        /* \"#utility.yul\":3126:3245   */\n      iszero\n      tag_121\n      jumpi\n        /* \"#utility.yul\":3164:3243   */\n      tag_122\n      tag_54\n      jump\t// in\n    tag_122:\n        /* \"#utility.yul\":3126:3245   */\n    tag_121:\n        /* \"#utility.yul\":3284:3285   */\n      0x00\n        /* \"#utility.yul\":3309:3373   */\n      tag_123\n        /* \"#utility.yul\":3365:3372   */\n      dup5\n        /* \"#utility.yul\":3356:3362   */\n      dup3\n        /* \"#utility.yul\":3345:3354   */\n      dup6\n        /* \"#utility.yul\":3341:3363   */\n      add\n        /* \"#utility.yul\":3309:3373   */\n      tag_64\n      jump\t// in\n    tag_123:\n        /* \"#utility.yul\":3299:3373   */\n      swap2\n      pop\n        /* \"#utility.yul\":3255:3383   */\n      pop\n        /* \"#utility.yul\":3039:3390   */\n      swap3\n      swap2\n      pop\n      pop\n      jump\t// out\n        /* \"#utility.yul\":3396:3565   */\n    tag_65:\n        /* \"#utility.yul\":3480:3491   */\n      0x00\n        /* \"#utility.yul\":3514:3520   */\n      dup3\n        /* \"#utility.yul\":3509:3512   */\n      dup3\n        /* \"#utility.yul\":3502:3521   */\n      mstore\n        /* \"#utility.yul\":3554:3558   */\n      0x20\n        /* \"#utility.yul\":3549:3552   */\n      dup3\n        /* \"#utility.yul\":3545:3559   */\n      add\n        /* \"#utility.yul\":3530:3559   */\n      swap1\n      pop\n        /* \"#utility.yul\":3396:3565   */\n      swap3\n      swap2\n      pop\n      pop\n      jump\t// out\n        /* \"#utility.yul\":3571:3729   */\n    tag_66:\n        /* \"#utility.yul\":3711:3721   */\n      0x63616c6c20666f6f000000000000000000000000000000000000000000000000\n        /* \"#utility.yul\":3707:3708   */\n      0x00\n        /* \"#utility.yul\":3699:3705   */\n      dup3\n        /* \"#utility.yul\":3695:3709   */\n      add\n        /* \"#utility.yul\":3688:3722   */\n      mstore\n        /* \"#utility.yul\":3571:3729   */\n      pop\n      jump\t// out\n        /* \"#utility.yul\":3735:4100   */\n    tag_67:\n        /* \"#utility.yul\":3877:3880   */\n      0x00\n        /* \"#utility.yul\":3898:3964   */\n      tag_127\n        /* \"#utility.yul\":3962:3963   */\n      0x08\n        /* \"#utility.yul\":3957:3960   */\n      dup4\n        /* \"#utility.yul\":3898:3964   */\n      tag_65\n      jump\t// in\n    tag_127:\n        /* \"#utility.yul\":3891:3964   */\n      swap2\n      pop\n        /* \"#utility.yul\":3973:4066   */\n      tag_128\n        /* \"#utility.yul\":4062:4065   */\n      dup3\n        /* \"#utility.yul\":3973:4066   */\n      tag_66\n      jump\t// in\n    tag_128:\n        /* \"#utility.yul\":4091:4093   */\n      0x20\n        /* \"#utility.yul\":4086:4089   */\n      dup3\n        /* \"#utility.yul\":4082:4094   */\n      add\n        /* \"#utility.yul\":4075:4094   */\n      swap1\n      pop\n        /* \"#utility.yul\":3735:4100   */\n      swap2\n      swap1\n      pop\n      jump\t// out\n        /* \"#utility.yul\":4106:4635   */\n    tag_31:\n        /* \"#utility.yul\":4300:4304   */\n      0x00\n        /* \"#utility.yul\":4338:4340   */\n      0x40\n        /* \"#utility.yul\":4327:4336   */\n      dup3\n        /* \"#utility.yul\":4323:4341   */\n      add\n        /* \"#utility.yul\":4315:4341   */\n      swap1\n      pop\n        /* \"#utility.yul\":4387:4396   */\n      dup2\n        /* \"#utility.yul\":4381:4385   */\n      dup2\n        /* \"#utility.yul\":4377:4397   */\n      sub\n        /* \"#utility.yul\":4373:4374   */\n      0x00\n        /* \"#utility.yul\":4362:4371   */\n      dup4\n        /* \"#utility.yul\":4358:4375   */\n      add\n        /* \"#utility.yul\":4351:4398   */\n      mstore\n        /* \"#utility.yul\":4415:4546   */\n      tag_130\n        /* \"#utility.yul\":4541:4545   */\n      dup2\n        /* \"#utility.yul\":4415:4546   */\n      tag_67\n      jump\t// in\n    tag_130:\n        /* \"#utility.yul\":4407:4546   */\n      swap1\n      pop\n        /* \"#utility.yul\":4556:4628   */\n      tag_131\n        /* \"#utility.yul\":4624:4626   */\n      0x20\n        /* \"#utility.yul\":4613:4622   */\n      dup4\n        /* \"#utility.yul\":4609:4627   */\n      add\n        /* \"#utility.yul\":4600:4606   */\n      dup5\n        /* \"#utility.yul\":4556:4628   */\n      tag_52\n      jump\t// in\n    tag_131:\n        /* \"#utility.yul\":4106:4635   */\n      swap3\n      swap2\n      pop\n      pop\n      jump\t// out\n        /* \"#utility.yul\":4641:4739   */\n    tag_68:\n        /* \"#utility.yul\":4692:4698   */\n      0x00\n        /* \"#utility.yul\":4726:4731   */\n      dup2\n        /* \"#utility.yul\":4720:4732   */\n      mload\n        /* \"#utility.yul\":4710:4732   */\n      swap1\n      pop\n        /* \"#utility.yul\":4641:4739   */\n      swap2\n      swap1\n      pop\n      jump\t// out\n        /* \"#utility.yul\":4745:4892   */\n    tag_69:\n        /* \"#utility.yul\":4846:4857   */\n      0x00\n        /* \"#utility.yul\":4883:4886   */\n      dup2\n        /* \"#utility.yul\":4868:4886   */\n      swap1\n      pop\n        /* \"#utility.yul\":4745:4892   */\n      swap3\n      swap2\n      pop\n      pop\n      jump\t// out\n        /* \"#utility.yul\":4898:5037   */\n    tag_70:\n        /* \"#utility.yul\":4987:4993   */\n      dup3\n        /* \"#utility.yul\":4982:4985   */\n      dup2\n        /* \"#utility.yul\":4977:4980   */\n      dup4\n        /* \"#utility.yul\":4971:4994   */\n      mcopy\n        /* \"#utility.yul\":5028:5029   */\n      0x00\n        /* \"#utility.yul\":5019:5025   */\n      dup4\n        /* \"#utility.yul\":5014:5017   */\n      dup4\n        /* \"#utility.yul\":5010:5026   */\n      add\n        /* \"#utility.yul\":5003:5030   */\n      mstore\n        /* \"#utility.yul\":4898:5037   */\n      pop\n      pop\n      pop\n      jump\t// out\n        /* \"#utility.yul\":5043:5429   */\n    tag_71:\n        /* \"#utility.yul\":5147:5150   */\n      0x00\n        /* \"#utility.yul\":5175:5213   */\n      tag_136\n        /* \"#utility.yul\":5207:5212   */\n      dup3\n        /* \"#utility.yul\":5175:5213   */\n      tag_68\n      jump\t// in\n    tag_136:\n        /* \"#utility.yul\":5229:5317   */\n      tag_137\n        /* \"#utility.yul\":5310:5316   */\n      dup2\n        /* \"#utility.yul\":5305:5308   */\n      dup6\n        /* \"#utility.yul\":5229:5317   */\n      tag_69\n      jump\t// in\n    tag_137:\n        /* \"#utility.yul\":5222:5317   */\n      swap4\n      pop\n        /* \"#utility.yul\":5326:5391   */\n      tag_138\n        /* \"#utility.yul\":5384:5390   */\n      dup2\n        /* \"#utility.yul\":5379:5382   */\n      dup6\n        /* \"#utility.yul\":5372:5376   */\n      0x20\n        /* \"#utility.yul\":5365:5370   */\n      dup7\n        /* \"#utility.yul\":5361:5377   */\n      add\n        /* \"#utility.yul\":5326:5391   */\n      tag_70\n      jump\t// in\n    tag_138:\n        /* \"#utility.yul\":5416:5422   */\n      dup1\n        /* \"#utility.yul\":5411:5414   */\n      dup5\n        /* \"#utility.yul\":5407:5423   */\n      add\n        /* \"#utility.yul\":5400:5423   */\n      swap2\n      pop\n        /* \"#utility.yul\":5151:5429   */\n      pop\n        /* \"#utility.yul\":5043:5429   */\n      swap3\n      swap2\n      pop\n      pop\n      jump\t// out\n        /* \"#utility.yul\":5435:5706   */\n    tag_33:\n        /* \"#utility.yul\":5565:5568   */\n      0x00\n        /* \"#utility.yul\":5587:5680   */\n      tag_140\n        /* \"#utility.yul\":5676:5679   */\n      dup3\n        /* \"#utility.yul\":5667:5673   */\n      dup5\n        /* \"#utility.yul\":5587:5680   */\n      tag_71\n      jump\t// in\n    tag_140:\n        /* \"#utility.yul\":5580:5680   */\n      swap2\n      pop\n        /* \"#utility.yul\":5697:5700   */\n      dup2\n        /* \"#utility.yul\":5690:5700   */\n      swap1\n      pop\n        /* \"#utility.yul\":5435:5706   */\n      swap3\n      swap2\n      pop\n      pop\n      jump\t// out\n        /* \"#utility.yul\":5712:5802   */\n    tag_72:\n        /* \"#utility.yul\":5746:5753   */\n      0x00\n        /* \"#utility.yul\":5789:5794   */\n      dup2\n        /* \"#utility.yul\":5782:5795   */\n      iszero\n        /* \"#utility.yul\":5775:5796   */\n      iszero\n        /* \"#utility.yul\":5764:5796   */\n      swap1\n      pop\n        /* \"#utility.yul\":5712:5802   */\n      swap2\n      swap1\n      pop\n      jump\t// out\n        /* \"#utility.yul\":5808:5917   */\n    tag_73:\n        /* \"#utility.yul\":5889:5910   */\n      tag_143\n        /* \"#utility.yul\":5904:5909   */\n      dup2\n        /* \"#utility.yul\":5889:5910   */\n      tag_72\n      jump\t// in\n    tag_143:\n        /* \"#utility.yul\":5884:5887   */\n      dup3\n        /* \"#utility.yul\":5877:5911   */\n      mstore\n        /* \"#utility.yul\":5808:5917   */\n      pop\n      pop\n      jump\t// out\n        /* \"#utility.yul\":5923:6091   */\n    tag_74:\n        /* \"#utility.yul\":6006:6017   */\n      0x00\n        /* \"#utility.yul\":6040:6046   */\n      dup3\n        /* \"#utility.yul\":6035:6038   */\n      dup3\n        /* \"#utility.yul\":6028:6047   */\n      mstore\n        /* \"#utility.yul\":6080:6084   */\n      0x20\n        /* \"#utility.yul\":6075:6078   */\n      dup3\n        /* \"#utility.yul\":6071:6085   */\n      add\n        /* \"#utility.yul\":6056:6085   */\n      swap1\n      pop\n        /* \"#utility.yul\":5923:6091   */\n      swap3\n      swap2\n      pop\n      pop\n      jump\t// out\n        /* \"#utility.yul\":6097:6199   */\n    tag_75:\n        /* \"#utility.yul\":6138:6144   */\n      0x00\n        /* \"#utility.yul\":6189:6191   */\n      0x1f\n        /* \"#utility.yul\":6185:6192   */\n      not\n        /* \"#utility.yul\":6180:6182   */\n      0x1f\n        /* \"#utility.yul\":6173:6178   */\n      dup4\n        /* \"#utility.yul\":6169:6183   */\n      add\n        /* \"#utility.yul\":6165:6193   */\n      and\n        /* \"#utility.yul\":6155:6193   */\n      swap1\n      pop\n        /* \"#utility.yul\":6097:6199   */\n      swap2\n      swap1\n      pop\n      jump\t// out\n        /* \"#utility.yul\":6205:6578   */\n    tag_76:\n        /* \"#utility.yul\":6291:6294   */\n      0x00\n        /* \"#utility.yul\":6319:6357   */\n      tag_147\n        /* \"#utility.yul\":6351:6356   */\n      dup3\n        /* \"#utility.yul\":6319:6357   */\n      tag_68\n      jump\t// in\n    tag_147:\n        /* \"#utility.yul\":6373:6443   */\n      tag_148\n        /* \"#utility.yul\":6436:6442   */\n      dup2\n        /* \"#utility.yul\":6431:6434   */\n      dup6\n        /* \"#utility.yul\":6373:6443   */\n      tag_74\n      jump\t// in\n    tag_148:\n        /* \"#utility.yul\":6366:6443   */\n      swap4\n      pop\n        /* \"#utility.yul\":6452:6517   */\n      tag_149\n        /* \"#utility.yul\":6510:6516   */\n      dup2\n        /* \"#utility.yul\":6505:6508   */\n      dup6\n        /* \"#utility.yul\":6498:6502   */\n      0x20\n        /* \"#utility.yul\":6491:6496   */\n      dup7\n        /* \"#utility.yul\":6487:6503   */\n      add\n        /* \"#utility.yul\":6452:6517   */\n      tag_70\n      jump\t// in\n    tag_149:\n        /* \"#utility.yul\":6542:6571   */\n      tag_150\n        /* \"#utility.yul\":6564:6570   */\n      dup2\n        /* \"#utility.yul\":6542:6571   */\n      tag_75\n      jump\t// in\n    tag_150:\n        /* \"#utility.yul\":6537:6540   */\n      dup5\n        /* \"#utility.yul\":6533:6572   */\n      add\n        /* \"#utility.yul\":6526:6572   */\n      swap2\n      pop\n        /* \"#utility.yul\":6295:6578   */\n      pop\n        /* \"#utility.yul\":6205:6578   */\n      swap3\n      swap2\n      pop\n      pop\n      jump\t// out\n        /* \"#utility.yul\":6584:6991   */\n    tag_38:\n        /* \"#utility.yul\":6717:6721   */\n      0x00\n        /* \"#utility.yul\":6755:6757   */\n      0x40\n        /* \"#utility.yul\":6744:6753   */\n      dup3\n        /* \"#utility.yul\":6740:6758   */\n      add\n        /* \"#utility.yul\":6732:6758   */\n      swap1\n      pop\n        /* \"#utility.yul\":6768:6833   */\n      tag_152\n        /* \"#utility.yul\":6830:6831   */\n      0x00\n        /* \"#utility.yul\":6819:6828   */\n      dup4\n        /* \"#utility.yul\":6815:6832   */\n      add\n        /* \"#utility.yul\":6806:6812   */\n      dup6\n        /* \"#utility.yul\":6768:6833   */\n      tag_73\n      jump\t// in\n    tag_152:\n        /* \"#utility.yul\":6880:6889   */\n      dup2\n        /* \"#utility.yul\":6874:6878   */\n      dup2\n        /* \"#utility.yul\":6870:6890   */\n      sub\n        /* \"#utility.yul\":6865:6867   */\n      0x20\n        /* \"#utility.yul\":6854:6863   */\n      dup4\n        /* \"#utility.yul\":6850:6868   */\n      add\n        /* \"#utility.yul\":6843:6891   */\n      mstore\n        /* \"#utility.yul\":6908:6984   */\n      tag_153\n        /* \"#utility.yul\":6979:6983   */\n      dup2\n        /* \"#utility.yul\":6970:6976   */\n      dup5\n        /* \"#utility.yul\":6908:6984   */\n      tag_76\n      jump\t// in\n    tag_153:\n        /* \"#utility.yul\":6900:6984   */\n      swap1\n      pop\n        /* \"#utility.yul\":6584:6991   */\n      swap4\n      swap3\n      pop\n      pop\n      pop\n      jump\t// out\n        /* \"#utility.yul\":6997:7119   */\n    tag_77:\n        /* \"#utility.yul\":7070:7094   */\n      tag_155\n        /* \"#utility.yul\":7088:7093   */\n      dup2\n        /* \"#utility.yul\":7070:7094   */\n      tag_62\n      jump\t// in\n    tag_155:\n        /* \"#utility.yul\":7063:7068   */\n      dup2\n        /* \"#utility.yul\":7060:7095   */\n      eq\n        /* \"#utility.yul\":7050:7113   */\n      tag_156\n      jumpi\n        /* \"#utility.yul\":7109:7110   */\n      0x00\n        /* \"#utility.yul\":7106:7107   */\n      0x00\n        /* \"#utility.yul\":7099:7111   */\n      revert\n        /* \"#utility.yul\":7050:7113   */\n    tag_156:\n        /* \"#utility.yul\":6997:7119   */\n      pop\n      jump\t// out\n        /* \"#utility.yul\":7125:7268   */\n    tag_78:\n        /* \"#utility.yul\":7182:7187   */\n      0x00\n        /* \"#utility.yul\":7213:7219   */\n      dup2\n        /* \"#utility.yul\":7207:7220   */\n      mload\n        /* \"#utility.yul\":7198:7220   */\n      swap1\n      pop\n        /* \"#utility.yul\":7229:7262   */\n      tag_158\n        /* \"#utility.yul\":7256:7261   */\n      dup2\n        /* \"#utility.yul\":7229:7262   */\n      tag_77\n      jump\t// in\n    tag_158:\n        /* \"#utility.yul\":7125:7268   */\n      swap3\n      swap2\n      pop\n      pop\n      jump\t// out\n        /* \"#utility.yul\":7274:7625   */\n    tag_43:\n        /* \"#utility.yul\":7344:7350   */\n      0x00\n        /* \"#utility.yul\":7393:7395   */\n      0x20\n        /* \"#utility.yul\":7381:7390   */\n      dup3\n        /* \"#utility.yul\":7372:7379   */\n      dup5\n        /* \"#utility.yul\":7368:7391   */\n      sub\n        /* \"#utility.yul\":7364:7396   */\n      slt\n        /* \"#utility.yul\":7361:7480   */\n      iszero\n      tag_160\n      jumpi\n        /* \"#utility.yul\":7399:7478   */\n      tag_161\n      tag_54\n      jump\t// in\n    tag_161:\n        /* \"#utility.yul\":7361:7480   */\n    tag_160:\n        /* \"#utility.yul\":7519:7520   */\n      0x00\n        /* \"#utility.yul\":7544:7608   */\n      tag_162\n        /* \"#utility.yul\":7600:7607   */\n      dup5\n        /* \"#utility.yul\":7591:7597   */\n      dup3\n        /* \"#utility.yul\":7580:7589   */\n      dup6\n        /* \"#utility.yul\":7576:7598   */\n      add\n        /* \"#utility.yul\":7544:7608   */\n      tag_78\n      jump\t// in\n    tag_162:\n        /* \"#utility.yul\":7534:7608   */\n      swap2\n      pop\n        /* \"#utility.yul\":7490:7618   */\n      pop\n        /* \"#utility.yul\":7274:7625   */\n      swap3\n      swap2\n      pop\n      pop\n      jump\t// out\n        /* \"#utility.yul\":7631:7784   */\n    tag_79:\n        /* \"#utility.yul\":7771:7776   */\n      0x78797a0000000000000000000000000000000000000000000000000000000000\n        /* \"#utility.yul\":7767:7768   */\n      0x00\n        /* \"#utility.yul\":7759:7765   */\n      dup3\n        /* \"#utility.yul\":7755:7769   */\n      add\n        /* \"#utility.yul\":7748:7777   */\n      mstore\n        /* \"#utility.yul\":7631:7784   */\n      pop\n      jump\t// out\n        /* \"#utility.yul\":7790:8188   */\n    tag_80:\n        /* \"#utility.yul\":7949:7952   */\n      0x00\n        /* \"#utility.yul\":7970:8053   */\n      tag_165\n        /* \"#utility.yul\":8051:8052   */\n      0x03\n        /* \"#utility.yul\":8046:8049   */\n      dup4\n        /* \"#utility.yul\":7970:8053   */\n      tag_69\n      jump\t// in\n    tag_165:\n        /* \"#utility.yul\":7963:8053   */\n      swap2\n      pop\n        /* \"#utility.yul\":8062:8155   */\n      tag_166\n        /* \"#utility.yul\":8151:8154   */\n      dup3\n        /* \"#utility.yul\":8062:8155   */\n      tag_79\n      jump\t// in\n    tag_166:\n        /* \"#utility.yul\":8180:8181   */\n      0x03\n        /* \"#utility.yul\":8175:8178   */\n      dup3\n        /* \"#utility.yul\":8171:8182   */\n      add\n        /* \"#utility.yul\":8164:8182   */\n      swap1\n      pop\n        /* \"#utility.yul\":7790:8188   */\n      swap2\n      swap1\n      pop\n      jump\t// out\n        /* \"#utility.yul\":8194:8573   */\n    tag_46:\n        /* \"#utility.yul\":8378:8381   */\n      0x00\n        /* \"#utility.yul\":8400:8547   */\n      tag_168\n        /* \"#utility.yul\":8543:8546   */\n      dup3\n        /* \"#utility.yul\":8400:8547   */\n      tag_80\n      jump\t// in\n    tag_168:\n        /* \"#utility.yul\":8393:8547   */\n      swap2\n      pop\n        /* \"#utility.yul\":8564:8567   */\n      dup2\n        /* \"#utility.yul\":8557:8567   */\n      swap1\n      pop\n        /* \"#utility.yul\":8194:8573   */\n      swap2\n      swap1\n      pop\n      jump\t// out\n\n    auxdata: 0xa264697066735822122087b94d8100abde4bd5b588b82e13fd799efee5bbd1330be4e40808c212020f9164736f6c634300081e0033\n}\n\nsub_1: assembly {\n        /* \"ExampleCall.sol\":59:794  contract Receiver {... */\n      mstore(0x40, 0x80)\n      callvalue\n      dup1\n      iszero\n      tag_1\n      jumpi\n      revert(0x00, 0x00)\n    tag_1:\n      pop\n      dataSize(sub_0)\n      dup1\n      dataOffset(sub_0)\n      0x00\n      codecopy\n      0x00\n      return\n    stop\n\n    sub_0: assembly {\n            /* \"ExampleCall.sol\":59:794  contract Receiver {... */\n          mstore(0x40, 0x80)\n          jumpi(tag_1, lt(calldatasize, 0x04))\n          shr(0xe0, calldataload(0x00))\n          dup1\n          0x12065fe0\n          eq\n          tag_3\n          jumpi\n          dup1\n          0x24ccab8f\n          eq\n          tag_4\n          jumpi\n          dup1\n          0x38cc4831\n          eq\n          tag_5\n          jumpi\n          jump(tag_2)\n        tag_1:\n          jumpi(tag_2, calldatasize)\n            /* \"ExampleCall.sol\":194:247  Received(msg.sender, msg.value, \"receive was called\") */\n          0x59e04c3f0d44b7caf6e8ef854b61d9a51cf1960d7a88ff6356cc5e946b4b5832\n            /* \"ExampleCall.sol\":203:213  msg.sender */\n          caller\n            /* \"ExampleCall.sol\":215:224  msg.value */\n          callvalue\n            /* \"ExampleCall.sol\":194:247  Received(msg.sender, msg.value, \"receive was called\") */\n          mload(0x40)\n          tag_8\n          swap3\n          swap2\n          swap1\n          tag_9\n          jump\t// in\n        tag_8:\n          mload(0x40)\n          dup1\n          swap2\n          sub\n          swap1\n          log1\n            /* \"ExampleCall.sol\":59:794  contract Receiver {... */\n          stop\n        tag_2:\n            /* \"ExampleCall.sol\":302:356  Received(msg.sender, msg.value, \"fallback was called\") */\n          0x59e04c3f0d44b7caf6e8ef854b61d9a51cf1960d7a88ff6356cc5e946b4b5832\n            /* \"ExampleCall.sol\":311:321  msg.sender */\n          caller\n            /* \"ExampleCall.sol\":323:332  msg.value */\n          callvalue\n            /* \"ExampleCall.sol\":302:356  Received(msg.sender, msg.value, \"fallback was called\") */\n          mload(0x40)\n          tag_12\n          swap3\n          swap2\n          swap1\n          tag_13\n          jump\t// in\n        tag_12:\n          mload(0x40)\n          dup1\n          swap2\n          sub\n          swap1\n          log1\n            /* \"ExampleCall.sol\":59:794  contract Receiver {... */\n          stop\n            /* \"ExampleCall.sol\":659:792  function getBalance() external view returns (uint256) {... */\n        tag_3:\n          callvalue\n          dup1\n          iszero\n          tag_14\n          jumpi\n          revert(0x00, 0x00)\n        tag_14:\n          pop\n          tag_15\n          tag_16\n          jump\t// in\n        tag_15:\n          mload(0x40)\n          tag_17\n          swap2\n          swap1\n          tag_18\n          jump\t// in\n        tag_17:\n          mload(0x40)\n          dup1\n          swap2\n          sub\n          swap1\n          return\n            /* \"ExampleCall.sol\":371:528  function foo(string memory _message,uint _y) public payable  returns (uint) {... */\n        tag_4:\n          tag_19\n          0x04\n          dup1\n          calldatasize\n          sub\n          dup2\n          add\n          swap1\n          tag_20\n          swap2\n          swap1\n          tag_21\n          jump\t// in\n        tag_20:\n          tag_22\n          jump\t// in\n        tag_19:\n          mload(0x40)\n          tag_23\n          swap2\n          swap1\n          tag_18\n          jump\t// in\n        tag_23:\n          mload(0x40)\n          dup1\n          swap2\n          sub\n          swap1\n          return\n            /* \"ExampleCall.sol\":562:653  function getAddress() external view returns (address) {... */\n        tag_5:\n          callvalue\n          dup1\n          iszero\n          tag_24\n          jumpi\n          revert(0x00, 0x00)\n        tag_24:\n          pop\n          tag_25\n          tag_26\n          jump\t// in\n        tag_25:\n          mload(0x40)\n          tag_27\n          swap2\n          swap1\n          tag_28\n          jump\t// in\n        tag_27:\n          mload(0x40)\n          dup1\n          swap2\n          sub\n          swap1\n          return\n            /* \"ExampleCall.sol\":659:792  function getBalance() external view returns (uint256) {... */\n        tag_16:\n            /* \"ExampleCall.sol\":704:711  uint256 */\n          0x00\n            /* \"ExampleCall.sol\":763:784  address(this).balance */\n          selfbalance\n            /* \"ExampleCall.sol\":755:785  return (address(this).balance) */\n          swap1\n          pop\n            /* \"ExampleCall.sol\":659:792  function getBalance() external view returns (uint256) {... */\n          swap1\n          jump\t// out\n            /* \"ExampleCall.sol\":371:528  function foo(string memory _message,uint _y) public payable  returns (uint) {... */\n        tag_22:\n            /* \"ExampleCall.sol\":441:445  uint */\n          0x00\n            /* \"ExampleCall.sol\":462:501  Received(msg.sender,msg.value,_message) */\n          0x59e04c3f0d44b7caf6e8ef854b61d9a51cf1960d7a88ff6356cc5e946b4b5832\n            /* \"ExampleCall.sol\":471:481  msg.sender */\n          caller\n            /* \"ExampleCall.sol\":482:491  msg.value */\n          callvalue\n            /* \"ExampleCall.sol\":492:500  _message */\n          dup6\n            /* \"ExampleCall.sol\":462:501  Received(msg.sender,msg.value,_message) */\n          mload(0x40)\n          tag_31\n          swap4\n          swap3\n          swap2\n          swap1\n          tag_32\n          jump\t// in\n        tag_31:\n          mload(0x40)\n          dup1\n          swap2\n          sub\n          swap1\n          log1\n            /* \"ExampleCall.sol\":518:520  _y */\n          dup2\n            /* \"ExampleCall.sol\":511:520  return _y */\n          swap1\n          pop\n            /* \"ExampleCall.sol\":371:528  function foo(string memory _message,uint _y) public payable  returns (uint) {... */\n          swap3\n          swap2\n          pop\n          pop\n          jump\t// out\n            /* \"ExampleCall.sol\":562:653  function getAddress() external view returns (address) {... */\n        tag_26:\n            /* \"ExampleCall.sol\":607:614  address */\n          0x00\n            /* \"ExampleCall.sol\":641:645  this */\n          address\n            /* \"ExampleCall.sol\":626:646  return address(this) */\n          swap1\n          pop\n            /* \"ExampleCall.sol\":562:653  function getAddress() external view returns (address) {... */\n          swap1\n          jump\t// out\n            /* \"#utility.yul\":7:133   */\n        tag_34:\n            /* \"#utility.yul\":44:51   */\n          0x00\n            /* \"#utility.yul\":84:126   */\n          0xffffffffffffffffffffffffffffffffffffffff\n            /* \"#utility.yul\":77:82   */\n          dup3\n            /* \"#utility.yul\":73:127   */\n          and\n            /* \"#utility.yul\":62:127   */\n          swap1\n          pop\n            /* \"#utility.yul\":7:133   */\n          swap2\n          swap1\n          pop\n          jump\t// out\n            /* \"#utility.yul\":139:235   */\n        tag_35:\n            /* \"#utility.yul\":176:183   */\n          0x00\n            /* \"#utility.yul\":205:229   */\n          tag_65\n            /* \"#utility.yul\":223:228   */\n          dup3\n            /* \"#utility.yul\":205:229   */\n          tag_34\n          jump\t// in\n        tag_65:\n            /* \"#utility.yul\":194:229   */\n          swap1\n          pop\n            /* \"#utility.yul\":139:235   */\n          swap2\n          swap1\n          pop\n          jump\t// out\n            /* \"#utility.yul\":241:359   */\n        tag_36:\n            /* \"#utility.yul\":328:352   */\n          tag_67\n            /* \"#utility.yul\":346:351   */\n          dup2\n            /* \"#utility.yul\":328:352   */\n          tag_35\n          jump\t// in\n        tag_67:\n            /* \"#utility.yul\":323:326   */\n          dup3\n            /* \"#utility.yul\":316:353   */\n          mstore\n            /* \"#utility.yul\":241:359   */\n          pop\n          pop\n          jump\t// out\n            /* \"#utility.yul\":365:442   */\n        tag_37:\n            /* \"#utility.yul\":402:409   */\n          0x00\n            /* \"#utility.yul\":431:436   */\n          dup2\n            /* \"#utility.yul\":420:436   */\n          swap1\n          pop\n            /* \"#utility.yul\":365:442   */\n          swap2\n          swap1\n          pop\n          jump\t// out\n            /* \"#utility.yul\":448:566   */\n        tag_38:\n            /* \"#utility.yul\":535:559   */\n          tag_70\n            /* \"#utility.yul\":553:558   */\n          dup2\n            /* \"#utility.yul\":535:559   */\n          tag_37\n          jump\t// in\n        tag_70:\n            /* \"#utility.yul\":530:533   */\n          dup3\n            /* \"#utility.yul\":523:560   */\n          mstore\n            /* \"#utility.yul\":448:566   */\n          pop\n          pop\n          jump\t// out\n            /* \"#utility.yul\":572:741   */\n        tag_39:\n            /* \"#utility.yul\":656:667   */\n          0x00\n            /* \"#utility.yul\":690:696   */\n          dup3\n            /* \"#utility.yul\":685:688   */\n          dup3\n            /* \"#utility.yul\":678:697   */\n          mstore\n            /* \"#utility.yul\":730:734   */\n          0x20\n            /* \"#utility.yul\":725:728   */\n          dup3\n            /* \"#utility.yul\":721:735   */\n          add\n            /* \"#utility.yul\":706:735   */\n          swap1\n          pop\n            /* \"#utility.yul\":572:741   */\n          swap3\n          swap2\n          pop\n          pop\n          jump\t// out\n            /* \"#utility.yul\":747:915   */\n        tag_40:\n            /* \"#utility.yul\":887:907   */\n          0x72656365697665207761732063616c6c65640000000000000000000000000000\n            /* \"#utility.yul\":883:884   */\n          0x00\n            /* \"#utility.yul\":875:881   */\n          dup3\n            /* \"#utility.yul\":871:885   */\n          add\n            /* \"#utility.yul\":864:908   */\n          mstore\n            /* \"#utility.yul\":747:915   */\n          pop\n          jump\t// out\n            /* \"#utility.yul\":921:1287   */\n        tag_41:\n            /* \"#utility.yul\":1063:1066   */\n          0x00\n            /* \"#utility.yul\":1084:1151   */\n          tag_74\n            /* \"#utility.yul\":1148:1150   */\n          0x12\n            /* \"#utility.yul\":1143:1146   */\n          dup4\n            /* \"#utility.yul\":1084:1151   */\n          tag_39\n          jump\t// in\n        tag_74:\n            /* \"#utility.yul\":1077:1151   */\n          swap2\n          pop\n            /* \"#utility.yul\":1160:1253   */\n          tag_75\n            /* \"#utility.yul\":1249:1252   */\n          dup3\n            /* \"#utility.yul\":1160:1253   */\n          tag_40\n          jump\t// in\n        tag_75:\n            /* \"#utility.yul\":1278:1280   */\n          0x20\n            /* \"#utility.yul\":1273:1276   */\n          dup3\n            /* \"#utility.yul\":1269:1281   */\n          add\n            /* \"#utility.yul\":1262:1281   */\n          swap1\n          pop\n            /* \"#utility.yul\":921:1287   */\n          swap2\n          swap1\n          pop\n          jump\t// out\n            /* \"#utility.yul\":1293:1932   */\n        tag_9:\n            /* \"#utility.yul\":1515:1519   */\n          0x00\n            /* \"#utility.yul\":1553:1555   */\n          0x60\n            /* \"#utility.yul\":1542:1551   */\n          dup3\n            /* \"#utility.yul\":1538:1556   */\n          add\n            /* \"#utility.yul\":1530:1556   */\n          swap1\n          pop\n            /* \"#utility.yul\":1566:1637   */\n          tag_77\n            /* \"#utility.yul\":1634:1635   */\n          0x00\n            /* \"#utility.yul\":1623:1632   */\n          dup4\n            /* \"#utility.yul\":1619:1636   */\n          add\n            /* \"#utility.yul\":1610:1616   */\n          dup6\n            /* \"#utility.yul\":1566:1637   */\n          tag_36\n          jump\t// in\n        tag_77:\n            /* \"#utility.yul\":1647:1719   */\n          tag_78\n            /* \"#utility.yul\":1715:1717   */\n          0x20\n            /* \"#utility.yul\":1704:1713   */\n          dup4\n            /* \"#utility.yul\":1700:1718   */\n          add\n            /* \"#utility.yul\":1691:1697   */\n          dup5\n            /* \"#utility.yul\":1647:1719   */\n          tag_38\n          jump\t// in\n        tag_78:\n            /* \"#utility.yul\":1766:1775   */\n          dup2\n            /* \"#utility.yul\":1760:1764   */\n          dup2\n            /* \"#utility.yul\":1756:1776   */\n          sub\n            /* \"#utility.yul\":1751:1753   */\n          0x40\n            /* \"#utility.yul\":1740:1749   */\n          dup4\n            /* \"#utility.yul\":1736:1754   */\n          add\n            /* \"#utility.yul\":1729:1777   */\n          mstore\n            /* \"#utility.yul\":1794:1925   */\n          tag_79\n            /* \"#utility.yul\":1920:1924   */\n          dup2\n            /* \"#utility.yul\":1794:1925   */\n          tag_41\n          jump\t// in\n        tag_79:\n            /* \"#utility.yul\":1786:1925   */\n          swap1\n          pop\n            /* \"#utility.yul\":1293:1932   */\n          swap4\n          swap3\n          pop\n          pop\n          pop\n          jump\t// out\n            /* \"#utility.yul\":1938:2107   */\n        tag_42:\n            /* \"#utility.yul\":2078:2099   */\n          0x66616c6c6261636b207761732063616c6c656400000000000000000000000000\n            /* \"#utility.yul\":2074:2075   */\n          0x00\n            /* \"#utility.yul\":2066:2072   */\n          dup3\n            /* \"#utility.yul\":2062:2076   */\n          add\n            /* \"#utility.yul\":2055:2100   */\n          mstore\n            /* \"#utility.yul\":1938:2107   */\n          pop\n          jump\t// out\n            /* \"#utility.yul\":2113:2479   */\n        tag_43:\n            /* \"#utility.yul\":2255:2258   */\n          0x00\n            /* \"#utility.yul\":2276:2343   */\n          tag_82\n            /* \"#utility.yul\":2340:2342   */\n          0x13\n            /* \"#utility.yul\":2335:2338   */\n          dup4\n            /* \"#utility.yul\":2276:2343   */\n          tag_39\n          jump\t// in\n        tag_82:\n            /* \"#utility.yul\":2269:2343   */\n          swap2\n          pop\n            /* \"#utility.yul\":2352:2445   */\n          tag_83\n            /* \"#utility.yul\":2441:2444   */\n          dup3\n            /* \"#utility.yul\":2352:2445   */\n          tag_42\n          jump\t// in\n        tag_83:\n            /* \"#utility.yul\":2470:2472   */\n          0x20\n            /* \"#utility.yul\":2465:2468   */\n          dup3\n            /* \"#utility.yul\":2461:2473   */\n          add\n            /* \"#utility.yul\":2454:2473   */\n          swap1\n          pop\n            /* \"#utility.yul\":2113:2479   */\n          swap2\n          swap1\n          pop\n          jump\t// out\n            /* \"#utility.yul\":2485:3124   */\n        tag_13:\n            /* \"#utility.yul\":2707:2711   */\n          0x00\n            /* \"#utility.yul\":2745:2747   */\n          0x60\n            /* \"#utility.yul\":2734:2743   */\n          dup3\n            /* \"#utility.yul\":2730:2748   */\n          add\n            /* \"#utility.yul\":2722:2748   */\n          swap1\n          pop\n            /* \"#utility.yul\":2758:2829   */\n          tag_85\n            /* \"#utility.yul\":2826:2827   */\n          0x00\n            /* \"#utility.yul\":2815:2824   */\n          dup4\n            /* \"#utility.yul\":2811:2828   */\n          add\n            /* \"#utility.yul\":2802:2808   */\n          dup6\n            /* \"#utility.yul\":2758:2829   */\n          tag_36\n          jump\t// in\n        tag_85:\n            /* \"#utility.yul\":2839:2911   */\n          tag_86\n            /* \"#utility.yul\":2907:2909   */\n          0x20\n            /* \"#utility.yul\":2896:2905   */\n          dup4\n            /* \"#utility.yul\":2892:2910   */\n          add\n            /* \"#utility.yul\":2883:2889   */\n          dup5\n            /* \"#utility.yul\":2839:2911   */\n          tag_38\n          jump\t// in\n        tag_86:\n            /* \"#utility.yul\":2958:2967   */\n          dup2\n            /* \"#utility.yul\":2952:2956   */\n          dup2\n            /* \"#utility.yul\":2948:2968   */\n          sub\n            /* \"#utility.yul\":2943:2945   */\n          0x40\n            /* \"#utility.yul\":2932:2941   */\n          dup4\n            /* \"#utility.yul\":2928:2946   */\n          add\n            /* \"#utility.yul\":2921:2969   */\n          mstore\n            /* \"#utility.yul\":2986:3117   */\n          tag_87\n            /* \"#utility.yul\":3112:3116   */\n          dup2\n            /* \"#utility.yul\":2986:3117   */\n          tag_43\n          jump\t// in\n        tag_87:\n            /* \"#utility.yul\":2978:3117   */\n          swap1\n          pop\n            /* \"#utility.yul\":2485:3124   */\n          swap4\n          swap3\n          pop\n          pop\n          pop\n          jump\t// out\n            /* \"#utility.yul\":3130:3352   */\n        tag_18:\n            /* \"#utility.yul\":3223:3227   */\n          0x00\n            /* \"#utility.yul\":3261:3263   */\n          0x20\n            /* \"#utility.yul\":3250:3259   */\n          dup3\n            /* \"#utility.yul\":3246:3264   */\n          add\n            /* \"#utility.yul\":3238:3264   */\n          swap1\n          pop\n            /* \"#utility.yul\":3274:3345   */\n          tag_89\n            /* \"#utility.yul\":3342:3343   */\n          0x00\n            /* \"#utility.yul\":3331:3340   */\n          dup4\n            /* \"#utility.yul\":3327:3344   */\n          add\n            /* \"#utility.yul\":3318:3324   */\n          dup5\n            /* \"#utility.yul\":3274:3345   */\n          tag_38\n          jump\t// in\n        tag_89:\n            /* \"#utility.yul\":3130:3352   */\n          swap3\n          swap2\n          pop\n          pop\n          jump\t// out\n            /* \"#utility.yul\":3358:3433   */\n        tag_44:\n            /* \"#utility.yul\":3391:3397   */\n          0x00\n            /* \"#utility.yul\":3424:3426   */\n          0x40\n            /* \"#utility.yul\":3418:3427   */\n          mload\n            /* \"#utility.yul\":3408:3427   */\n          swap1\n          pop\n            /* \"#utility.yul\":3358:3433   */\n          swap1\n          jump\t// out\n            /* \"#utility.yul\":3439:3556   */\n        tag_45:\n            /* \"#utility.yul\":3548:3549   */\n          0x00\n            /* \"#utility.yul\":3545:3546   */\n          0x00\n            /* \"#utility.yul\":3538:3550   */\n          revert\n            /* \"#utility.yul\":3562:3679   */\n        tag_46:\n            /* \"#utility.yul\":3671:3672   */\n          0x00\n            /* \"#utility.yul\":3668:3669   */\n          0x00\n            /* \"#utility.yul\":3661:3673   */\n          revert\n            /* \"#utility.yul\":3685:3802   */\n        tag_47:\n            /* \"#utility.yul\":3794:3795   */\n          0x00\n            /* \"#utility.yul\":3791:3792   */\n          0x00\n            /* \"#utility.yul\":3784:3796   */\n          revert\n            /* \"#utility.yul\":3808:3925   */\n        tag_48:\n            /* \"#utility.yul\":3917:3918   */\n          0x00\n            /* \"#utility.yul\":3914:3915   */\n          0x00\n            /* \"#utility.yul\":3907:3919   */\n          revert\n            /* \"#utility.yul\":3931:4033   */\n        tag_49:\n            /* \"#utility.yul\":3972:3978   */\n          0x00\n            /* \"#utility.yul\":4023:4025   */\n          0x1f\n            /* \"#utility.yul\":4019:4026   */\n          not\n            /* \"#utility.yul\":4014:4016   */\n          0x1f\n            /* \"#utility.yul\":4007:4012   */\n          dup4\n            /* \"#utility.yul\":4003:4017   */\n          add\n            /* \"#utility.yul\":3999:4027   */\n          and\n            /* \"#utility.yul\":3989:4027   */\n          swap1\n          pop\n            /* \"#utility.yul\":3931:4033   */\n          swap2\n          swap1\n          pop\n          jump\t// out\n            /* \"#utility.yul\":4039:4219   */\n        tag_50:\n            /* \"#utility.yul\":4087:4164   */\n          0x4e487b7100000000000000000000000000000000000000000000000000000000\n            /* \"#utility.yul\":4084:4085   */\n          0x00\n            /* \"#utility.yul\":4077:4165   */\n          mstore\n            /* \"#utility.yul\":4184:4188   */\n          0x41\n            /* \"#utility.yul\":4181:4182   */\n          0x04\n            /* \"#utility.yul\":4174:4189   */\n          mstore\n            /* \"#utility.yul\":4208:4212   */\n          0x24\n            /* \"#utility.yul\":4205:4206   */\n          0x00\n            /* \"#utility.yul\":4198:4213   */\n          revert\n            /* \"#utility.yul\":4225:4506   */\n        tag_51:\n            /* \"#utility.yul\":4308:4335   */\n          tag_98\n            /* \"#utility.yul\":4330:4334   */\n          dup3\n            /* \"#utility.yul\":4308:4335   */\n          tag_49\n          jump\t// in\n        tag_98:\n            /* \"#utility.yul\":4300:4306   */\n          dup2\n            /* \"#utility.yul\":4296:4336   */\n          add\n            /* \"#utility.yul\":4438:4444   */\n          dup2\n            /* \"#utility.yul\":4426:4436   */\n          dup2\n            /* \"#utility.yul\":4423:4445   */\n          lt\n            /* \"#utility.yul\":4402:4420   */\n          0xffffffffffffffff\n            /* \"#utility.yul\":4390:4400   */\n          dup3\n            /* \"#utility.yul\":4387:4421   */\n          gt\n            /* \"#utility.yul\":4384:4446   */\n          or\n            /* \"#utility.yul\":4381:4469   */\n          iszero\n          tag_99\n          jumpi\n            /* \"#utility.yul\":4449:4467   */\n          tag_100\n          tag_50\n          jump\t// in\n        tag_100:\n            /* \"#utility.yul\":4381:4469   */\n        tag_99:\n            /* \"#utility.yul\":4489:4499   */\n          dup1\n            /* \"#utility.yul\":4485:4487   */\n          0x40\n            /* \"#utility.yul\":4478:4500   */\n          mstore\n            /* \"#utility.yul\":4268:4506   */\n          pop\n            /* \"#utility.yul\":4225:4506   */\n          pop\n          pop\n          jump\t// out\n            /* \"#utility.yul\":4512:4641   */\n        tag_52:\n            /* \"#utility.yul\":4546:4552   */\n          0x00\n            /* \"#utility.yul\":4573:4593   */\n          tag_102\n          tag_44\n          jump\t// in\n        tag_102:\n            /* \"#utility.yul\":4563:4593   */\n          swap1\n          pop\n            /* \"#utility.yul\":4602:4635   */\n          tag_103\n            /* \"#utility.yul\":4630:4634   */\n          dup3\n            /* \"#utility.yul\":4622:4628   */\n          dup3\n            /* \"#utility.yul\":4602:4635   */\n          tag_51\n          jump\t// in\n        tag_103:\n            /* \"#utility.yul\":4512:4641   */\n          swap2\n          swap1\n          pop\n          jump\t// out\n            /* \"#utility.yul\":4647:4955   */\n        tag_53:\n            /* \"#utility.yul\":4709:4713   */\n          0x00\n            /* \"#utility.yul\":4799:4817   */\n          0xffffffffffffffff\n            /* \"#utility.yul\":4791:4797   */\n          dup3\n            /* \"#utility.yul\":4788:4818   */\n          gt\n            /* \"#utility.yul\":4785:4841   */\n          iszero\n          tag_105\n          jumpi\n            /* \"#utility.yul\":4821:4839   */\n          tag_106\n          tag_50\n          jump\t// in\n        tag_106:\n            /* \"#utility.yul\":4785:4841   */\n        tag_105:\n            /* \"#utility.yul\":4859:4888   */\n          tag_107\n            /* \"#utility.yul\":4881:4887   */\n          dup3\n            /* \"#utility.yul\":4859:4888   */\n          tag_49\n          jump\t// in\n        tag_107:\n            /* \"#utility.yul\":4851:4888   */\n          swap1\n          pop\n            /* \"#utility.yul\":4943:4947   */\n          0x20\n            /* \"#utility.yul\":4937:4941   */\n          dup2\n            /* \"#utility.yul\":4933:4948   */\n          add\n            /* \"#utility.yul\":4925:4948   */\n          swap1\n          pop\n            /* \"#utility.yul\":4647:4955   */\n          swap2\n          swap1\n          pop\n          jump\t// out\n            /* \"#utility.yul\":4961:5109   */\n        tag_54:\n            /* \"#utility.yul\":5059:5065   */\n          dup3\n            /* \"#utility.yul\":5054:5057   */\n          dup2\n            /* \"#utility.yul\":5049:5052   */\n          dup4\n            /* \"#utility.yul\":5036:5066   */\n          calldatacopy\n            /* \"#utility.yul\":5100:5101   */\n          0x00\n            /* \"#utility.yul\":5091:5097   */\n          dup4\n            /* \"#utility.yul\":5086:5089   */\n          dup4\n            /* \"#utility.yul\":5082:5098   */\n          add\n            /* \"#utility.yul\":5075:5102   */\n          mstore\n            /* \"#utility.yul\":4961:5109   */\n          pop\n          pop\n          pop\n          jump\t// out\n            /* \"#utility.yul\":5115:5540   */\n        tag_55:\n            /* \"#utility.yul\":5193:5198   */\n          0x00\n            /* \"#utility.yul\":5218:5284   */\n          tag_110\n            /* \"#utility.yul\":5234:5283   */\n          tag_111\n            /* \"#utility.yul\":5276:5282   */\n          dup5\n            /* \"#utility.yul\":5234:5283   */\n          tag_53\n          jump\t// in\n        tag_111:\n            /* \"#utility.yul\":5218:5284   */\n          tag_52\n          jump\t// in\n        tag_110:\n            /* \"#utility.yul\":5209:5284   */\n          swap1\n          pop\n            /* \"#utility.yul\":5307:5313   */\n          dup3\n            /* \"#utility.yul\":5300:5305   */\n          dup2\n            /* \"#utility.yul\":5293:5314   */\n          mstore\n            /* \"#utility.yul\":5345:5349   */\n          0x20\n            /* \"#utility.yul\":5338:5343   */\n          dup2\n            /* \"#utility.yul\":5334:5350   */\n          add\n            /* \"#utility.yul\":5383:5386   */\n          dup5\n            /* \"#utility.yul\":5374:5380   */\n          dup5\n            /* \"#utility.yul\":5369:5372   */\n          dup5\n            /* \"#utility.yul\":5365:5381   */\n          add\n            /* \"#utility.yul\":5362:5387   */\n          gt\n            /* \"#utility.yul\":5359:5471   */\n          iszero\n          tag_112\n          jumpi\n            /* \"#utility.yul\":5390:5469   */\n          tag_113\n          tag_48\n          jump\t// in\n        tag_113:\n            /* \"#utility.yul\":5359:5471   */\n        tag_112:\n            /* \"#utility.yul\":5480:5534   */\n          tag_114\n            /* \"#utility.yul\":5527:5533   */\n          dup5\n            /* \"#utility.yul\":5522:5525   */\n          dup3\n            /* \"#utility.yul\":5517:5520   */\n          dup6\n            /* \"#utility.yul\":5480:5534   */\n          tag_54\n          jump\t// in\n        tag_114:\n            /* \"#utility.yul\":5199:5540   */\n          pop\n            /* \"#utility.yul\":5115:5540   */\n          swap4\n          swap3\n          pop\n          pop\n          pop\n          jump\t// out\n            /* \"#utility.yul\":5560:5900   */\n        tag_56:\n            /* \"#utility.yul\":5616:5621   */\n          0x00\n            /* \"#utility.yul\":5665:5668   */\n          dup3\n            /* \"#utility.yul\":5658:5662   */\n          0x1f\n            /* \"#utility.yul\":5650:5656   */\n          dup4\n            /* \"#utility.yul\":5646:5663   */\n          add\n            /* \"#utility.yul\":5642:5669   */\n          slt\n            /* \"#utility.yul\":5632:5754   */\n          tag_116\n          jumpi\n            /* \"#utility.yul\":5673:5752   */\n          tag_117\n          tag_47\n          jump\t// in\n        tag_117:\n            /* \"#utility.yul\":5632:5754   */\n        tag_116:\n            /* \"#utility.yul\":5790:5796   */\n          dup2\n            /* \"#utility.yul\":5777:5797   */\n          calldataload\n            /* \"#utility.yul\":5815:5894   */\n          tag_118\n            /* \"#utility.yul\":5890:5893   */\n          dup5\n            /* \"#utility.yul\":5882:5888   */\n          dup3\n            /* \"#utility.yul\":5875:5879   */\n          0x20\n            /* \"#utility.yul\":5867:5873   */\n          dup7\n            /* \"#utility.yul\":5863:5880   */\n          add\n            /* \"#utility.yul\":5815:5894   */\n          tag_55\n          jump\t// in\n        tag_118:\n            /* \"#utility.yul\":5806:5894   */\n          swap2\n          pop\n            /* \"#utility.yul\":5622:5900   */\n          pop\n            /* \"#utility.yul\":5560:5900   */\n          swap3\n          swap2\n          pop\n          pop\n          jump\t// out\n            /* \"#utility.yul\":5906:6028   */\n        tag_57:\n            /* \"#utility.yul\":5979:6003   */\n          tag_120\n            /* \"#utility.yul\":5997:6002   */\n          dup2\n            /* \"#utility.yul\":5979:6003   */\n          tag_37\n          jump\t// in\n        tag_120:\n            /* \"#utility.yul\":5972:5977   */\n          dup2\n            /* \"#utility.yul\":5969:6004   */\n          eq\n            /* \"#utility.yul\":5959:6022   */\n          tag_121\n          jumpi\n            /* \"#utility.yul\":6018:6019   */\n          0x00\n            /* \"#utility.yul\":6015:6016   */\n          0x00\n            /* \"#utility.yul\":6008:6020   */\n          revert\n            /* \"#utility.yul\":5959:6022   */\n        tag_121:\n            /* \"#utility.yul\":5906:6028   */\n          pop\n          jump\t// out\n            /* \"#utility.yul\":6034:6173   */\n        tag_58:\n            /* \"#utility.yul\":6080:6085   */\n          0x00\n            /* \"#utility.yul\":6118:6124   */\n          dup2\n            /* \"#utility.yul\":6105:6125   */\n          calldataload\n            /* \"#utility.yul\":6096:6125   */\n          swap1\n          pop\n            /* \"#utility.yul\":6134:6167   */\n          tag_123\n            /* \"#utility.yul\":6161:6166   */\n          dup2\n            /* \"#utility.yul\":6134:6167   */\n          tag_57\n          jump\t// in\n        tag_123:\n            /* \"#utility.yul\":6034:6173   */\n          swap3\n          swap2\n          pop\n          pop\n          jump\t// out\n            /* \"#utility.yul\":6179:6833   */\n        tag_21:\n            /* \"#utility.yul\":6257:6263   */\n          0x00\n            /* \"#utility.yul\":6265:6271   */\n          0x00\n            /* \"#utility.yul\":6314:6316   */\n          0x40\n            /* \"#utility.yul\":6302:6311   */\n          dup4\n            /* \"#utility.yul\":6293:6300   */\n          dup6\n            /* \"#utility.yul\":6289:6312   */\n          sub\n            /* \"#utility.yul\":6285:6317   */\n          slt\n            /* \"#utility.yul\":6282:6401   */\n          iszero\n          tag_125\n          jumpi\n            /* \"#utility.yul\":6320:6399   */\n          tag_126\n          tag_45\n          jump\t// in\n        tag_126:\n            /* \"#utility.yul\":6282:6401   */\n        tag_125:\n            /* \"#utility.yul\":6468:6469   */\n          0x00\n            /* \"#utility.yul\":6457:6466   */\n          dup4\n            /* \"#utility.yul\":6453:6470   */\n          add\n            /* \"#utility.yul\":6440:6471   */\n          calldataload\n            /* \"#utility.yul\":6498:6516   */\n          0xffffffffffffffff\n            /* \"#utility.yul\":6490:6496   */\n          dup2\n            /* \"#utility.yul\":6487:6517   */\n          gt\n            /* \"#utility.yul\":6484:6601   */\n          iszero\n          tag_127\n          jumpi\n            /* \"#utility.yul\":6520:6599   */\n          tag_128\n          tag_46\n          jump\t// in\n        tag_128:\n            /* \"#utility.yul\":6484:6601   */\n        tag_127:\n            /* \"#utility.yul\":6625:6688   */\n          tag_129\n            /* \"#utility.yul\":6680:6687   */\n          dup6\n            /* \"#utility.yul\":6671:6677   */\n          dup3\n            /* \"#utility.yul\":6660:6669   */\n          dup7\n            /* \"#utility.yul\":6656:6678   */\n          add\n            /* \"#utility.yul\":6625:6688   */\n          tag_56\n          jump\t// in\n        tag_129:\n            /* \"#utility.yul\":6615:6688   */\n          swap3\n          pop\n            /* \"#utility.yul\":6411:6698   */\n          pop\n            /* \"#utility.yul\":6737:6739   */\n          0x20\n            /* \"#utility.yul\":6763:6816   */\n          tag_130\n            /* \"#utility.yul\":6808:6815   */\n          dup6\n            /* \"#utility.yul\":6799:6805   */\n          dup3\n            /* \"#utility.yul\":6788:6797   */\n          dup7\n            /* \"#utility.yul\":6784:6806   */\n          add\n            /* \"#utility.yul\":6763:6816   */\n          tag_58\n          jump\t// in\n        tag_130:\n            /* \"#utility.yul\":6753:6816   */\n          swap2\n          pop\n            /* \"#utility.yul\":6708:6826   */\n          pop\n            /* \"#utility.yul\":6179:6833   */\n          swap3\n          pop\n          swap3\n          swap1\n          pop\n          jump\t// out\n            /* \"#utility.yul\":6839:7061   */\n        tag_28:\n            /* \"#utility.yul\":6932:6936   */\n          0x00\n            /* \"#utility.yul\":6970:6972   */\n          0x20\n            /* \"#utility.yul\":6959:6968   */\n          dup3\n            /* \"#utility.yul\":6955:6973   */\n          add\n            /* \"#utility.yul\":6947:6973   */\n          swap1\n          pop\n            /* \"#utility.yul\":6983:7054   */\n          tag_132\n            /* \"#utility.yul\":7051:7052   */\n          0x00\n            /* \"#utility.yul\":7040:7049   */\n          dup4\n            /* \"#utility.yul\":7036:7053   */\n          add\n            /* \"#utility.yul\":7027:7033   */\n          dup5\n            /* \"#utility.yul\":6983:7054   */\n          tag_36\n          jump\t// in\n        tag_132:\n            /* \"#utility.yul\":6839:7061   */\n          swap3\n          swap2\n          pop\n          pop\n          jump\t// out\n            /* \"#utility.yul\":7067:7166   */\n        tag_59:\n            /* \"#utility.yul\":7119:7125   */\n          0x00\n            /* \"#utility.yul\":7153:7158   */\n          dup2\n            /* \"#utility.yul\":7147:7159   */\n          mload\n            /* \"#utility.yul\":7137:7159   */\n          swap1\n          pop\n            /* \"#utility.yul\":7067:7166   */\n          swap2\n          swap1\n          pop\n          jump\t// out\n            /* \"#utility.yul\":7172:7311   */\n        tag_60:\n            /* \"#utility.yul\":7261:7267   */\n          dup3\n            /* \"#utility.yul\":7256:7259   */\n          dup2\n            /* \"#utility.yul\":7251:7254   */\n          dup4\n            /* \"#utility.yul\":7245:7268   */\n          mcopy\n            /* \"#utility.yul\":7302:7303   */\n          0x00\n            /* \"#utility.yul\":7293:7299   */\n          dup4\n            /* \"#utility.yul\":7288:7291   */\n          dup4\n            /* \"#utility.yul\":7284:7300   */\n          add\n            /* \"#utility.yul\":7277:7304   */\n          mstore\n            /* \"#utility.yul\":7172:7311   */\n          pop\n          pop\n          pop\n          jump\t// out\n            /* \"#utility.yul\":7317:7694   */\n        tag_61:\n            /* \"#utility.yul\":7405:7408   */\n          0x00\n            /* \"#utility.yul\":7433:7472   */\n          tag_136\n            /* \"#utility.yul\":7466:7471   */\n          dup3\n            /* \"#utility.yul\":7433:7472   */\n          tag_59\n          jump\t// in\n        tag_136:\n            /* \"#utility.yul\":7488:7559   */\n          tag_137\n            /* \"#utility.yul\":7552:7558   */\n          dup2\n            /* \"#utility.yul\":7547:7550   */\n          dup6\n            /* \"#utility.yul\":7488:7559   */\n          tag_39\n          jump\t// in\n        tag_137:\n            /* \"#utility.yul\":7481:7559   */\n          swap4\n          pop\n            /* \"#utility.yul\":7568:7633   */\n          tag_138\n            /* \"#utility.yul\":7626:7632   */\n          dup2\n            /* \"#utility.yul\":7621:7624   */\n          dup6\n            /* \"#utility.yul\":7614:7618   */\n          0x20\n            /* \"#utility.yul\":7607:7612   */\n          dup7\n            /* \"#utility.yul\":7603:7619   */\n          add\n            /* \"#utility.yul\":7568:7633   */\n          tag_60\n          jump\t// in\n        tag_138:\n            /* \"#utility.yul\":7658:7687   */\n          tag_139\n            /* \"#utility.yul\":7680:7686   */\n          dup2\n            /* \"#utility.yul\":7658:7687   */\n          tag_49\n          jump\t// in\n        tag_139:\n            /* \"#utility.yul\":7653:7656   */\n          dup5\n            /* \"#utility.yul\":7649:7688   */\n          add\n            /* \"#utility.yul\":7642:7688   */\n          swap2\n          pop\n            /* \"#utility.yul\":7409:7694   */\n          pop\n            /* \"#utility.yul\":7317:7694   */\n          swap3\n          swap2\n          pop\n          pop\n          jump\t// out\n            /* \"#utility.yul\":7700:8233   */\n        tag_32:\n            /* \"#utility.yul\":7869:7873   */\n          0x00\n            /* \"#utility.yul\":7907:7909   */\n          0x60\n            /* \"#utility.yul\":7896:7905   */\n          dup3\n            /* \"#utility.yul\":7892:7910   */\n          add\n            /* \"#utility.yul\":7884:7910   */\n          swap1\n          pop\n            /* \"#utility.yul\":7920:7991   */\n          tag_141\n            /* \"#utility.yul\":7988:7989   */\n          0x00\n            /* \"#utility.yul\":7977:7986   */\n          dup4\n            /* \"#utility.yul\":7973:7990   */\n          add\n            /* \"#utility.yul\":7964:7970   */\n          dup7\n            /* \"#utility.yul\":7920:7991   */\n          tag_36\n          jump\t// in\n        tag_141:\n            /* \"#utility.yul\":8001:8073   */\n          tag_142\n            /* \"#utility.yul\":8069:8071   */\n          0x20\n            /* \"#utility.yul\":8058:8067   */\n          dup4\n            /* \"#utility.yul\":8054:8072   */\n          add\n            /* \"#utility.yul\":8045:8051   */\n          dup6\n            /* \"#utility.yul\":8001:8073   */\n          tag_38\n          jump\t// in\n        tag_142:\n            /* \"#utility.yul\":8120:8129   */\n          dup2\n            /* \"#utility.yul\":8114:8118   */\n          dup2\n            /* \"#utility.yul\":8110:8130   */\n          sub\n            /* \"#utility.yul\":8105:8107   */\n          0x40\n            /* \"#utility.yul\":8094:8103   */\n          dup4\n            /* \"#utility.yul\":8090:8108   */\n          add\n            /* \"#utility.yul\":8083:8131   */\n          mstore\n            /* \"#utility.yul\":8148:8226   */\n          tag_143\n            /* \"#utility.yul\":8221:8225   */\n          dup2\n            /* \"#utility.yul\":8212:8218   */\n          dup5\n            /* \"#utility.yul\":8148:8226   */\n          tag_61\n          jump\t// in\n        tag_143:\n            /* \"#utility.yul\":8140:8226   */\n          swap1\n          pop\n            /* \"#utility.yul\":7700:8233   */\n          swap5\n          swap4\n          pop\n          pop\n          pop\n          pop\n          jump\t// out\n\n        auxdata: 0xa264697066735822122009c34728018d9282861f0199f7b3a94c78f249c09c947ce2ed50878e26de1ec564736f6c634300081e0033\n    }\n}\n",
				"bytecode": {
					"linkReferences": {},
					"object": "6080604052348015600e575f5ffd5b506040516019906074565b604051809103905ff0801580156031573d5f5f3e3d5ffd5b505f5f6101000a81548173ffffffffffffffffffffffffffffffffffffffff021916908373ffffffffffffffffffffffffffffffffffffffff1602179055506081565b6105d98061087383390190565b6107e58061008e5f395ff3fe60806040526004361061003e575f3560e01c806312065fe0146100425780632799b47d1461006c57806338cc4831146100885780639fc78a19146100b2575b5f5ffd5b34801561004d575f5ffd5b506100566100ce565b60405161006391906103ec565b60405180910390f35b6100866004803603810190610081919061048d565b610161565b005b348015610093575f5ffd5b5061009c610299565b6040516100a991906104eb565b60405180910390f35b6100cc60048036038101906100c79190610504565b61032c565b005b5f5f5f9054906101000a900473ffffffffffffffffffffffffffffffffffffffff1673ffffffffffffffffffffffffffffffffffffffff166312065fe06040518163ffffffff1660e01b8152600401602060405180830381865afa158015610138573d5f5f3e3d5ffd5b505050506040513d601f19601f8201168201806040525081019061015c9190610543565b905090565b5f5f8373ffffffffffffffffffffffffffffffffffffffff16348460405160240161018c91906105c8565b6040516020818303038152906040527f24ccab8f000000000000000000000000000000000000000000000000000000007bffffffffffffffffffffffffffffffffffffffffffffffffffffffff19166020820180517bffffffffffffffffffffffffffffffffffffffffffffffffffffffff83818316178352505050506040516102169190610646565b5f6040518083038185875af1925050503d805f8114610250576040519150601f19603f3d011682016040523d82523d5f602084013e610255565b606091505b50915091507f63180fd95ddebb9c3c86fc19b9d99b20fcfc6dae8653a0d87538132947191270828260405161028b9291906106ce565b60405180910390a150505050565b5f5f5f9054906101000a900473ffffffffffffffffffffffffffffffffffffffff1673ffffffffffffffffffffffffffffffffffffffff166338cc48316040518163ffffffff1660e01b8152600401602060405180830381865afa158015610303573d5f5f3e3d5ffd5b505050506040513d601f19601f820116820180604052508101906103279190610726565b905090565b5f5f8273ffffffffffffffffffffffffffffffffffffffff16346040516103529061079b565b5f6040518083038185875af1925050503d805f811461038c576040519150601f19603f3d011682016040523d82523d5f602084013e610391565b606091505b50915091507f63180fd95ddebb9c3c86fc19b9d99b20fcfc6dae8653a0d8753813294719127082826040516103c79291906106ce565b60405180910390a1505050565b5f819050919050565b6103e6816103d4565b82525050565b5f6020820190506103ff5f8301846103dd565b92915050565b5f5ffd5b5f73ffffffffffffffffffffffffffffffffffffffff82169050919050565b5f61043282610409565b9050919050565b61044281610428565b811461044c575f5ffd5b50565b5f8135905061045d81610439565b92915050565b61046c816103d4565b8114610476575f5ffd5b50565b5f8135905061048781610463565b92915050565b5f5f604083850312156104a3576104a2610405565b5b5f6104b08582860161044f565b92505060206104c185828601610479565b9150509250929050565b5f6104d582610409565b9050919050565b6104e5816104cb565b82525050565b5f6020820190506104fe5f8301846104dc565b92915050565b5f6020828403121561051957610518610405565b5b5f6105268482850161044f565b91505092915050565b5f8151905061053d81610463565b92915050565b5f6020828403121561055857610557610405565b5b5f6105658482850161052f565b91505092915050565b5f82825260208201905092915050565b7f63616c6c20666f6f0000000000000000000000000000000000000000000000005f82015250565b5f6105b260088361056e565b91506105bd8261057e565b602082019050919050565b5f6040820190508181035f8301526105df816105a6565b90506105ee60208301846103dd565b92915050565b5f81519050919050565b5f81905092915050565b8281835e5f83830152505050565b5f610620826105f4565b61062a81856105fe565b935061063a818560208601610608565b80840191505092915050565b5f6106518284610616565b915081905092915050565b5f8115159050919050565b6106708161065c565b82525050565b5f82825260208201905092915050565b5f601f19601f8301169050919050565b5f6106a0826105f4565b6106aa8185610676565b93506106ba818560208601610608565b6106c381610686565b840191505092915050565b5f6040820190506106e15f830185610667565b81810360208301526106f38184610696565b90509392505050565b610705816104cb565b811461070f575f5ffd5b50565b5f81519050610720816106fc565b92915050565b5f6020828403121561073b5761073a610405565b5b5f61074884828501610712565b91505092915050565b7f78797a00000000000000000000000000000000000000000000000000000000005f82015250565b5f6107856003836105fe565b915061079082610751565b600382019050919050565b5f6107a582610779565b915081905091905056fea264697066735822122087b94d8100abde4bd5b588b82e13fd799efee5bbd1330be4e40808c212020f9164736f6c634300081e00336080604052348015600e575f5ffd5b506105bd8061001c5f395ff3fe608060405260043610610037575f3560e01c806312065fe0146100b257806324ccab8f146100dc57806338cc48311461010c57610077565b36610077577f59e04c3f0d44b7caf6e8ef854b61d9a51cf1960d7a88ff6356cc5e946b4b5832333460405161006d92919061023a565b60405180910390a1005b7f59e04c3f0d44b7caf6e8ef854b61d9a51cf1960d7a88ff6356cc5e946b4b583233346040516100a89291906102be565b60405180910390a1005b3480156100bd575f5ffd5b506100c6610136565b6040516100d391906102f8565b60405180910390f35b6100f660048036038101906100f19190610488565b61013d565b60405161010391906102f8565b60405180910390f35b348015610117575f5ffd5b50610120610182565b60405161012d91906104e2565b60405180910390f35b5f47905090565b5f7f59e04c3f0d44b7caf6e8ef854b61d9a51cf1960d7a88ff6356cc5e946b4b58323334856040516101719392919061054b565b60405180910390a181905092915050565b5f30905090565b5f73ffffffffffffffffffffffffffffffffffffffff82169050919050565b5f6101b282610189565b9050919050565b6101c2816101a8565b82525050565b5f819050919050565b6101da816101c8565b82525050565b5f82825260208201905092915050565b7f72656365697665207761732063616c6c656400000000000000000000000000005f82015250565b5f6102246012836101e0565b915061022f826101f0565b602082019050919050565b5f60608201905061024d5f8301856101b9565b61025a60208301846101d1565b818103604083015261026b81610218565b90509392505050565b7f66616c6c6261636b207761732063616c6c6564000000000000000000000000005f82015250565b5f6102a86013836101e0565b91506102b382610274565b602082019050919050565b5f6060820190506102d15f8301856101b9565b6102de60208301846101d1565b81810360408301526102ef8161029c565b90509392505050565b5f60208201905061030b5f8301846101d1565b92915050565b5f604051905090565b5f5ffd5b5f5ffd5b5f5ffd5b5f5ffd5b5f601f19601f8301169050919050565b7f4e487b71000000000000000000000000000000000000000000000000000000005f52604160045260245ffd5b6103708261032a565b810181811067ffffffffffffffff8211171561038f5761038e61033a565b5b80604052505050565b5f6103a1610311565b90506103ad8282610367565b919050565b5f67ffffffffffffffff8211156103cc576103cb61033a565b5b6103d58261032a565b9050602081019050919050565b828183375f83830152505050565b5f6104026103fd846103b2565b610398565b90508281526020810184848401111561041e5761041d610326565b5b6104298482856103e2565b509392505050565b5f82601f83011261044557610444610322565b5b81356104558482602086016103f0565b91505092915050565b610467816101c8565b8114610471575f5ffd5b50565b5f813590506104828161045e565b92915050565b5f5f6040838503121561049e5761049d61031a565b5b5f83013567ffffffffffffffff8111156104bb576104ba61031e565b5b6104c785828601610431565b92505060206104d885828601610474565b9150509250929050565b5f6020820190506104f55f8301846101b9565b92915050565b5f81519050919050565b8281835e5f83830152505050565b5f61051d826104fb565b61052781856101e0565b9350610537818560208601610505565b6105408161032a565b840191505092915050565b5f60608201905061055e5f8301866101b9565b61056b60208301856101d1565b818103604083015261057d8184610513565b905094935050505056fea264697066735822122009c34728018d9282861f0199f7b3a94c78f249c09c947ce2ed50878e26de1ec564736f6c634300081e0033",
					"opcodes": "PUSH1 0x80 PUSH1 0x40 MSTORE CALLVALUE DUP1 ISZERO PUSH1 0xE JUMPI PUSH0 PUSH0 REVERT JUMPDEST POP PUSH1 0x40 MLOAD PUSH1 0x19 SWAP1 PUSH1 0x74 JUMP JUMPDEST PUSH1 0x40 MLOAD DUP1 SWAP2 SUB SWAP1 PUSH0 CREATE DUP1 ISZERO DUP1 ISZERO PUSH1 0x31 JUMPI RETURNDATASIZE PUSH0 PUSH0 RETURNDATACOPY RETURNDATASIZE PUSH0 REVERT JUMPDEST POP PUSH0 PUSH0 PUSH2 0x100 EXP DUP2 SLOAD DUP2 PUSH20 0xFFFFFFFFFFFFFFFFFFFFFFFFFFFFFFFFFFFFFFFF MUL NOT AND SWAP1 DUP4 PUSH20 0xFFFFFFFFFFFFFFFFFFFFFFFFFFFFFFFFFFFFFFFF AND MUL OR SWAP1 SSTORE POP PUSH1 0x81 JUMP JUMPDEST PUSH2 0x5D9 DUP1 PUSH2 0x873 DUP4 CODECOPY ADD SWAP1 JUMP JUMPDEST PUSH2 0x7E5 DUP1 PUSH2 0x8E PUSH0 CODECOPY PUSH0 RETURN INVALID PUSH1 0x80 PUSH1 0x40 MSTORE PUSH1 0x4 CALLDATASIZE LT PUSH2 0x3E JUMPI PUSH0 CALLDATALOAD PUSH1 0xE0 SHR DUP1 PUSH4 0x12065FE0 EQ PUSH2 0x42 JUMPI DUP1 PUSH4 0x2799B47D EQ PUSH2 0x6C JUMPI DUP1 PUSH4 0x38CC4831 EQ PUSH2 0x88 JUMPI DUP1 PUSH4 0x9FC78A19 EQ PUSH2 0xB2 JUMPI JUMPDEST PUSH0 PUSH0 REVERT JUMPDEST CALLVALUE DUP1 ISZERO PUSH2 0x4D JUMPI PUSH0 PUSH0 REVERT JUMPDEST POP PUSH2 0x56 PUSH2 0xCE JUMP JUMPDEST PUSH1 0x40 MLOAD PUSH2 0x63 SWAP2 SWAP1 PUSH2 0x3EC JUMP JUMPDEST PUSH1 0x40 MLOAD DUP1 SWAP2 SUB SWAP1 RETURN JUMPDEST PUSH2 0x86 PUSH1 0x4 DUP1 CALLDATASIZE SUB DUP2 ADD SWAP1 PUSH2 0x81 SWAP2 SWAP1 PUSH2 0x48D JUMP JUMPDEST PUSH2 0x161 JUMP JUMPDEST STOP JUMPDEST CALLVALUE DUP1 ISZERO PUSH2 0x93 JUMPI PUSH0 PUSH0 REVERT JUMPDEST POP PUSH2 0x9C PUSH2 0x299 JUMP JUMPDEST PUSH1 0x40 MLOAD PUSH2 0xA9 SWAP2 SWAP1 PUSH2 0x4EB JUMP JUMPDEST PUSH1 0x40 MLOAD DUP1 SWAP2 SUB SWAP1 RETURN JUMPDEST PUSH2 0xCC PUSH1 0x4 DUP1 CALLDATASIZE SUB DUP2 ADD SWAP1 PUSH2 0xC7 SWAP2 SWAP1 PUSH2 0x504 JUMP JUMPDEST PUSH2 0x32C JUMP JUMPDEST STOP JUMPDEST PUSH0 PUSH0 PUSH0 SWAP1 SLOAD SWAP1 PUSH2 0x100 EXP SWAP1 DIV PUSH20 0xFFFFFFFFFFFFFFFFFFFFFFFFFFFFFFFFFFFFFFFF AND PUSH20 0xFFFFFFFFFFFFFFFFFFFFFFFFFFFFFFFFFFFFFFFF AND PUSH4 0x12065FE0 PUSH1 0x40 MLOAD DUP2 PUSH4 0xFFFFFFFF AND PUSH1 0xE0 SHL DUP2 MSTORE PUSH1 0x4 ADD PUSH1 0x20 PUSH1 0x40 MLOAD DUP1 DUP4 SUB DUP2 DUP7 GAS STATICCALL ISZERO DUP1 ISZERO PUSH2 0x138 JUMPI RETURNDATASIZE PUSH0 PUSH0 RETURNDATACOPY RETURNDATASIZE PUSH0 REVERT JUMPDEST POP POP POP POP PUSH1 0x40 MLOAD RETURNDATASIZE PUSH1 0x1F NOT PUSH1 0x1F DUP3 ADD AND DUP3 ADD DUP1 PUSH1 0x40 MSTORE POP DUP2 ADD SWAP1 PUSH2 0x15C SWAP2 SWAP1 PUSH2 0x543 JUMP JUMPDEST SWAP1 POP SWAP1 JUMP JUMPDEST PUSH0 PUSH0 DUP4 PUSH20 0xFFFFFFFFFFFFFFFFFFFFFFFFFFFFFFFFFFFFFFFF AND CALLVALUE DUP5 PUSH1 0x40 MLOAD PUSH1 0x24 ADD PUSH2 0x18C SWAP2 SWAP1 PUSH2 0x5C8 JUMP JUMPDEST PUSH1 0x40 MLOAD PUSH1 0x20 DUP2 DUP4 SUB SUB DUP2 MSTORE SWAP1 PUSH1 0x40 MSTORE PUSH32 0x24CCAB8F00000000000000000000000000000000000000000000000000000000 PUSH28 0xFFFFFFFFFFFFFFFFFFFFFFFFFFFFFFFFFFFFFFFFFFFFFFFFFFFFFFFF NOT AND PUSH1 0x20 DUP3 ADD DUP1 MLOAD PUSH28 0xFFFFFFFFFFFFFFFFFFFFFFFFFFFFFFFFFFFFFFFFFFFFFFFFFFFFFFFF DUP4 DUP2 DUP4 AND OR DUP4 MSTORE POP POP POP POP PUSH1 0x40 MLOAD PUSH2 0x216 SWAP2 SWAP1 PUSH2 0x646 JUMP JUMPDEST PUSH0 PUSH1 0x40 MLOAD DUP1 DUP4 SUB DUP2 DUP6 DUP8 GAS CALL SWAP3 POP POP POP RETURNDATASIZE DUP1 PUSH0 DUP2 EQ PUSH2 0x250 JUMPI PUSH1 0x40 MLOAD SWAP2 POP PUSH1 0x1F NOT PUSH1 0x3F RETURNDATASIZE ADD AND DUP3 ADD PUSH1 0x40 MSTORE RETURNDATASIZE DUP3 MSTORE RETURNDATASIZE PUSH0 PUSH1 0x20 DUP5 ADD RETURNDATACOPY PUSH2 0x255 JUMP JUMPDEST PUSH1 0x60 SWAP2 POP JUMPDEST POP SWAP2 POP SWAP2 POP PUSH32 0x63180FD95DDEBB9C3C86FC19B9D99B20FCFC6DAE8653A0D87538132947191270 DUP3 DUP3 PUSH1 0x40 MLOAD PUSH2 0x28B SWAP3 SWAP2 SWAP1 PUSH2 0x6CE JUMP JUMPDEST PUSH1 0x40 MLOAD DUP1 SWAP2 SUB SWAP1 LOG1 POP POP POP POP JUMP JUMPDEST PUSH0 PUSH0 PUSH0 SWAP1 SLOAD SWAP1 PUSH2 0x100 EXP SWAP1 DIV PUSH20 0xFFFFFFFFFFFFFFFFFFFFFFFFFFFFFFFFFFFFFFFF AND PUSH20 0xFFFFFFFFFFFFFFFFFFFFFFFFFFFFFFFFFFFFFFFF AND PUSH4 0x38CC4831 PUSH1 0x40 MLOAD DUP2 PUSH4 0xFFFFFFFF AND PUSH1 0xE0 SHL DUP2 MSTORE PUSH1 0x4 ADD PUSH1 0x20 PUSH1 0x40 MLOAD DUP1 DUP4 SUB DUP2 DUP7 GAS STATICCALL ISZERO DUP1 ISZERO PUSH2 0x303 JUMPI RETURNDATASIZE PUSH0 PUSH0 RETURNDATACOPY RETURNDATASIZE PUSH0 REVERT JUMPDEST POP POP POP POP PUSH1 0x40 MLOAD RETURNDATASIZE PUSH1 0x1F NOT PUSH1 0x1F DUP3 ADD AND DUP3 ADD DUP1 PUSH1 0x40 MSTORE POP DUP2 ADD SWAP1 PUSH2 0x327 SWAP2 SWAP1 PUSH2 0x726 JUMP JUMPDEST SWAP1 POP SWAP1 JUMP JUMPDEST PUSH0 PUSH0 DUP3 PUSH20 0xFFFFFFFFFFFFFFFFFFFFFFFFFFFFFFFFFFFFFFFF AND CALLVALUE PUSH1 0x40 MLOAD PUSH2 0x352 SWAP1 PUSH2 0x79B JUMP JUMPDEST PUSH0 PUSH1 0x40 MLOAD DUP1 DUP4 SUB DUP2 DUP6 DUP8 GAS CALL SWAP3 POP POP POP RETURNDATASIZE DUP1 PUSH0 DUP2 EQ PUSH2 0x38C JUMPI PUSH1 0x40 MLOAD SWAP2 POP PUSH1 0x1F NOT PUSH1 0x3F RETURNDATASIZE ADD AND DUP3 ADD PUSH1 0x40 MSTORE RETURNDATASIZE DUP3 MSTORE RETURNDATASIZE PUSH0 PUSH1 0x20 DUP5 ADD RETURNDATACOPY PUSH2 0x391 JUMP JUMPDEST PUSH1 0x60 SWAP2 POP JUMPDEST POP SWAP2 POP SWAP2 POP PUSH32 0x63180FD95DDEBB9C3C86FC19B9D99B20FCFC6DAE8653A0D87538132947191270 DUP3 DUP3 PUSH1 0x40 MLOAD PUSH2 0x3C7 SWAP3 SWAP2 SWAP1 PUSH2 0x6CE JUMP JUMPDEST PUSH1 0x40 MLOAD DUP1 SWAP2 SUB SWAP1 LOG1 POP POP POP JUMP JUMPDEST PUSH0 DUP2 SWAP1 POP SWAP2 SWAP1 POP JUMP JUMPDEST PUSH2 0x3E6 DUP2 PUSH2 0x3D4 JUMP JUMPDEST DUP3 MSTORE POP POP JUMP JUMPDEST PUSH0 PUSH1 0x20 DUP3 ADD SWAP1 POP PUSH2 0x3FF PUSH0 DUP4 ADD DUP5 PUSH2 0x3DD JUMP JUMPDEST SWAP3 SWAP2 POP POP JUMP JUMPDEST PUSH0 PUSH0 REVERT JUMPDEST PUSH0 PUSH20 0xFFFFFFFFFFFFFFFFFFFFFFFFFFFFFFFFFFFFFFFF DUP3 AND SWAP1 POP SWAP2 SWAP1 POP JUMP JUMPDEST PUSH0 PUSH2 0x432 DUP3 PUSH2 0x409 JUMP JUMPDEST SWAP1 POP SWAP2 SWAP1 POP JUMP JUMPDEST PUSH2 0x442 DUP2 PUSH2 0x428 JUMP JUMPDEST DUP2 EQ PUSH2 0x44C JUMPI PUSH0 PUSH0 REVERT JUMPDEST POP JUMP JUMPDEST PUSH0 DUP2 CALLDATALOAD SWAP1 POP PUSH2 0x45D DUP2 PUSH2 0x439 JUMP JUMPDEST SWAP3 SWAP2 POP POP JUMP JUMPDEST PUSH2 0x46C DUP2 PUSH2 0x3D4 JUMP JUMPDEST DUP2 EQ PUSH2 0x476 JUMPI PUSH0 PUSH0 REVERT JUMPDEST POP JUMP JUMPDEST PUSH0 DUP2 CALLDATALOAD SWAP1 POP PUSH2 0x487 DUP2 PUSH2 0x463 JUMP JUMPDEST SWAP3 SWAP2 POP POP JUMP JUMPDEST PUSH0 PUSH0 PUSH1 0x40 DUP4 DUP6 SUB SLT ISZERO PUSH2 0x4A3 JUMPI PUSH2 0x4A2 PUSH2 0x405 JUMP JUMPDEST JUMPDEST PUSH0 PUSH2 0x4B0 DUP6 DUP3 DUP7 ADD PUSH2 0x44F JUMP JUMPDEST SWAP3 POP POP PUSH1 0x20 PUSH2 0x4C1 DUP6 DUP3 DUP7 ADD PUSH2 0x479 JUMP JUMPDEST SWAP2 POP POP SWAP3 POP SWAP3 SWAP1 POP JUMP JUMPDEST PUSH0 PUSH2 0x4D5 DUP3 PUSH2 0x409 JUMP JUMPDEST SWAP1 POP SWAP2 SWAP1 POP JUMP JUMPDEST PUSH2 0x4E5 DUP2 PUSH2 0x4CB JUMP JUMPDEST DUP3 MSTORE POP POP JUMP JUMPDEST PUSH0 PUSH1 0x20 DUP3 ADD SWAP1 POP PUSH2 0x4FE PUSH0 DUP4 ADD DUP5 PUSH2 0x4DC JUMP JUMPDEST SWAP3 SWAP2 POP POP JUMP JUMPDEST PUSH0 PUSH1 0x20 DUP3 DUP5 SUB SLT ISZERO PUSH2 0x519 JUMPI PUSH2 0x518 PUSH2 0x405 JUMP JUMPDEST JUMPDEST PUSH0 PUSH2 0x526 DUP5 DUP3 DUP6 ADD PUSH2 0x44F JUMP JUMPDEST SWAP2 POP POP SWAP3 SWAP2 POP POP JUMP JUMPDEST PUSH0 DUP2 MLOAD SWAP1 POP PUSH2 0x53D DUP2 PUSH2 0x463 JUMP JUMPDEST SWAP3 SWAP2 POP POP JUMP JUMPDEST PUSH0 PUSH1 0x20 DUP3 DUP5 SUB SLT ISZERO PUSH2 0x558 JUMPI PUSH2 0x557 PUSH2 0x405 JUMP JUMPDEST JUMPDEST PUSH0 PUSH2 0x565 DUP5 DUP3 DUP6 ADD PUSH2 0x52F JUMP JUMPDEST SWAP2 POP POP SWAP3 SWAP2 POP POP JUMP JUMPDEST PUSH0 DUP3 DUP3 MSTORE PUSH1 0x20 DUP3 ADD SWAP1 POP SWAP3 SWAP2 POP POP JUMP JUMPDEST PUSH32 0x63616C6C20666F6F000000000000000000000000000000000000000000000000 PUSH0 DUP3 ADD MSTORE POP JUMP JUMPDEST PUSH0 PUSH2 0x5B2 PUSH1 0x8 DUP4 PUSH2 0x56E JUMP JUMPDEST SWAP2 POP PUSH2 0x5BD DUP3 PUSH2 0x57E JUMP JUMPDEST PUSH1 0x20 DUP3 ADD SWAP1 POP SWAP2 SWAP1 POP JUMP JUMPDEST PUSH0 PUSH1 0x40 DUP3 ADD SWAP1 POP DUP2 DUP2 SUB PUSH0 DUP4 ADD MSTORE PUSH2 0x5DF DUP2 PUSH2 0x5A6 JUMP JUMPDEST SWAP1 POP PUSH2 0x5EE PUSH1 0x20 DUP4 ADD DUP5 PUSH2 0x3DD JUMP JUMPDEST SWAP3 SWAP2 POP POP JUMP JUMPDEST PUSH0 DUP2 MLOAD SWAP1 POP SWAP2 SWAP1 POP JUMP JUMPDEST PUSH0 DUP2 SWAP1 POP SWAP3 SWAP2 POP POP JUMP JUMPDEST DUP3 DUP2 DUP4 MCOPY PUSH0 DUP4 DUP4 ADD MSTORE POP POP POP JUMP JUMPDEST PUSH0 PUSH2 0x620 DUP3 PUSH2 0x5F4 JUMP JUMPDEST PUSH2 0x62A DUP2 DUP6 PUSH2 0x5FE JUMP JUMPDEST SWAP4 POP PUSH2 0x63A DUP2 DUP6 PUSH1 0x20 DUP7 ADD PUSH2 0x608 JUMP JUMPDEST DUP1 DUP5 ADD SWAP2 POP POP SWAP3 SWAP2 POP POP JUMP JUMPDEST PUSH0 PUSH2 0x651 DUP3 DUP5 PUSH2 0x616 JUMP JUMPDEST SWAP2 POP DUP2 SWAP1 POP SWAP3 SWAP2 POP POP JUMP JUMPDEST PUSH0 DUP2 ISZERO ISZERO SWAP1 POP SWAP2 SWAP1 POP JUMP JUMPDEST PUSH2 0x670 DUP2 PUSH2 0x65C JUMP JUMPDEST DUP3 MSTORE POP POP JUMP JUMPDEST PUSH0 DUP3 DUP3 MSTORE PUSH1 0x20 DUP3 ADD SWAP1 POP SWAP3 SWAP2 POP POP JUMP JUMPDEST PUSH0 PUSH1 0x1F NOT PUSH1 0x1F DUP4 ADD AND SWAP1 POP SWAP2 SWAP1 POP JUMP JUMPDEST PUSH0 PUSH2 0x6A0 DUP3 PUSH2 0x5F4 JUMP JUMPDEST PUSH2 0x6AA DUP2 DUP6 PUSH2 0x676 JUMP JUMPDEST SWAP4 POP PUSH2 0x6BA DUP2 DUP6 PUSH1 0x20 DUP7 ADD PUSH2 0x608 JUMP JUMPDEST PUSH2 0x6C3 DUP2 PUSH2 0x686 JUMP JUMPDEST DUP5 ADD SWAP2 POP POP SWAP3 SWAP2 POP POP JUMP JUMPDEST PUSH0 PUSH1 0x40 DUP3 ADD SWAP1 POP PUSH2 0x6E1 PUSH0 DUP4 ADD DUP6 PUSH2 0x667 JUMP JUMPDEST DUP2 DUP2 SUB PUSH1 0x20 DUP4 ADD MSTORE PUSH2 0x6F3 DUP2 DUP5 PUSH2 0x696 JUMP JUMPDEST SWAP1 POP SWAP4 SWAP3 POP POP POP JUMP JUMPDEST PUSH2 0x705 DUP2 PUSH2 0x4CB JUMP JUMPDEST DUP2 EQ PUSH2 0x70F JUMPI PUSH0 PUSH0 REVERT JUMPDEST POP JUMP JUMPDEST PUSH0 DUP2 MLOAD SWAP1 POP PUSH2 0x720 DUP2 PUSH2 0x6FC JUMP JUMPDEST SWAP3 SWAP2 POP POP JUMP JUMPDEST PUSH0 PUSH1 0x20 DUP3 DUP5 SUB SLT ISZERO PUSH2 0x73B JUMPI PUSH2 0x73A PUSH2 0x405 JUMP JUMPDEST JUMPDEST PUSH0 PUSH2 0x748 DUP5 DUP3 DUP6 ADD PUSH2 0x712 JUMP JUMPDEST SWAP2 POP POP SWAP3 SWAP2 POP POP JUMP JUMPDEST PUSH32 0x78797A0000000000000000000000000000000000000000000000000000000000 PUSH0 DUP3 ADD MSTORE POP JUMP JUMPDEST PUSH0 PUSH2 0x785 PUSH1 0x3 DUP4 PUSH2 0x5FE JUMP JUMPDEST SWAP2 POP PUSH2 0x790 DUP3 PUSH2 0x751 JUMP JUMPDEST PUSH1 0x3 DUP3 ADD SWAP1 POP SWAP2 SWAP1 POP JUMP JUMPDEST PUSH0 PUSH2 0x7A5 DUP3 PUSH2 0x779 JUMP JUMPDEST SWAP2 POP DUP2 SWAP1 POP SWAP2 SWAP1 POP JUMP INVALID LOG2 PUSH5 0x6970667358 0x22 SLT KECCAK256 DUP8 0xB9 0x4D DUP2 STOP 0xAB 0xDE 0x4B 0xD5 0xB5 DUP9 0xB8 0x2E SGT REVERT PUSH26 0x9EFEE5BBD1330BE4E40808C212020F9164736F6C634300081E00 CALLER PUSH1 0x80 PUSH1 0x40 MSTORE CALLVALUE DUP1 ISZERO PUSH1 0xE JUMPI PUSH0 PUSH0 REVERT JUMPDEST POP PUSH2 0x5BD DUP1 PUSH2 0x1C PUSH0 CODECOPY PUSH0 RETURN INVALID PUSH1 0x80 PUSH1 0x40 MSTORE PUSH1 0x4 CALLDATASIZE LT PUSH2 0x37 JUMPI PUSH0 CALLDATALOAD PUSH1 0xE0 SHR DUP1 PUSH4 0x12065FE0 EQ PUSH2 0xB2 JUMPI DUP1 PUSH4 0x24CCAB8F EQ PUSH2 0xDC JUMPI DUP1 PUSH4 0x38CC4831 EQ PUSH2 0x10C JUMPI PUSH2 0x77 JUMP JUMPDEST CALLDATASIZE PUSH2 0x77 JUMPI PUSH32 0x59E04C3F0D44B7CAF6E8EF854B61D9A51CF1960D7A88FF6356CC5E946B4B5832 CALLER CALLVALUE PUSH1 0x40 MLOAD PUSH2 0x6D SWAP3 SWAP2 SWAP1 PUSH2 0x23A JUMP JUMPDEST PUSH1 0x40 MLOAD DUP1 SWAP2 SUB SWAP1 LOG1 STOP JUMPDEST PUSH32 0x59E04C3F0D44B7CAF6E8EF854B61D9A51CF1960D7A88FF6356CC5E946B4B5832 CALLER CALLVALUE PUSH1 0x40 MLOAD PUSH2 0xA8 SWAP3 SWAP2 SWAP1 PUSH2 0x2BE JUMP JUMPDEST PUSH1 0x40 MLOAD DUP1 SWAP2 SUB SWAP1 LOG1 STOP JUMPDEST CALLVALUE DUP1 ISZERO PUSH2 0xBD JUMPI PUSH0 PUSH0 REVERT JUMPDEST POP PUSH2 0xC6 PUSH2 0x136 JUMP JUMPDEST PUSH1 0x40 MLOAD PUSH2 0xD3 SWAP2 SWAP1 PUSH2 0x2F8 JUMP JUMPDEST PUSH1 0x40 MLOAD DUP1 SWAP2 SUB SWAP1 RETURN JUMPDEST PUSH2 0xF6 PUSH1 0x4 DUP1 CALLDATASIZE SUB DUP2 ADD SWAP1 PUSH2 0xF1 SWAP2 SWAP1 PUSH2 0x488 JUMP JUMPDEST PUSH2 0x13D JUMP JUMPDEST PUSH1 0x40 MLOAD PUSH2 0x103 SWAP2 SWAP1 PUSH2 0x2F8 JUMP JUMPDEST PUSH1 0x40 MLOAD DUP1 SWAP2 SUB SWAP1 RETURN JUMPDEST CALLVALUE DUP1 ISZERO PUSH2 0x117 JUMPI PUSH0 PUSH0 REVERT JUMPDEST POP PUSH2 0x120 PUSH2 0x182 JUMP JUMPDEST PUSH1 0x40 MLOAD PUSH2 0x12D SWAP2 SWAP1 PUSH2 0x4E2 JUMP JUMPDEST PUSH1 0x40 MLOAD DUP1 SWAP2 SUB SWAP1 RETURN JUMPDEST PUSH0 SELFBALANCE SWAP1 POP SWAP1 JUMP JUMPDEST PUSH0 PUSH32 0x59E04C3F0D44B7CAF6E8EF854B61D9A51CF1960D7A88FF6356CC5E946B4B5832 CALLER CALLVALUE DUP6 PUSH1 0x40 MLOAD PUSH2 0x171 SWAP4 SWAP3 SWAP2 SWAP1 PUSH2 0x54B JUMP JUMPDEST PUSH1 0x40 MLOAD DUP1 SWAP2 SUB SWAP1 LOG1 DUP2 SWAP1 POP SWAP3 SWAP2 POP POP JUMP JUMPDEST PUSH0 ADDRESS SWAP1 POP SWAP1 JUMP JUMPDEST PUSH0 PUSH20 0xFFFFFFFFFFFFFFFFFFFFFFFFFFFFFFFFFFFFFFFF DUP3 AND SWAP1 POP SWAP2 SWAP1 POP JUMP JUMPDEST PUSH0 PUSH2 0x1B2 DUP3 PUSH2 0x189 JUMP JUMPDEST SWAP1 POP SWAP2 SWAP1 POP JUMP JUMPDEST PUSH2 0x1C2 DUP2 PUSH2 0x1A8 JUMP JUMPDEST DUP3 MSTORE POP POP JUMP JUMPDEST PUSH0 DUP2 SWAP1 POP SWAP2 SWAP1 POP JUMP JUMPDEST PUSH2 0x1DA DUP2 PUSH2 0x1C8 JUMP JUMPDEST DUP3 MSTORE POP POP JUMP JUMPDEST PUSH0 DUP3 DUP3 MSTORE PUSH1 0x20 DUP3 ADD SWAP1 POP SWAP3 SWAP2 POP POP JUMP JUMPDEST PUSH32 0x72656365697665207761732063616C6C65640000000000000000000000000000 PUSH0 DUP3 ADD MSTORE POP JUMP JUMPDEST PUSH0 PUSH2 0x224 PUSH1 0x12 DUP4 PUSH2 0x1E0 JUMP JUMPDEST SWAP2 POP PUSH2 0x22F DUP3 PUSH2 0x1F0 JUMP JUMPDEST PUSH1 0x20 DUP3 ADD SWAP1 POP SWAP2 SWAP1 POP JUMP JUMPDEST PUSH0 PUSH1 0x60 DUP3 ADD SWAP1 POP PUSH2 0x24D PUSH0 DUP4 ADD DUP6 PUSH2 0x1B9 JUMP JUMPDEST PUSH2 0x25A PUSH1 0x20 DUP4 ADD DUP5 PUSH2 0x1D1 JUMP JUMPDEST DUP2 DUP2 SUB PUSH1 0x40 DUP4 ADD MSTORE PUSH2 0x26B DUP2 PUSH2 0x218 JUMP JUMPDEST SWAP1 POP SWAP4 SWAP3 POP POP POP JUMP JUMPDEST PUSH32 0x66616C6C6261636B207761732063616C6C656400000000000000000000000000 PUSH0 DUP3 ADD MSTORE POP JUMP JUMPDEST PUSH0 PUSH2 0x2A8 PUSH1 0x13 DUP4 PUSH2 0x1E0 JUMP JUMPDEST SWAP2 POP PUSH2 0x2B3 DUP3 PUSH2 0x274 JUMP JUMPDEST PUSH1 0x20 DUP3 ADD SWAP1 POP SWAP2 SWAP1 POP JUMP JUMPDEST PUSH0 PUSH1 0x60 DUP3 ADD SWAP1 POP PUSH2 0x2D1 PUSH0 DUP4 ADD DUP6 PUSH2 0x1B9 JUMP JUMPDEST PUSH2 0x2DE PUSH1 0x20 DUP4 ADD DUP5 PUSH2 0x1D1 JUMP JUMPDEST DUP2 DUP2 SUB PUSH1 0x40 DUP4 ADD MSTORE PUSH2 0x2EF DUP2 PUSH2 0x29C JUMP JUMPDEST SWAP1 POP SWAP4 SWAP3 POP POP POP JUMP JUMPDEST PUSH0 PUSH1 0x20 DUP3 ADD SWAP1 POP PUSH2 0x30B PUSH0 DUP4 ADD DUP5 PUSH2 0x1D1 JUMP JUMPDEST SWAP3 SWAP2 POP POP JUMP JUMPDEST PUSH0 PUSH1 0x40 MLOAD SWAP1 POP SWAP1 JUMP JUMPDEST PUSH0 PUSH0 REVERT JUMPDEST PUSH0 PUSH0 REVERT JUMPDEST PUSH0 PUSH0 REVERT JUMPDEST PUSH0 PUSH0 REVERT JUMPDEST PUSH0 PUSH1 0x1F NOT PUSH1 0x1F DUP4 ADD AND SWAP1 POP SWAP2 SWAP1 POP JUMP JUMPDEST PUSH32 0x4E487B7100000000000000000000000000000000000000000000000000000000 PUSH0 MSTORE PUSH1 0x41 PUSH1 0x4 MSTORE PUSH1 0x24 PUSH0 REVERT JUMPDEST PUSH2 0x370 DUP3 PUSH2 0x32A JUMP JUMPDEST DUP2 ADD DUP2 DUP2 LT PUSH8 0xFFFFFFFFFFFFFFFF DUP3 GT OR ISZERO PUSH2 0x38F JUMPI PUSH2 0x38E PUSH2 0x33A JUMP JUMPDEST JUMPDEST DUP1 PUSH1 0x40 MSTORE POP POP POP JUMP JUMPDEST PUSH0 PUSH2 0x3A1 PUSH2 0x311 JUMP JUMPDEST SWAP1 POP PUSH2 0x3AD DUP3 DUP3 PUSH2 0x367 JUMP JUMPDEST SWAP2 SWAP1 POP JUMP JUMPDEST PUSH0 PUSH8 0xFFFFFFFFFFFFFFFF DUP3 GT ISZERO PUSH2 0x3CC JUMPI PUSH2 0x3CB PUSH2 0x33A JUMP JUMPDEST JUMPDEST PUSH2 0x3D5 DUP3 PUSH2 0x32A JUMP JUMPDEST SWAP1 POP PUSH1 0x20 DUP2 ADD SWAP1 POP SWAP2 SWAP1 POP JUMP JUMPDEST DUP3 DUP2 DUP4 CALLDATACOPY PUSH0 DUP4 DUP4 ADD MSTORE POP POP POP JUMP JUMPDEST PUSH0 PUSH2 0x402 PUSH2 0x3FD DUP5 PUSH2 0x3B2 JUMP JUMPDEST PUSH2 0x398 JUMP JUMPDEST SWAP1 POP DUP3 DUP2 MSTORE PUSH1 0x20 DUP2 ADD DUP5 DUP5 DUP5 ADD GT ISZERO PUSH2 0x41E JUMPI PUSH2 0x41D PUSH2 0x326 JUMP JUMPDEST JUMPDEST PUSH2 0x429 DUP5 DUP3 DUP6 PUSH2 0x3E2 JUMP JUMPDEST POP SWAP4 SWAP3 POP POP POP JUMP JUMPDEST PUSH0 DUP3 PUSH1 0x1F DUP4 ADD SLT PUSH2 0x445 JUMPI PUSH2 0x444 PUSH2 0x322 JUMP JUMPDEST JUMPDEST DUP2 CALLDATALOAD PUSH2 0x455 DUP5 DUP3 PUSH1 0x20 DUP7 ADD PUSH2 0x3F0 JUMP JUMPDEST SWAP2 POP POP SWAP3 SWAP2 POP POP JUMP JUMPDEST PUSH2 0x467 DUP2 PUSH2 0x1C8 JUMP JUMPDEST DUP2 EQ PUSH2 0x471 JUMPI PUSH0 PUSH0 REVERT JUMPDEST POP JUMP JUMPDEST PUSH0 DUP2 CALLDATALOAD SWAP1 POP PUSH2 0x482 DUP2 PUSH2 0x45E JUMP JUMPDEST SWAP3 SWAP2 POP POP JUMP JUMPDEST PUSH0 PUSH0 PUSH1 0x40 DUP4 DUP6 SUB SLT ISZERO PUSH2 0x49E JUMPI PUSH2 0x49D PUSH2 0x31A JUMP JUMPDEST JUMPDEST PUSH0 DUP4 ADD CALLDATALOAD PUSH8 0xFFFFFFFFFFFFFFFF DUP2 GT ISZERO PUSH2 0x4BB JUMPI PUSH2 0x4BA PUSH2 0x31E JUMP JUMPDEST JUMPDEST PUSH2 0x4C7 DUP6 DUP3 DUP7 ADD PUSH2 0x431 JUMP JUMPDEST SWAP3 POP POP PUSH1 0x20 PUSH2 0x4D8 DUP6 DUP3 DUP7 ADD PUSH2 0x474 JUMP JUMPDEST SWAP2 POP POP SWAP3 POP SWAP3 SWAP1 POP JUMP JUMPDEST PUSH0 PUSH1 0x20 DUP3 ADD SWAP1 POP PUSH2 0x4F5 PUSH0 DUP4 ADD DUP5 PUSH2 0x1B9 JUMP JUMPDEST SWAP3 SWAP2 POP POP JUMP JUMPDEST PUSH0 DUP2 MLOAD SWAP1 POP SWAP2 SWAP1 POP JUMP JUMPDEST DUP3 DUP2 DUP4 MCOPY PUSH0 DUP4 DUP4 ADD MSTORE POP POP POP JUMP JUMPDEST PUSH0 PUSH2 0x51D DUP3 PUSH2 0x4FB JUMP JUMPDEST PUSH2 0x527 DUP2 DUP6 PUSH2 0x1E0 JUMP JUMPDEST SWAP4 POP PUSH2 0x537 DUP2 DUP6 PUSH1 0x20 DUP7 ADD PUSH2 0x505 JUMP JUMPDEST PUSH2 0x540 DUP2 PUSH2 0x32A JUMP JUMPDEST DUP5 ADD SWAP2 POP POP SWAP3 SWAP2 POP POP JUMP JUMPDEST PUSH0 PUSH1 0x60 DUP3 ADD SWAP1 POP PUSH2 0x55E PUSH0 DUP4 ADD DUP7 PUSH2 0x1B9 JUMP JUMPDEST PUSH2 0x56B PUSH1 0x20 DUP4 ADD DUP6 PUSH2 0x1D1 JUMP JUMPDEST DUP2 DUP2 SUB PUSH1 0x40 DUP4 ADD MSTORE PUSH2 0x57D DUP2 DUP5 PUSH2 0x513 JUMP JUMPDEST SWAP1 POP SWAP5 SWAP4 POP POP POP POP JUMP INVALID LOG2 PUSH5 0x6970667358 0x22 SLT KECCAK256 MULMOD 0xC3 SELFBALANCE 0x28 ADD DUP14 SWAP3 DUP3 DUP7 0x1F ADD SWAP10 0xF7 0xB3 0xA9 0x4C PUSH25 0xF249C09C947CE2ED50878E26DE1EC564736F6C634300081E00 CALLER "
				},
				"gasEstimates": {
					"creation": {
						"codeDepositCost": "404200",
						"executionCost": "infinite",
						"totalCost": "infinite"
					},
					"external": {
						"getAddress()": "infinite",
						"getBalance()": "infinite",
						"testCall(address)": "infinite",
						"testCallFoo(address,uint256)": "infinite"
					}
				},
				"methodIdentifiers": {
					"getAddress()": "38cc4831",
					"getBalance()": "12065fe0",
					"testCall(address)": "9fc78a19",
					"testCallFoo(address,uint256)": "2799b47d"
				}
			},
			"storageLayout": {
				"storage": [
					{
						"astId": 81,
						"contract": "ExampleCall.sol:Caller",
						"label": "receiver",
						"offset": 0,
						"slot": "0",
						"type": "t_contract(Receiver)78"
					}
				],
				"types": {
					"t_contract(Receiver)78": {
						"encoding": "inplace",
						"label": "contract Receiver",
						"numberOfBytes": "20"
					}
				}
			},
			"userdoc": {
				"kind": "user",
				"methods": {},
				"version": 1
			}
		}
	}
}