{
	"ExampleEnum.sol": {
		"ExampleEnum": {
			"abi": [
				{
					"inputs": [
						{
							"internalType": "string",
							"name": "_status",
							"type": "string"
						}
					],
					"name": "StringTostatus",
					"outputs": [
						{
							"internalType": "enum ExampleEnum.Status",
							"name": "",
							"type": "uint8"
						}
					],
					"stateMutability": "pure",
					"type": "function"
				},
				{
					"inputs": [],
					"name": "get",
					"outputs": [
						{
							"internalType": "enum ExampleEnum.Status",
							"name": "",
							"type": "uint8"
						}
					],
					"stateMutability": "view",
					"type": "function"
				},
				{
					"inputs": [],
					"name": "reset",
					"outputs": [],
					"stateMutability": "nonpayable",
					"type": "function"
				},
				{
					"inputs": [
						{
							"internalType": "uint256",
							"name": "_status",
							"type": "uint256"
						}
					],
					"name": "set",
					"outputs": [],
					"stateMutability": "nonpayable",
					"type": "function"
				},
				{
					"inputs": [
						{
							"internalType": "enum ExampleEnum.Status",
							"name": "_status",
							"type": "uint8"
						}
					],
					"name": "setStatus",
					"outputs": [],
					"stateMutability": "nonpayable",
					"type": "function"
				},
				{
					"inputs": [
						{
							"internalType": "enum ExampleEnum.Status",
							"name": "_status",
							"type": "uint8"
						}
					],
					"name": "statusToString",
					"outputs": [
						{
							"internalType": "string",
							"name": "",
							"type": "string"
						}
					],
					"stateMutability": "pure",
					"type": "function"
				}
			],
			"devdoc": {
				"kind": "dev",
				"methods": {},
				"version": 1
			},
			"evm": {
				"assembly": "    /* \"ExampleEnum.sol\":59:1665  contract ExampleEnum {... */\n  mstore(0x40, 0x80)\n  callvalue\n  dup1\n  iszero\n  tag_1\n  jumpi\n  0x00\n  dup1\n  revert\ntag_1:\n  pop\n  dataSize(sub_0)\n  dup1\n  dataOffset(sub_0)\n  0x00\n  codecopy\n  0x00\n  return\nstop\n\nsub_0: assembly {\n        /* \"ExampleEnum.sol\":59:1665  contract ExampleEnum {... */\n      mstore(0x40, 0x80)\n      callvalue\n      dup1\n      iszero\n      tag_1\n      jumpi\n      0x00\n      dup1\n      revert\n    tag_1:\n      pop\n      jumpi(tag_2, lt(calldatasize, 0x04))\n      shr(0xe0, calldataload(0x00))\n      dup1\n      0x2e49d78b\n      eq\n      tag_3\n      jumpi\n      dup1\n      0x60fe47b1\n      eq\n      tag_4\n      jumpi\n      dup1\n      0x6d4ce63c\n      eq\n      tag_5\n      jumpi\n      dup1\n      0x6d7b7fc9\n      eq\n      tag_6\n      jumpi\n      dup1\n      0xd826f88f\n      eq\n      tag_7\n      jumpi\n      dup1\n      0xebf9dced\n      eq\n      tag_8\n      jumpi\n    tag_2:\n      0x00\n      dup1\n      revert\n        /* \"ExampleEnum.sol\":353:429  function setStatus(Status _status)  public {... */\n    tag_3:\n      tag_9\n      0x04\n      dup1\n      calldatasize\n      sub\n      dup2\n      add\n      swap1\n      tag_10\n      swap2\n      swap1\n      tag_11\n      jump\t// in\n    tag_10:\n      tag_12\n      jump\t// in\n    tag_9:\n      stop\n        /* \"ExampleEnum.sol\":435:581  function set(uint256 _status) public {... */\n    tag_4:\n      tag_13\n      0x04\n      dup1\n      calldatasize\n      sub\n      dup2\n      add\n      swap1\n      tag_14\n      swap2\n      swap1\n      tag_15\n      jump\t// in\n    tag_14:\n      tag_16\n      jump\t// in\n    tag_13:\n      stop\n        /* \"ExampleEnum.sol\":218:292  function get() public view returns (Status) {... */\n    tag_5:\n      tag_17\n      tag_18\n      jump\t// in\n    tag_17:\n      mload(0x40)\n      tag_19\n      swap2\n      swap1\n      tag_20\n      jump\t// in\n    tag_19:\n      mload(0x40)\n      dup1\n      swap2\n      sub\n      swap1\n      return\n        /* \"ExampleEnum.sol\":680:1081  function statusToString(Status _status) public  pure returns (string memory) {... */\n    tag_6:\n      tag_21\n      0x04\n      dup1\n      calldatasize\n      sub\n      dup2\n      add\n      swap1\n      tag_22\n      swap2\n      swap1\n      tag_11\n      jump\t// in\n    tag_22:\n      tag_23\n      jump\t// in\n    tag_21:\n      mload(0x40)\n      tag_24\n      swap2\n      swap1\n      tag_25\n      jump\t// in\n    tag_24:\n      mload(0x40)\n      dup1\n      swap2\n      sub\n      swap1\n      return\n        /* \"ExampleEnum.sol\":620:674  function reset() public {... */\n    tag_7:\n      tag_26\n      tag_27\n      jump\t// in\n    tag_26:\n      stop\n        /* \"ExampleEnum.sol\":1091:1663  function StringTostatus(string memory _status) public  pure returns (Status) {... */\n    tag_8:\n      tag_28\n      0x04\n      dup1\n      calldatasize\n      sub\n      dup2\n      add\n      swap1\n      tag_29\n      swap2\n      swap1\n      tag_30\n      jump\t// in\n    tag_29:\n      tag_31\n      jump\t// in\n    tag_28:\n      mload(0x40)\n      tag_32\n      swap2\n      swap1\n      tag_20\n      jump\t// in\n    tag_32:\n      mload(0x40)\n      dup1\n      swap2\n      sub\n      swap1\n      return\n        /* \"ExampleEnum.sol\":353:429  function setStatus(Status _status)  public {... */\n    tag_12:\n        /* \"ExampleEnum.sol\":415:422  _status */\n      dup1\n        /* \"ExampleEnum.sol\":406:412  status */\n      0x00\n      dup1\n        /* \"ExampleEnum.sol\":406:422  status = _status */\n      0x0100\n      exp\n      dup2\n      sload\n      dup2\n      0xff\n      mul\n      not\n      and\n      swap1\n      dup4\n      0x04\n      dup2\n      gt\n      iszero\n      tag_34\n      jumpi\n      tag_35\n      tag_36\n      jump\t// in\n    tag_35:\n    tag_34:\n      mul\n      or\n      swap1\n      sstore\n      pop\n        /* \"ExampleEnum.sol\":353:429  function setStatus(Status _status)  public {... */\n      pop\n      jump\t// out\n        /* \"ExampleEnum.sol\":435:581  function set(uint256 _status) public {... */\n    tag_16:\n        /* \"ExampleEnum.sol\":500:501  0 */\n      0x00\n        /* \"ExampleEnum.sol\":490:497  _status */\n      dup2\n        /* \"ExampleEnum.sol\":490:501  _status > 0 */\n      gt\n        /* \"ExampleEnum.sol\":490:517  _status > 0 && _status <= 5 */\n      dup1\n      iszero\n      tag_38\n      jumpi\n      pop\n        /* \"ExampleEnum.sol\":516:517  5 */\n      0x05\n        /* \"ExampleEnum.sol\":505:512  _status */\n      dup2\n        /* \"ExampleEnum.sol\":505:517  _status <= 5 */\n      gt\n      iszero\n        /* \"ExampleEnum.sol\":490:517  _status > 0 && _status <= 5 */\n    tag_38:\n        /* \"ExampleEnum.sol\":482:540  require(_status > 0 && _status <= 5, \"Not a valid status\") */\n      tag_39\n      jumpi\n      mload(0x40)\n      0x08c379a000000000000000000000000000000000000000000000000000000000\n      dup2\n      mstore\n      0x04\n      add\n      tag_40\n      swap1\n      tag_41\n      jump\t// in\n    tag_40:\n      mload(0x40)\n      dup1\n      swap2\n      sub\n      swap1\n      revert\n    tag_39:\n        /* \"ExampleEnum.sol\":566:573  _status */\n      dup1\n        /* \"ExampleEnum.sol\":559:574  Status(_status) */\n      0x04\n      dup2\n      gt\n      iszero\n      tag_42\n      jumpi\n      tag_43\n      tag_36\n      jump\t// in\n    tag_43:\n    tag_42:\n        /* \"ExampleEnum.sol\":550:556  status */\n      0x00\n      dup1\n        /* \"ExampleEnum.sol\":550:574  status = Status(_status) */\n      0x0100\n      exp\n      dup2\n      sload\n      dup2\n      0xff\n      mul\n      not\n      and\n      swap1\n      dup4\n      0x04\n      dup2\n      gt\n      iszero\n      tag_44\n      jumpi\n      tag_45\n      tag_36\n      jump\t// in\n    tag_45:\n    tag_44:\n      mul\n      or\n      swap1\n      sstore\n      pop\n        /* \"ExampleEnum.sol\":435:581  function set(uint256 _status) public {... */\n      pop\n      jump\t// out\n        /* \"ExampleEnum.sol\":218:292  function get() public view returns (Status) {... */\n    tag_18:\n        /* \"ExampleEnum.sol\":254:260  Status */\n      0x00\n        /* \"ExampleEnum.sol\":279:285  status */\n      dup1\n      0x00\n      swap1\n      sload\n      swap1\n      0x0100\n      exp\n      swap1\n      div\n      0xff\n      and\n        /* \"ExampleEnum.sol\":272:285  return status */\n      swap1\n      pop\n        /* \"ExampleEnum.sol\":218:292  function get() public view returns (Status) {... */\n      swap1\n      jump\t// out\n        /* \"ExampleEnum.sol\":680:1081  function statusToString(Status _status) public  pure returns (string memory) {... */\n    tag_23:\n        /* \"ExampleEnum.sol\":742:755  string memory */\n      0x60\n        /* \"ExampleEnum.sol\":782:796  Status.Pending */\n      0x00\n        /* \"ExampleEnum.sol\":771:796  _status == Status.Pending */\n      0x04\n      dup2\n      gt\n      iszero\n      tag_48\n      jumpi\n      tag_49\n      tag_36\n      jump\t// in\n    tag_49:\n    tag_48:\n        /* \"ExampleEnum.sol\":771:778  _status */\n      dup3\n        /* \"ExampleEnum.sol\":771:796  _status == Status.Pending */\n      0x04\n      dup2\n      gt\n      iszero\n      tag_50\n      jumpi\n      tag_51\n      tag_36\n      jump\t// in\n    tag_51:\n    tag_50:\n      sub\n        /* \"ExampleEnum.sol\":767:814  if (_status == Status.Pending) return \"Pending\" */\n      tag_52\n      jumpi\n        /* \"ExampleEnum.sol\":798:814  return \"Pending\" */\n      mload(0x40)\n      dup1\n      0x40\n      add\n      0x40\n      mstore\n      dup1\n      0x07\n      dup2\n      mstore\n      0x20\n      add\n      0x50656e64696e6700000000000000000000000000000000000000000000000000\n      dup2\n      mstore\n      pop\n      swap1\n      pop\n      jump(tag_47)\n        /* \"ExampleEnum.sol\":767:814  if (_status == Status.Pending) return \"Pending\" */\n    tag_52:\n        /* \"ExampleEnum.sol\":839:853  Status.Shipped */\n      0x01\n        /* \"ExampleEnum.sol\":828:853  _status == Status.Shipped */\n      0x04\n      dup2\n      gt\n      iszero\n      tag_53\n      jumpi\n      tag_54\n      tag_36\n      jump\t// in\n    tag_54:\n    tag_53:\n        /* \"ExampleEnum.sol\":828:835  _status */\n      dup3\n        /* \"ExampleEnum.sol\":828:853  _status == Status.Shipped */\n      0x04\n      dup2\n      gt\n      iszero\n      tag_55\n      jumpi\n      tag_56\n      tag_36\n      jump\t// in\n    tag_56:\n    tag_55:\n      sub\n        /* \"ExampleEnum.sol\":824:871  if (_status == Status.Shipped) return \"Shipped\" */\n      tag_57\n      jumpi\n        /* \"ExampleEnum.sol\":855:871  return \"Shipped\" */\n      mload(0x40)\n      dup1\n      0x40\n      add\n      0x40\n      mstore\n      dup1\n      0x07\n      dup2\n      mstore\n      0x20\n      add\n      0x5368697070656400000000000000000000000000000000000000000000000000\n      dup2\n      mstore\n      pop\n      swap1\n      pop\n      jump(tag_47)\n        /* \"ExampleEnum.sol\":824:871  if (_status == Status.Shipped) return \"Shipped\" */\n    tag_57:\n        /* \"ExampleEnum.sol\":896:911  Status.Accepted */\n      0x02\n        /* \"ExampleEnum.sol\":885:911  _status == Status.Accepted */\n      0x04\n      dup2\n      gt\n      iszero\n      tag_58\n      jumpi\n      tag_59\n      tag_36\n      jump\t// in\n    tag_59:\n    tag_58:\n        /* \"ExampleEnum.sol\":885:892  _status */\n      dup3\n        /* \"ExampleEnum.sol\":885:911  _status == Status.Accepted */\n      0x04\n      dup2\n      gt\n      iszero\n      tag_60\n      jumpi\n      tag_61\n      tag_36\n      jump\t// in\n    tag_61:\n    tag_60:\n      sub\n        /* \"ExampleEnum.sol\":881:930  if (_status == Status.Accepted) return \"Accepted\" */\n      tag_62\n      jumpi\n        /* \"ExampleEnum.sol\":913:930  return \"Accepted\" */\n      mload(0x40)\n      dup1\n      0x40\n      add\n      0x40\n      mstore\n      dup1\n      0x08\n      dup2\n      mstore\n      0x20\n      add\n      0x4163636570746564000000000000000000000000000000000000000000000000\n      dup2\n      mstore\n      pop\n      swap1\n      pop\n      jump(tag_47)\n        /* \"ExampleEnum.sol\":881:930  if (_status == Status.Accepted) return \"Accepted\" */\n    tag_62:\n        /* \"ExampleEnum.sol\":955:970  Status.Rejected */\n      0x03\n        /* \"ExampleEnum.sol\":944:970  _status == Status.Rejected */\n      0x04\n      dup2\n      gt\n      iszero\n      tag_63\n      jumpi\n      tag_64\n      tag_36\n      jump\t// in\n    tag_64:\n    tag_63:\n        /* \"ExampleEnum.sol\":944:951  _status */\n      dup3\n        /* \"ExampleEnum.sol\":944:970  _status == Status.Rejected */\n      0x04\n      dup2\n      gt\n      iszero\n      tag_65\n      jumpi\n      tag_66\n      tag_36\n      jump\t// in\n    tag_66:\n    tag_65:\n      sub\n        /* \"ExampleEnum.sol\":940:989  if (_status == Status.Rejected) return \"Rejected\" */\n      tag_67\n      jumpi\n        /* \"ExampleEnum.sol\":972:989  return \"Rejected\" */\n      mload(0x40)\n      dup1\n      0x40\n      add\n      0x40\n      mstore\n      dup1\n      0x08\n      dup2\n      mstore\n      0x20\n      add\n      0x52656a6563746564000000000000000000000000000000000000000000000000\n      dup2\n      mstore\n      pop\n      swap1\n      pop\n      jump(tag_47)\n        /* \"ExampleEnum.sol\":940:989  if (_status == Status.Rejected) return \"Rejected\" */\n    tag_67:\n        /* \"ExampleEnum.sol\":1014:1029  Status.Canceled */\n      0x04\n        /* \"ExampleEnum.sol\":1003:1029  _status == Status.Canceled */\n      dup1\n      dup2\n      gt\n      iszero\n      tag_68\n      jumpi\n      tag_69\n      tag_36\n      jump\t// in\n    tag_69:\n    tag_68:\n        /* \"ExampleEnum.sol\":1003:1010  _status */\n      dup3\n        /* \"ExampleEnum.sol\":1003:1029  _status == Status.Canceled */\n      0x04\n      dup2\n      gt\n      iszero\n      tag_70\n      jumpi\n      tag_71\n      tag_36\n      jump\t// in\n    tag_71:\n    tag_70:\n      sub\n        /* \"ExampleEnum.sol\":999:1048  if (_status == Status.Canceled) return \"Canceled\" */\n      tag_72\n      jumpi\n        /* \"ExampleEnum.sol\":1031:1048  return \"Canceled\" */\n      mload(0x40)\n      dup1\n      0x40\n      add\n      0x40\n      mstore\n      dup1\n      0x08\n      dup2\n      mstore\n      0x20\n      add\n      0x43616e63656c6564000000000000000000000000000000000000000000000000\n      dup2\n      mstore\n      pop\n      swap1\n      pop\n      jump(tag_47)\n        /* \"ExampleEnum.sol\":999:1048  if (_status == Status.Canceled) return \"Canceled\" */\n    tag_72:\n        /* \"ExampleEnum.sol\":1058:1074  return \"Unknown\" */\n      mload(0x40)\n      dup1\n      0x40\n      add\n      0x40\n      mstore\n      dup1\n      0x07\n      dup2\n      mstore\n      0x20\n      add\n      0x556e6b6e6f776e00000000000000000000000000000000000000000000000000\n      dup2\n      mstore\n      pop\n      swap1\n      pop\n        /* \"ExampleEnum.sol\":680:1081  function statusToString(Status _status) public  pure returns (string memory) {... */\n    tag_47:\n      swap2\n      swap1\n      pop\n      jump\t// out\n        /* \"ExampleEnum.sol\":620:674  function reset() public {... */\n    tag_27:\n        /* \"ExampleEnum.sol\":661:667  status */\n      0x00\n      dup1\n        /* \"ExampleEnum.sol\":654:667  delete status */\n      0x0100\n      exp\n      dup2\n      sload\n      swap1\n      0xff\n      mul\n      not\n      and\n      swap1\n      sstore\n        /* \"ExampleEnum.sol\":620:674  function reset() public {... */\n      jump\t// out\n        /* \"ExampleEnum.sol\":1091:1663  function StringTostatus(string memory _status) public  pure returns (Status) {... */\n    tag_31:\n        /* \"ExampleEnum.sol\":1160:1166  Status */\n      0x00\n        /* \"ExampleEnum.sol\":1221:1237  bytes(\"Pending\") */\n      mload(0x40)\n      dup1\n      0x40\n      add\n      0x40\n      mstore\n      dup1\n      0x07\n      dup2\n      mstore\n      0x20\n      add\n      0x50656e64696e6700000000000000000000000000000000000000000000000000\n      dup2\n      mstore\n      pop\n        /* \"ExampleEnum.sol\":1211:1238  keccak256(bytes(\"Pending\")) */\n      dup1\n      mload\n      swap1\n      0x20\n      add\n      keccak256\n        /* \"ExampleEnum.sol\":1198:1205  _status */\n      dup3\n        /* \"ExampleEnum.sol\":1182:1207  keccak256(bytes(_status)) */\n      dup1\n      mload\n      swap1\n      0x20\n      add\n      keccak256\n        /* \"ExampleEnum.sol\":1182:1238  keccak256(bytes(_status)) == keccak256(bytes(\"Pending\")) */\n      sub\n        /* \"ExampleEnum.sol\":1178:1261  if (keccak256(bytes(_status)) == keccak256(bytes(\"Pending\"))) return Status.Pending */\n      tag_75\n      jumpi\n        /* \"ExampleEnum.sol\":1247:1261  Status.Pending */\n      0x00\n        /* \"ExampleEnum.sol\":1240:1261  return Status.Pending */\n      swap1\n      pop\n      jump(tag_74)\n        /* \"ExampleEnum.sol\":1178:1261  if (keccak256(bytes(_status)) == keccak256(bytes(\"Pending\"))) return Status.Pending */\n    tag_75:\n        /* \"ExampleEnum.sol\":1314:1330  bytes(\"Shipped\") */\n      mload(0x40)\n      dup1\n      0x40\n      add\n      0x40\n      mstore\n      dup1\n      0x07\n      dup2\n      mstore\n      0x20\n      add\n      0x5368697070656400000000000000000000000000000000000000000000000000\n      dup2\n      mstore\n      pop\n        /* \"ExampleEnum.sol\":1304:1331  keccak256(bytes(\"Shipped\")) */\n      dup1\n      mload\n      swap1\n      0x20\n      add\n      keccak256\n        /* \"ExampleEnum.sol\":1291:1298  _status */\n      dup3\n        /* \"ExampleEnum.sol\":1275:1300  keccak256(bytes(_status)) */\n      dup1\n      mload\n      swap1\n      0x20\n      add\n      keccak256\n        /* \"ExampleEnum.sol\":1275:1331  keccak256(bytes(_status)) == keccak256(bytes(\"Shipped\")) */\n      sub\n        /* \"ExampleEnum.sol\":1271:1354  if (keccak256(bytes(_status)) == keccak256(bytes(\"Shipped\"))) return Status.Shipped */\n      tag_76\n      jumpi\n        /* \"ExampleEnum.sol\":1340:1354  Status.Shipped */\n      0x01\n        /* \"ExampleEnum.sol\":1333:1354  return Status.Shipped */\n      swap1\n      pop\n      jump(tag_74)\n        /* \"ExampleEnum.sol\":1271:1354  if (keccak256(bytes(_status)) == keccak256(bytes(\"Shipped\"))) return Status.Shipped */\n    tag_76:\n        /* \"ExampleEnum.sol\":1407:1424  bytes(\"Accepted\") */\n      mload(0x40)\n      dup1\n      0x40\n      add\n      0x40\n      mstore\n      dup1\n      0x08\n      dup2\n      mstore\n      0x20\n      add\n      0x4163636570746564000000000000000000000000000000000000000000000000\n      dup2\n      mstore\n      pop\n        /* \"ExampleEnum.sol\":1397:1425  keccak256(bytes(\"Accepted\")) */\n      dup1\n      mload\n      swap1\n      0x20\n      add\n      keccak256\n        /* \"ExampleEnum.sol\":1384:1391  _status */\n      dup3\n        /* \"ExampleEnum.sol\":1368:1393  keccak256(bytes(_status)) */\n      dup1\n      mload\n      swap1\n      0x20\n      add\n      keccak256\n        /* \"ExampleEnum.sol\":1368:1425  keccak256(bytes(_status)) == keccak256(bytes(\"Accepted\")) */\n      sub\n        /* \"ExampleEnum.sol\":1364:1449  if (keccak256(bytes(_status)) == keccak256(bytes(\"Accepted\"))) return Status.Accepted */\n      tag_77\n      jumpi\n        /* \"ExampleEnum.sol\":1434:1449  Status.Accepted */\n      0x02\n        /* \"ExampleEnum.sol\":1427:1449  return Status.Accepted */\n      swap1\n      pop\n      jump(tag_74)\n        /* \"ExampleEnum.sol\":1364:1449  if (keccak256(bytes(_status)) == keccak256(bytes(\"Accepted\"))) return Status.Accepted */\n    tag_77:\n        /* \"ExampleEnum.sol\":1502:1519  bytes(\"Rejected\") */\n      mload(0x40)\n      dup1\n      0x40\n      add\n      0x40\n      mstore\n      dup1\n      0x08\n      dup2\n      mstore\n      0x20\n      add\n      0x52656a6563746564000000000000000000000000000000000000000000000000\n      dup2\n      mstore\n      pop\n        /* \"ExampleEnum.sol\":1492:1520  keccak256(bytes(\"Rejected\")) */\n      dup1\n      mload\n      swap1\n      0x20\n      add\n      keccak256\n        /* \"ExampleEnum.sol\":1479:1486  _status */\n      dup3\n        /* \"ExampleEnum.sol\":1463:1488  keccak256(bytes(_status)) */\n      dup1\n      mload\n      swap1\n      0x20\n      add\n      keccak256\n        /* \"ExampleEnum.sol\":1463:1520  keccak256(bytes(_status)) == keccak256(bytes(\"Rejected\")) */\n      sub\n        /* \"ExampleEnum.sol\":1459:1544  if (keccak256(bytes(_status)) == keccak256(bytes(\"Rejected\"))) return Status.Rejected */\n      tag_78\n      jumpi\n        /* \"ExampleEnum.sol\":1529:1544  Status.Rejected */\n      0x03\n        /* \"ExampleEnum.sol\":1522:1544  return Status.Rejected */\n      swap1\n      pop\n      jump(tag_74)\n        /* \"ExampleEnum.sol\":1459:1544  if (keccak256(bytes(_status)) == keccak256(bytes(\"Rejected\"))) return Status.Rejected */\n    tag_78:\n        /* \"ExampleEnum.sol\":1597:1614  bytes(\"Canceled\") */\n      mload(0x40)\n      dup1\n      0x40\n      add\n      0x40\n      mstore\n      dup1\n      0x08\n      dup2\n      mstore\n      0x20\n      add\n      0x43616e63656c6564000000000000000000000000000000000000000000000000\n      dup2\n      mstore\n      pop\n        /* \"ExampleEnum.sol\":1587:1615  keccak256(bytes(\"Canceled\")) */\n      dup1\n      mload\n      swap1\n      0x20\n      add\n      keccak256\n        /* \"ExampleEnum.sol\":1574:1581  _status */\n      dup3\n        /* \"ExampleEnum.sol\":1558:1583  keccak256(bytes(_status)) */\n      dup1\n      mload\n      swap1\n      0x20\n      add\n      keccak256\n        /* \"ExampleEnum.sol\":1558:1615  keccak256(bytes(_status)) == keccak256(bytes(\"Canceled\")) */\n      sub\n        /* \"ExampleEnum.sol\":1554:1639  if (keccak256(bytes(_status)) == keccak256(bytes(\"Canceled\"))) return Status.Canceled */\n      tag_79\n      jumpi\n        /* \"ExampleEnum.sol\":1624:1639  Status.Canceled */\n      0x04\n        /* \"ExampleEnum.sol\":1617:1639  return Status.Canceled */\n      swap1\n      pop\n      jump(tag_74)\n        /* \"ExampleEnum.sol\":1554:1639  if (keccak256(bytes(_status)) == keccak256(bytes(\"Canceled\"))) return Status.Canceled */\n    tag_79:\n        /* \"ExampleEnum.sol\":1648:1656  revert() */\n      0x00\n      dup1\n      revert\n        /* \"ExampleEnum.sol\":1091:1663  function StringTostatus(string memory _status) public  pure returns (Status) {... */\n    tag_74:\n      swap2\n      swap1\n      pop\n      jump\t// out\n        /* \"#utility.yul\":7:82   */\n    tag_80:\n        /* \"#utility.yul\":40:46   */\n      0x00\n        /* \"#utility.yul\":73:75   */\n      0x40\n        /* \"#utility.yul\":67:76   */\n      mload\n        /* \"#utility.yul\":57:76   */\n      swap1\n      pop\n        /* \"#utility.yul\":7:82   */\n      swap1\n      jump\t// out\n        /* \"#utility.yul\":88:205   */\n    tag_81:\n        /* \"#utility.yul\":197:198   */\n      0x00\n        /* \"#utility.yul\":194:195   */\n      dup1\n        /* \"#utility.yul\":187:199   */\n      revert\n        /* \"#utility.yul\":211:328   */\n    tag_82:\n        /* \"#utility.yul\":320:321   */\n      0x00\n        /* \"#utility.yul\":317:318   */\n      dup1\n        /* \"#utility.yul\":310:322   */\n      revert\n        /* \"#utility.yul\":334:441   */\n    tag_83:\n        /* \"#utility.yul\":415:416   */\n      0x05\n        /* \"#utility.yul\":408:413   */\n      dup2\n        /* \"#utility.yul\":405:417   */\n      lt\n        /* \"#utility.yul\":395:435   */\n      tag_113\n      jumpi\n        /* \"#utility.yul\":431:432   */\n      0x00\n        /* \"#utility.yul\":428:429   */\n      dup1\n        /* \"#utility.yul\":421:433   */\n      revert\n        /* \"#utility.yul\":395:435   */\n    tag_113:\n        /* \"#utility.yul\":334:441   */\n      pop\n      jump\t// out\n        /* \"#utility.yul\":447:602   */\n    tag_84:\n        /* \"#utility.yul\":501:506   */\n      0x00\n        /* \"#utility.yul\":539:545   */\n      dup2\n        /* \"#utility.yul\":526:546   */\n      calldataload\n        /* \"#utility.yul\":517:546   */\n      swap1\n      pop\n        /* \"#utility.yul\":555:596   */\n      tag_115\n        /* \"#utility.yul\":590:595   */\n      dup2\n        /* \"#utility.yul\":555:596   */\n      tag_83\n      jump\t// in\n    tag_115:\n        /* \"#utility.yul\":447:602   */\n      swap3\n      swap2\n      pop\n      pop\n      jump\t// out\n        /* \"#utility.yul\":608:953   */\n    tag_11:\n        /* \"#utility.yul\":675:681   */\n      0x00\n        /* \"#utility.yul\":724:726   */\n      0x20\n        /* \"#utility.yul\":712:721   */\n      dup3\n        /* \"#utility.yul\":703:710   */\n      dup5\n        /* \"#utility.yul\":699:722   */\n      sub\n        /* \"#utility.yul\":695:727   */\n      slt\n        /* \"#utility.yul\":692:811   */\n      iszero\n      tag_117\n      jumpi\n        /* \"#utility.yul\":730:809   */\n      tag_118\n      tag_81\n      jump\t// in\n    tag_118:\n        /* \"#utility.yul\":692:811   */\n    tag_117:\n        /* \"#utility.yul\":850:851   */\n      0x00\n        /* \"#utility.yul\":875:936   */\n      tag_119\n        /* \"#utility.yul\":928:935   */\n      dup5\n        /* \"#utility.yul\":919:925   */\n      dup3\n        /* \"#utility.yul\":908:917   */\n      dup6\n        /* \"#utility.yul\":904:926   */\n      add\n        /* \"#utility.yul\":875:936   */\n      tag_84\n      jump\t// in\n    tag_119:\n        /* \"#utility.yul\":865:936   */\n      swap2\n      pop\n        /* \"#utility.yul\":821:946   */\n      pop\n        /* \"#utility.yul\":608:953   */\n      swap3\n      swap2\n      pop\n      pop\n      jump\t// out\n        /* \"#utility.yul\":959:1036   */\n    tag_85:\n        /* \"#utility.yul\":996:1003   */\n      0x00\n        /* \"#utility.yul\":1025:1030   */\n      dup2\n        /* \"#utility.yul\":1014:1030   */\n      swap1\n      pop\n        /* \"#utility.yul\":959:1036   */\n      swap2\n      swap1\n      pop\n      jump\t// out\n        /* \"#utility.yul\":1042:1164   */\n    tag_86:\n        /* \"#utility.yul\":1115:1139   */\n      tag_122\n        /* \"#utility.yul\":1133:1138   */\n      dup2\n        /* \"#utility.yul\":1115:1139   */\n      tag_85\n      jump\t// in\n    tag_122:\n        /* \"#utility.yul\":1108:1113   */\n      dup2\n        /* \"#utility.yul\":1105:1140   */\n      eq\n        /* \"#utility.yul\":1095:1158   */\n      tag_123\n      jumpi\n        /* \"#utility.yul\":1154:1155   */\n      0x00\n        /* \"#utility.yul\":1151:1152   */\n      dup1\n        /* \"#utility.yul\":1144:1156   */\n      revert\n        /* \"#utility.yul\":1095:1158   */\n    tag_123:\n        /* \"#utility.yul\":1042:1164   */\n      pop\n      jump\t// out\n        /* \"#utility.yul\":1170:1309   */\n    tag_87:\n        /* \"#utility.yul\":1216:1221   */\n      0x00\n        /* \"#utility.yul\":1254:1260   */\n      dup2\n        /* \"#utility.yul\":1241:1261   */\n      calldataload\n        /* \"#utility.yul\":1232:1261   */\n      swap1\n      pop\n        /* \"#utility.yul\":1270:1303   */\n      tag_125\n        /* \"#utility.yul\":1297:1302   */\n      dup2\n        /* \"#utility.yul\":1270:1303   */\n      tag_86\n      jump\t// in\n    tag_125:\n        /* \"#utility.yul\":1170:1309   */\n      swap3\n      swap2\n      pop\n      pop\n      jump\t// out\n        /* \"#utility.yul\":1315:1644   */\n    tag_15:\n        /* \"#utility.yul\":1374:1380   */\n      0x00\n        /* \"#utility.yul\":1423:1425   */\n      0x20\n        /* \"#utility.yul\":1411:1420   */\n      dup3\n        /* \"#utility.yul\":1402:1409   */\n      dup5\n        /* \"#utility.yul\":1398:1421   */\n      sub\n        /* \"#utility.yul\":1394:1426   */\n      slt\n        /* \"#utility.yul\":1391:1510   */\n      iszero\n      tag_127\n      jumpi\n        /* \"#utility.yul\":1429:1508   */\n      tag_128\n      tag_81\n      jump\t// in\n    tag_128:\n        /* \"#utility.yul\":1391:1510   */\n    tag_127:\n        /* \"#utility.yul\":1549:1550   */\n      0x00\n        /* \"#utility.yul\":1574:1627   */\n      tag_129\n        /* \"#utility.yul\":1619:1626   */\n      dup5\n        /* \"#utility.yul\":1610:1616   */\n      dup3\n        /* \"#utility.yul\":1599:1608   */\n      dup6\n        /* \"#utility.yul\":1595:1617   */\n      add\n        /* \"#utility.yul\":1574:1627   */\n      tag_87\n      jump\t// in\n    tag_129:\n        /* \"#utility.yul\":1564:1627   */\n      swap2\n      pop\n        /* \"#utility.yul\":1520:1637   */\n      pop\n        /* \"#utility.yul\":1315:1644   */\n      swap3\n      swap2\n      pop\n      pop\n      jump\t// out\n        /* \"#utility.yul\":1650:1830   */\n    tag_36:\n        /* \"#utility.yul\":1698:1775   */\n      0x4e487b7100000000000000000000000000000000000000000000000000000000\n        /* \"#utility.yul\":1695:1696   */\n      0x00\n        /* \"#utility.yul\":1688:1776   */\n      mstore\n        /* \"#utility.yul\":1795:1799   */\n      0x21\n        /* \"#utility.yul\":1792:1793   */\n      0x04\n        /* \"#utility.yul\":1785:1800   */\n      mstore\n        /* \"#utility.yul\":1819:1823   */\n      0x24\n        /* \"#utility.yul\":1816:1817   */\n      0x00\n        /* \"#utility.yul\":1809:1824   */\n      revert\n        /* \"#utility.yul\":1836:1949   */\n    tag_88:\n        /* \"#utility.yul\":1917:1918   */\n      0x05\n        /* \"#utility.yul\":1910:1915   */\n      dup2\n        /* \"#utility.yul\":1907:1919   */\n      lt\n        /* \"#utility.yul\":1897:1943   */\n      tag_132\n      jumpi\n        /* \"#utility.yul\":1923:1941   */\n      tag_133\n      tag_36\n      jump\t// in\n    tag_133:\n        /* \"#utility.yul\":1897:1943   */\n    tag_132:\n        /* \"#utility.yul\":1836:1949   */\n      pop\n      jump\t// out\n        /* \"#utility.yul\":1955:2082   */\n    tag_89:\n        /* \"#utility.yul\":2000:2007   */\n      0x00\n        /* \"#utility.yul\":2029:2034   */\n      dup2\n        /* \"#utility.yul\":2018:2034   */\n      swap1\n      pop\n        /* \"#utility.yul\":2035:2076   */\n      tag_135\n        /* \"#utility.yul\":2070:2075   */\n      dup3\n        /* \"#utility.yul\":2035:2076   */\n      tag_88\n      jump\t// in\n    tag_135:\n        /* \"#utility.yul\":1955:2082   */\n      swap2\n      swap1\n      pop\n      jump\t// out\n        /* \"#utility.yul\":2088:2215   */\n    tag_90:\n        /* \"#utility.yul\":2144:2153   */\n      0x00\n        /* \"#utility.yul\":2177:2209   */\n      tag_137\n        /* \"#utility.yul\":2203:2208   */\n      dup3\n        /* \"#utility.yul\":2177:2209   */\n      tag_89\n      jump\t// in\n    tag_137:\n        /* \"#utility.yul\":2164:2209   */\n      swap1\n      pop\n        /* \"#utility.yul\":2088:2215   */\n      swap2\n      swap1\n      pop\n      jump\t// out\n        /* \"#utility.yul\":2221:2364   */\n    tag_91:\n        /* \"#utility.yul\":2314:2357   */\n      tag_139\n        /* \"#utility.yul\":2351:2356   */\n      dup2\n        /* \"#utility.yul\":2314:2357   */\n      tag_90\n      jump\t// in\n    tag_139:\n        /* \"#utility.yul\":2309:2312   */\n      dup3\n        /* \"#utility.yul\":2302:2358   */\n      mstore\n        /* \"#utility.yul\":2221:2364   */\n      pop\n      pop\n      jump\t// out\n        /* \"#utility.yul\":2370:2604   */\n    tag_20:\n        /* \"#utility.yul\":2469:2473   */\n      0x00\n        /* \"#utility.yul\":2507:2509   */\n      0x20\n        /* \"#utility.yul\":2496:2505   */\n      dup3\n        /* \"#utility.yul\":2492:2510   */\n      add\n        /* \"#utility.yul\":2484:2510   */\n      swap1\n      pop\n        /* \"#utility.yul\":2520:2597   */\n      tag_141\n        /* \"#utility.yul\":2594:2595   */\n      0x00\n        /* \"#utility.yul\":2583:2592   */\n      dup4\n        /* \"#utility.yul\":2579:2596   */\n      add\n        /* \"#utility.yul\":2570:2576   */\n      dup5\n        /* \"#utility.yul\":2520:2597   */\n      tag_91\n      jump\t// in\n    tag_141:\n        /* \"#utility.yul\":2370:2604   */\n      swap3\n      swap2\n      pop\n      pop\n      jump\t// out\n        /* \"#utility.yul\":2610:2709   */\n    tag_92:\n        /* \"#utility.yul\":2662:2668   */\n      0x00\n        /* \"#utility.yul\":2696:2701   */\n      dup2\n        /* \"#utility.yul\":2690:2702   */\n      mload\n        /* \"#utility.yul\":2680:2702   */\n      swap1\n      pop\n        /* \"#utility.yul\":2610:2709   */\n      swap2\n      swap1\n      pop\n      jump\t// out\n        /* \"#utility.yul\":2715:2884   */\n    tag_93:\n        /* \"#utility.yul\":2799:2810   */\n      0x00\n        /* \"#utility.yul\":2833:2839   */\n      dup3\n        /* \"#utility.yul\":2828:2831   */\n      dup3\n        /* \"#utility.yul\":2821:2840   */\n      mstore\n        /* \"#utility.yul\":2873:2877   */\n      0x20\n        /* \"#utility.yul\":2868:2871   */\n      dup3\n        /* \"#utility.yul\":2864:2878   */\n      add\n        /* \"#utility.yul\":2849:2878   */\n      swap1\n      pop\n        /* \"#utility.yul\":2715:2884   */\n      swap3\n      swap2\n      pop\n      pop\n      jump\t// out\n        /* \"#utility.yul\":2890:3136   */\n    tag_94:\n        /* \"#utility.yul\":2971:2972   */\n      0x00\n        /* \"#utility.yul\":2981:3094   */\n    tag_145:\n        /* \"#utility.yul\":2995:3001   */\n      dup4\n        /* \"#utility.yul\":2992:2993   */\n      dup2\n        /* \"#utility.yul\":2989:3002   */\n      lt\n        /* \"#utility.yul\":2981:3094   */\n      iszero\n      tag_147\n      jumpi\n        /* \"#utility.yul\":3080:3081   */\n      dup1\n        /* \"#utility.yul\":3075:3078   */\n      dup3\n        /* \"#utility.yul\":3071:3082   */\n      add\n        /* \"#utility.yul\":3065:3083   */\n      mload\n        /* \"#utility.yul\":3061:3062   */\n      dup2\n        /* \"#utility.yul\":3056:3059   */\n      dup5\n        /* \"#utility.yul\":3052:3063   */\n      add\n        /* \"#utility.yul\":3045:3084   */\n      mstore\n        /* \"#utility.yul\":3017:3019   */\n      0x20\n        /* \"#utility.yul\":3014:3015   */\n      dup2\n        /* \"#utility.yul\":3010:3020   */\n      add\n        /* \"#utility.yul\":3005:3020   */\n      swap1\n      pop\n        /* \"#utility.yul\":2981:3094   */\n      jump(tag_145)\n    tag_147:\n        /* \"#utility.yul\":3128:3129   */\n      0x00\n        /* \"#utility.yul\":3119:3125   */\n      dup5\n        /* \"#utility.yul\":3114:3117   */\n      dup5\n        /* \"#utility.yul\":3110:3126   */\n      add\n        /* \"#utility.yul\":3103:3130   */\n      mstore\n        /* \"#utility.yul\":2952:3136   */\n      pop\n        /* \"#utility.yul\":2890:3136   */\n      pop\n      pop\n      pop\n      jump\t// out\n        /* \"#utility.yul\":3142:3244   */\n    tag_95:\n        /* \"#utility.yul\":3183:3189   */\n      0x00\n        /* \"#utility.yul\":3234:3236   */\n      0x1f\n        /* \"#utility.yul\":3230:3237   */\n      not\n        /* \"#utility.yul\":3225:3227   */\n      0x1f\n        /* \"#utility.yul\":3218:3223   */\n      dup4\n        /* \"#utility.yul\":3214:3228   */\n      add\n        /* \"#utility.yul\":3210:3238   */\n      and\n        /* \"#utility.yul\":3200:3238   */\n      swap1\n      pop\n        /* \"#utility.yul\":3142:3244   */\n      swap2\n      swap1\n      pop\n      jump\t// out\n        /* \"#utility.yul\":3250:3627   */\n    tag_96:\n        /* \"#utility.yul\":3338:3341   */\n      0x00\n        /* \"#utility.yul\":3366:3405   */\n      tag_150\n        /* \"#utility.yul\":3399:3404   */\n      dup3\n        /* \"#utility.yul\":3366:3405   */\n      tag_92\n      jump\t// in\n    tag_150:\n        /* \"#utility.yul\":3421:3492   */\n      tag_151\n        /* \"#utility.yul\":3485:3491   */\n      dup2\n        /* \"#utility.yul\":3480:3483   */\n      dup6\n        /* \"#utility.yul\":3421:3492   */\n      tag_93\n      jump\t// in\n    tag_151:\n        /* \"#utility.yul\":3414:3492   */\n      swap4\n      pop\n        /* \"#utility.yul\":3501:3566   */\n      tag_152\n        /* \"#utility.yul\":3559:3565   */\n      dup2\n        /* \"#utility.yul\":3554:3557   */\n      dup6\n        /* \"#utility.yul\":3547:3551   */\n      0x20\n        /* \"#utility.yul\":3540:3545   */\n      dup7\n        /* \"#utility.yul\":3536:3552   */\n      add\n        /* \"#utility.yul\":3501:3566   */\n      tag_94\n      jump\t// in\n    tag_152:\n        /* \"#utility.yul\":3591:3620   */\n      tag_153\n        /* \"#utility.yul\":3613:3619   */\n      dup2\n        /* \"#utility.yul\":3591:3620   */\n      tag_95\n      jump\t// in\n    tag_153:\n        /* \"#utility.yul\":3586:3589   */\n      dup5\n        /* \"#utility.yul\":3582:3621   */\n      add\n        /* \"#utility.yul\":3575:3621   */\n      swap2\n      pop\n        /* \"#utility.yul\":3342:3627   */\n      pop\n        /* \"#utility.yul\":3250:3627   */\n      swap3\n      swap2\n      pop\n      pop\n      jump\t// out\n        /* \"#utility.yul\":3633:3946   */\n    tag_25:\n        /* \"#utility.yul\":3746:3750   */\n      0x00\n        /* \"#utility.yul\":3784:3786   */\n      0x20\n        /* \"#utility.yul\":3773:3782   */\n      dup3\n        /* \"#utility.yul\":3769:3787   */\n      add\n        /* \"#utility.yul\":3761:3787   */\n      swap1\n      pop\n        /* \"#utility.yul\":3833:3842   */\n      dup2\n        /* \"#utility.yul\":3827:3831   */\n      dup2\n        /* \"#utility.yul\":3823:3843   */\n      sub\n        /* \"#utility.yul\":3819:3820   */\n      0x00\n        /* \"#utility.yul\":3808:3817   */\n      dup4\n        /* \"#utility.yul\":3804:3821   */\n      add\n        /* \"#utility.yul\":3797:3844   */\n      mstore\n        /* \"#utility.yul\":3861:3939   */\n      tag_155\n        /* \"#utility.yul\":3934:3938   */\n      dup2\n        /* \"#utility.yul\":3925:3931   */\n      dup5\n        /* \"#utility.yul\":3861:3939   */\n      tag_96\n      jump\t// in\n    tag_155:\n        /* \"#utility.yul\":3853:3939   */\n      swap1\n      pop\n        /* \"#utility.yul\":3633:3946   */\n      swap3\n      swap2\n      pop\n      pop\n      jump\t// out\n        /* \"#utility.yul\":3952:4069   */\n    tag_97:\n        /* \"#utility.yul\":4061:4062   */\n      0x00\n        /* \"#utility.yul\":4058:4059   */\n      dup1\n        /* \"#utility.yul\":4051:4063   */\n      revert\n        /* \"#utility.yul\":4075:4192   */\n    tag_98:\n        /* \"#utility.yul\":4184:4185   */\n      0x00\n        /* \"#utility.yul\":4181:4182   */\n      dup1\n        /* \"#utility.yul\":4174:4186   */\n      revert\n        /* \"#utility.yul\":4198:4378   */\n    tag_99:\n        /* \"#utility.yul\":4246:4323   */\n      0x4e487b7100000000000000000000000000000000000000000000000000000000\n        /* \"#utility.yul\":4243:4244   */\n      0x00\n        /* \"#utility.yul\":4236:4324   */\n      mstore\n        /* \"#utility.yul\":4343:4347   */\n      0x41\n        /* \"#utility.yul\":4340:4341   */\n      0x04\n        /* \"#utility.yul\":4333:4348   */\n      mstore\n        /* \"#utility.yul\":4367:4371   */\n      0x24\n        /* \"#utility.yul\":4364:4365   */\n      0x00\n        /* \"#utility.yul\":4357:4372   */\n      revert\n        /* \"#utility.yul\":4384:4665   */\n    tag_100:\n        /* \"#utility.yul\":4467:4494   */\n      tag_160\n        /* \"#utility.yul\":4489:4493   */\n      dup3\n        /* \"#utility.yul\":4467:4494   */\n      tag_95\n      jump\t// in\n    tag_160:\n        /* \"#utility.yul\":4459:4465   */\n      dup2\n        /* \"#utility.yul\":4455:4495   */\n      add\n        /* \"#utility.yul\":4597:4603   */\n      dup2\n        /* \"#utility.yul\":4585:4595   */\n      dup2\n        /* \"#utility.yul\":4582:4604   */\n      lt\n        /* \"#utility.yul\":4561:4579   */\n      0xffffffffffffffff\n        /* \"#utility.yul\":4549:4559   */\n      dup3\n        /* \"#utility.yul\":4546:4580   */\n      gt\n        /* \"#utility.yul\":4543:4605   */\n      or\n        /* \"#utility.yul\":4540:4628   */\n      iszero\n      tag_161\n      jumpi\n        /* \"#utility.yul\":4608:4626   */\n      tag_162\n      tag_99\n      jump\t// in\n    tag_162:\n        /* \"#utility.yul\":4540:4628   */\n    tag_161:\n        /* \"#utility.yul\":4648:4658   */\n      dup1\n        /* \"#utility.yul\":4644:4646   */\n      0x40\n        /* \"#utility.yul\":4637:4659   */\n      mstore\n        /* \"#utility.yul\":4427:4665   */\n      pop\n        /* \"#utility.yul\":4384:4665   */\n      pop\n      pop\n      jump\t// out\n        /* \"#utility.yul\":4671:4800   */\n    tag_101:\n        /* \"#utility.yul\":4705:4711   */\n      0x00\n        /* \"#utility.yul\":4732:4752   */\n      tag_164\n      tag_80\n      jump\t// in\n    tag_164:\n        /* \"#utility.yul\":4722:4752   */\n      swap1\n      pop\n        /* \"#utility.yul\":4761:4794   */\n      tag_165\n        /* \"#utility.yul\":4789:4793   */\n      dup3\n        /* \"#utility.yul\":4781:4787   */\n      dup3\n        /* \"#utility.yul\":4761:4794   */\n      tag_100\n      jump\t// in\n    tag_165:\n        /* \"#utility.yul\":4671:4800   */\n      swap2\n      swap1\n      pop\n      jump\t// out\n        /* \"#utility.yul\":4806:5114   */\n    tag_102:\n        /* \"#utility.yul\":4868:4872   */\n      0x00\n        /* \"#utility.yul\":4958:4976   */\n      0xffffffffffffffff\n        /* \"#utility.yul\":4950:4956   */\n      dup3\n        /* \"#utility.yul\":4947:4977   */\n      gt\n        /* \"#utility.yul\":4944:5000   */\n      iszero\n      tag_167\n      jumpi\n        /* \"#utility.yul\":4980:4998   */\n      tag_168\n      tag_99\n      jump\t// in\n    tag_168:\n        /* \"#utility.yul\":4944:5000   */\n    tag_167:\n        /* \"#utility.yul\":5018:5047   */\n      tag_169\n        /* \"#utility.yul\":5040:5046   */\n      dup3\n        /* \"#utility.yul\":5018:5047   */\n      tag_95\n      jump\t// in\n    tag_169:\n        /* \"#utility.yul\":5010:5047   */\n      swap1\n      pop\n        /* \"#utility.yul\":5102:5106   */\n      0x20\n        /* \"#utility.yul\":5096:5100   */\n      dup2\n        /* \"#utility.yul\":5092:5107   */\n      add\n        /* \"#utility.yul\":5084:5107   */\n      swap1\n      pop\n        /* \"#utility.yul\":4806:5114   */\n      swap2\n      swap1\n      pop\n      jump\t// out\n        /* \"#utility.yul\":5120:5266   */\n    tag_103:\n        /* \"#utility.yul\":5217:5223   */\n      dup3\n        /* \"#utility.yul\":5212:5215   */\n      dup2\n        /* \"#utility.yul\":5207:5210   */\n      dup4\n        /* \"#utility.yul\":5194:5224   */\n      calldatacopy\n        /* \"#utility.yul\":5258:5259   */\n      0x00\n        /* \"#utility.yul\":5249:5255   */\n      dup4\n        /* \"#utility.yul\":5244:5247   */\n      dup4\n        /* \"#utility.yul\":5240:5256   */\n      add\n        /* \"#utility.yul\":5233:5260   */\n      mstore\n        /* \"#utility.yul\":5120:5266   */\n      pop\n      pop\n      pop\n      jump\t// out\n        /* \"#utility.yul\":5272:5697   */\n    tag_104:\n        /* \"#utility.yul\":5350:5355   */\n      0x00\n        /* \"#utility.yul\":5375:5441   */\n      tag_172\n        /* \"#utility.yul\":5391:5440   */\n      tag_173\n        /* \"#utility.yul\":5433:5439   */\n      dup5\n        /* \"#utility.yul\":5391:5440   */\n      tag_102\n      jump\t// in\n    tag_173:\n        /* \"#utility.yul\":5375:5441   */\n      tag_101\n      jump\t// in\n    tag_172:\n        /* \"#utility.yul\":5366:5441   */\n      swap1\n      pop\n        /* \"#utility.yul\":5464:5470   */\n      dup3\n        /* \"#utility.yul\":5457:5462   */\n      dup2\n        /* \"#utility.yul\":5450:5471   */\n      mstore\n        /* \"#utility.yul\":5502:5506   */\n      0x20\n        /* \"#utility.yul\":5495:5500   */\n      dup2\n        /* \"#utility.yul\":5491:5507   */\n      add\n        /* \"#utility.yul\":5540:5543   */\n      dup5\n        /* \"#utility.yul\":5531:5537   */\n      dup5\n        /* \"#utility.yul\":5526:5529   */\n      dup5\n        /* \"#utility.yul\":5522:5538   */\n      add\n        /* \"#utility.yul\":5519:5544   */\n      gt\n        /* \"#utility.yul\":5516:5628   */\n      iszero\n      tag_174\n      jumpi\n        /* \"#utility.yul\":5547:5626   */\n      tag_175\n      tag_98\n      jump\t// in\n    tag_175:\n        /* \"#utility.yul\":5516:5628   */\n    tag_174:\n        /* \"#utility.yul\":5637:5691   */\n      tag_176\n        /* \"#utility.yul\":5684:5690   */\n      dup5\n        /* \"#utility.yul\":5679:5682   */\n      dup3\n        /* \"#utility.yul\":5674:5677   */\n      dup6\n        /* \"#utility.yul\":5637:5691   */\n      tag_103\n      jump\t// in\n    tag_176:\n        /* \"#utility.yul\":5356:5697   */\n      pop\n        /* \"#utility.yul\":5272:5697   */\n      swap4\n      swap3\n      pop\n      pop\n      pop\n      jump\t// out\n        /* \"#utility.yul\":5717:6057   */\n    tag_105:\n        /* \"#utility.yul\":5773:5778   */\n      0x00\n        /* \"#utility.yul\":5822:5825   */\n      dup3\n        /* \"#utility.yul\":5815:5819   */\n      0x1f\n        /* \"#utility.yul\":5807:5813   */\n      dup4\n        /* \"#utility.yul\":5803:5820   */\n      add\n        /* \"#utility.yul\":5799:5826   */\n      slt\n        /* \"#utility.yul\":5789:5911   */\n      tag_178\n      jumpi\n        /* \"#utility.yul\":5830:5909   */\n      tag_179\n      tag_97\n      jump\t// in\n    tag_179:\n        /* \"#utility.yul\":5789:5911   */\n    tag_178:\n        /* \"#utility.yul\":5947:5953   */\n      dup2\n        /* \"#utility.yul\":5934:5954   */\n      calldataload\n        /* \"#utility.yul\":5972:6051   */\n      tag_180\n        /* \"#utility.yul\":6047:6050   */\n      dup5\n        /* \"#utility.yul\":6039:6045   */\n      dup3\n        /* \"#utility.yul\":6032:6036   */\n      0x20\n        /* \"#utility.yul\":6024:6030   */\n      dup7\n        /* \"#utility.yul\":6020:6037   */\n      add\n        /* \"#utility.yul\":5972:6051   */\n      tag_104\n      jump\t// in\n    tag_180:\n        /* \"#utility.yul\":5963:6051   */\n      swap2\n      pop\n        /* \"#utility.yul\":5779:6057   */\n      pop\n        /* \"#utility.yul\":5717:6057   */\n      swap3\n      swap2\n      pop\n      pop\n      jump\t// out\n        /* \"#utility.yul\":6063:6572   */\n    tag_30:\n        /* \"#utility.yul\":6132:6138   */\n      0x00\n        /* \"#utility.yul\":6181:6183   */\n      0x20\n        /* \"#utility.yul\":6169:6178   */\n      dup3\n        /* \"#utility.yul\":6160:6167   */\n      dup5\n        /* \"#utility.yul\":6156:6179   */\n      sub\n        /* \"#utility.yul\":6152:6184   */\n      slt\n        /* \"#utility.yul\":6149:6268   */\n      iszero\n      tag_182\n      jumpi\n        /* \"#utility.yul\":6187:6266   */\n      tag_183\n      tag_81\n      jump\t// in\n    tag_183:\n        /* \"#utility.yul\":6149:6268   */\n    tag_182:\n        /* \"#utility.yul\":6335:6336   */\n      0x00\n        /* \"#utility.yul\":6324:6333   */\n      dup3\n        /* \"#utility.yul\":6320:6337   */\n      add\n        /* \"#utility.yul\":6307:6338   */\n      calldataload\n        /* \"#utility.yul\":6365:6383   */\n      0xffffffffffffffff\n        /* \"#utility.yul\":6357:6363   */\n      dup2\n        /* \"#utility.yul\":6354:6384   */\n      gt\n        /* \"#utility.yul\":6351:6468   */\n      iszero\n      tag_184\n      jumpi\n        /* \"#utility.yul\":6387:6466   */\n      tag_185\n      tag_82\n      jump\t// in\n    tag_185:\n        /* \"#utility.yul\":6351:6468   */\n    tag_184:\n        /* \"#utility.yul\":6492:6555   */\n      tag_186\n        /* \"#utility.yul\":6547:6554   */\n      dup5\n        /* \"#utility.yul\":6538:6544   */\n      dup3\n        /* \"#utility.yul\":6527:6536   */\n      dup6\n        /* \"#utility.yul\":6523:6545   */\n      add\n        /* \"#utility.yul\":6492:6555   */\n      tag_105\n      jump\t// in\n    tag_186:\n        /* \"#utility.yul\":6482:6555   */\n      swap2\n      pop\n        /* \"#utility.yul\":6278:6565   */\n      pop\n        /* \"#utility.yul\":6063:6572   */\n      swap3\n      swap2\n      pop\n      pop\n      jump\t// out\n        /* \"#utility.yul\":6578:6746   */\n    tag_106:\n        /* \"#utility.yul\":6718:6738   */\n      0x4e6f7420612076616c6964207374617475730000000000000000000000000000\n        /* \"#utility.yul\":6714:6715   */\n      0x00\n        /* \"#utility.yul\":6706:6712   */\n      dup3\n        /* \"#utility.yul\":6702:6716   */\n      add\n        /* \"#utility.yul\":6695:6739   */\n      mstore\n        /* \"#utility.yul\":6578:6746   */\n      pop\n      jump\t// out\n        /* \"#utility.yul\":6752:7118   */\n    tag_107:\n        /* \"#utility.yul\":6894:6897   */\n      0x00\n        /* \"#utility.yul\":6915:6982   */\n      tag_189\n        /* \"#utility.yul\":6979:6981   */\n      0x12\n        /* \"#utility.yul\":6974:6977   */\n      dup4\n        /* \"#utility.yul\":6915:6982   */\n      tag_93\n      jump\t// in\n    tag_189:\n        /* \"#utility.yul\":6908:6982   */\n      swap2\n      pop\n        /* \"#utility.yul\":6991:7084   */\n      tag_190\n        /* \"#utility.yul\":7080:7083   */\n      dup3\n        /* \"#utility.yul\":6991:7084   */\n      tag_106\n      jump\t// in\n    tag_190:\n        /* \"#utility.yul\":7109:7111   */\n      0x20\n        /* \"#utility.yul\":7104:7107   */\n      dup3\n        /* \"#utility.yul\":7100:7112   */\n      add\n        /* \"#utility.yul\":7093:7112   */\n      swap1\n      pop\n        /* \"#utility.yul\":6752:7118   */\n      swap2\n      swap1\n      pop\n      jump\t// out\n        /* \"#utility.yul\":7124:7543   */\n    tag_41:\n        /* \"#utility.yul\":7290:7294   */\n      0x00\n        /* \"#utility.yul\":7328:7330   */\n      0x20\n        /* \"#utility.yul\":7317:7326   */\n      dup3\n        /* \"#utility.yul\":7313:7331   */\n      add\n        /* \"#utility.yul\":7305:7331   */\n      swap1\n      pop\n        /* \"#utility.yul\":7377:7386   */\n      dup2\n        /* \"#utility.yul\":7371:7375   */\n      dup2\n        /* \"#utility.yul\":7367:7387   */\n      sub\n        /* \"#utility.yul\":7363:7364   */\n      0x00\n        /* \"#utility.yul\":7352:7361   */\n      dup4\n        /* \"#utility.yul\":7348:7365   */\n      add\n        /* \"#utility.yul\":7341:7388   */\n      mstore\n        /* \"#utility.yul\":7405:7536   */\n      tag_192\n        /* \"#utility.yul\":7531:7535   */\n      dup2\n        /* \"#utility.yul\":7405:7536   */\n      tag_107\n      jump\t// in\n    tag_192:\n        /* \"#utility.yul\":7397:7536   */\n      swap1\n      pop\n        /* \"#utility.yul\":7124:7543   */\n      swap2\n      swap1\n      pop\n      jump\t// out\n\n    auxdata: 0xa2646970667358221220990cc93820c03500cb305ef17a64965464bc031fd4b9ca5194b2a728b6b2d8b764736f6c63430008160033\n}\n",
				"bytecode": {
					"linkReferences": {},
					"object": "608060405234801561000f575f80fd5b506109f88061001d5f395ff3fe608060405234801561000f575f80fd5b5060043610610060575f3560e01c80632e49d78b1461006457806360fe47b1146100805780636d4ce63c1461009c5780636d7b7fc9146100ba578063d826f88f146100ea578063ebf9dced146100f4575b5f80fd5b61007e60048036038101906100799190610628565b610124565b005b61009a60048036038101906100959190610686565b61014f565b005b6100a46101db565b6040516100b19190610724565b60405180910390f35b6100d460048036038101906100cf9190610628565b6101ef565b6040516100e191906107c7565b60405180910390f35b6100f261043a565b005b61010e60048036038101906101099190610913565b61044c565b60405161011b9190610724565b60405180910390f35b805f806101000a81548160ff02191690836004811115610147576101466106b1565b5b021790555050565b5f8111801561015f575060058111155b61019e576040517f08c379a0000000000000000000000000000000000000000000000000000000008152600401610195906109a4565b60405180910390fd5b8060048111156101b1576101b06106b1565b5b5f806101000a81548160ff021916908360048111156101d3576101d26106b1565b5b021790555050565b5f805f9054906101000a900460ff16905090565b60605f6004811115610204576102036106b1565b5b826004811115610217576102166106b1565b5b03610259576040518060400160405280600781526020017f50656e64696e67000000000000000000000000000000000000000000000000008152509050610435565b6001600481111561026d5761026c6106b1565b5b8260048111156102805761027f6106b1565b5b036102c2576040518060400160405280600781526020017f53686970706564000000000000000000000000000000000000000000000000008152509050610435565b600260048111156102d6576102d56106b1565b5b8260048111156102e9576102e86106b1565b5b0361032b576040518060400160405280600881526020017f41636365707465640000000000000000000000000000000000000000000000008152509050610435565b6003600481111561033f5761033e6106b1565b5b826004811115610352576103516106b1565b5b03610394576040518060400160405280600881526020017f52656a65637465640000000000000000000000000000000000000000000000008152509050610435565b6004808111156103a7576103a66106b1565b5b8260048111156103ba576103b96106b1565b5b036103fc576040518060400160405280600881526020017f43616e63656c65640000000000000000000000000000000000000000000000008152509050610435565b6040518060400160405280600781526020017f556e6b6e6f776e0000000000000000000000000000000000000000000000000081525090505b919050565b5f806101000a81549060ff0219169055565b5f6040518060400160405280600781526020017f50656e64696e67000000000000000000000000000000000000000000000000008152508051906020012082805190602001200361049f575f90506105ef565b6040518060400160405280600781526020017f5368697070656400000000000000000000000000000000000000000000000000815250805190602001208280519060200120036104f257600190506105ef565b6040518060400160405280600881526020017f41636365707465640000000000000000000000000000000000000000000000008152508051906020012082805190602001200361054557600290506105ef565b6040518060400160405280600881526020017f52656a65637465640000000000000000000000000000000000000000000000008152508051906020012082805190602001200361059857600390506105ef565b6040518060400160405280600881526020017f43616e63656c6564000000000000000000000000000000000000000000000000815250805190602001208280519060200120036105eb57600490506105ef565b5f80fd5b919050565b5f604051905090565b5f80fd5b5f80fd5b60058110610611575f80fd5b50565b5f8135905061062281610605565b92915050565b5f6020828403121561063d5761063c6105fd565b5b5f61064a84828501610614565b91505092915050565b5f819050919050565b61066581610653565b811461066f575f80fd5b50565b5f813590506106808161065c565b92915050565b5f6020828403121561069b5761069a6105fd565b5b5f6106a884828501610672565b91505092915050565b7f4e487b71000000000000000000000000000000000000000000000000000000005f52602160045260245ffd5b600581106106ef576106ee6106b1565b5b50565b5f8190506106ff826106de565b919050565b5f61070e826106f2565b9050919050565b61071e81610704565b82525050565b5f6020820190506107375f830184610715565b92915050565b5f81519050919050565b5f82825260208201905092915050565b5f5b83811015610774578082015181840152602081019050610759565b5f8484015250505050565b5f601f19601f8301169050919050565b5f6107998261073d565b6107a38185610747565b93506107b3818560208601610757565b6107bc8161077f565b840191505092915050565b5f6020820190508181035f8301526107df818461078f565b905092915050565b5f80fd5b5f80fd5b7f4e487b71000000000000000000000000000000000000000000000000000000005f52604160045260245ffd5b6108258261077f565b810181811067ffffffffffffffff82111715610844576108436107ef565b5b80604052505050565b5f6108566105f4565b9050610862828261081c565b919050565b5f67ffffffffffffffff821115610881576108806107ef565b5b61088a8261077f565b9050602081019050919050565b828183375f83830152505050565b5f6108b76108b284610867565b61084d565b9050828152602081018484840111156108d3576108d26107eb565b5b6108de848285610897565b509392505050565b5f82601f8301126108fa576108f96107e7565b5b813561090a8482602086016108a5565b91505092915050565b5f60208284031215610928576109276105fd565b5b5f82013567ffffffffffffffff81111561094557610944610601565b5b610951848285016108e6565b91505092915050565b7f4e6f7420612076616c69642073746174757300000000000000000000000000005f82015250565b5f61098e601283610747565b91506109998261095a565b602082019050919050565b5f6020820190508181035f8301526109bb81610982565b905091905056fea2646970667358221220990cc93820c03500cb305ef17a64965464bc031fd4b9ca5194b2a728b6b2d8b764736f6c63430008160033",
					"opcodes": "PUSH1 0x80 PUSH1 0x40 MSTORE CALLVALUE DUP1 ISZERO PUSH2 0xF JUMPI PUSH0 DUP1 REVERT JUMPDEST POP PUSH2 0x9F8 DUP1 PUSH2 0x1D PUSH0 CODECOPY PUSH0 RETURN INVALID PUSH1 0x80 PUSH1 0x40 MSTORE CALLVALUE DUP1 ISZERO PUSH2 0xF JUMPI PUSH0 DUP1 REVERT JUMPDEST POP PUSH1 0x4 CALLDATASIZE LT PUSH2 0x60 JUMPI PUSH0 CALLDATALOAD PUSH1 0xE0 SHR DUP1 PUSH4 0x2E49D78B EQ PUSH2 0x64 JUMPI DUP1 PUSH4 0x60FE47B1 EQ PUSH2 0x80 JUMPI DUP1 PUSH4 0x6D4CE63C EQ PUSH2 0x9C JUMPI DUP1 PUSH4 0x6D7B7FC9 EQ PUSH2 0xBA JUMPI DUP1 PUSH4 0xD826F88F EQ PUSH2 0xEA JUMPI DUP1 PUSH4 0xEBF9DCED EQ PUSH2 0xF4 JUMPI JUMPDEST PUSH0 DUP1 REVERT JUMPDEST PUSH2 0x7E PUSH1 0x4 DUP1 CALLDATASIZE SUB DUP2 ADD SWAP1 PUSH2 0x79 SWAP2 SWAP1 PUSH2 0x628 JUMP JUMPDEST PUSH2 0x124 JUMP JUMPDEST STOP JUMPDEST PUSH2 0x9A PUSH1 0x4 DUP1 CALLDATASIZE SUB DUP2 ADD SWAP1 PUSH2 0x95 SWAP2 SWAP1 PUSH2 0x686 JUMP JUMPDEST PUSH2 0x14F JUMP JUMPDEST STOP JUMPDEST PUSH2 0xA4 PUSH2 0x1DB JUMP JUMPDEST PUSH1 0x40 MLOAD PUSH2 0xB1 SWAP2 SWAP1 PUSH2 0x724 JUMP JUMPDEST PUSH1 0x40 MLOAD DUP1 SWAP2 SUB SWAP1 RETURN JUMPDEST PUSH2 0xD4 PUSH1 0x4 DUP1 CALLDATASIZE SUB DUP2 ADD SWAP1 PUSH2 0xCF SWAP2 SWAP1 PUSH2 0x628 JUMP JUMPDEST PUSH2 0x1EF JUMP JUMPDEST PUSH1 0x40 MLOAD PUSH2 0xE1 SWAP2 SWAP1 PUSH2 0x7C7 JUMP JUMPDEST PUSH1 0x40 MLOAD DUP1 SWAP2 SUB SWAP1 RETURN JUMPDEST PUSH2 0xF2 PUSH2 0x43A JUMP JUMPDEST STOP JUMPDEST PUSH2 0x10E PUSH1 0x4 DUP1 CALLDATASIZE SUB DUP2 ADD SWAP1 PUSH2 0x109 SWAP2 SWAP1 PUSH2 0x913 JUMP JUMPDEST PUSH2 0x44C JUMP JUMPDEST PUSH1 0x40 MLOAD PUSH2 0x11B SWAP2 SWAP1 PUSH2 0x724 JUMP JUMPDEST PUSH1 0x40 MLOAD DUP1 SWAP2 SUB SWAP1 RETURN JUMPDEST DUP1 PUSH0 DUP1 PUSH2 0x100 EXP DUP2 SLOAD DUP2 PUSH1 0xFF MUL NOT AND SWAP1 DUP4 PUSH1 0x4 DUP2 GT ISZERO PUSH2 0x147 JUMPI PUSH2 0x146 PUSH2 0x6B1 JUMP JUMPDEST JUMPDEST MUL OR SWAP1 SSTORE POP POP JUMP JUMPDEST PUSH0 DUP2 GT DUP1 ISZERO PUSH2 0x15F JUMPI POP PUSH1 0x5 DUP2 GT ISZERO JUMPDEST PUSH2 0x19E JUMPI PUSH1 0x40 MLOAD PUSH32 0x8C379A000000000000000000000000000000000000000000000000000000000 DUP2 MSTORE PUSH1 0x4 ADD PUSH2 0x195 SWAP1 PUSH2 0x9A4 JUMP JUMPDEST PUSH1 0x40 MLOAD DUP1 SWAP2 SUB SWAP1 REVERT JUMPDEST DUP1 PUSH1 0x4 DUP2 GT ISZERO PUSH2 0x1B1 JUMPI PUSH2 0x1B0 PUSH2 0x6B1 JUMP JUMPDEST JUMPDEST PUSH0 DUP1 PUSH2 0x100 EXP DUP2 SLOAD DUP2 PUSH1 0xFF MUL NOT AND SWAP1 DUP4 PUSH1 0x4 DUP2 GT ISZERO PUSH2 0x1D3 JUMPI PUSH2 0x1D2 PUSH2 0x6B1 JUMP JUMPDEST JUMPDEST MUL OR SWAP1 SSTORE POP POP JUMP JUMPDEST PUSH0 DUP1 PUSH0 SWAP1 SLOAD SWAP1 PUSH2 0x100 EXP SWAP1 DIV PUSH1 0xFF AND SWAP1 POP SWAP1 JUMP JUMPDEST PUSH1 0x60 PUSH0 PUSH1 0x4 DUP2 GT ISZERO PUSH2 0x204 JUMPI PUSH2 0x203 PUSH2 0x6B1 JUMP JUMPDEST JUMPDEST DUP3 PUSH1 0x4 DUP2 GT ISZERO PUSH2 0x217 JUMPI PUSH2 0x216 PUSH2 0x6B1 JUMP JUMPDEST JUMPDEST SUB PUSH2 0x259 JUMPI PUSH1 0x40 MLOAD DUP1 PUSH1 0x40 ADD PUSH1 0x40 MSTORE DUP1 PUSH1 0x7 DUP2 MSTORE PUSH1 0x20 ADD PUSH32 0x50656E64696E6700000000000000000000000000000000000000000000000000 DUP2 MSTORE POP SWAP1 POP PUSH2 0x435 JUMP JUMPDEST PUSH1 0x1 PUSH1 0x4 DUP2 GT ISZERO PUSH2 0x26D JUMPI PUSH2 0x26C PUSH2 0x6B1 JUMP JUMPDEST JUMPDEST DUP3 PUSH1 0x4 DUP2 GT ISZERO PUSH2 0x280 JUMPI PUSH2 0x27F PUSH2 0x6B1 JUMP JUMPDEST JUMPDEST SUB PUSH2 0x2C2 JUMPI PUSH1 0x40 MLOAD DUP1 PUSH1 0x40 ADD PUSH1 0x40 MSTORE DUP1 PUSH1 0x7 DUP2 MSTORE PUSH1 0x20 ADD PUSH32 0x5368697070656400000000000000000000000000000000000000000000000000 DUP2 MSTORE POP SWAP1 POP PUSH2 0x435 JUMP JUMPDEST PUSH1 0x2 PUSH1 0x4 DUP2 GT ISZERO PUSH2 0x2D6 JUMPI PUSH2 0x2D5 PUSH2 0x6B1 JUMP JUMPDEST JUMPDEST DUP3 PUSH1 0x4 DUP2 GT ISZERO PUSH2 0x2E9 JUMPI PUSH2 0x2E8 PUSH2 0x6B1 JUMP JUMPDEST JUMPDEST SUB PUSH2 0x32B JUMPI PUSH1 0x40 MLOAD DUP1 PUSH1 0x40 ADD PUSH1 0x40 MSTORE DUP1 PUSH1 0x8 DUP2 MSTORE PUSH1 0x20 ADD PUSH32 0x4163636570746564000000000000000000000000000000000000000000000000 DUP2 MSTORE POP SWAP1 POP PUSH2 0x435 JUMP JUMPDEST PUSH1 0x3 PUSH1 0x4 DUP2 GT ISZERO PUSH2 0x33F JUMPI PUSH2 0x33E PUSH2 0x6B1 JUMP JUMPDEST JUMPDEST DUP3 PUSH1 0x4 DUP2 GT ISZERO PUSH2 0x352 JUMPI PUSH2 0x351 PUSH2 0x6B1 JUMP JUMPDEST JUMPDEST SUB PUSH2 0x394 JUMPI PUSH1 0x40 MLOAD DUP1 PUSH1 0x40 ADD PUSH1 0x40 MSTORE DUP1 PUSH1 0x8 DUP2 MSTORE PUSH1 0x20 ADD PUSH32 0x52656A6563746564000000000000000000000000000000000000000000000000 DUP2 MSTORE POP SWAP1 POP PUSH2 0x435 JUMP JUMPDEST PUSH1 0x4 DUP1 DUP2 GT ISZERO PUSH2 0x3A7 JUMPI PUSH2 0x3A6 PUSH2 0x6B1 JUMP JUMPDEST JUMPDEST DUP3 PUSH1 0x4 DUP2 GT ISZERO PUSH2 0x3BA JUMPI PUSH2 0x3B9 PUSH2 0x6B1 JUMP JUMPDEST JUMPDEST SUB PUSH2 0x3FC JUMPI PUSH1 0x40 MLOAD DUP1 PUSH1 0x40 ADD PUSH1 0x40 MSTORE DUP1 PUSH1 0x8 DUP2 MSTORE PUSH1 0x20 ADD PUSH32 0x43616E63656C6564000000000000000000000000000000000000000000000000 DUP2 MSTORE POP SWAP1 POP PUSH2 0x435 JUMP JUMPDEST PUSH1 0x40 MLOAD DUP1 PUSH1 0x40 ADD PUSH1 0x40 MSTORE DUP1 PUSH1 0x7 DUP2 MSTORE PUSH1 0x20 ADD PUSH32 0x556E6B6E6F776E00000000000000000000000000000000000000000000000000 DUP2 MSTORE POP SWAP1 POP JUMPDEST SWAP2 SWAP1 POP JUMP JUMPDEST PUSH0 DUP1 PUSH2 0x100 EXP DUP2 SLOAD SWAP1 PUSH1 0xFF MUL NOT AND SWAP1 SSTORE JUMP JUMPDEST PUSH0 PUSH1 0x40 MLOAD DUP1 PUSH1 0x40 ADD PUSH1 0x40 MSTORE DUP1 PUSH1 0x7 DUP2 MSTORE PUSH1 0x20 ADD PUSH32 0x50656E64696E6700000000000000000000000000000000000000000000000000 DUP2 MSTORE POP DUP1 MLOAD SWAP1 PUSH1 0x20 ADD KECCAK256 DUP3 DUP1 MLOAD SWAP1 PUSH1 0x20 ADD KECCAK256 SUB PUSH2 0x49F JUMPI PUSH0 SWAP1 POP PUSH2 0x5EF JUMP JUMPDEST PUSH1 0x40 MLOAD DUP1 PUSH1 0x40 ADD PUSH1 0x40 MSTORE DUP1 PUSH1 0x7 DUP2 MSTORE PUSH1 0x20 ADD PUSH32 0x5368697070656400000000000000000000000000000000000000000000000000 DUP2 MSTORE POP DUP1 MLOAD SWAP1 PUSH1 0x20 ADD KECCAK256 DUP3 DUP1 MLOAD SWAP1 PUSH1 0x20 ADD KECCAK256 SUB PUSH2 0x4F2 JUMPI PUSH1 0x1 SWAP1 POP PUSH2 0x5EF JUMP JUMPDEST PUSH1 0x40 MLOAD DUP1 PUSH1 0x40 ADD PUSH1 0x40 MSTORE DUP1 PUSH1 0x8 DUP2 MSTORE PUSH1 0x20 ADD PUSH32 0x4163636570746564000000000000000000000000000000000000000000000000 DUP2 MSTORE POP DUP1 MLOAD SWAP1 PUSH1 0x20 ADD KECCAK256 DUP3 DUP1 MLOAD SWAP1 PUSH1 0x20 ADD KECCAK256 SUB PUSH2 0x545 JUMPI PUSH1 0x2 SWAP1 POP PUSH2 0x5EF JUMP JUMPDEST PUSH1 0x40 MLOAD DUP1 PUSH1 0x40 ADD PUSH1 0x40 MSTORE DUP1 PUSH1 0x8 DUP2 MSTORE PUSH1 0x20 ADD PUSH32 0x52656A6563746564000000000000000000000000000000000000000000000000 DUP2 MSTORE POP DUP1 MLOAD SWAP1 PUSH1 0x20 ADD KECCAK256 DUP3 DUP1 MLOAD SWAP1 PUSH1 0x20 ADD KECCAK256 SUB PUSH2 0x598 JUMPI PUSH1 0x3 SWAP1 POP PUSH2 0x5EF JUMP JUMPDEST PUSH1 0x40 MLOAD DUP1 PUSH1 0x40 ADD PUSH1 0x40 MSTORE DUP1 PUSH1 0x8 DUP2 MSTORE PUSH1 0x20 ADD PUSH32 0x43616E63656C6564000000000000000000000000000000000000000000000000 DUP2 MSTORE POP DUP1 MLOAD SWAP1 PUSH1 0x20 ADD KECCAK256 DUP3 DUP1 MLOAD SWAP1 PUSH1 0x20 ADD KECCAK256 SUB PUSH2 0x5EB JUMPI PUSH1 0x4 SWAP1 POP PUSH2 0x5EF JUMP JUMPDEST PUSH0 DUP1 REVERT JUMPDEST SWAP2 SWAP1 POP JUMP JUMPDEST PUSH0 PUSH1 0x40 MLOAD SWAP1 POP SWAP1 JUMP JUMPDEST PUSH0 DUP1 REVERT JUMPDEST PUSH0 DUP1 REVERT JUMPDEST PUSH1 0x5 DUP2 LT PUSH2 0x611 JUMPI PUSH0 DUP1 REVERT JUMPDEST POP JUMP JUMPDEST PUSH0 DUP2 CALLDATALOAD SWAP1 POP PUSH2 0x622 DUP2 PUSH2 0x605 JUMP JUMPDEST SWAP3 SWAP2 POP POP JUMP JUMPDEST PUSH0 PUSH1 0x20 DUP3 DUP5 SUB SLT ISZERO PUSH2 0x63D JUMPI PUSH2 0x63C PUSH2 0x5FD JUMP JUMPDEST JUMPDEST PUSH0 PUSH2 0x64A DUP5 DUP3 DUP6 ADD PUSH2 0x614 JUMP JUMPDEST SWAP2 POP POP SWAP3 SWAP2 POP POP JUMP JUMPDEST PUSH0 DUP2 SWAP1 POP SWAP2 SWAP1 POP JUMP JUMPDEST PUSH2 0x665 DUP2 PUSH2 0x653 JUMP JUMPDEST DUP2 EQ PUSH2 0x66F JUMPI PUSH0 DUP1 REVERT JUMPDEST POP JUMP JUMPDEST PUSH0 DUP2 CALLDATALOAD SWAP1 POP PUSH2 0x680 DUP2 PUSH2 0x65C JUMP JUMPDEST SWAP3 SWAP2 POP POP JUMP JUMPDEST PUSH0 PUSH1 0x20 DUP3 DUP5 SUB SLT ISZERO PUSH2 0x69B JUMPI PUSH2 0x69A PUSH2 0x5FD JUMP JUMPDEST JUMPDEST PUSH0 PUSH2 0x6A8 DUP5 DUP3 DUP6 ADD PUSH2 0x672 JUMP JUMPDEST SWAP2 POP POP SWAP3 SWAP2 POP POP JUMP JUMPDEST PUSH32 0x4E487B7100000000000000000000000000000000000000000000000000000000 PUSH0 MSTORE PUSH1 0x21 PUSH1 0x4 MSTORE PUSH1 0x24 PUSH0 REVERT JUMPDEST PUSH1 0x5 DUP2 LT PUSH2 0x6EF JUMPI PUSH2 0x6EE PUSH2 0x6B1 JUMP JUMPDEST JUMPDEST POP JUMP JUMPDEST PUSH0 DUP2 SWAP1 POP PUSH2 0x6FF DUP3 PUSH2 0x6DE JUMP JUMPDEST SWAP2 SWAP1 POP JUMP JUMPDEST PUSH0 PUSH2 0x70E DUP3 PUSH2 0x6F2 JUMP JUMPDEST SWAP1 POP SWAP2 SWAP1 POP JUMP JUMPDEST PUSH2 0x71E DUP2 PUSH2 0x704 JUMP JUMPDEST DUP3 MSTORE POP POP JUMP JUMPDEST PUSH0 PUSH1 0x20 DUP3 ADD SWAP1 POP PUSH2 0x737 PUSH0 DUP4 ADD DUP5 PUSH2 0x715 JUMP JUMPDEST SWAP3 SWAP2 POP POP JUMP JUMPDEST PUSH0 DUP2 MLOAD SWAP1 POP SWAP2 SWAP1 POP JUMP JUMPDEST PUSH0 DUP3 DUP3 MSTORE PUSH1 0x20 DUP3 ADD SWAP1 POP SWAP3 SWAP2 POP POP JUMP JUMPDEST PUSH0 JUMPDEST DUP4 DUP2 LT ISZERO PUSH2 0x774 JUMPI DUP1 DUP3 ADD MLOAD DUP2 DUP5 ADD MSTORE PUSH1 0x20 DUP2 ADD SWAP1 POP PUSH2 0x759 JUMP JUMPDEST PUSH0 DUP5 DUP5 ADD MSTORE POP POP POP POP JUMP JUMPDEST PUSH0 PUSH1 0x1F NOT PUSH1 0x1F DUP4 ADD AND SWAP1 POP SWAP2 SWAP1 POP JUMP JUMPDEST PUSH0 PUSH2 0x799 DUP3 PUSH2 0x73D JUMP JUMPDEST PUSH2 0x7A3 DUP2 DUP6 PUSH2 0x747 JUMP JUMPDEST SWAP4 POP PUSH2 0x7B3 DUP2 DUP6 PUSH1 0x20 DUP7 ADD PUSH2 0x757 JUMP JUMPDEST PUSH2 0x7BC DUP2 PUSH2 0x77F JUMP JUMPDEST DUP5 ADD SWAP2 POP POP SWAP3 SWAP2 POP POP JUMP JUMPDEST PUSH0 PUSH1 0x20 DUP3 ADD SWAP1 POP DUP2 DUP2 SUB PUSH0 DUP4 ADD MSTORE PUSH2 0x7DF DUP2 DUP5 PUSH2 0x78F JUMP JUMPDEST SWAP1 POP SWAP3 SWAP2 POP POP JUMP JUMPDEST PUSH0 DUP1 REVERT JUMPDEST PUSH0 DUP1 REVERT JUMPDEST PUSH32 0x4E487B7100000000000000000000000000000000000000000000000000000000 PUSH0 MSTORE PUSH1 0x41 PUSH1 0x4 MSTORE PUSH1 0x24 PUSH0 REVERT JUMPDEST PUSH2 0x825 DUP3 PUSH2 0x77F JUMP JUMPDEST DUP2 ADD DUP2 DUP2 LT PUSH8 0xFFFFFFFFFFFFFFFF DUP3 GT OR ISZERO PUSH2 0x844 JUMPI PUSH2 0x843 PUSH2 0x7EF JUMP JUMPDEST JUMPDEST DUP1 PUSH1 0x40 MSTORE POP POP POP JUMP JUMPDEST PUSH0 PUSH2 0x856 PUSH2 0x5F4 JUMP JUMPDEST SWAP1 POP PUSH2 0x862 DUP3 DUP3 PUSH2 0x81C JUMP JUMPDEST SWAP2 SWAP1 POP JUMP JUMPDEST PUSH0 PUSH8 0xFFFFFFFFFFFFFFFF DUP3 GT ISZERO PUSH2 0x881 JUMPI PUSH2 0x880 PUSH2 0x7EF JUMP JUMPDEST JUMPDEST PUSH2 0x88A DUP3 PUSH2 0x77F JUMP JUMPDEST SWAP1 POP PUSH1 0x20 DUP2 ADD SWAP1 POP SWAP2 SWAP1 POP JUMP JUMPDEST DUP3 DUP2 DUP4 CALLDATACOPY PUSH0 DUP4 DUP4 ADD MSTORE POP POP POP JUMP JUMPDEST PUSH0 PUSH2 0x8B7 PUSH2 0x8B2 DUP5 PUSH2 0x867 JUMP JUMPDEST PUSH2 0x84D JUMP JUMPDEST SWAP1 POP DUP3 DUP2 MSTORE PUSH1 0x20 DUP2 ADD DUP5 DUP5 DUP5 ADD GT ISZERO PUSH2 0x8D3 JUMPI PUSH2 0x8D2 PUSH2 0x7EB JUMP JUMPDEST JUMPDEST PUSH2 0x8DE DUP5 DUP3 DUP6 PUSH2 0x897 JUMP JUMPDEST POP SWAP4 SWAP3 POP POP POP JUMP JUMPDEST PUSH0 DUP3 PUSH1 0x1F DUP4 ADD SLT PUSH2 0x8FA JUMPI PUSH2 0x8F9 PUSH2 0x7E7 JUMP JUMPDEST JUMPDEST DUP2 CALLDATALOAD PUSH2 0x90A DUP5 DUP3 PUSH1 0x20 DUP7 ADD PUSH2 0x8A5 JUMP JUMPDEST SWAP2 POP POP SWAP3 SWAP2 POP POP JUMP JUMPDEST PUSH0 PUSH1 0x20 DUP3 DUP5 SUB SLT ISZERO PUSH2 0x928 JUMPI PUSH2 0x927 PUSH2 0x5FD JUMP JUMPDEST JUMPDEST PUSH0 DUP3 ADD CALLDATALOAD PUSH8 0xFFFFFFFFFFFFFFFF DUP2 GT ISZERO PUSH2 0x945 JUMPI PUSH2 0x944 PUSH2 0x601 JUMP JUMPDEST JUMPDEST PUSH2 0x951 DUP5 DUP3 DUP6 ADD PUSH2 0x8E6 JUMP JUMPDEST SWAP2 POP POP SWAP3 SWAP2 POP POP JUMP JUMPDEST PUSH32 0x4E6F7420612076616C6964207374617475730000000000000000000000000000 PUSH0 DUP3 ADD MSTORE POP JUMP JUMPDEST PUSH0 PUSH2 0x98E PUSH1 0x12 DUP4 PUSH2 0x747 JUMP JUMPDEST SWAP2 POP PUSH2 0x999 DUP3 PUSH2 0x95A JUMP JUMPDEST PUSH1 0x20 DUP3 ADD SWAP1 POP SWAP2 SWAP1 POP JUMP JUMPDEST PUSH0 PUSH1 0x20 DUP3 ADD SWAP1 POP DUP2 DUP2 SUB PUSH0 DUP4 ADD MSTORE PUSH2 0x9BB DUP2 PUSH2 0x982 JUMP JUMPDEST SWAP1 POP SWAP2 SWAP1 POP JUMP INVALID LOG2 PUSH5 0x6970667358 0x22 SLT KECCAK256 SWAP10 0xC 0xC9 CODESIZE KECCAK256 0xC0 CALLDATALOAD STOP 0xCB ADDRESS 0x5E CALL PUSH27 0x64965464BC031FD4B9CA5194B2A728B6B2D8B764736F6C63430008 AND STOP CALLER "
				},
				"gasEstimates": {
					"creation": {
						"codeDepositCost": "510400",
						"executionCost": "541",
						"totalCost": "510941"
					},
					"external": {
						"StringTostatus(string)": "infinite",
						"get()": "2583",
						"reset()": "24450",
						"set(uint256)": "24769",
						"setStatus(uint8)": "24623",
						"statusToString(uint8)": "infinite"
					}
				},
				"methodIdentifiers": {
					"StringTostatus(string)": "ebf9dced",
					"get()": "6d4ce63c",
					"reset()": "d826f88f",
					"set(uint256)": "60fe47b1",
					"setStatus(uint8)": "2e49d78b",
					"statusToString(uint8)": "6d7b7fc9"
				}
			},
			"storageLayout": {
				"storage": [
					{
						"astId": 10,
						"contract": "ExampleEnum.sol:ExampleEnum",
						"label": "status",
						"offset": 0,
						"slot": "0",
						"type": "t_enum(Status)7"
					}
				],
				"types": {
					"t_enum(Status)7": {
						"encoding": "inplace",
						"label": "enum ExampleEnum.Status",
						"numberOfBytes": "1"
					}
				}
			},
			"userdoc": {
				"kind": "user",
				"methods": {},
				"version": 1
			}
		}
	}
}