{
	"ExampleFunctionScope.sol": {
		"ExampleFunctionScope": {
			"abi": [
				{
					"inputs": [],
					"name": "age",
					"outputs": [
						{
							"internalType": "uint256",
							"name": "",
							"type": "uint256"
						}
					],
					"stateMutability": "view",
					"type": "function"
				},
				{
					"inputs": [],
					"name": "scopeCall",
					"outputs": [],
					"stateMutability": "view",
					"type": "function"
				},
				{
					"inputs": [],
					"name": "scopeExternal",
					"outputs": [
						{
							"internalType": "uint256",
							"name": "",
							"type": "uint256"
						}
					],
					"stateMutability": "view",
					"type": "function"
				},
				{
					"inputs": [],
					"name": "scopePublic",
					"outputs": [
						{
							"internalType": "uint256",
							"name": "",
							"type": "uint256"
						}
					],
					"stateMutability": "view",
					"type": "function"
				}
			],
			"devdoc": {
				"kind": "dev",
				"methods": {},
				"version": 1
			},
			"evm": {
				"assembly": "    /* \"ExampleFunctionScope.sol\":391:1003  contract ExampleFunctionScope {... */\n  mstore(0x40, 0x80)\n    /* \"ExampleFunctionScope.sol\":448:451  100 */\n  0x64\n    /* \"ExampleFunctionScope.sol\":427:451  uint256 public age = 100 */\n  0x00\n  sstore\n    /* \"ExampleFunctionScope.sol\":391:1003  contract ExampleFunctionScope {... */\n  callvalue\n  dup1\n  iszero\n  tag_1\n  jumpi\n  0x00\n  dup1\n  revert\ntag_1:\n  pop\n  dataSize(sub_0)\n  dup1\n  dataOffset(sub_0)\n  0x00\n  codecopy\n  0x00\n  return\nstop\n\nsub_0: assembly {\n        /* \"ExampleFunctionScope.sol\":391:1003  contract ExampleFunctionScope {... */\n      mstore(0x40, 0x80)\n      callvalue\n      dup1\n      iszero\n      tag_1\n      jumpi\n      0x00\n      dup1\n      revert\n    tag_1:\n      pop\n      jumpi(tag_2, lt(calldatasize, 0x04))\n      shr(0xe0, calldataload(0x00))\n      dup1\n      0x262a9dff\n      eq\n      tag_3\n      jumpi\n      dup1\n      0x755acde4\n      eq\n      tag_4\n      jumpi\n      dup1\n      0xa114485a\n      eq\n      tag_5\n      jumpi\n      dup1\n      0xd686b671\n      eq\n      tag_6\n      jumpi\n    tag_2:\n      0x00\n      dup1\n      revert\n        /* \"ExampleFunctionScope.sol\":427:451  uint256 public age = 100 */\n    tag_3:\n      tag_7\n      tag_8\n      jump\t// in\n    tag_7:\n      mload(0x40)\n      tag_9\n      swap2\n      swap1\n      tag_10\n      jump\t// in\n    tag_9:\n      mload(0x40)\n      dup1\n      swap2\n      sub\n      swap1\n      return\n        /* \"ExampleFunctionScope.sol\":812:1001  function scopeCall() public view{... */\n    tag_4:\n      tag_11\n      tag_12\n      jump\t// in\n    tag_11:\n      stop\n        /* \"ExampleFunctionScope.sol\":632:716  function scopeExternal() external view returns (uint256) {... */\n    tag_5:\n      tag_13\n      tag_14\n      jump\t// in\n    tag_13:\n      mload(0x40)\n      tag_15\n      swap2\n      swap1\n      tag_10\n      jump\t// in\n    tag_15:\n      mload(0x40)\n      dup1\n      swap2\n      sub\n      swap1\n      return\n        /* \"ExampleFunctionScope.sol\":458:538  function scopePublic() public view returns (uint256) {... */\n    tag_6:\n      tag_16\n      tag_17\n      jump\t// in\n    tag_16:\n      mload(0x40)\n      tag_18\n      swap2\n      swap1\n      tag_10\n      jump\t// in\n    tag_18:\n      mload(0x40)\n      dup1\n      swap2\n      sub\n      swap1\n      return\n        /* \"ExampleFunctionScope.sol\":427:451  uint256 public age = 100 */\n    tag_8:\n      sload(0x00)\n      dup2\n      jump\t// out\n        /* \"ExampleFunctionScope.sol\":812:1001  function scopeCall() public view{... */\n    tag_12:\n        /* \"ExampleFunctionScope.sol\":932:947  scopeInternal() */\n      tag_20\n        /* \"ExampleFunctionScope.sol\":932:945  scopeInternal */\n      tag_21\n        /* \"ExampleFunctionScope.sol\":932:947  scopeInternal() */\n      jump\t// in\n    tag_20:\n      pop\n        /* \"ExampleFunctionScope.sol\":957:971  scopePrivate() */\n      tag_22\n        /* \"ExampleFunctionScope.sol\":957:969  scopePrivate */\n      tag_23\n        /* \"ExampleFunctionScope.sol\":957:971  scopePrivate() */\n      jump\t// in\n    tag_22:\n      pop\n        /* \"ExampleFunctionScope.sol\":981:994  scopePublic() */\n      tag_24\n        /* \"ExampleFunctionScope.sol\":981:992  scopePublic */\n      tag_17\n        /* \"ExampleFunctionScope.sol\":981:994  scopePublic() */\n      jump\t// in\n    tag_24:\n      pop\n        /* \"ExampleFunctionScope.sol\":812:1001  function scopeCall() public view{... */\n      jump\t// out\n        /* \"ExampleFunctionScope.sol\":632:716  function scopeExternal() external view returns (uint256) {... */\n    tag_14:\n        /* \"ExampleFunctionScope.sol\":680:687  uint256 */\n      0x00\n        /* \"ExampleFunctionScope.sol\":706:709  age */\n      dup1\n      sload\n        /* \"ExampleFunctionScope.sol\":699:709  return age */\n      swap1\n      pop\n        /* \"ExampleFunctionScope.sol\":632:716  function scopeExternal() external view returns (uint256) {... */\n      swap1\n      jump\t// out\n        /* \"ExampleFunctionScope.sol\":458:538  function scopePublic() public view returns (uint256) {... */\n    tag_17:\n        /* \"ExampleFunctionScope.sol\":502:509  uint256 */\n      0x00\n        /* \"ExampleFunctionScope.sol\":528:531  age */\n      dup1\n      sload\n        /* \"ExampleFunctionScope.sol\":521:531  return age */\n      swap1\n      pop\n        /* \"ExampleFunctionScope.sol\":458:538  function scopePublic() public view returns (uint256) {... */\n      swap1\n      jump\t// out\n        /* \"ExampleFunctionScope.sol\":722:806  function scopeInternal() internal view returns (uint256) {... */\n    tag_21:\n        /* \"ExampleFunctionScope.sol\":770:777  uint256 */\n      0x00\n        /* \"ExampleFunctionScope.sol\":796:799  age */\n      dup1\n      sload\n        /* \"ExampleFunctionScope.sol\":789:799  return age */\n      swap1\n      pop\n        /* \"ExampleFunctionScope.sol\":722:806  function scopeInternal() internal view returns (uint256) {... */\n      swap1\n      jump\t// out\n        /* \"ExampleFunctionScope.sol\":544:626  function scopePrivate() private view returns (uint256) {... */\n    tag_23:\n        /* \"ExampleFunctionScope.sol\":590:597  uint256 */\n      0x00\n        /* \"ExampleFunctionScope.sol\":616:619  age */\n      dup1\n      sload\n        /* \"ExampleFunctionScope.sol\":609:619  return age */\n      swap1\n      pop\n        /* \"ExampleFunctionScope.sol\":544:626  function scopePrivate() private view returns (uint256) {... */\n      swap1\n      jump\t// out\n        /* \"#utility.yul\":7:84   */\n    tag_29:\n        /* \"#utility.yul\":44:51   */\n      0x00\n        /* \"#utility.yul\":73:78   */\n      dup2\n        /* \"#utility.yul\":62:78   */\n      swap1\n      pop\n        /* \"#utility.yul\":7:84   */\n      swap2\n      swap1\n      pop\n      jump\t// out\n        /* \"#utility.yul\":90:208   */\n    tag_30:\n        /* \"#utility.yul\":177:201   */\n      tag_34\n        /* \"#utility.yul\":195:200   */\n      dup2\n        /* \"#utility.yul\":177:201   */\n      tag_29\n      jump\t// in\n    tag_34:\n        /* \"#utility.yul\":172:175   */\n      dup3\n        /* \"#utility.yul\":165:202   */\n      mstore\n        /* \"#utility.yul\":90:208   */\n      pop\n      pop\n      jump\t// out\n        /* \"#utility.yul\":214:436   */\n    tag_10:\n        /* \"#utility.yul\":307:311   */\n      0x00\n        /* \"#utility.yul\":345:347   */\n      0x20\n        /* \"#utility.yul\":334:343   */\n      dup3\n        /* \"#utility.yul\":330:348   */\n      add\n        /* \"#utility.yul\":322:348   */\n      swap1\n      pop\n        /* \"#utility.yul\":358:429   */\n      tag_36\n        /* \"#utility.yul\":426:427   */\n      0x00\n        /* \"#utility.yul\":415:424   */\n      dup4\n        /* \"#utility.yul\":411:428   */\n      add\n        /* \"#utility.yul\":402:408   */\n      dup5\n        /* \"#utility.yul\":358:429   */\n      tag_30\n      jump\t// in\n    tag_36:\n        /* \"#utility.yul\":214:436   */\n      swap3\n      swap2\n      pop\n      pop\n      jump\t// out\n\n    auxdata: 0xa264697066735822122056b2a4e6bb1e11ef79c0199507f34bcca5a1d17c4a02fb9a7c1bcb984413e66b64736f6c63430008160033\n}\n",
				"bytecode": {
					"linkReferences": {},
					"object": "608060405260645f55348015610013575f80fd5b5061015b806100215f395ff3fe608060405234801561000f575f80fd5b506004361061004a575f3560e01c8063262a9dff1461004e578063755acde41461006c578063a114485a14610076578063d686b67114610094575b5f80fd5b6100566100b2565b604051610063919061010c565b60405180910390f35b6100746100b7565b005b61007e6100d4565b60405161008b919061010c565b60405180910390f35b61009c6100dc565b6040516100a9919061010c565b60405180910390f35b5f5481565b6100bf6100e4565b506100c86100ec565b506100d16100dc565b50565b5f8054905090565b5f8054905090565b5f8054905090565b5f8054905090565b5f819050919050565b610106816100f4565b82525050565b5f60208201905061011f5f8301846100fd565b9291505056fea264697066735822122056b2a4e6bb1e11ef79c0199507f34bcca5a1d17c4a02fb9a7c1bcb984413e66b64736f6c63430008160033",
					"opcodes": "PUSH1 0x80 PUSH1 0x40 MSTORE PUSH1 0x64 PUSH0 SSTORE CALLVALUE DUP1 ISZERO PUSH2 0x13 JUMPI PUSH0 DUP1 REVERT JUMPDEST POP PUSH2 0x15B DUP1 PUSH2 0x21 PUSH0 CODECOPY PUSH0 RETURN INVALID PUSH1 0x80 PUSH1 0x40 MSTORE CALLVALUE DUP1 ISZERO PUSH2 0xF JUMPI PUSH0 DUP1 REVERT JUMPDEST POP PUSH1 0x4 CALLDATASIZE LT PUSH2 0x4A JUMPI PUSH0 CALLDATALOAD PUSH1 0xE0 SHR DUP1 PUSH4 0x262A9DFF EQ PUSH2 0x4E JUMPI DUP1 PUSH4 0x755ACDE4 EQ PUSH2 0x6C JUMPI DUP1 PUSH4 0xA114485A EQ PUSH2 0x76 JUMPI DUP1 PUSH4 0xD686B671 EQ PUSH2 0x94 JUMPI JUMPDEST PUSH0 DUP1 REVERT JUMPDEST PUSH2 0x56 PUSH2 0xB2 JUMP JUMPDEST PUSH1 0x40 MLOAD PUSH2 0x63 SWAP2 SWAP1 PUSH2 0x10C JUMP JUMPDEST PUSH1 0x40 MLOAD DUP1 SWAP2 SUB SWAP1 RETURN JUMPDEST PUSH2 0x74 PUSH2 0xB7 JUMP JUMPDEST STOP JUMPDEST PUSH2 0x7E PUSH2 0xD4 JUMP JUMPDEST PUSH1 0x40 MLOAD PUSH2 0x8B SWAP2 SWAP1 PUSH2 0x10C JUMP JUMPDEST PUSH1 0x40 MLOAD DUP1 SWAP2 SUB SWAP1 RETURN JUMPDEST PUSH2 0x9C PUSH2 0xDC JUMP JUMPDEST PUSH1 0x40 MLOAD PUSH2 0xA9 SWAP2 SWAP1 PUSH2 0x10C JUMP JUMPDEST PUSH1 0x40 MLOAD DUP1 SWAP2 SUB SWAP1 RETURN JUMPDEST PUSH0 SLOAD DUP2 JUMP JUMPDEST PUSH2 0xBF PUSH2 0xE4 JUMP JUMPDEST POP PUSH2 0xC8 PUSH2 0xEC JUMP JUMPDEST POP PUSH2 0xD1 PUSH2 0xDC JUMP JUMPDEST POP JUMP JUMPDEST PUSH0 DUP1 SLOAD SWAP1 POP SWAP1 JUMP JUMPDEST PUSH0 DUP1 SLOAD SWAP1 POP SWAP1 JUMP JUMPDEST PUSH0 DUP1 SLOAD SWAP1 POP SWAP1 JUMP JUMPDEST PUSH0 DUP1 SLOAD SWAP1 POP SWAP1 JUMP JUMPDEST PUSH0 DUP2 SWAP1 POP SWAP2 SWAP1 POP JUMP JUMPDEST PUSH2 0x106 DUP2 PUSH2 0xF4 JUMP JUMPDEST DUP3 MSTORE POP POP JUMP JUMPDEST PUSH0 PUSH1 0x20 DUP3 ADD SWAP1 POP PUSH2 0x11F PUSH0 DUP4 ADD DUP5 PUSH2 0xFD JUMP JUMPDEST SWAP3 SWAP2 POP POP JUMP INVALID LOG2 PUSH5 0x6970667358 0x22 SLT KECCAK256 JUMP 0xB2 LOG4 0xE6 0xBB 0x1E GT 0xEF PUSH26 0xC0199507F34BCCA5A1D17C4A02FB9A7C1BCB984413E66B64736F PUSH13 0x63430008160033000000000000 "
				},
				"gasEstimates": {
					"creation": {
						"codeDepositCost": "69400",
						"executionCost": "22220",
						"totalCost": "91620"
					},
					"external": {
						"age()": "2402",
						"scopeCall()": "6560",
						"scopeExternal()": "2454",
						"scopePublic()": "2476"
					},
					"internal": {
						"scopeInternal()": "2122",
						"scopePrivate()": "2122"
					}
				},
				"methodIdentifiers": {
					"age()": "262a9dff",
					"scopeCall()": "755acde4",
					"scopeExternal()": "a114485a",
					"scopePublic()": "d686b671"
				}
			},
			"storageLayout": {
				"storage": [
					{
						"astId": 5,
						"contract": "ExampleFunctionScope.sol:ExampleFunctionScope",
						"label": "age",
						"offset": 0,
						"slot": "0",
						"type": "t_uint256"
					}
				],
				"types": {
					"t_uint256": {
						"encoding": "inplace",
						"label": "uint256",
						"numberOfBytes": "32"
					}
				}
			},
			"userdoc": {
				"kind": "user",
				"methods": {},
				"notice": "作用域\t合约外部可见\t合约内部可见\t子合约可见\t说明 public\t✔️\t✔️\t✔️\t公开，任何人都能调用 external\t✔️\t仅 this.\t✖️\t只能外部调用，合约内部不能直接调用 internal\t✖️\t✔️\t✔️\t仅本合约和子合约可见 private\t✖️\t✔️\t✖️\t仅本合约可见",
				"version": 1
			}
		}
	}
}