{
	"wallet/Erc20Wallet.sol": {
		"MyWallet": {
			"abi": [
				{
					"inputs": [
						{
							"internalType": "address",
							"name": "_erc20",
							"type": "address"
						}
					],
					"stateMutability": "nonpayable",
					"type": "constructor"
				},
				{
					"inputs": [
						{
							"internalType": "address",
							"name": "token",
							"type": "address"
						}
					],
					"name": "SafeERC20FailedOperation",
					"type": "error"
				},
				{
					"inputs": [
						{
							"internalType": "uint256",
							"name": "amount",
							"type": "uint256"
						}
					],
					"name": "depositERC20",
					"outputs": [],
					"stateMutability": "nonpayable",
					"type": "function"
				},
				{
					"inputs": [
						{
							"internalType": "uint256",
							"name": "amount",
							"type": "uint256"
						}
					],
					"name": "depositETH",
					"outputs": [],
					"stateMutability": "payable",
					"type": "function"
				},
				{
					"inputs": [],
					"name": "getERC20",
					"outputs": [
						{
							"internalType": "address",
							"name": "",
							"type": "address"
						}
					],
					"stateMutability": "view",
					"type": "function"
				},
				{
					"inputs": [],
					"name": "getERC20Balance",
					"outputs": [
						{
							"internalType": "uint256",
							"name": "amountERC20",
							"type": "uint256"
						}
					],
					"stateMutability": "view",
					"type": "function"
				},
				{
					"inputs": [],
					"name": "getETHBalance",
					"outputs": [
						{
							"internalType": "uint256",
							"name": "amountETH",
							"type": "uint256"
						}
					],
					"stateMutability": "view",
					"type": "function"
				},
				{
					"inputs": [
						{
							"internalType": "address",
							"name": "_erc20",
							"type": "address"
						}
					],
					"name": "setERC20",
					"outputs": [],
					"stateMutability": "nonpayable",
					"type": "function"
				},
				{
					"inputs": [],
					"name": "withdrawERC20",
					"outputs": [],
					"stateMutability": "nonpayable",
					"type": "function"
				},
				{
					"inputs": [],
					"name": "withdrawETH",
					"outputs": [],
					"stateMutability": "nonpayable",
					"type": "function"
				}
			],
			"devdoc": {
				"errors": {
					"SafeERC20FailedOperation(address)": [
						{
							"details": "An operation with an ERC-20 token failed."
						}
					]
				},
				"kind": "dev",
				"methods": {},
				"version": 1
			},
			"evm": {
				"assembly": "    /* \"wallet/Erc20Wallet.sol\":141:1859  contract MyWallet {... */\n  mstore(0x40, 0x80)\n    /* \"wallet/Erc20Wallet.sol\":272:370  constructor(address _erc20){... */\n  callvalue\n  dup1\n  iszero\n  tag_1\n  jumpi\n  0x00\n  dup1\n  revert\ntag_1:\n  pop\n  mload(0x40)\n  sub(codesize, bytecodeSize)\n  dup1\n  bytecodeSize\n  dup4\n  codecopy\n  dup2\n  dup2\n  add\n  0x40\n  mstore\n  dup2\n  add\n  swap1\n  tag_2\n  swap2\n  swap1\n  tag_3\n  jump\t// in\ntag_2:\n    /* \"wallet/Erc20Wallet.sol\":326:336  msg.sender */\n  caller\n    /* \"wallet/Erc20Wallet.sol\":310:315  owner */\n  0x01\n  0x00\n    /* \"wallet/Erc20Wallet.sol\":310:337  owner = payable(msg.sender) */\n  0x0100\n  exp\n  dup2\n  sload\n  dup2\n  0xffffffffffffffffffffffffffffffffffffffff\n  mul\n  not\n  and\n  swap1\n  dup4\n  0xffffffffffffffffffffffffffffffffffffffff\n  and\n  mul\n  or\n  swap1\n  sstore\n  pop\n    /* \"wallet/Erc20Wallet.sol\":356:362  _erc20 */\n  dup1\n    /* \"wallet/Erc20Wallet.sol\":348:353  erc20 */\n  0x00\n  dup1\n    /* \"wallet/Erc20Wallet.sol\":348:362  erc20 = _erc20 */\n  0x0100\n  exp\n  dup2\n  sload\n  dup2\n  0xffffffffffffffffffffffffffffffffffffffff\n  mul\n  not\n  and\n  swap1\n  dup4\n  0xffffffffffffffffffffffffffffffffffffffff\n  and\n  mul\n  or\n  swap1\n  sstore\n  pop\n    /* \"wallet/Erc20Wallet.sol\":272:370  constructor(address _erc20){... */\n  pop\n    /* \"wallet/Erc20Wallet.sol\":141:1859  contract MyWallet {... */\n  jump(tag_6)\n    /* \"#utility.yul\":88:205   */\ntag_8:\n    /* \"#utility.yul\":197:198   */\n  0x00\n    /* \"#utility.yul\":194:195   */\n  dup1\n    /* \"#utility.yul\":187:199   */\n  revert\n    /* \"#utility.yul\":334:460   */\ntag_10:\n    /* \"#utility.yul\":371:378   */\n  0x00\n    /* \"#utility.yul\":411:453   */\n  0xffffffffffffffffffffffffffffffffffffffff\n    /* \"#utility.yul\":404:409   */\n  dup3\n    /* \"#utility.yul\":400:454   */\n  and\n    /* \"#utility.yul\":389:454   */\n  swap1\n  pop\n    /* \"#utility.yul\":334:460   */\n  swap2\n  swap1\n  pop\n  jump\t// out\n    /* \"#utility.yul\":466:562   */\ntag_11:\n    /* \"#utility.yul\":503:510   */\n  0x00\n    /* \"#utility.yul\":532:556   */\n  tag_20\n    /* \"#utility.yul\":550:555   */\n  dup3\n    /* \"#utility.yul\":532:556   */\n  tag_10\n  jump\t// in\ntag_20:\n    /* \"#utility.yul\":521:556   */\n  swap1\n  pop\n    /* \"#utility.yul\":466:562   */\n  swap2\n  swap1\n  pop\n  jump\t// out\n    /* \"#utility.yul\":568:690   */\ntag_12:\n    /* \"#utility.yul\":641:665   */\n  tag_22\n    /* \"#utility.yul\":659:664   */\n  dup2\n    /* \"#utility.yul\":641:665   */\n  tag_11\n  jump\t// in\ntag_22:\n    /* \"#utility.yul\":634:639   */\n  dup2\n    /* \"#utility.yul\":631:666   */\n  eq\n    /* \"#utility.yul\":621:684   */\n  tag_23\n  jumpi\n    /* \"#utility.yul\":680:681   */\n  0x00\n    /* \"#utility.yul\":677:678   */\n  dup1\n    /* \"#utility.yul\":670:682   */\n  revert\n    /* \"#utility.yul\":621:684   */\ntag_23:\n    /* \"#utility.yul\":568:690   */\n  pop\n  jump\t// out\n    /* \"#utility.yul\":696:839   */\ntag_13:\n    /* \"#utility.yul\":753:758   */\n  0x00\n    /* \"#utility.yul\":784:790   */\n  dup2\n    /* \"#utility.yul\":778:791   */\n  mload\n    /* \"#utility.yul\":769:791   */\n  swap1\n  pop\n    /* \"#utility.yul\":800:833   */\n  tag_25\n    /* \"#utility.yul\":827:832   */\n  dup2\n    /* \"#utility.yul\":800:833   */\n  tag_12\n  jump\t// in\ntag_25:\n    /* \"#utility.yul\":696:839   */\n  swap3\n  swap2\n  pop\n  pop\n  jump\t// out\n    /* \"#utility.yul\":845:1196   */\ntag_3:\n    /* \"#utility.yul\":915:921   */\n  0x00\n    /* \"#utility.yul\":964:966   */\n  0x20\n    /* \"#utility.yul\":952:961   */\n  dup3\n    /* \"#utility.yul\":943:950   */\n  dup5\n    /* \"#utility.yul\":939:962   */\n  sub\n    /* \"#utility.yul\":935:967   */\n  slt\n    /* \"#utility.yul\":932:1051   */\n  iszero\n  tag_27\n  jumpi\n    /* \"#utility.yul\":970:1049   */\n  tag_28\n  tag_8\n  jump\t// in\ntag_28:\n    /* \"#utility.yul\":932:1051   */\ntag_27:\n    /* \"#utility.yul\":1090:1091   */\n  0x00\n    /* \"#utility.yul\":1115:1179   */\n  tag_29\n    /* \"#utility.yul\":1171:1178   */\n  dup5\n    /* \"#utility.yul\":1162:1168   */\n  dup3\n    /* \"#utility.yul\":1151:1160   */\n  dup6\n    /* \"#utility.yul\":1147:1169   */\n  add\n    /* \"#utility.yul\":1115:1179   */\n  tag_13\n  jump\t// in\ntag_29:\n    /* \"#utility.yul\":1105:1179   */\n  swap2\n  pop\n    /* \"#utility.yul\":1061:1189   */\n  pop\n    /* \"#utility.yul\":845:1196   */\n  swap3\n  swap2\n  pop\n  pop\n  jump\t// out\n    /* \"wallet/Erc20Wallet.sol\":141:1859  contract MyWallet {... */\ntag_6:\n  dataSize(sub_0)\n  dup1\n  dataOffset(sub_0)\n  0x00\n  codecopy\n  0x00\n  return\nstop\n\nsub_0: assembly {\n        /* \"wallet/Erc20Wallet.sol\":141:1859  contract MyWallet {... */\n      mstore(0x40, 0x80)\n      jumpi(tag_1, lt(calldatasize, 0x04))\n      shr(0xe0, calldataload(0x00))\n      dup1\n      0xb79092fd\n      gt\n      tag_10\n      jumpi\n      dup1\n      0xb79092fd\n      eq\n      tag_6\n      jumpi\n      dup1\n      0xc29a6fda\n      eq\n      tag_7\n      jumpi\n      dup1\n      0xc3736fe6\n      eq\n      tag_8\n      jumpi\n      dup1\n      0xe086e5ec\n      eq\n      tag_9\n      jumpi\n      jump(tag_1)\n    tag_10:\n      dup1\n      0x2ed6d5e8\n      eq\n      tag_2\n      jumpi\n      dup1\n      0x4ece90a8\n      eq\n      tag_3\n      jumpi\n      dup1\n      0x5358fbda\n      eq\n      tag_4\n      jumpi\n      dup1\n      0x6e947298\n      eq\n      tag_5\n      jumpi\n    tag_1:\n      0x00\n      dup1\n      revert\n        /* \"wallet/Erc20Wallet.sol\":574:778  function withdrawERC20() external {... */\n    tag_2:\n      callvalue\n      dup1\n      iszero\n      tag_11\n      jumpi\n      0x00\n      dup1\n      revert\n    tag_11:\n      pop\n      tag_12\n      tag_13\n      jump\t// in\n    tag_12:\n      stop\n        /* \"wallet/Erc20Wallet.sol\":1734:1815  function getERC20() public view returns (address) {... */\n    tag_3:\n      callvalue\n      dup1\n      iszero\n      tag_14\n      jumpi\n      0x00\n      dup1\n      revert\n    tag_14:\n      pop\n      tag_15\n      tag_16\n      jump\t// in\n    tag_15:\n      mload(0x40)\n      tag_17\n      swap2\n      swap1\n      tag_18\n      jump\t// in\n    tag_17:\n      mload(0x40)\n      dup1\n      swap2\n      sub\n      swap1\n      return\n        /* \"wallet/Erc20Wallet.sol\":1012:1180  function depositETH(uint256 amount) public payable {... */\n    tag_4:\n      tag_19\n      0x04\n      dup1\n      calldatasize\n      sub\n      dup2\n      add\n      swap1\n      tag_20\n      swap2\n      swap1\n      tag_21\n      jump\t// in\n    tag_20:\n      tag_22\n      jump\t// in\n    tag_19:\n      stop\n        /* \"wallet/Erc20Wallet.sol\":1425:1542  function getETHBalance() public  view returns(uint256 amountETH) {... */\n    tag_5:\n      callvalue\n      dup1\n      iszero\n      tag_23\n      jumpi\n      0x00\n      dup1\n      revert\n    tag_23:\n      pop\n      tag_24\n      tag_25\n      jump\t// in\n    tag_24:\n      mload(0x40)\n      tag_26\n      swap2\n      swap1\n      tag_27\n      jump\t// in\n    tag_26:\n      mload(0x40)\n      dup1\n      swap2\n      sub\n      swap1\n      return\n        /* \"wallet/Erc20Wallet.sol\":395:547  function depositERC20(uint256 amount) public {... */\n    tag_6:\n      callvalue\n      dup1\n      iszero\n      tag_28\n      jumpi\n      0x00\n      dup1\n      revert\n    tag_28:\n      pop\n      tag_29\n      0x04\n      dup1\n      calldatasize\n      sub\n      dup2\n      add\n      swap1\n      tag_30\n      swap2\n      swap1\n      tag_21\n      jump\t// in\n    tag_30:\n      tag_31\n      jump\t// in\n    tag_29:\n      stop\n        /* \"wallet/Erc20Wallet.sol\":1576:1703  function setERC20(address _erc20) public {... */\n    tag_7:\n      callvalue\n      dup1\n      iszero\n      tag_32\n      jumpi\n      0x00\n      dup1\n      revert\n    tag_32:\n      pop\n      tag_33\n      0x04\n      dup1\n      calldatasize\n      sub\n      dup2\n      add\n      swap1\n      tag_34\n      swap2\n      swap1\n      tag_35\n      jump\t// in\n    tag_34:\n      tag_36\n      jump\t// in\n    tag_33:\n      stop\n        /* \"wallet/Erc20Wallet.sol\":811:952  function getERC20Balance() public  view returns(uint256 amountERC20) {... */\n    tag_8:\n      callvalue\n      dup1\n      iszero\n      tag_37\n      jumpi\n      0x00\n      dup1\n      revert\n    tag_37:\n      pop\n      tag_38\n      tag_39\n      jump\t// in\n    tag_38:\n      mload(0x40)\n      tag_40\n      swap2\n      swap1\n      tag_27\n      jump\t// in\n    tag_40:\n      mload(0x40)\n      dup1\n      swap2\n      sub\n      swap1\n      return\n        /* \"wallet/Erc20Wallet.sol\":1205:1393  function withdrawETH() external {... */\n    tag_9:\n      callvalue\n      dup1\n      iszero\n      tag_41\n      jumpi\n      0x00\n      dup1\n      revert\n    tag_41:\n      pop\n      tag_42\n      tag_43\n      jump\t// in\n    tag_42:\n      stop\n        /* \"wallet/Erc20Wallet.sol\":574:778  function withdrawERC20() external {... */\n    tag_13:\n        /* \"wallet/Erc20Wallet.sol\":641:646  owner */\n      0x01\n      0x00\n      swap1\n      sload\n      swap1\n      0x0100\n      exp\n      swap1\n      div\n      0xffffffffffffffffffffffffffffffffffffffff\n      and\n        /* \"wallet/Erc20Wallet.sol\":627:646  msg.sender == owner */\n      0xffffffffffffffffffffffffffffffffffffffff\n      and\n        /* \"wallet/Erc20Wallet.sol\":627:637  msg.sender */\n      caller\n        /* \"wallet/Erc20Wallet.sol\":627:646  msg.sender == owner */\n      0xffffffffffffffffffffffffffffffffffffffff\n      and\n      eq\n        /* \"wallet/Erc20Wallet.sol\":619:659  require(msg.sender == owner,\"Not owner\") */\n      tag_45\n      jumpi\n      mload(0x40)\n      0x08c379a000000000000000000000000000000000000000000000000000000000\n      dup2\n      mstore\n      0x04\n      add\n      tag_46\n      swap1\n      tag_47\n      jump\t// in\n    tag_46:\n      mload(0x40)\n      dup1\n      swap2\n      sub\n      swap1\n      revert\n    tag_45:\n        /* \"wallet/Erc20Wallet.sol\":670:689  uint256 amountERC20 */\n      0x00\n        /* \"wallet/Erc20Wallet.sol\":692:709  getERC20Balance() */\n      tag_48\n        /* \"wallet/Erc20Wallet.sol\":692:707  getERC20Balance */\n      tag_39\n        /* \"wallet/Erc20Wallet.sol\":692:709  getERC20Balance() */\n      jump\t// in\n    tag_48:\n        /* \"wallet/Erc20Wallet.sol\":670:709  uint256 amountERC20 = getERC20Balance() */\n      swap1\n      pop\n        /* \"wallet/Erc20Wallet.sol\":720:770  IERC20(erc20).safeTransfer(msg.sender,amountERC20) */\n      tag_49\n        /* \"wallet/Erc20Wallet.sol\":747:757  msg.sender */\n      caller\n        /* \"wallet/Erc20Wallet.sol\":758:769  amountERC20 */\n      dup3\n        /* \"wallet/Erc20Wallet.sol\":727:732  erc20 */\n      0x00\n      dup1\n      sload\n      swap1\n      0x0100\n      exp\n      swap1\n      div\n      0xffffffffffffffffffffffffffffffffffffffff\n      and\n        /* \"wallet/Erc20Wallet.sol\":720:746  IERC20(erc20).safeTransfer */\n      0xffffffffffffffffffffffffffffffffffffffff\n      and\n      tag_50\n      swap1\n        /* \"wallet/Erc20Wallet.sol\":720:770  IERC20(erc20).safeTransfer(msg.sender,amountERC20) */\n      swap3\n      swap2\n      swap1\n      0xffffffff\n      and\n      jump\t// in\n    tag_49:\n        /* \"wallet/Erc20Wallet.sol\":608:778  {... */\n      pop\n        /* \"wallet/Erc20Wallet.sol\":574:778  function withdrawERC20() external {... */\n      jump\t// out\n        /* \"wallet/Erc20Wallet.sol\":1734:1815  function getERC20() public view returns (address) {... */\n    tag_16:\n        /* \"wallet/Erc20Wallet.sol\":1775:1782  address */\n      0x00\n        /* \"wallet/Erc20Wallet.sol\":1802:1807  erc20 */\n      dup1\n      0x00\n      swap1\n      sload\n      swap1\n      0x0100\n      exp\n      swap1\n      div\n      0xffffffffffffffffffffffffffffffffffffffff\n      and\n        /* \"wallet/Erc20Wallet.sol\":1795:1807  return erc20 */\n      swap1\n      pop\n        /* \"wallet/Erc20Wallet.sol\":1734:1815  function getERC20() public view returns (address) {... */\n      swap1\n      jump\t// out\n        /* \"wallet/Erc20Wallet.sol\":1012:1180  function depositETH(uint256 amount) public payable {... */\n    tag_22:\n        /* \"wallet/Erc20Wallet.sol\":1116:1117  0 */\n      0x00\n        /* \"wallet/Erc20Wallet.sol\":1104:1113  msg.value */\n      callvalue\n        /* \"wallet/Erc20Wallet.sol\":1104:1117  msg.value > 0 */\n      gt\n        /* \"wallet/Erc20Wallet.sol\":1101:1173  if(msg.value > 0){... */\n      iszero\n      tag_53\n      jumpi\n        /* \"wallet/Erc20Wallet.sol\":1154:1160  amount */\n      dup1\n        /* \"wallet/Erc20Wallet.sol\":1141:1150  msg.value */\n      callvalue\n        /* \"wallet/Erc20Wallet.sol\":1141:1160  msg.value == amount */\n      eq\n        /* \"wallet/Erc20Wallet.sol\":1133:1161  require(msg.value == amount) */\n      tag_54\n      jumpi\n      0x00\n      dup1\n      revert\n    tag_54:\n        /* \"wallet/Erc20Wallet.sol\":1101:1173  if(msg.value > 0){... */\n    tag_53:\n        /* \"wallet/Erc20Wallet.sol\":1012:1180  function depositETH(uint256 amount) public payable {... */\n      pop\n      jump\t// out\n        /* \"wallet/Erc20Wallet.sol\":1425:1542  function getETHBalance() public  view returns(uint256 amountETH) {... */\n    tag_25:\n        /* \"wallet/Erc20Wallet.sol\":1471:1488  uint256 amountETH */\n      0x00\n        /* \"wallet/Erc20Wallet.sol\":1513:1534  address(this).balance */\n      selfbalance\n        /* \"wallet/Erc20Wallet.sol\":1501:1534  amountETH = address(this).balance */\n      swap1\n      pop\n        /* \"wallet/Erc20Wallet.sol\":1425:1542  function getETHBalance() public  view returns(uint256 amountETH) {... */\n      swap1\n      jump\t// out\n        /* \"wallet/Erc20Wallet.sol\":395:547  function depositERC20(uint256 amount) public {... */\n    tag_31:\n        /* \"wallet/Erc20Wallet.sol\":474:539  IERC20(erc20).safeTransferFrom(msg.sender, address(this), amount) */\n      tag_57\n        /* \"wallet/Erc20Wallet.sol\":505:515  msg.sender */\n      caller\n        /* \"wallet/Erc20Wallet.sol\":525:529  this */\n      address\n        /* \"wallet/Erc20Wallet.sol\":532:538  amount */\n      dup4\n        /* \"wallet/Erc20Wallet.sol\":481:486  erc20 */\n      0x00\n      dup1\n      sload\n      swap1\n      0x0100\n      exp\n      swap1\n      div\n      0xffffffffffffffffffffffffffffffffffffffff\n      and\n        /* \"wallet/Erc20Wallet.sol\":474:504  IERC20(erc20).safeTransferFrom */\n      0xffffffffffffffffffffffffffffffffffffffff\n      and\n      tag_58\n      swap1\n        /* \"wallet/Erc20Wallet.sol\":474:539  IERC20(erc20).safeTransferFrom(msg.sender, address(this), amount) */\n      swap4\n      swap3\n      swap2\n      swap1\n      0xffffffff\n      and\n      jump\t// in\n    tag_57:\n        /* \"wallet/Erc20Wallet.sol\":395:547  function depositERC20(uint256 amount) public {... */\n      pop\n      jump\t// out\n        /* \"wallet/Erc20Wallet.sol\":1576:1703  function setERC20(address _erc20) public {... */\n    tag_36:\n        /* \"wallet/Erc20Wallet.sol\":1651:1656  owner */\n      0x01\n      0x00\n      swap1\n      sload\n      swap1\n      0x0100\n      exp\n      swap1\n      div\n      0xffffffffffffffffffffffffffffffffffffffff\n      and\n        /* \"wallet/Erc20Wallet.sol\":1637:1656  msg.sender == owner */\n      0xffffffffffffffffffffffffffffffffffffffff\n      and\n        /* \"wallet/Erc20Wallet.sol\":1637:1647  msg.sender */\n      caller\n        /* \"wallet/Erc20Wallet.sol\":1637:1656  msg.sender == owner */\n      0xffffffffffffffffffffffffffffffffffffffff\n      and\n      eq\n        /* \"wallet/Erc20Wallet.sol\":1629:1669  require(msg.sender == owner,\"Not owner\") */\n      tag_60\n      jumpi\n      mload(0x40)\n      0x08c379a000000000000000000000000000000000000000000000000000000000\n      dup2\n      mstore\n      0x04\n      add\n      tag_61\n      swap1\n      tag_47\n      jump\t// in\n    tag_61:\n      mload(0x40)\n      dup1\n      swap2\n      sub\n      swap1\n      revert\n    tag_60:\n        /* \"wallet/Erc20Wallet.sol\":1689:1695  _erc20 */\n      dup1\n        /* \"wallet/Erc20Wallet.sol\":1681:1686  erc20 */\n      0x00\n      dup1\n        /* \"wallet/Erc20Wallet.sol\":1681:1695  erc20 = _erc20 */\n      0x0100\n      exp\n      dup2\n      sload\n      dup2\n      0xffffffffffffffffffffffffffffffffffffffff\n      mul\n      not\n      and\n      swap1\n      dup4\n      0xffffffffffffffffffffffffffffffffffffffff\n      and\n      mul\n      or\n      swap1\n      sstore\n      pop\n        /* \"wallet/Erc20Wallet.sol\":1576:1703  function setERC20(address _erc20) public {... */\n      pop\n      jump\t// out\n        /* \"wallet/Erc20Wallet.sol\":811:952  function getERC20Balance() public  view returns(uint256 amountERC20) {... */\n    tag_39:\n        /* \"wallet/Erc20Wallet.sol\":859:878  uint256 amountERC20 */\n      0x00\n        /* \"wallet/Erc20Wallet.sol\":913:918  erc20 */\n      dup1\n      0x00\n      swap1\n      sload\n      swap1\n      0x0100\n      exp\n      swap1\n      div\n      0xffffffffffffffffffffffffffffffffffffffff\n      and\n        /* \"wallet/Erc20Wallet.sol\":906:929  IERC20(erc20).balanceOf */\n      0xffffffffffffffffffffffffffffffffffffffff\n      and\n      0x70a08231\n        /* \"wallet/Erc20Wallet.sol\":938:942  this */\n      address\n        /* \"wallet/Erc20Wallet.sol\":906:944  IERC20(erc20).balanceOf(address(this)) */\n      mload(0x40)\n      dup3\n      0xffffffff\n      and\n      0xe0\n      shl\n      dup2\n      mstore\n      0x04\n      add\n      tag_63\n      swap2\n      swap1\n      tag_18\n      jump\t// in\n    tag_63:\n      0x20\n      mload(0x40)\n      dup1\n      dup4\n      sub\n      dup2\n      dup7\n      gas\n      staticcall\n      iszero\n      dup1\n      iszero\n      tag_65\n      jumpi\n      returndatasize\n      0x00\n      dup1\n      returndatacopy\n      revert(0x00, returndatasize)\n    tag_65:\n      pop\n      pop\n      pop\n      pop\n      mload(0x40)\n      returndatasize\n      not(0x1f)\n      0x1f\n      dup3\n      add\n      and\n      dup3\n      add\n      dup1\n      0x40\n      mstore\n      pop\n      dup2\n      add\n      swap1\n      tag_66\n      swap2\n      swap1\n      tag_67\n      jump\t// in\n    tag_66:\n        /* \"wallet/Erc20Wallet.sol\":891:944  amountERC20 =  IERC20(erc20).balanceOf(address(this)) */\n      swap1\n      pop\n        /* \"wallet/Erc20Wallet.sol\":811:952  function getERC20Balance() public  view returns(uint256 amountERC20) {... */\n      swap1\n      jump\t// out\n        /* \"wallet/Erc20Wallet.sol\":1205:1393  function withdrawETH() external {... */\n    tag_43:\n        /* \"wallet/Erc20Wallet.sol\":1270:1275  owner */\n      0x01\n      0x00\n      swap1\n      sload\n      swap1\n      0x0100\n      exp\n      swap1\n      div\n      0xffffffffffffffffffffffffffffffffffffffff\n      and\n        /* \"wallet/Erc20Wallet.sol\":1256:1275  msg.sender == owner */\n      0xffffffffffffffffffffffffffffffffffffffff\n      and\n        /* \"wallet/Erc20Wallet.sol\":1256:1266  msg.sender */\n      caller\n        /* \"wallet/Erc20Wallet.sol\":1256:1275  msg.sender == owner */\n      0xffffffffffffffffffffffffffffffffffffffff\n      and\n      eq\n        /* \"wallet/Erc20Wallet.sol\":1248:1288  require(msg.sender == owner,\"Not owner\") */\n      tag_69\n      jumpi\n      mload(0x40)\n      0x08c379a000000000000000000000000000000000000000000000000000000000\n      dup2\n      mstore\n      0x04\n      add\n      tag_70\n      swap1\n      tag_47\n      jump\t// in\n    tag_70:\n      mload(0x40)\n      dup1\n      swap2\n      sub\n      swap1\n      revert\n    tag_69:\n        /* \"wallet/Erc20Wallet.sol\":1299:1316  uint256 amountETH */\n      0x00\n        /* \"wallet/Erc20Wallet.sol\":1319:1334  getETHBalance() */\n      tag_71\n        /* \"wallet/Erc20Wallet.sol\":1319:1332  getETHBalance */\n      tag_25\n        /* \"wallet/Erc20Wallet.sol\":1319:1334  getETHBalance() */\n      jump\t// in\n    tag_71:\n        /* \"wallet/Erc20Wallet.sol\":1299:1334  uint256 amountETH = getETHBalance() */\n      swap1\n      pop\n        /* \"wallet/Erc20Wallet.sol\":1360:1365  owner */\n      0x01\n      0x00\n      swap1\n      sload\n      swap1\n      0x0100\n      exp\n      swap1\n      div\n      0xffffffffffffffffffffffffffffffffffffffff\n      and\n        /* \"wallet/Erc20Wallet.sol\":1360:1374  owner.transfer */\n      0xffffffffffffffffffffffffffffffffffffffff\n      and\n        /* \"wallet/Erc20Wallet.sol\":1360:1385  owner.transfer(amountETH) */\n      0x08fc\n        /* \"wallet/Erc20Wallet.sol\":1375:1384  amountETH */\n      dup3\n        /* \"wallet/Erc20Wallet.sol\":1360:1385  owner.transfer(amountETH) */\n      swap1\n      dup2\n      iszero\n      mul\n      swap1\n      mload(0x40)\n      0x00\n      mload(0x40)\n      dup1\n      dup4\n      sub\n      dup2\n      dup6\n      dup9\n      dup9\n      call\n      swap4\n      pop\n      pop\n      pop\n      pop\n      iszero\n      dup1\n      iszero\n      tag_73\n      jumpi\n      returndatasize\n      0x00\n      dup1\n      returndatacopy\n      revert(0x00, returndatasize)\n    tag_73:\n      pop\n        /* \"wallet/Erc20Wallet.sol\":1237:1393  {... */\n      pop\n        /* \"wallet/Erc20Wallet.sol\":1205:1393  function withdrawETH() external {... */\n      jump\t// out\n        /* \"@openzeppelin/contracts/token/ERC20/utils/SafeERC20.sol\":1219:1379  function safeTransfer(IERC20 token, address to, uint256 value) internal {... */\n    tag_50:\n        /* \"@openzeppelin/contracts/token/ERC20/utils/SafeERC20.sol\":1301:1372  _callOptionalReturn(token, abi.encodeCall(token.transfer, (to, value))) */\n      tag_75\n        /* \"@openzeppelin/contracts/token/ERC20/utils/SafeERC20.sol\":1321:1326  token */\n      dup4\n        /* \"@openzeppelin/contracts/token/ERC20/utils/SafeERC20.sol\":1343:1348  token */\n      dup5\n        /* \"@openzeppelin/contracts/token/ERC20/utils/SafeERC20.sol\":1343:1357  token.transfer */\n      0xffffffffffffffffffffffffffffffffffffffff\n      and\n      0xa9059cbb\n        /* \"@openzeppelin/contracts/token/ERC20/utils/SafeERC20.sol\":1360:1362  to */\n      dup6\n        /* \"@openzeppelin/contracts/token/ERC20/utils/SafeERC20.sol\":1364:1369  value */\n      dup6\n        /* \"@openzeppelin/contracts/token/ERC20/utils/SafeERC20.sol\":1328:1371  abi.encodeCall(token.transfer, (to, value)) */\n      add(0x24, mload(0x40))\n      tag_76\n      swap3\n      swap2\n      swap1\n      tag_77\n      jump\t// in\n    tag_76:\n      mload(0x40)\n      0x20\n      dup2\n      dup4\n      sub\n      sub\n      dup2\n      mstore\n      swap1\n      0x40\n      mstore\n      swap2\n      pop\n      0xe0\n      shl\n      0x20\n      dup3\n      add\n      dup1\n      mload\n      0xffffffffffffffffffffffffffffffffffffffffffffffffffffffff\n      dup4\n      dup2\n      dup4\n      and\n      or\n      dup4\n      mstore\n      pop\n      pop\n      pop\n      pop\n        /* \"@openzeppelin/contracts/token/ERC20/utils/SafeERC20.sol\":1301:1320  _callOptionalReturn */\n      tag_78\n        /* \"@openzeppelin/contracts/token/ERC20/utils/SafeERC20.sol\":1301:1372  _callOptionalReturn(token, abi.encodeCall(token.transfer, (to, value))) */\n      jump\t// in\n    tag_75:\n        /* \"@openzeppelin/contracts/token/ERC20/utils/SafeERC20.sol\":1219:1379  function safeTransfer(IERC20 token, address to, uint256 value) internal {... */\n      pop\n      pop\n      pop\n      jump\t// out\n        /* \"@openzeppelin/contracts/token/ERC20/utils/SafeERC20.sol\":1618:1806  function safeTransferFrom(IERC20 token, address from, address to, uint256 value) internal {... */\n    tag_58:\n        /* \"@openzeppelin/contracts/token/ERC20/utils/SafeERC20.sol\":1718:1799  _callOptionalReturn(token, abi.encodeCall(token.transferFrom, (from, to, value))) */\n      tag_80\n        /* \"@openzeppelin/contracts/token/ERC20/utils/SafeERC20.sol\":1738:1743  token */\n      dup5\n        /* \"@openzeppelin/contracts/token/ERC20/utils/SafeERC20.sol\":1760:1765  token */\n      dup6\n        /* \"@openzeppelin/contracts/token/ERC20/utils/SafeERC20.sol\":1760:1778  token.transferFrom */\n      0xffffffffffffffffffffffffffffffffffffffff\n      and\n      0x23b872dd\n        /* \"@openzeppelin/contracts/token/ERC20/utils/SafeERC20.sol\":1781:1785  from */\n      dup7\n        /* \"@openzeppelin/contracts/token/ERC20/utils/SafeERC20.sol\":1787:1789  to */\n      dup7\n        /* \"@openzeppelin/contracts/token/ERC20/utils/SafeERC20.sol\":1791:1796  value */\n      dup7\n        /* \"@openzeppelin/contracts/token/ERC20/utils/SafeERC20.sol\":1745:1798  abi.encodeCall(token.transferFrom, (from, to, value)) */\n      add(0x24, mload(0x40))\n      tag_81\n      swap4\n      swap3\n      swap2\n      swap1\n      tag_82\n      jump\t// in\n    tag_81:\n      mload(0x40)\n      0x20\n      dup2\n      dup4\n      sub\n      sub\n      dup2\n      mstore\n      swap1\n      0x40\n      mstore\n      swap2\n      pop\n      0xe0\n      shl\n      0x20\n      dup3\n      add\n      dup1\n      mload\n      0xffffffffffffffffffffffffffffffffffffffffffffffffffffffff\n      dup4\n      dup2\n      dup4\n      and\n      or\n      dup4\n      mstore\n      pop\n      pop\n      pop\n      pop\n        /* \"@openzeppelin/contracts/token/ERC20/utils/SafeERC20.sol\":1718:1737  _callOptionalReturn */\n      tag_78\n        /* \"@openzeppelin/contracts/token/ERC20/utils/SafeERC20.sol\":1718:1799  _callOptionalReturn(token, abi.encodeCall(token.transferFrom, (from, to, value))) */\n      jump\t// in\n    tag_80:\n        /* \"@openzeppelin/contracts/token/ERC20/utils/SafeERC20.sol\":1618:1806  function safeTransferFrom(IERC20 token, address from, address to, uint256 value) internal {... */\n      pop\n      pop\n      pop\n      pop\n      jump\t// out\n        /* \"@openzeppelin/contracts/token/ERC20/utils/SafeERC20.sol\":8370:9090  function _callOptionalReturn(IERC20 token, bytes memory data) private {... */\n    tag_78:\n        /* \"@openzeppelin/contracts/token/ERC20/utils/SafeERC20.sol\":8450:8468  uint256 returnSize */\n      0x00\n        /* \"@openzeppelin/contracts/token/ERC20/utils/SafeERC20.sol\":8478:8497  uint256 returnValue */\n      dup1\n        /* \"@openzeppelin/contracts/token/ERC20/utils/SafeERC20.sol\":8616:8620  0x20 */\n      0x20\n        /* \"@openzeppelin/contracts/token/ERC20/utils/SafeERC20.sol\":8613:8614  0 */\n      0x00\n        /* \"@openzeppelin/contracts/token/ERC20/utils/SafeERC20.sol\":8606:8610  data */\n      dup5\n        /* \"@openzeppelin/contracts/token/ERC20/utils/SafeERC20.sol\":8600:8611  mload(data) */\n      mload\n        /* \"@openzeppelin/contracts/token/ERC20/utils/SafeERC20.sol\":8593:8597  0x20 */\n      0x20\n        /* \"@openzeppelin/contracts/token/ERC20/utils/SafeERC20.sol\":8587:8591  data */\n      dup7\n        /* \"@openzeppelin/contracts/token/ERC20/utils/SafeERC20.sol\":8583:8598  add(data, 0x20) */\n      add\n        /* \"@openzeppelin/contracts/token/ERC20/utils/SafeERC20.sol\":8580:8581  0 */\n      0x00\n        /* \"@openzeppelin/contracts/token/ERC20/utils/SafeERC20.sol\":8573:8578  token */\n      dup9\n        /* \"@openzeppelin/contracts/token/ERC20/utils/SafeERC20.sol\":8566:8571  gas() */\n      gas\n        /* \"@openzeppelin/contracts/token/ERC20/utils/SafeERC20.sol\":8561:8621  call(gas(), token, 0, add(data, 0x20), mload(data), 0, 0x20) */\n      call\n        /* \"@openzeppelin/contracts/token/ERC20/utils/SafeERC20.sol\":8673:8680  success */\n      dup1\n        /* \"@openzeppelin/contracts/token/ERC20/utils/SafeERC20.sol\":8663:8839  if iszero(success) {... */\n      tag_84\n      jumpi\n        /* \"@openzeppelin/contracts/token/ERC20/utils/SafeERC20.sol\":8717:8721  0x40 */\n      0x40\n        /* \"@openzeppelin/contracts/token/ERC20/utils/SafeERC20.sol\":8711:8722  mload(0x40) */\n      mload\n        /* \"@openzeppelin/contracts/token/ERC20/utils/SafeERC20.sol\":8762:8778  returndatasize() */\n      returndatasize\n        /* \"@openzeppelin/contracts/token/ERC20/utils/SafeERC20.sol\":8759:8760  0 */\n      0x00\n        /* \"@openzeppelin/contracts/token/ERC20/utils/SafeERC20.sol\":8754:8757  ptr */\n      dup3\n        /* \"@openzeppelin/contracts/token/ERC20/utils/SafeERC20.sol\":8739:8779  returndatacopy(ptr, 0, returndatasize()) */\n      returndatacopy\n        /* \"@openzeppelin/contracts/token/ERC20/utils/SafeERC20.sol\":8808:8824  returndatasize() */\n      returndatasize\n        /* \"@openzeppelin/contracts/token/ERC20/utils/SafeERC20.sol\":8803:8806  ptr */\n      dup2\n        /* \"@openzeppelin/contracts/token/ERC20/utils/SafeERC20.sol\":8796:8825  revert(ptr, returndatasize()) */\n      revert\n        /* \"@openzeppelin/contracts/token/ERC20/utils/SafeERC20.sol\":8663:8839  if iszero(success) {... */\n    tag_84:\n        /* \"@openzeppelin/contracts/token/ERC20/utils/SafeERC20.sol\":8866:8882  returndatasize() */\n      returndatasize\n        /* \"@openzeppelin/contracts/token/ERC20/utils/SafeERC20.sol\":8852:8882  returnSize := returndatasize() */\n      swap3\n      pop\n        /* \"@openzeppelin/contracts/token/ERC20/utils/SafeERC20.sol\":8916:8917  0 */\n      0x00\n        /* \"@openzeppelin/contracts/token/ERC20/utils/SafeERC20.sol\":8910:8918  mload(0) */\n      mload\n        /* \"@openzeppelin/contracts/token/ERC20/utils/SafeERC20.sol\":8895:8918  returnValue := mload(0) */\n      swap2\n      pop\n        /* \"@openzeppelin/contracts/token/ERC20/utils/SafeERC20.sol\":8532:8928  {... */\n      pop\n        /* \"@openzeppelin/contracts/token/ERC20/utils/SafeERC20.sol\":8956:8957  0 */\n      0x00\n        /* \"@openzeppelin/contracts/token/ERC20/utils/SafeERC20.sol\":8942:8952  returnSize */\n      dup3\n        /* \"@openzeppelin/contracts/token/ERC20/utils/SafeERC20.sol\":8942:8957  returnSize == 0 */\n      eq\n        /* \"@openzeppelin/contracts/token/ERC20/utils/SafeERC20.sol\":8942:9010  returnSize == 0 ? address(token).code.length == 0 : returnValue != 1 */\n      tag_85\n      jumpi\n        /* \"@openzeppelin/contracts/token/ERC20/utils/SafeERC20.sol\":9009:9010  1 */\n      0x01\n        /* \"@openzeppelin/contracts/token/ERC20/utils/SafeERC20.sol\":8994:9005  returnValue */\n      dup2\n        /* \"@openzeppelin/contracts/token/ERC20/utils/SafeERC20.sol\":8994:9010  returnValue != 1 */\n      eq\n      iszero\n        /* \"@openzeppelin/contracts/token/ERC20/utils/SafeERC20.sol\":8942:9010  returnSize == 0 ? address(token).code.length == 0 : returnValue != 1 */\n      jump(tag_86)\n    tag_85:\n        /* \"@openzeppelin/contracts/token/ERC20/utils/SafeERC20.sol\":8990:8991  0 */\n      0x00\n        /* \"@openzeppelin/contracts/token/ERC20/utils/SafeERC20.sol\":8968:8973  token */\n      dup5\n        /* \"@openzeppelin/contracts/token/ERC20/utils/SafeERC20.sol\":8960:8986  address(token).code.length */\n      0xffffffffffffffffffffffffffffffffffffffff\n      and\n      extcodesize\n        /* \"@openzeppelin/contracts/token/ERC20/utils/SafeERC20.sol\":8960:8991  address(token).code.length == 0 */\n      eq\n        /* \"@openzeppelin/contracts/token/ERC20/utils/SafeERC20.sol\":8942:9010  returnSize == 0 ? address(token).code.length == 0 : returnValue != 1 */\n    tag_86:\n        /* \"@openzeppelin/contracts/token/ERC20/utils/SafeERC20.sol\":8938:9084  if (returnSize == 0 ? address(token).code.length == 0 : returnValue != 1) {... */\n      iszero\n      tag_87\n      jumpi\n        /* \"@openzeppelin/contracts/token/ERC20/utils/SafeERC20.sol\":9066:9071  token */\n      dup4\n        /* \"@openzeppelin/contracts/token/ERC20/utils/SafeERC20.sol\":9033:9073  SafeERC20FailedOperation(address(token)) */\n      mload(0x40)\n      0x5274afe700000000000000000000000000000000000000000000000000000000\n      dup2\n      mstore\n      0x04\n      add\n      tag_88\n      swap2\n      swap1\n      tag_18\n      jump\t// in\n    tag_88:\n      mload(0x40)\n      dup1\n      swap2\n      sub\n      swap1\n      revert\n        /* \"@openzeppelin/contracts/token/ERC20/utils/SafeERC20.sol\":8938:9084  if (returnSize == 0 ? address(token).code.length == 0 : returnValue != 1) {... */\n    tag_87:\n        /* \"@openzeppelin/contracts/token/ERC20/utils/SafeERC20.sol\":8440:9090  {... */\n      pop\n      pop\n        /* \"@openzeppelin/contracts/token/ERC20/utils/SafeERC20.sol\":8370:9090  function _callOptionalReturn(IERC20 token, bytes memory data) private {... */\n      pop\n      pop\n      jump\t// out\n        /* \"#utility.yul\":7:133   */\n    tag_89:\n        /* \"#utility.yul\":44:51   */\n      0x00\n        /* \"#utility.yul\":84:126   */\n      0xffffffffffffffffffffffffffffffffffffffff\n        /* \"#utility.yul\":77:82   */\n      dup3\n        /* \"#utility.yul\":73:127   */\n      and\n        /* \"#utility.yul\":62:127   */\n      swap1\n      pop\n        /* \"#utility.yul\":7:133   */\n      swap2\n      swap1\n      pop\n      jump\t// out\n        /* \"#utility.yul\":139:235   */\n    tag_90:\n        /* \"#utility.yul\":176:183   */\n      0x00\n        /* \"#utility.yul\":205:229   */\n      tag_108\n        /* \"#utility.yul\":223:228   */\n      dup3\n        /* \"#utility.yul\":205:229   */\n      tag_89\n      jump\t// in\n    tag_108:\n        /* \"#utility.yul\":194:229   */\n      swap1\n      pop\n        /* \"#utility.yul\":139:235   */\n      swap2\n      swap1\n      pop\n      jump\t// out\n        /* \"#utility.yul\":241:359   */\n    tag_91:\n        /* \"#utility.yul\":328:352   */\n      tag_110\n        /* \"#utility.yul\":346:351   */\n      dup2\n        /* \"#utility.yul\":328:352   */\n      tag_90\n      jump\t// in\n    tag_110:\n        /* \"#utility.yul\":323:326   */\n      dup3\n        /* \"#utility.yul\":316:353   */\n      mstore\n        /* \"#utility.yul\":241:359   */\n      pop\n      pop\n      jump\t// out\n        /* \"#utility.yul\":365:587   */\n    tag_18:\n        /* \"#utility.yul\":458:462   */\n      0x00\n        /* \"#utility.yul\":496:498   */\n      0x20\n        /* \"#utility.yul\":485:494   */\n      dup3\n        /* \"#utility.yul\":481:499   */\n      add\n        /* \"#utility.yul\":473:499   */\n      swap1\n      pop\n        /* \"#utility.yul\":509:580   */\n      tag_112\n        /* \"#utility.yul\":577:578   */\n      0x00\n        /* \"#utility.yul\":566:575   */\n      dup4\n        /* \"#utility.yul\":562:579   */\n      add\n        /* \"#utility.yul\":553:559   */\n      dup5\n        /* \"#utility.yul\":509:580   */\n      tag_91\n      jump\t// in\n    tag_112:\n        /* \"#utility.yul\":365:587   */\n      swap3\n      swap2\n      pop\n      pop\n      jump\t// out\n        /* \"#utility.yul\":674:791   */\n    tag_93:\n        /* \"#utility.yul\":783:784   */\n      0x00\n        /* \"#utility.yul\":780:781   */\n      dup1\n        /* \"#utility.yul\":773:785   */\n      revert\n        /* \"#utility.yul\":920:997   */\n    tag_95:\n        /* \"#utility.yul\":957:964   */\n      0x00\n        /* \"#utility.yul\":986:991   */\n      dup2\n        /* \"#utility.yul\":975:991   */\n      swap1\n      pop\n        /* \"#utility.yul\":920:997   */\n      swap2\n      swap1\n      pop\n      jump\t// out\n        /* \"#utility.yul\":1003:1125   */\n    tag_96:\n        /* \"#utility.yul\":1076:1100   */\n      tag_118\n        /* \"#utility.yul\":1094:1099   */\n      dup2\n        /* \"#utility.yul\":1076:1100   */\n      tag_95\n      jump\t// in\n    tag_118:\n        /* \"#utility.yul\":1069:1074   */\n      dup2\n        /* \"#utility.yul\":1066:1101   */\n      eq\n        /* \"#utility.yul\":1056:1119   */\n      tag_119\n      jumpi\n        /* \"#utility.yul\":1115:1116   */\n      0x00\n        /* \"#utility.yul\":1112:1113   */\n      dup1\n        /* \"#utility.yul\":1105:1117   */\n      revert\n        /* \"#utility.yul\":1056:1119   */\n    tag_119:\n        /* \"#utility.yul\":1003:1125   */\n      pop\n      jump\t// out\n        /* \"#utility.yul\":1131:1270   */\n    tag_97:\n        /* \"#utility.yul\":1177:1182   */\n      0x00\n        /* \"#utility.yul\":1215:1221   */\n      dup2\n        /* \"#utility.yul\":1202:1222   */\n      calldataload\n        /* \"#utility.yul\":1193:1222   */\n      swap1\n      pop\n        /* \"#utility.yul\":1231:1264   */\n      tag_121\n        /* \"#utility.yul\":1258:1263   */\n      dup2\n        /* \"#utility.yul\":1231:1264   */\n      tag_96\n      jump\t// in\n    tag_121:\n        /* \"#utility.yul\":1131:1270   */\n      swap3\n      swap2\n      pop\n      pop\n      jump\t// out\n        /* \"#utility.yul\":1276:1605   */\n    tag_21:\n        /* \"#utility.yul\":1335:1341   */\n      0x00\n        /* \"#utility.yul\":1384:1386   */\n      0x20\n        /* \"#utility.yul\":1372:1381   */\n      dup3\n        /* \"#utility.yul\":1363:1370   */\n      dup5\n        /* \"#utility.yul\":1359:1382   */\n      sub\n        /* \"#utility.yul\":1355:1387   */\n      slt\n        /* \"#utility.yul\":1352:1471   */\n      iszero\n      tag_123\n      jumpi\n        /* \"#utility.yul\":1390:1469   */\n      tag_124\n      tag_93\n      jump\t// in\n    tag_124:\n        /* \"#utility.yul\":1352:1471   */\n    tag_123:\n        /* \"#utility.yul\":1510:1511   */\n      0x00\n        /* \"#utility.yul\":1535:1588   */\n      tag_125\n        /* \"#utility.yul\":1580:1587   */\n      dup5\n        /* \"#utility.yul\":1571:1577   */\n      dup3\n        /* \"#utility.yul\":1560:1569   */\n      dup6\n        /* \"#utility.yul\":1556:1578   */\n      add\n        /* \"#utility.yul\":1535:1588   */\n      tag_97\n      jump\t// in\n    tag_125:\n        /* \"#utility.yul\":1525:1588   */\n      swap2\n      pop\n        /* \"#utility.yul\":1481:1598   */\n      pop\n        /* \"#utility.yul\":1276:1605   */\n      swap3\n      swap2\n      pop\n      pop\n      jump\t// out\n        /* \"#utility.yul\":1611:1729   */\n    tag_98:\n        /* \"#utility.yul\":1698:1722   */\n      tag_127\n        /* \"#utility.yul\":1716:1721   */\n      dup2\n        /* \"#utility.yul\":1698:1722   */\n      tag_95\n      jump\t// in\n    tag_127:\n        /* \"#utility.yul\":1693:1696   */\n      dup3\n        /* \"#utility.yul\":1686:1723   */\n      mstore\n        /* \"#utility.yul\":1611:1729   */\n      pop\n      pop\n      jump\t// out\n        /* \"#utility.yul\":1735:1957   */\n    tag_27:\n        /* \"#utility.yul\":1828:1832   */\n      0x00\n        /* \"#utility.yul\":1866:1868   */\n      0x20\n        /* \"#utility.yul\":1855:1864   */\n      dup3\n        /* \"#utility.yul\":1851:1869   */\n      add\n        /* \"#utility.yul\":1843:1869   */\n      swap1\n      pop\n        /* \"#utility.yul\":1879:1950   */\n      tag_129\n        /* \"#utility.yul\":1947:1948   */\n      0x00\n        /* \"#utility.yul\":1936:1945   */\n      dup4\n        /* \"#utility.yul\":1932:1949   */\n      add\n        /* \"#utility.yul\":1923:1929   */\n      dup5\n        /* \"#utility.yul\":1879:1950   */\n      tag_98\n      jump\t// in\n    tag_129:\n        /* \"#utility.yul\":1735:1957   */\n      swap3\n      swap2\n      pop\n      pop\n      jump\t// out\n        /* \"#utility.yul\":1963:2085   */\n    tag_99:\n        /* \"#utility.yul\":2036:2060   */\n      tag_131\n        /* \"#utility.yul\":2054:2059   */\n      dup2\n        /* \"#utility.yul\":2036:2060   */\n      tag_90\n      jump\t// in\n    tag_131:\n        /* \"#utility.yul\":2029:2034   */\n      dup2\n        /* \"#utility.yul\":2026:2061   */\n      eq\n        /* \"#utility.yul\":2016:2079   */\n      tag_132\n      jumpi\n        /* \"#utility.yul\":2075:2076   */\n      0x00\n        /* \"#utility.yul\":2072:2073   */\n      dup1\n        /* \"#utility.yul\":2065:2077   */\n      revert\n        /* \"#utility.yul\":2016:2079   */\n    tag_132:\n        /* \"#utility.yul\":1963:2085   */\n      pop\n      jump\t// out\n        /* \"#utility.yul\":2091:2230   */\n    tag_100:\n        /* \"#utility.yul\":2137:2142   */\n      0x00\n        /* \"#utility.yul\":2175:2181   */\n      dup2\n        /* \"#utility.yul\":2162:2182   */\n      calldataload\n        /* \"#utility.yul\":2153:2182   */\n      swap1\n      pop\n        /* \"#utility.yul\":2191:2224   */\n      tag_134\n        /* \"#utility.yul\":2218:2223   */\n      dup2\n        /* \"#utility.yul\":2191:2224   */\n      tag_99\n      jump\t// in\n    tag_134:\n        /* \"#utility.yul\":2091:2230   */\n      swap3\n      swap2\n      pop\n      pop\n      jump\t// out\n        /* \"#utility.yul\":2236:2565   */\n    tag_35:\n        /* \"#utility.yul\":2295:2301   */\n      0x00\n        /* \"#utility.yul\":2344:2346   */\n      0x20\n        /* \"#utility.yul\":2332:2341   */\n      dup3\n        /* \"#utility.yul\":2323:2330   */\n      dup5\n        /* \"#utility.yul\":2319:2342   */\n      sub\n        /* \"#utility.yul\":2315:2347   */\n      slt\n        /* \"#utility.yul\":2312:2431   */\n      iszero\n      tag_136\n      jumpi\n        /* \"#utility.yul\":2350:2429   */\n      tag_137\n      tag_93\n      jump\t// in\n    tag_137:\n        /* \"#utility.yul\":2312:2431   */\n    tag_136:\n        /* \"#utility.yul\":2470:2471   */\n      0x00\n        /* \"#utility.yul\":2495:2548   */\n      tag_138\n        /* \"#utility.yul\":2540:2547   */\n      dup5\n        /* \"#utility.yul\":2531:2537   */\n      dup3\n        /* \"#utility.yul\":2520:2529   */\n      dup6\n        /* \"#utility.yul\":2516:2538   */\n      add\n        /* \"#utility.yul\":2495:2548   */\n      tag_100\n      jump\t// in\n    tag_138:\n        /* \"#utility.yul\":2485:2548   */\n      swap2\n      pop\n        /* \"#utility.yul\":2441:2558   */\n      pop\n        /* \"#utility.yul\":2236:2565   */\n      swap3\n      swap2\n      pop\n      pop\n      jump\t// out\n        /* \"#utility.yul\":2571:2740   */\n    tag_101:\n        /* \"#utility.yul\":2655:2666   */\n      0x00\n        /* \"#utility.yul\":2689:2695   */\n      dup3\n        /* \"#utility.yul\":2684:2687   */\n      dup3\n        /* \"#utility.yul\":2677:2696   */\n      mstore\n        /* \"#utility.yul\":2729:2733   */\n      0x20\n        /* \"#utility.yul\":2724:2727   */\n      dup3\n        /* \"#utility.yul\":2720:2734   */\n      add\n        /* \"#utility.yul\":2705:2734   */\n      swap1\n      pop\n        /* \"#utility.yul\":2571:2740   */\n      swap3\n      swap2\n      pop\n      pop\n      jump\t// out\n        /* \"#utility.yul\":2746:2905   */\n    tag_102:\n        /* \"#utility.yul\":2886:2897   */\n      0x4e6f74206f776e65720000000000000000000000000000000000000000000000\n        /* \"#utility.yul\":2882:2883   */\n      0x00\n        /* \"#utility.yul\":2874:2880   */\n      dup3\n        /* \"#utility.yul\":2870:2884   */\n      add\n        /* \"#utility.yul\":2863:2898   */\n      mstore\n        /* \"#utility.yul\":2746:2905   */\n      pop\n      jump\t// out\n        /* \"#utility.yul\":2911:3276   */\n    tag_103:\n        /* \"#utility.yul\":3053:3056   */\n      0x00\n        /* \"#utility.yul\":3074:3140   */\n      tag_142\n        /* \"#utility.yul\":3138:3139   */\n      0x09\n        /* \"#utility.yul\":3133:3136   */\n      dup4\n        /* \"#utility.yul\":3074:3140   */\n      tag_101\n      jump\t// in\n    tag_142:\n        /* \"#utility.yul\":3067:3140   */\n      swap2\n      pop\n        /* \"#utility.yul\":3149:3242   */\n      tag_143\n        /* \"#utility.yul\":3238:3241   */\n      dup3\n        /* \"#utility.yul\":3149:3242   */\n      tag_102\n      jump\t// in\n    tag_143:\n        /* \"#utility.yul\":3267:3269   */\n      0x20\n        /* \"#utility.yul\":3262:3265   */\n      dup3\n        /* \"#utility.yul\":3258:3270   */\n      add\n        /* \"#utility.yul\":3251:3270   */\n      swap1\n      pop\n        /* \"#utility.yul\":2911:3276   */\n      swap2\n      swap1\n      pop\n      jump\t// out\n        /* \"#utility.yul\":3282:3701   */\n    tag_47:\n        /* \"#utility.yul\":3448:3452   */\n      0x00\n        /* \"#utility.yul\":3486:3488   */\n      0x20\n        /* \"#utility.yul\":3475:3484   */\n      dup3\n        /* \"#utility.yul\":3471:3489   */\n      add\n        /* \"#utility.yul\":3463:3489   */\n      swap1\n      pop\n        /* \"#utility.yul\":3535:3544   */\n      dup2\n        /* \"#utility.yul\":3529:3533   */\n      dup2\n        /* \"#utility.yul\":3525:3545   */\n      sub\n        /* \"#utility.yul\":3521:3522   */\n      0x00\n        /* \"#utility.yul\":3510:3519   */\n      dup4\n        /* \"#utility.yul\":3506:3523   */\n      add\n        /* \"#utility.yul\":3499:3546   */\n      mstore\n        /* \"#utility.yul\":3563:3694   */\n      tag_145\n        /* \"#utility.yul\":3689:3693   */\n      dup2\n        /* \"#utility.yul\":3563:3694   */\n      tag_103\n      jump\t// in\n    tag_145:\n        /* \"#utility.yul\":3555:3694   */\n      swap1\n      pop\n        /* \"#utility.yul\":3282:3701   */\n      swap2\n      swap1\n      pop\n      jump\t// out\n        /* \"#utility.yul\":3707:3850   */\n    tag_104:\n        /* \"#utility.yul\":3764:3769   */\n      0x00\n        /* \"#utility.yul\":3795:3801   */\n      dup2\n        /* \"#utility.yul\":3789:3802   */\n      mload\n        /* \"#utility.yul\":3780:3802   */\n      swap1\n      pop\n        /* \"#utility.yul\":3811:3844   */\n      tag_147\n        /* \"#utility.yul\":3838:3843   */\n      dup2\n        /* \"#utility.yul\":3811:3844   */\n      tag_96\n      jump\t// in\n    tag_147:\n        /* \"#utility.yul\":3707:3850   */\n      swap3\n      swap2\n      pop\n      pop\n      jump\t// out\n        /* \"#utility.yul\":3856:4207   */\n    tag_67:\n        /* \"#utility.yul\":3926:3932   */\n      0x00\n        /* \"#utility.yul\":3975:3977   */\n      0x20\n        /* \"#utility.yul\":3963:3972   */\n      dup3\n        /* \"#utility.yul\":3954:3961   */\n      dup5\n        /* \"#utility.yul\":3950:3973   */\n      sub\n        /* \"#utility.yul\":3946:3978   */\n      slt\n        /* \"#utility.yul\":3943:4062   */\n      iszero\n      tag_149\n      jumpi\n        /* \"#utility.yul\":3981:4060   */\n      tag_150\n      tag_93\n      jump\t// in\n    tag_150:\n        /* \"#utility.yul\":3943:4062   */\n    tag_149:\n        /* \"#utility.yul\":4101:4102   */\n      0x00\n        /* \"#utility.yul\":4126:4190   */\n      tag_151\n        /* \"#utility.yul\":4182:4189   */\n      dup5\n        /* \"#utility.yul\":4173:4179   */\n      dup3\n        /* \"#utility.yul\":4162:4171   */\n      dup6\n        /* \"#utility.yul\":4158:4180   */\n      add\n        /* \"#utility.yul\":4126:4190   */\n      tag_104\n      jump\t// in\n    tag_151:\n        /* \"#utility.yul\":4116:4190   */\n      swap2\n      pop\n        /* \"#utility.yul\":4072:4200   */\n      pop\n        /* \"#utility.yul\":3856:4207   */\n      swap3\n      swap2\n      pop\n      pop\n      jump\t// out\n        /* \"#utility.yul\":4213:4545   */\n    tag_77:\n        /* \"#utility.yul\":4334:4338   */\n      0x00\n        /* \"#utility.yul\":4372:4374   */\n      0x40\n        /* \"#utility.yul\":4361:4370   */\n      dup3\n        /* \"#utility.yul\":4357:4375   */\n      add\n        /* \"#utility.yul\":4349:4375   */\n      swap1\n      pop\n        /* \"#utility.yul\":4385:4456   */\n      tag_153\n        /* \"#utility.yul\":4453:4454   */\n      0x00\n        /* \"#utility.yul\":4442:4451   */\n      dup4\n        /* \"#utility.yul\":4438:4455   */\n      add\n        /* \"#utility.yul\":4429:4435   */\n      dup6\n        /* \"#utility.yul\":4385:4456   */\n      tag_91\n      jump\t// in\n    tag_153:\n        /* \"#utility.yul\":4466:4538   */\n      tag_154\n        /* \"#utility.yul\":4534:4536   */\n      0x20\n        /* \"#utility.yul\":4523:4532   */\n      dup4\n        /* \"#utility.yul\":4519:4537   */\n      add\n        /* \"#utility.yul\":4510:4516   */\n      dup5\n        /* \"#utility.yul\":4466:4538   */\n      tag_98\n      jump\t// in\n    tag_154:\n        /* \"#utility.yul\":4213:4545   */\n      swap4\n      swap3\n      pop\n      pop\n      pop\n      jump\t// out\n        /* \"#utility.yul\":4551:4993   */\n    tag_82:\n        /* \"#utility.yul\":4700:4704   */\n      0x00\n        /* \"#utility.yul\":4738:4740   */\n      0x60\n        /* \"#utility.yul\":4727:4736   */\n      dup3\n        /* \"#utility.yul\":4723:4741   */\n      add\n        /* \"#utility.yul\":4715:4741   */\n      swap1\n      pop\n        /* \"#utility.yul\":4751:4822   */\n      tag_156\n        /* \"#utility.yul\":4819:4820   */\n      0x00\n        /* \"#utility.yul\":4808:4817   */\n      dup4\n        /* \"#utility.yul\":4804:4821   */\n      add\n        /* \"#utility.yul\":4795:4801   */\n      dup7\n        /* \"#utility.yul\":4751:4822   */\n      tag_91\n      jump\t// in\n    tag_156:\n        /* \"#utility.yul\":4832:4904   */\n      tag_157\n        /* \"#utility.yul\":4900:4902   */\n      0x20\n        /* \"#utility.yul\":4889:4898   */\n      dup4\n        /* \"#utility.yul\":4885:4903   */\n      add\n        /* \"#utility.yul\":4876:4882   */\n      dup6\n        /* \"#utility.yul\":4832:4904   */\n      tag_91\n      jump\t// in\n    tag_157:\n        /* \"#utility.yul\":4914:4986   */\n      tag_158\n        /* \"#utility.yul\":4982:4984   */\n      0x40\n        /* \"#utility.yul\":4971:4980   */\n      dup4\n        /* \"#utility.yul\":4967:4985   */\n      add\n        /* \"#utility.yul\":4958:4964   */\n      dup5\n        /* \"#utility.yul\":4914:4986   */\n      tag_98\n      jump\t// in\n    tag_158:\n        /* \"#utility.yul\":4551:4993   */\n      swap5\n      swap4\n      pop\n      pop\n      pop\n      pop\n      jump\t// out\n\n    auxdata: 0xa2646970667358221220436908f7e1fa1bc7f20253f7b165324aa1827ffadafe6f70a0bd5d06a79493c464736f6c63430008160033\n}\n",
				"bytecode": {
					"linkReferences": {},
					"object": "608060405234801561000f575f80fd5b50604051610ae8380380610ae883398181016040528101906100319190610114565b3360015f6101000a81548173ffffffffffffffffffffffffffffffffffffffff021916908373ffffffffffffffffffffffffffffffffffffffff160217905550805f806101000a81548173ffffffffffffffffffffffffffffffffffffffff021916908373ffffffffffffffffffffffffffffffffffffffff1602179055505061013f565b5f80fd5b5f73ffffffffffffffffffffffffffffffffffffffff82169050919050565b5f6100e3826100ba565b9050919050565b6100f3816100d9565b81146100fd575f80fd5b50565b5f8151905061010e816100ea565b92915050565b5f60208284031215610129576101286100b6565b5b5f61013684828501610100565b91505092915050565b61099c8061014c5f395ff3fe60806040526004361061007a575f3560e01c8063b79092fd1161004d578063b79092fd14610104578063c29a6fda1461012c578063c3736fe614610154578063e086e5ec1461017e5761007a565b80632ed6d5e81461007e5780634ece90a8146100945780635358fbda146100be5780636e947298146100da575b5f80fd5b348015610089575f80fd5b50610092610194565b005b34801561009f575f80fd5b506100a861027b565b6040516100b5919061075b565b60405180910390f35b6100d860048036038101906100d391906107ab565b6102a2565b005b3480156100e5575f80fd5b506100ee6102b9565b6040516100fb91906107e5565b60405180910390f35b34801561010f575f80fd5b5061012a600480360381019061012591906107ab565b6102c0565b005b348015610137575f80fd5b50610152600480360381019061014d9190610828565b61030f565b005b34801561015f575f80fd5b506101686103e0565b60405161017591906107e5565b60405180910390f35b348015610189575f80fd5b5061019261047e565b005b60015f9054906101000a900473ffffffffffffffffffffffffffffffffffffffff1673ffffffffffffffffffffffffffffffffffffffff163373ffffffffffffffffffffffffffffffffffffffff1614610223576040517f08c379a000000000000000000000000000000000000000000000000000000000815260040161021a906108ad565b60405180910390fd5b5f61022c6103e0565b905061027833825f8054906101000a900473ffffffffffffffffffffffffffffffffffffffff1673ffffffffffffffffffffffffffffffffffffffff166105809092919063ffffffff16565b50565b5f805f9054906101000a900473ffffffffffffffffffffffffffffffffffffffff16905090565b5f3411156102b6578034146102b5575f80fd5b5b50565b5f47905090565b61030c3330835f8054906101000a900473ffffffffffffffffffffffffffffffffffffffff1673ffffffffffffffffffffffffffffffffffffffff166105ff909392919063ffffffff16565b50565b60015f9054906101000a900473ffffffffffffffffffffffffffffffffffffffff1673ffffffffffffffffffffffffffffffffffffffff163373ffffffffffffffffffffffffffffffffffffffff161461039e576040517f08c379a0000000000000000000000000000000000000000000000000000000008152600401610395906108ad565b60405180910390fd5b805f806101000a81548173ffffffffffffffffffffffffffffffffffffffff021916908373ffffffffffffffffffffffffffffffffffffffff16021790555050565b5f805f9054906101000a900473ffffffffffffffffffffffffffffffffffffffff1673ffffffffffffffffffffffffffffffffffffffff166370a08231306040518263ffffffff1660e01b815260040161043a919061075b565b602060405180830381865afa158015610455573d5f803e3d5ffd5b505050506040513d601f19601f8201168201806040525081019061047991906108df565b905090565b60015f9054906101000a900473ffffffffffffffffffffffffffffffffffffffff1673ffffffffffffffffffffffffffffffffffffffff163373ffffffffffffffffffffffffffffffffffffffff161461050d576040517f08c379a0000000000000000000000000000000000000000000000000000000008152600401610504906108ad565b60405180910390fd5b5f6105166102b9565b905060015f9054906101000a900473ffffffffffffffffffffffffffffffffffffffff1673ffffffffffffffffffffffffffffffffffffffff166108fc8290811502906040515f60405180830381858888f1935050505015801561057c573d5f803e3d5ffd5b5050565b6105fa838473ffffffffffffffffffffffffffffffffffffffff1663a9059cbb85856040516024016105b392919061090a565b604051602081830303815290604052915060e01b6020820180517bffffffffffffffffffffffffffffffffffffffffffffffffffffffff8381831617835250505050610681565b505050565b61067b848573ffffffffffffffffffffffffffffffffffffffff166323b872dd86868660405160240161063493929190610931565b604051602081830303815290604052915060e01b6020820180517bffffffffffffffffffffffffffffffffffffffffffffffffffffffff8381831617835250505050610681565b50505050565b5f8060205f8451602086015f885af1806106a0576040513d5f823e3d81fd5b3d92505f519150505f82146106b95760018114156106d4565b5f8473ffffffffffffffffffffffffffffffffffffffff163b145b1561071657836040517f5274afe700000000000000000000000000000000000000000000000000000000815260040161070d919061075b565b60405180910390fd5b50505050565b5f73ffffffffffffffffffffffffffffffffffffffff82169050919050565b5f6107458261071c565b9050919050565b6107558161073b565b82525050565b5f60208201905061076e5f83018461074c565b92915050565b5f80fd5b5f819050919050565b61078a81610778565b8114610794575f80fd5b50565b5f813590506107a581610781565b92915050565b5f602082840312156107c0576107bf610774565b5b5f6107cd84828501610797565b91505092915050565b6107df81610778565b82525050565b5f6020820190506107f85f8301846107d6565b92915050565b6108078161073b565b8114610811575f80fd5b50565b5f81359050610822816107fe565b92915050565b5f6020828403121561083d5761083c610774565b5b5f61084a84828501610814565b91505092915050565b5f82825260208201905092915050565b7f4e6f74206f776e657200000000000000000000000000000000000000000000005f82015250565b5f610897600983610853565b91506108a282610863565b602082019050919050565b5f6020820190508181035f8301526108c48161088b565b9050919050565b5f815190506108d981610781565b92915050565b5f602082840312156108f4576108f3610774565b5b5f610901848285016108cb565b91505092915050565b5f60408201905061091d5f83018561074c565b61092a60208301846107d6565b9392505050565b5f6060820190506109445f83018661074c565b610951602083018561074c565b61095e60408301846107d6565b94935050505056fea2646970667358221220436908f7e1fa1bc7f20253f7b165324aa1827ffadafe6f70a0bd5d06a79493c464736f6c63430008160033",
					"opcodes": "PUSH1 0x80 PUSH1 0x40 MSTORE CALLVALUE DUP1 ISZERO PUSH2 0xF JUMPI PUSH0 DUP1 REVERT JUMPDEST POP PUSH1 0x40 MLOAD PUSH2 0xAE8 CODESIZE SUB DUP1 PUSH2 0xAE8 DUP4 CODECOPY DUP2 DUP2 ADD PUSH1 0x40 MSTORE DUP2 ADD SWAP1 PUSH2 0x31 SWAP2 SWAP1 PUSH2 0x114 JUMP JUMPDEST CALLER PUSH1 0x1 PUSH0 PUSH2 0x100 EXP DUP2 SLOAD DUP2 PUSH20 0xFFFFFFFFFFFFFFFFFFFFFFFFFFFFFFFFFFFFFFFF MUL NOT AND SWAP1 DUP4 PUSH20 0xFFFFFFFFFFFFFFFFFFFFFFFFFFFFFFFFFFFFFFFF AND MUL OR SWAP1 SSTORE POP DUP1 PUSH0 DUP1 PUSH2 0x100 EXP DUP2 SLOAD DUP2 PUSH20 0xFFFFFFFFFFFFFFFFFFFFFFFFFFFFFFFFFFFFFFFF MUL NOT AND SWAP1 DUP4 PUSH20 0xFFFFFFFFFFFFFFFFFFFFFFFFFFFFFFFFFFFFFFFF AND MUL OR SWAP1 SSTORE POP POP PUSH2 0x13F JUMP JUMPDEST PUSH0 DUP1 REVERT JUMPDEST PUSH0 PUSH20 0xFFFFFFFFFFFFFFFFFFFFFFFFFFFFFFFFFFFFFFFF DUP3 AND SWAP1 POP SWAP2 SWAP1 POP JUMP JUMPDEST PUSH0 PUSH2 0xE3 DUP3 PUSH2 0xBA JUMP JUMPDEST SWAP1 POP SWAP2 SWAP1 POP JUMP JUMPDEST PUSH2 0xF3 DUP2 PUSH2 0xD9 JUMP JUMPDEST DUP2 EQ PUSH2 0xFD JUMPI PUSH0 DUP1 REVERT JUMPDEST POP JUMP JUMPDEST PUSH0 DUP2 MLOAD SWAP1 POP PUSH2 0x10E DUP2 PUSH2 0xEA JUMP JUMPDEST SWAP3 SWAP2 POP POP JUMP JUMPDEST PUSH0 PUSH1 0x20 DUP3 DUP5 SUB SLT ISZERO PUSH2 0x129 JUMPI PUSH2 0x128 PUSH2 0xB6 JUMP JUMPDEST JUMPDEST PUSH0 PUSH2 0x136 DUP5 DUP3 DUP6 ADD PUSH2 0x100 JUMP JUMPDEST SWAP2 POP POP SWAP3 SWAP2 POP POP JUMP JUMPDEST PUSH2 0x99C DUP1 PUSH2 0x14C PUSH0 CODECOPY PUSH0 RETURN INVALID PUSH1 0x80 PUSH1 0x40 MSTORE PUSH1 0x4 CALLDATASIZE LT PUSH2 0x7A JUMPI PUSH0 CALLDATALOAD PUSH1 0xE0 SHR DUP1 PUSH4 0xB79092FD GT PUSH2 0x4D JUMPI DUP1 PUSH4 0xB79092FD EQ PUSH2 0x104 JUMPI DUP1 PUSH4 0xC29A6FDA EQ PUSH2 0x12C JUMPI DUP1 PUSH4 0xC3736FE6 EQ PUSH2 0x154 JUMPI DUP1 PUSH4 0xE086E5EC EQ PUSH2 0x17E JUMPI PUSH2 0x7A JUMP JUMPDEST DUP1 PUSH4 0x2ED6D5E8 EQ PUSH2 0x7E JUMPI DUP1 PUSH4 0x4ECE90A8 EQ PUSH2 0x94 JUMPI DUP1 PUSH4 0x5358FBDA EQ PUSH2 0xBE JUMPI DUP1 PUSH4 0x6E947298 EQ PUSH2 0xDA JUMPI JUMPDEST PUSH0 DUP1 REVERT JUMPDEST CALLVALUE DUP1 ISZERO PUSH2 0x89 JUMPI PUSH0 DUP1 REVERT JUMPDEST POP PUSH2 0x92 PUSH2 0x194 JUMP JUMPDEST STOP JUMPDEST CALLVALUE DUP1 ISZERO PUSH2 0x9F JUMPI PUSH0 DUP1 REVERT JUMPDEST POP PUSH2 0xA8 PUSH2 0x27B JUMP JUMPDEST PUSH1 0x40 MLOAD PUSH2 0xB5 SWAP2 SWAP1 PUSH2 0x75B JUMP JUMPDEST PUSH1 0x40 MLOAD DUP1 SWAP2 SUB SWAP1 RETURN JUMPDEST PUSH2 0xD8 PUSH1 0x4 DUP1 CALLDATASIZE SUB DUP2 ADD SWAP1 PUSH2 0xD3 SWAP2 SWAP1 PUSH2 0x7AB JUMP JUMPDEST PUSH2 0x2A2 JUMP JUMPDEST STOP JUMPDEST CALLVALUE DUP1 ISZERO PUSH2 0xE5 JUMPI PUSH0 DUP1 REVERT JUMPDEST POP PUSH2 0xEE PUSH2 0x2B9 JUMP JUMPDEST PUSH1 0x40 MLOAD PUSH2 0xFB SWAP2 SWAP1 PUSH2 0x7E5 JUMP JUMPDEST PUSH1 0x40 MLOAD DUP1 SWAP2 SUB SWAP1 RETURN JUMPDEST CALLVALUE DUP1 ISZERO PUSH2 0x10F JUMPI PUSH0 DUP1 REVERT JUMPDEST POP PUSH2 0x12A PUSH1 0x4 DUP1 CALLDATASIZE SUB DUP2 ADD SWAP1 PUSH2 0x125 SWAP2 SWAP1 PUSH2 0x7AB JUMP JUMPDEST PUSH2 0x2C0 JUMP JUMPDEST STOP JUMPDEST CALLVALUE DUP1 ISZERO PUSH2 0x137 JUMPI PUSH0 DUP1 REVERT JUMPDEST POP PUSH2 0x152 PUSH1 0x4 DUP1 CALLDATASIZE SUB DUP2 ADD SWAP1 PUSH2 0x14D SWAP2 SWAP1 PUSH2 0x828 JUMP JUMPDEST PUSH2 0x30F JUMP JUMPDEST STOP JUMPDEST CALLVALUE DUP1 ISZERO PUSH2 0x15F JUMPI PUSH0 DUP1 REVERT JUMPDEST POP PUSH2 0x168 PUSH2 0x3E0 JUMP JUMPDEST PUSH1 0x40 MLOAD PUSH2 0x175 SWAP2 SWAP1 PUSH2 0x7E5 JUMP JUMPDEST PUSH1 0x40 MLOAD DUP1 SWAP2 SUB SWAP1 RETURN JUMPDEST CALLVALUE DUP1 ISZERO PUSH2 0x189 JUMPI PUSH0 DUP1 REVERT JUMPDEST POP PUSH2 0x192 PUSH2 0x47E JUMP JUMPDEST STOP JUMPDEST PUSH1 0x1 PUSH0 SWAP1 SLOAD SWAP1 PUSH2 0x100 EXP SWAP1 DIV PUSH20 0xFFFFFFFFFFFFFFFFFFFFFFFFFFFFFFFFFFFFFFFF AND PUSH20 0xFFFFFFFFFFFFFFFFFFFFFFFFFFFFFFFFFFFFFFFF AND CALLER PUSH20 0xFFFFFFFFFFFFFFFFFFFFFFFFFFFFFFFFFFFFFFFF AND EQ PUSH2 0x223 JUMPI PUSH1 0x40 MLOAD PUSH32 0x8C379A000000000000000000000000000000000000000000000000000000000 DUP2 MSTORE PUSH1 0x4 ADD PUSH2 0x21A SWAP1 PUSH2 0x8AD JUMP JUMPDEST PUSH1 0x40 MLOAD DUP1 SWAP2 SUB SWAP1 REVERT JUMPDEST PUSH0 PUSH2 0x22C PUSH2 0x3E0 JUMP JUMPDEST SWAP1 POP PUSH2 0x278 CALLER DUP3 PUSH0 DUP1 SLOAD SWAP1 PUSH2 0x100 EXP SWAP1 DIV PUSH20 0xFFFFFFFFFFFFFFFFFFFFFFFFFFFFFFFFFFFFFFFF AND PUSH20 0xFFFFFFFFFFFFFFFFFFFFFFFFFFFFFFFFFFFFFFFF AND PUSH2 0x580 SWAP1 SWAP3 SWAP2 SWAP1 PUSH4 0xFFFFFFFF AND JUMP JUMPDEST POP JUMP JUMPDEST PUSH0 DUP1 PUSH0 SWAP1 SLOAD SWAP1 PUSH2 0x100 EXP SWAP1 DIV PUSH20 0xFFFFFFFFFFFFFFFFFFFFFFFFFFFFFFFFFFFFFFFF AND SWAP1 POP SWAP1 JUMP JUMPDEST PUSH0 CALLVALUE GT ISZERO PUSH2 0x2B6 JUMPI DUP1 CALLVALUE EQ PUSH2 0x2B5 JUMPI PUSH0 DUP1 REVERT JUMPDEST JUMPDEST POP JUMP JUMPDEST PUSH0 SELFBALANCE SWAP1 POP SWAP1 JUMP JUMPDEST PUSH2 0x30C CALLER ADDRESS DUP4 PUSH0 DUP1 SLOAD SWAP1 PUSH2 0x100 EXP SWAP1 DIV PUSH20 0xFFFFFFFFFFFFFFFFFFFFFFFFFFFFFFFFFFFFFFFF AND PUSH20 0xFFFFFFFFFFFFFFFFFFFFFFFFFFFFFFFFFFFFFFFF AND PUSH2 0x5FF SWAP1 SWAP4 SWAP3 SWAP2 SWAP1 PUSH4 0xFFFFFFFF AND JUMP JUMPDEST POP JUMP JUMPDEST PUSH1 0x1 PUSH0 SWAP1 SLOAD SWAP1 PUSH2 0x100 EXP SWAP1 DIV PUSH20 0xFFFFFFFFFFFFFFFFFFFFFFFFFFFFFFFFFFFFFFFF AND PUSH20 0xFFFFFFFFFFFFFFFFFFFFFFFFFFFFFFFFFFFFFFFF AND CALLER PUSH20 0xFFFFFFFFFFFFFFFFFFFFFFFFFFFFFFFFFFFFFFFF AND EQ PUSH2 0x39E JUMPI PUSH1 0x40 MLOAD PUSH32 0x8C379A000000000000000000000000000000000000000000000000000000000 DUP2 MSTORE PUSH1 0x4 ADD PUSH2 0x395 SWAP1 PUSH2 0x8AD JUMP JUMPDEST PUSH1 0x40 MLOAD DUP1 SWAP2 SUB SWAP1 REVERT JUMPDEST DUP1 PUSH0 DUP1 PUSH2 0x100 EXP DUP2 SLOAD DUP2 PUSH20 0xFFFFFFFFFFFFFFFFFFFFFFFFFFFFFFFFFFFFFFFF MUL NOT AND SWAP1 DUP4 PUSH20 0xFFFFFFFFFFFFFFFFFFFFFFFFFFFFFFFFFFFFFFFF AND MUL OR SWAP1 SSTORE POP POP JUMP JUMPDEST PUSH0 DUP1 PUSH0 SWAP1 SLOAD SWAP1 PUSH2 0x100 EXP SWAP1 DIV PUSH20 0xFFFFFFFFFFFFFFFFFFFFFFFFFFFFFFFFFFFFFFFF AND PUSH20 0xFFFFFFFFFFFFFFFFFFFFFFFFFFFFFFFFFFFFFFFF AND PUSH4 0x70A08231 ADDRESS PUSH1 0x40 MLOAD DUP3 PUSH4 0xFFFFFFFF AND PUSH1 0xE0 SHL DUP2 MSTORE PUSH1 0x4 ADD PUSH2 0x43A SWAP2 SWAP1 PUSH2 0x75B JUMP JUMPDEST PUSH1 0x20 PUSH1 0x40 MLOAD DUP1 DUP4 SUB DUP2 DUP7 GAS STATICCALL ISZERO DUP1 ISZERO PUSH2 0x455 JUMPI RETURNDATASIZE PUSH0 DUP1 RETURNDATACOPY RETURNDATASIZE PUSH0 REVERT JUMPDEST POP POP POP POP PUSH1 0x40 MLOAD RETURNDATASIZE PUSH1 0x1F NOT PUSH1 0x1F DUP3 ADD AND DUP3 ADD DUP1 PUSH1 0x40 MSTORE POP DUP2 ADD SWAP1 PUSH2 0x479 SWAP2 SWAP1 PUSH2 0x8DF JUMP JUMPDEST SWAP1 POP SWAP1 JUMP JUMPDEST PUSH1 0x1 PUSH0 SWAP1 SLOAD SWAP1 PUSH2 0x100 EXP SWAP1 DIV PUSH20 0xFFFFFFFFFFFFFFFFFFFFFFFFFFFFFFFFFFFFFFFF AND PUSH20 0xFFFFFFFFFFFFFFFFFFFFFFFFFFFFFFFFFFFFFFFF AND CALLER PUSH20 0xFFFFFFFFFFFFFFFFFFFFFFFFFFFFFFFFFFFFFFFF AND EQ PUSH2 0x50D JUMPI PUSH1 0x40 MLOAD PUSH32 0x8C379A000000000000000000000000000000000000000000000000000000000 DUP2 MSTORE PUSH1 0x4 ADD PUSH2 0x504 SWAP1 PUSH2 0x8AD JUMP JUMPDEST PUSH1 0x40 MLOAD DUP1 SWAP2 SUB SWAP1 REVERT JUMPDEST PUSH0 PUSH2 0x516 PUSH2 0x2B9 JUMP JUMPDEST SWAP1 POP PUSH1 0x1 PUSH0 SWAP1 SLOAD SWAP1 PUSH2 0x100 EXP SWAP1 DIV PUSH20 0xFFFFFFFFFFFFFFFFFFFFFFFFFFFFFFFFFFFFFFFF AND PUSH20 0xFFFFFFFFFFFFFFFFFFFFFFFFFFFFFFFFFFFFFFFF AND PUSH2 0x8FC DUP3 SWAP1 DUP2 ISZERO MUL SWAP1 PUSH1 0x40 MLOAD PUSH0 PUSH1 0x40 MLOAD DUP1 DUP4 SUB DUP2 DUP6 DUP9 DUP9 CALL SWAP4 POP POP POP POP ISZERO DUP1 ISZERO PUSH2 0x57C JUMPI RETURNDATASIZE PUSH0 DUP1 RETURNDATACOPY RETURNDATASIZE PUSH0 REVERT JUMPDEST POP POP JUMP JUMPDEST PUSH2 0x5FA DUP4 DUP5 PUSH20 0xFFFFFFFFFFFFFFFFFFFFFFFFFFFFFFFFFFFFFFFF AND PUSH4 0xA9059CBB DUP6 DUP6 PUSH1 0x40 MLOAD PUSH1 0x24 ADD PUSH2 0x5B3 SWAP3 SWAP2 SWAP1 PUSH2 0x90A JUMP JUMPDEST PUSH1 0x40 MLOAD PUSH1 0x20 DUP2 DUP4 SUB SUB DUP2 MSTORE SWAP1 PUSH1 0x40 MSTORE SWAP2 POP PUSH1 0xE0 SHL PUSH1 0x20 DUP3 ADD DUP1 MLOAD PUSH28 0xFFFFFFFFFFFFFFFFFFFFFFFFFFFFFFFFFFFFFFFFFFFFFFFFFFFFFFFF DUP4 DUP2 DUP4 AND OR DUP4 MSTORE POP POP POP POP PUSH2 0x681 JUMP JUMPDEST POP POP POP JUMP JUMPDEST PUSH2 0x67B DUP5 DUP6 PUSH20 0xFFFFFFFFFFFFFFFFFFFFFFFFFFFFFFFFFFFFFFFF AND PUSH4 0x23B872DD DUP7 DUP7 DUP7 PUSH1 0x40 MLOAD PUSH1 0x24 ADD PUSH2 0x634 SWAP4 SWAP3 SWAP2 SWAP1 PUSH2 0x931 JUMP JUMPDEST PUSH1 0x40 MLOAD PUSH1 0x20 DUP2 DUP4 SUB SUB DUP2 MSTORE SWAP1 PUSH1 0x40 MSTORE SWAP2 POP PUSH1 0xE0 SHL PUSH1 0x20 DUP3 ADD DUP1 MLOAD PUSH28 0xFFFFFFFFFFFFFFFFFFFFFFFFFFFFFFFFFFFFFFFFFFFFFFFFFFFFFFFF DUP4 DUP2 DUP4 AND OR DUP4 MSTORE POP POP POP POP PUSH2 0x681 JUMP JUMPDEST POP POP POP POP JUMP JUMPDEST PUSH0 DUP1 PUSH1 0x20 PUSH0 DUP5 MLOAD PUSH1 0x20 DUP7 ADD PUSH0 DUP9 GAS CALL DUP1 PUSH2 0x6A0 JUMPI PUSH1 0x40 MLOAD RETURNDATASIZE PUSH0 DUP3 RETURNDATACOPY RETURNDATASIZE DUP2 REVERT JUMPDEST RETURNDATASIZE SWAP3 POP PUSH0 MLOAD SWAP2 POP POP PUSH0 DUP3 EQ PUSH2 0x6B9 JUMPI PUSH1 0x1 DUP2 EQ ISZERO PUSH2 0x6D4 JUMP JUMPDEST PUSH0 DUP5 PUSH20 0xFFFFFFFFFFFFFFFFFFFFFFFFFFFFFFFFFFFFFFFF AND EXTCODESIZE EQ JUMPDEST ISZERO PUSH2 0x716 JUMPI DUP4 PUSH1 0x40 MLOAD PUSH32 0x5274AFE700000000000000000000000000000000000000000000000000000000 DUP2 MSTORE PUSH1 0x4 ADD PUSH2 0x70D SWAP2 SWAP1 PUSH2 0x75B JUMP JUMPDEST PUSH1 0x40 MLOAD DUP1 SWAP2 SUB SWAP1 REVERT JUMPDEST POP POP POP POP JUMP JUMPDEST PUSH0 PUSH20 0xFFFFFFFFFFFFFFFFFFFFFFFFFFFFFFFFFFFFFFFF DUP3 AND SWAP1 POP SWAP2 SWAP1 POP JUMP JUMPDEST PUSH0 PUSH2 0x745 DUP3 PUSH2 0x71C JUMP JUMPDEST SWAP1 POP SWAP2 SWAP1 POP JUMP JUMPDEST PUSH2 0x755 DUP2 PUSH2 0x73B JUMP JUMPDEST DUP3 MSTORE POP POP JUMP JUMPDEST PUSH0 PUSH1 0x20 DUP3 ADD SWAP1 POP PUSH2 0x76E PUSH0 DUP4 ADD DUP5 PUSH2 0x74C JUMP JUMPDEST SWAP3 SWAP2 POP POP JUMP JUMPDEST PUSH0 DUP1 REVERT JUMPDEST PUSH0 DUP2 SWAP1 POP SWAP2 SWAP1 POP JUMP JUMPDEST PUSH2 0x78A DUP2 PUSH2 0x778 JUMP JUMPDEST DUP2 EQ PUSH2 0x794 JUMPI PUSH0 DUP1 REVERT JUMPDEST POP JUMP JUMPDEST PUSH0 DUP2 CALLDATALOAD SWAP1 POP PUSH2 0x7A5 DUP2 PUSH2 0x781 JUMP JUMPDEST SWAP3 SWAP2 POP POP JUMP JUMPDEST PUSH0 PUSH1 0x20 DUP3 DUP5 SUB SLT ISZERO PUSH2 0x7C0 JUMPI PUSH2 0x7BF PUSH2 0x774 JUMP JUMPDEST JUMPDEST PUSH0 PUSH2 0x7CD DUP5 DUP3 DUP6 ADD PUSH2 0x797 JUMP JUMPDEST SWAP2 POP POP SWAP3 SWAP2 POP POP JUMP JUMPDEST PUSH2 0x7DF DUP2 PUSH2 0x778 JUMP JUMPDEST DUP3 MSTORE POP POP JUMP JUMPDEST PUSH0 PUSH1 0x20 DUP3 ADD SWAP1 POP PUSH2 0x7F8 PUSH0 DUP4 ADD DUP5 PUSH2 0x7D6 JUMP JUMPDEST SWAP3 SWAP2 POP POP JUMP JUMPDEST PUSH2 0x807 DUP2 PUSH2 0x73B JUMP JUMPDEST DUP2 EQ PUSH2 0x811 JUMPI PUSH0 DUP1 REVERT JUMPDEST POP JUMP JUMPDEST PUSH0 DUP2 CALLDATALOAD SWAP1 POP PUSH2 0x822 DUP2 PUSH2 0x7FE JUMP JUMPDEST SWAP3 SWAP2 POP POP JUMP JUMPDEST PUSH0 PUSH1 0x20 DUP3 DUP5 SUB SLT ISZERO PUSH2 0x83D JUMPI PUSH2 0x83C PUSH2 0x774 JUMP JUMPDEST JUMPDEST PUSH0 PUSH2 0x84A DUP5 DUP3 DUP6 ADD PUSH2 0x814 JUMP JUMPDEST SWAP2 POP POP SWAP3 SWAP2 POP POP JUMP JUMPDEST PUSH0 DUP3 DUP3 MSTORE PUSH1 0x20 DUP3 ADD SWAP1 POP SWAP3 SWAP2 POP POP JUMP JUMPDEST PUSH32 0x4E6F74206F776E65720000000000000000000000000000000000000000000000 PUSH0 DUP3 ADD MSTORE POP JUMP JUMPDEST PUSH0 PUSH2 0x897 PUSH1 0x9 DUP4 PUSH2 0x853 JUMP JUMPDEST SWAP2 POP PUSH2 0x8A2 DUP3 PUSH2 0x863 JUMP JUMPDEST PUSH1 0x20 DUP3 ADD SWAP1 POP SWAP2 SWAP1 POP JUMP JUMPDEST PUSH0 PUSH1 0x20 DUP3 ADD SWAP1 POP DUP2 DUP2 SUB PUSH0 DUP4 ADD MSTORE PUSH2 0x8C4 DUP2 PUSH2 0x88B JUMP JUMPDEST SWAP1 POP SWAP2 SWAP1 POP JUMP JUMPDEST PUSH0 DUP2 MLOAD SWAP1 POP PUSH2 0x8D9 DUP2 PUSH2 0x781 JUMP JUMPDEST SWAP3 SWAP2 POP POP JUMP JUMPDEST PUSH0 PUSH1 0x20 DUP3 DUP5 SUB SLT ISZERO PUSH2 0x8F4 JUMPI PUSH2 0x8F3 PUSH2 0x774 JUMP JUMPDEST JUMPDEST PUSH0 PUSH2 0x901 DUP5 DUP3 DUP6 ADD PUSH2 0x8CB JUMP JUMPDEST SWAP2 POP POP SWAP3 SWAP2 POP POP JUMP JUMPDEST PUSH0 PUSH1 0x40 DUP3 ADD SWAP1 POP PUSH2 0x91D PUSH0 DUP4 ADD DUP6 PUSH2 0x74C JUMP JUMPDEST PUSH2 0x92A PUSH1 0x20 DUP4 ADD DUP5 PUSH2 0x7D6 JUMP JUMPDEST SWAP4 SWAP3 POP POP POP JUMP JUMPDEST PUSH0 PUSH1 0x60 DUP3 ADD SWAP1 POP PUSH2 0x944 PUSH0 DUP4 ADD DUP7 PUSH2 0x74C JUMP JUMPDEST PUSH2 0x951 PUSH1 0x20 DUP4 ADD DUP6 PUSH2 0x74C JUMP JUMPDEST PUSH2 0x95E PUSH1 0x40 DUP4 ADD DUP5 PUSH2 0x7D6 JUMP JUMPDEST SWAP5 SWAP4 POP POP POP POP JUMP INVALID LOG2 PUSH5 0x6970667358 0x22 SLT KECCAK256 NUMBER PUSH10 0x8F7E1FA1BC7F20253F7 0xB1 PUSH6 0x324AA1827FFA 0xDA INVALID PUSH16 0x70A0BD5D06A79493C464736F6C634300 ADDMOD AND STOP CALLER "
				},
				"gasEstimates": {
					"creation": {
						"codeDepositCost": "492000",
						"executionCost": "infinite",
						"totalCost": "infinite"
					},
					"external": {
						"depositERC20(uint256)": "infinite",
						"depositETH(uint256)": "468",
						"getERC20()": "2538",
						"getERC20Balance()": "infinite",
						"getETHBalance()": "401",
						"setERC20(address)": "26906",
						"withdrawERC20()": "infinite",
						"withdrawETH()": "infinite"
					}
				},
				"methodIdentifiers": {
					"depositERC20(uint256)": "b79092fd",
					"depositETH(uint256)": "5358fbda",
					"getERC20()": "4ece90a8",
					"getERC20Balance()": "c3736fe6",
					"getETHBalance()": "6e947298",
					"setERC20(address)": "c29a6fda",
					"withdrawERC20()": "2ed6d5e8",
					"withdrawETH()": "e086e5ec"
				}
			},
			"storageLayout": {
				"storage": [
					{
						"astId": 652,
						"contract": "wallet/Erc20Wallet.sol:MyWallet",
						"label": "erc20",
						"offset": 0,
						"slot": "0",
						"type": "t_address"
					},
					{
						"astId": 654,
						"contract": "wallet/Erc20Wallet.sol:MyWallet",
						"label": "owner",
						"offset": 0,
						"slot": "1",
						"type": "t_address_payable"
					}
				],
				"types": {
					"t_address": {
						"encoding": "inplace",
						"label": "address",
						"numberOfBytes": "20"
					},
					"t_address_payable": {
						"encoding": "inplace",
						"label": "address payable",
						"numberOfBytes": "20"
					}
				}
			},
			"userdoc": {
				"kind": "user",
				"methods": {},
				"version": 1
			}
		}
	}
}