{
	"data": {
		"bytecode": {
			"linkReferences": {},
			"object": "6080604052348015600e575f5ffd5b50610d908061001c5f395ff3fe608060405234801561000f575f5ffd5b5060043610610086575f3560e01c80637340e9bd116100595780637340e9bd14610110578063b3cd722b14610132578063d826f88f14610159578063ebf9dced1461016357610086565b80632e49d78b1461008a57806360fe47b1146100a65780636d4ce63c146100c25780636d7b7fc9146100e0575b5f5ffd5b6100a4600480360381019061009f91906108bd565b610193565b005b6100c060048036038101906100bb919061091b565b6101be565b005b6100ca61024a565b6040516100d791906109b9565b60405180910390f35b6100fa60048036038101906100f591906108bd565b61025e565b6040516101079190610a42565b60405180910390f35b6101186104a9565b604051610129959493929190610a71565b60405180910390f35b61013a610521565b6040516101509a99989796959493929190610ac2565b60405180910390f35b6101616106cf565b005b61017d60048036038101906101789190610cab565b6106e1565b60405161018a91906109b9565b60405180910390f35b805f5f6101000a81548160ff021916908360048111156101b6576101b5610946565b5b021790555050565b5f811180156101ce575060058111155b61020d576040517f08c379a000000000000000000000000000000000000000000000000000000000815260040161020490610d3c565b60405180910390fd5b8060048111156102205761021f610946565b5b5f5f6101000a81548160ff0219169083600481111561024257610241610946565b5b021790555050565b5f5f5f9054906101000a900460ff16905090565b60605f600481111561027357610272610946565b5b82600481111561028657610285610946565b5b036102c8576040518060400160405280600781526020017f50656e64696e670000000000000000000000000000000000000000000000000081525090506104a4565b600160048111156102dc576102db610946565b5b8260048111156102ef576102ee610946565b5b03610331576040518060400160405280600781526020017f536869707065640000000000000000000000000000000000000000000000000081525090506104a4565b6002600481111561034557610344610946565b5b82600481111561035857610357610946565b5b0361039a576040518060400160405280600881526020017f416363657074656400000000000000000000000000000000000000000000000081525090506104a4565b600360048111156103ae576103ad610946565b5b8260048111156103c1576103c0610946565b5b03610403576040518060400160405280600881526020017f52656a656374656400000000000000000000000000000000000000000000000081525090506104a4565b60048081111561041657610415610946565b5b82600481111561042957610428610946565b5b0361046b576040518060400160405280600881526020017f43616e63656c656400000000000000000000000000000000000000000000000081525090506104a4565b6040518060400160405280600781526020017f556e6b6e6f776e0000000000000000000000000000000000000000000000000081525090505b919050565b5f5f5f5f5f5f60048111156104c1576104c0610946565b5b600160048111156104d5576104d4610946565b5b600260048111156104e9576104e8610946565b5b600360048111156104fd576104fc610946565b5b6004808111156105105761050f610946565b5b945094509450945094509091929394565b60605f60605f60605f60605f60605f5f600481111561054357610542610946565b5b6001600481111561055757610556610946565b5b6002600481111561056b5761056a610946565b5b6003600481111561057f5761057e610946565b5b60048081111561059257610591610946565b5b6040518060400160405280600781526020017f50656e64696e670000000000000000000000000000000000000000000000000081525094939291906040518060400160405280600781526020017f5368697070656400000000000000000000000000000000000000000000000000815250939291906040518060400160405280600881526020017f41636365707465640000000000000000000000000000000000000000000000008152509291906040518060400160405280600881526020017f52656a656374656400000000000000000000000000000000000000000000000081525091906040518060400160405280600881526020017f43616e63656c656400000000000000000000000000000000000000000000000081525090995099509950995099509950995099509950995090919293949596979899565b5f5f6101000a81549060ff0219169055565b5f6040518060400160405280600781526020017f50656e64696e670000000000000000000000000000000000000000000000000081525080519060200120828051906020012003610734575f9050610884565b6040518060400160405280600781526020017f5368697070656400000000000000000000000000000000000000000000000000815250805190602001208280519060200120036107875760019050610884565b6040518060400160405280600881526020017f4163636570746564000000000000000000000000000000000000000000000000815250805190602001208280519060200120036107da5760029050610884565b6040518060400160405280600881526020017f52656a65637465640000000000000000000000000000000000000000000000008152508051906020012082805190602001200361082d5760039050610884565b6040518060400160405280600881526020017f43616e63656c6564000000000000000000000000000000000000000000000000815250805190602001208280519060200120036108805760049050610884565b5f5ffd5b919050565b5f604051905090565b5f5ffd5b5f5ffd5b600581106108a6575f5ffd5b50565b5f813590506108b78161089a565b92915050565b5f602082840312156108d2576108d1610892565b5b5f6108df848285016108a9565b91505092915050565b5f819050919050565b6108fa816108e8565b8114610904575f5ffd5b50565b5f81359050610915816108f1565b92915050565b5f602082840312156109305761092f610892565b5b5f61093d84828501610907565b91505092915050565b7f4e487b71000000000000000000000000000000000000000000000000000000005f52602160045260245ffd5b6005811061098457610983610946565b5b50565b5f81905061099482610973565b919050565b5f6109a382610987565b9050919050565b6109b381610999565b82525050565b5f6020820190506109cc5f8301846109aa565b92915050565b5f81519050919050565b5f82825260208201905092915050565b8281835e5f83830152505050565b5f601f19601f8301169050919050565b5f610a14826109d2565b610a1e81856109dc565b9350610a2e8185602086016109ec565b610a37816109fa565b840191505092915050565b5f6020820190508181035f830152610a5a8184610a0a565b905092915050565b610a6b816108e8565b82525050565b5f60a082019050610a845f830188610a62565b610a916020830187610a62565b610a9e6040830186610a62565b610aab6060830185610a62565b610ab86080830184610a62565b9695505050505050565b5f610140820190508181035f830152610adb818d610a0a565b9050610aea602083018c610a62565b8181036040830152610afc818b610a0a565b9050610b0b606083018a610a62565b8181036080830152610b1d8189610a0a565b9050610b2c60a0830188610a62565b81810360c0830152610b3e8187610a0a565b9050610b4d60e0830186610a62565b818103610100830152610b608185610a0a565b9050610b70610120830184610a62565b9b9a5050505050505050505050565b5f5ffd5b5f5ffd5b7f4e487b71000000000000000000000000000000000000000000000000000000005f52604160045260245ffd5b610bbd826109fa565b810181811067ffffffffffffffff82111715610bdc57610bdb610b87565b5b80604052505050565b5f610bee610889565b9050610bfa8282610bb4565b919050565b5f67ffffffffffffffff821115610c1957610c18610b87565b5b610c22826109fa565b9050602081019050919050565b828183375f83830152505050565b5f610c4f610c4a84610bff565b610be5565b905082815260208101848484011115610c6b57610c6a610b83565b5b610c76848285610c2f565b509392505050565b5f82601f830112610c9257610c91610b7f565b5b8135610ca2848260208601610c3d565b91505092915050565b5f60208284031215610cc057610cbf610892565b5b5f82013567ffffffffffffffff811115610cdd57610cdc610896565b5b610ce984828501610c7e565b91505092915050565b7f4e6f7420612076616c69642073746174757300000000000000000000000000005f82015250565b5f610d266012836109dc565b9150610d3182610cf2565b602082019050919050565b5f6020820190508181035f830152610d5381610d1a565b905091905056fea2646970667358221220c054c5d7d1153fb4217b4fa66808d697984bdab31a29f9f6fb4b56a4e2fb7f3664736f6c634300081e0033",
			"opcodes": "PUSH1 0x80 PUSH1 0x40 MSTORE CALLVALUE DUP1 ISZERO PUSH1 0xE JUMPI PUSH0 PUSH0 REVERT JUMPDEST POP PUSH2 0xD90 DUP1 PUSH2 0x1C PUSH0 CODECOPY PUSH0 RETURN INVALID PUSH1 0x80 PUSH1 0x40 MSTORE CALLVALUE DUP1 ISZERO PUSH2 0xF JUMPI PUSH0 PUSH0 REVERT JUMPDEST POP PUSH1 0x4 CALLDATASIZE LT PUSH2 0x86 JUMPI PUSH0 CALLDATALOAD PUSH1 0xE0 SHR DUP1 PUSH4 0x7340E9BD GT PUSH2 0x59 JUMPI DUP1 PUSH4 0x7340E9BD EQ PUSH2 0x110 JUMPI DUP1 PUSH4 0xB3CD722B EQ PUSH2 0x132 JUMPI DUP1 PUSH4 0xD826F88F EQ PUSH2 0x159 JUMPI DUP1 PUSH4 0xEBF9DCED EQ PUSH2 0x163 JUMPI PUSH2 0x86 JUMP JUMPDEST DUP1 PUSH4 0x2E49D78B EQ PUSH2 0x8A JUMPI DUP1 PUSH4 0x60FE47B1 EQ PUSH2 0xA6 JUMPI DUP1 PUSH4 0x6D4CE63C EQ PUSH2 0xC2 JUMPI DUP1 PUSH4 0x6D7B7FC9 EQ PUSH2 0xE0 JUMPI JUMPDEST PUSH0 PUSH0 REVERT JUMPDEST PUSH2 0xA4 PUSH1 0x4 DUP1 CALLDATASIZE SUB DUP2 ADD SWAP1 PUSH2 0x9F SWAP2 SWAP1 PUSH2 0x8BD JUMP JUMPDEST PUSH2 0x193 JUMP JUMPDEST STOP JUMPDEST PUSH2 0xC0 PUSH1 0x4 DUP1 CALLDATASIZE SUB DUP2 ADD SWAP1 PUSH2 0xBB SWAP2 SWAP1 PUSH2 0x91B JUMP JUMPDEST PUSH2 0x1BE JUMP JUMPDEST STOP JUMPDEST PUSH2 0xCA PUSH2 0x24A JUMP JUMPDEST PUSH1 0x40 MLOAD PUSH2 0xD7 SWAP2 SWAP1 PUSH2 0x9B9 JUMP JUMPDEST PUSH1 0x40 MLOAD DUP1 SWAP2 SUB SWAP1 RETURN JUMPDEST PUSH2 0xFA PUSH1 0x4 DUP1 CALLDATASIZE SUB DUP2 ADD SWAP1 PUSH2 0xF5 SWAP2 SWAP1 PUSH2 0x8BD JUMP JUMPDEST PUSH2 0x25E JUMP JUMPDEST PUSH1 0x40 MLOAD PUSH2 0x107 SWAP2 SWAP1 PUSH2 0xA42 JUMP JUMPDEST PUSH1 0x40 MLOAD DUP1 SWAP2 SUB SWAP1 RETURN JUMPDEST PUSH2 0x118 PUSH2 0x4A9 JUMP JUMPDEST PUSH1 0x40 MLOAD PUSH2 0x129 SWAP6 SWAP5 SWAP4 SWAP3 SWAP2 SWAP1 PUSH2 0xA71 JUMP JUMPDEST PUSH1 0x40 MLOAD DUP1 SWAP2 SUB SWAP1 RETURN JUMPDEST PUSH2 0x13A PUSH2 0x521 JUMP JUMPDEST PUSH1 0x40 MLOAD PUSH2 0x150 SWAP11 SWAP10 SWAP9 SWAP8 SWAP7 SWAP6 SWAP5 SWAP4 SWAP3 SWAP2 SWAP1 PUSH2 0xAC2 JUMP JUMPDEST PUSH1 0x40 MLOAD DUP1 SWAP2 SUB SWAP1 RETURN JUMPDEST PUSH2 0x161 PUSH2 0x6CF JUMP JUMPDEST STOP JUMPDEST PUSH2 0x17D PUSH1 0x4 DUP1 CALLDATASIZE SUB DUP2 ADD SWAP1 PUSH2 0x178 SWAP2 SWAP1 PUSH2 0xCAB JUMP JUMPDEST PUSH2 0x6E1 JUMP JUMPDEST PUSH1 0x40 MLOAD PUSH2 0x18A SWAP2 SWAP1 PUSH2 0x9B9 JUMP JUMPDEST PUSH1 0x40 MLOAD DUP1 SWAP2 SUB SWAP1 RETURN JUMPDEST DUP1 PUSH0 PUSH0 PUSH2 0x100 EXP DUP2 SLOAD DUP2 PUSH1 0xFF MUL NOT AND SWAP1 DUP4 PUSH1 0x4 DUP2 GT ISZERO PUSH2 0x1B6 JUMPI PUSH2 0x1B5 PUSH2 0x946 JUMP JUMPDEST JUMPDEST MUL OR SWAP1 SSTORE POP POP JUMP JUMPDEST PUSH0 DUP2 GT DUP1 ISZERO PUSH2 0x1CE JUMPI POP PUSH1 0x5 DUP2 GT ISZERO JUMPDEST PUSH2 0x20D JUMPI PUSH1 0x40 MLOAD PUSH32 0x8C379A000000000000000000000000000000000000000000000000000000000 DUP2 MSTORE PUSH1 0x4 ADD PUSH2 0x204 SWAP1 PUSH2 0xD3C JUMP JUMPDEST PUSH1 0x40 MLOAD DUP1 SWAP2 SUB SWAP1 REVERT JUMPDEST DUP1 PUSH1 0x4 DUP2 GT ISZERO PUSH2 0x220 JUMPI PUSH2 0x21F PUSH2 0x946 JUMP JUMPDEST JUMPDEST PUSH0 PUSH0 PUSH2 0x100 EXP DUP2 SLOAD DUP2 PUSH1 0xFF MUL NOT AND SWAP1 DUP4 PUSH1 0x4 DUP2 GT ISZERO PUSH2 0x242 JUMPI PUSH2 0x241 PUSH2 0x946 JUMP JUMPDEST JUMPDEST MUL OR SWAP1 SSTORE POP POP JUMP JUMPDEST PUSH0 PUSH0 PUSH0 SWAP1 SLOAD SWAP1 PUSH2 0x100 EXP SWAP1 DIV PUSH1 0xFF AND SWAP1 POP SWAP1 JUMP JUMPDEST PUSH1 0x60 PUSH0 PUSH1 0x4 DUP2 GT ISZERO PUSH2 0x273 JUMPI PUSH2 0x272 PUSH2 0x946 JUMP JUMPDEST JUMPDEST DUP3 PUSH1 0x4 DUP2 GT ISZERO PUSH2 0x286 JUMPI PUSH2 0x285 PUSH2 0x946 JUMP JUMPDEST JUMPDEST SUB PUSH2 0x2C8 JUMPI PUSH1 0x40 MLOAD DUP1 PUSH1 0x40 ADD PUSH1 0x40 MSTORE DUP1 PUSH1 0x7 DUP2 MSTORE PUSH1 0x20 ADD PUSH32 0x50656E64696E6700000000000000000000000000000000000000000000000000 DUP2 MSTORE POP SWAP1 POP PUSH2 0x4A4 JUMP JUMPDEST PUSH1 0x1 PUSH1 0x4 DUP2 GT ISZERO PUSH2 0x2DC JUMPI PUSH2 0x2DB PUSH2 0x946 JUMP JUMPDEST JUMPDEST DUP3 PUSH1 0x4 DUP2 GT ISZERO PUSH2 0x2EF JUMPI PUSH2 0x2EE PUSH2 0x946 JUMP JUMPDEST JUMPDEST SUB PUSH2 0x331 JUMPI PUSH1 0x40 MLOAD DUP1 PUSH1 0x40 ADD PUSH1 0x40 MSTORE DUP1 PUSH1 0x7 DUP2 MSTORE PUSH1 0x20 ADD PUSH32 0x5368697070656400000000000000000000000000000000000000000000000000 DUP2 MSTORE POP SWAP1 POP PUSH2 0x4A4 JUMP JUMPDEST PUSH1 0x2 PUSH1 0x4 DUP2 GT ISZERO PUSH2 0x345 JUMPI PUSH2 0x344 PUSH2 0x946 JUMP JUMPDEST JUMPDEST DUP3 PUSH1 0x4 DUP2 GT ISZERO PUSH2 0x358 JUMPI PUSH2 0x357 PUSH2 0x946 JUMP JUMPDEST JUMPDEST SUB PUSH2 0x39A JUMPI PUSH1 0x40 MLOAD DUP1 PUSH1 0x40 ADD PUSH1 0x40 MSTORE DUP1 PUSH1 0x8 DUP2 MSTORE PUSH1 0x20 ADD PUSH32 0x4163636570746564000000000000000000000000000000000000000000000000 DUP2 MSTORE POP SWAP1 POP PUSH2 0x4A4 JUMP JUMPDEST PUSH1 0x3 PUSH1 0x4 DUP2 GT ISZERO PUSH2 0x3AE JUMPI PUSH2 0x3AD PUSH2 0x946 JUMP JUMPDEST JUMPDEST DUP3 PUSH1 0x4 DUP2 GT ISZERO PUSH2 0x3C1 JUMPI PUSH2 0x3C0 PUSH2 0x946 JUMP JUMPDEST JUMPDEST SUB PUSH2 0x403 JUMPI PUSH1 0x40 MLOAD DUP1 PUSH1 0x40 ADD PUSH1 0x40 MSTORE DUP1 PUSH1 0x8 DUP2 MSTORE PUSH1 0x20 ADD PUSH32 0x52656A6563746564000000000000000000000000000000000000000000000000 DUP2 MSTORE POP SWAP1 POP PUSH2 0x4A4 JUMP JUMPDEST PUSH1 0x4 DUP1 DUP2 GT ISZERO PUSH2 0x416 JUMPI PUSH2 0x415 PUSH2 0x946 JUMP JUMPDEST JUMPDEST DUP3 PUSH1 0x4 DUP2 GT ISZERO PUSH2 0x429 JUMPI PUSH2 0x428 PUSH2 0x946 JUMP JUMPDEST JUMPDEST SUB PUSH2 0x46B JUMPI PUSH1 0x40 MLOAD DUP1 PUSH1 0x40 ADD PUSH1 0x40 MSTORE DUP1 PUSH1 0x8 DUP2 MSTORE PUSH1 0x20 ADD PUSH32 0x43616E63656C6564000000000000000000000000000000000000000000000000 DUP2 MSTORE POP SWAP1 POP PUSH2 0x4A4 JUMP JUMPDEST PUSH1 0x40 MLOAD DUP1 PUSH1 0x40 ADD PUSH1 0x40 MSTORE DUP1 PUSH1 0x7 DUP2 MSTORE PUSH1 0x20 ADD PUSH32 0x556E6B6E6F776E00000000000000000000000000000000000000000000000000 DUP2 MSTORE POP SWAP1 POP JUMPDEST SWAP2 SWAP1 POP JUMP JUMPDEST PUSH0 PUSH0 PUSH0 PUSH0 PUSH0 PUSH0 PUSH1 0x4 DUP2 GT ISZERO PUSH2 0x4C1 JUMPI PUSH2 0x4C0 PUSH2 0x946 JUMP JUMPDEST JUMPDEST PUSH1 0x1 PUSH1 0x4 DUP2 GT ISZERO PUSH2 0x4D5 JUMPI PUSH2 0x4D4 PUSH2 0x946 JUMP JUMPDEST JUMPDEST PUSH1 0x2 PUSH1 0x4 DUP2 GT ISZERO PUSH2 0x4E9 JUMPI PUSH2 0x4E8 PUSH2 0x946 JUMP JUMPDEST JUMPDEST PUSH1 0x3 PUSH1 0x4 DUP2 GT ISZERO PUSH2 0x4FD JUMPI PUSH2 0x4FC PUSH2 0x946 JUMP JUMPDEST JUMPDEST PUSH1 0x4 DUP1 DUP2 GT ISZERO PUSH2 0x510 JUMPI PUSH2 0x50F PUSH2 0x946 JUMP JUMPDEST JUMPDEST SWAP5 POP SWAP5 POP SWAP5 POP SWAP5 POP SWAP5 POP SWAP1 SWAP2 SWAP3 SWAP4 SWAP5 JUMP JUMPDEST PUSH1 0x60 PUSH0 PUSH1 0x60 PUSH0 PUSH1 0x60 PUSH0 PUSH1 0x60 PUSH0 PUSH1 0x60 PUSH0 PUSH0 PUSH1 0x4 DUP2 GT ISZERO PUSH2 0x543 JUMPI PUSH2 0x542 PUSH2 0x946 JUMP JUMPDEST JUMPDEST PUSH1 0x1 PUSH1 0x4 DUP2 GT ISZERO PUSH2 0x557 JUMPI PUSH2 0x556 PUSH2 0x946 JUMP JUMPDEST JUMPDEST PUSH1 0x2 PUSH1 0x4 DUP2 GT ISZERO PUSH2 0x56B JUMPI PUSH2 0x56A PUSH2 0x946 JUMP JUMPDEST JUMPDEST PUSH1 0x3 PUSH1 0x4 DUP2 GT ISZERO PUSH2 0x57F JUMPI PUSH2 0x57E PUSH2 0x946 JUMP JUMPDEST JUMPDEST PUSH1 0x4 DUP1 DUP2 GT ISZERO PUSH2 0x592 JUMPI PUSH2 0x591 PUSH2 0x946 JUMP JUMPDEST JUMPDEST PUSH1 0x40 MLOAD DUP1 PUSH1 0x40 ADD PUSH1 0x40 MSTORE DUP1 PUSH1 0x7 DUP2 MSTORE PUSH1 0x20 ADD PUSH32 0x50656E64696E6700000000000000000000000000000000000000000000000000 DUP2 MSTORE POP SWAP5 SWAP4 SWAP3 SWAP2 SWAP1 PUSH1 0x40 MLOAD DUP1 PUSH1 0x40 ADD PUSH1 0x40 MSTORE DUP1 PUSH1 0x7 DUP2 MSTORE PUSH1 0x20 ADD PUSH32 0x5368697070656400000000000000000000000000000000000000000000000000 DUP2 MSTORE POP SWAP4 SWAP3 SWAP2 SWAP1 PUSH1 0x40 MLOAD DUP1 PUSH1 0x40 ADD PUSH1 0x40 MSTORE DUP1 PUSH1 0x8 DUP2 MSTORE PUSH1 0x20 ADD PUSH32 0x4163636570746564000000000000000000000000000000000000000000000000 DUP2 MSTORE POP SWAP3 SWAP2 SWAP1 PUSH1 0x40 MLOAD DUP1 PUSH1 0x40 ADD PUSH1 0x40 MSTORE DUP1 PUSH1 0x8 DUP2 MSTORE PUSH1 0x20 ADD PUSH32 0x52656A6563746564000000000000000000000000000000000000000000000000 DUP2 MSTORE POP SWAP2 SWAP1 PUSH1 0x40 MLOAD DUP1 PUSH1 0x40 ADD PUSH1 0x40 MSTORE DUP1 PUSH1 0x8 DUP2 MSTORE PUSH1 0x20 ADD PUSH32 0x43616E63656C6564000000000000000000000000000000000000000000000000 DUP2 MSTORE POP SWAP1 SWAP10 POP SWAP10 POP SWAP10 POP SWAP10 POP SWAP10 POP SWAP10 POP SWAP10 POP SWAP10 POP SWAP10 POP SWAP10 POP SWAP1 SWAP2 SWAP3 SWAP4 SWAP5 SWAP6 SWAP7 SWAP8 SWAP9 SWAP10 JUMP JUMPDEST PUSH0 PUSH0 PUSH2 0x100 EXP DUP2 SLOAD SWAP1 PUSH1 0xFF MUL NOT AND SWAP1 SSTORE JUMP JUMPDEST PUSH0 PUSH1 0x40 MLOAD DUP1 PUSH1 0x40 ADD PUSH1 0x40 MSTORE DUP1 PUSH1 0x7 DUP2 MSTORE PUSH1 0x20 ADD PUSH32 0x50656E64696E6700000000000000000000000000000000000000000000000000 DUP2 MSTORE POP DUP1 MLOAD SWAP1 PUSH1 0x20 ADD KECCAK256 DUP3 DUP1 MLOAD SWAP1 PUSH1 0x20 ADD KECCAK256 SUB PUSH2 0x734 JUMPI PUSH0 SWAP1 POP PUSH2 0x884 JUMP JUMPDEST PUSH1 0x40 MLOAD DUP1 PUSH1 0x40 ADD PUSH1 0x40 MSTORE DUP1 PUSH1 0x7 DUP2 MSTORE PUSH1 0x20 ADD PUSH32 0x5368697070656400000000000000000000000000000000000000000000000000 DUP2 MSTORE POP DUP1 MLOAD SWAP1 PUSH1 0x20 ADD KECCAK256 DUP3 DUP1 MLOAD SWAP1 PUSH1 0x20 ADD KECCAK256 SUB PUSH2 0x787 JUMPI PUSH1 0x1 SWAP1 POP PUSH2 0x884 JUMP JUMPDEST PUSH1 0x40 MLOAD DUP1 PUSH1 0x40 ADD PUSH1 0x40 MSTORE DUP1 PUSH1 0x8 DUP2 MSTORE PUSH1 0x20 ADD PUSH32 0x4163636570746564000000000000000000000000000000000000000000000000 DUP2 MSTORE POP DUP1 MLOAD SWAP1 PUSH1 0x20 ADD KECCAK256 DUP3 DUP1 MLOAD SWAP1 PUSH1 0x20 ADD KECCAK256 SUB PUSH2 0x7DA JUMPI PUSH1 0x2 SWAP1 POP PUSH2 0x884 JUMP JUMPDEST PUSH1 0x40 MLOAD DUP1 PUSH1 0x40 ADD PUSH1 0x40 MSTORE DUP1 PUSH1 0x8 DUP2 MSTORE PUSH1 0x20 ADD PUSH32 0x52656A6563746564000000000000000000000000000000000000000000000000 DUP2 MSTORE POP DUP1 MLOAD SWAP1 PUSH1 0x20 ADD KECCAK256 DUP3 DUP1 MLOAD SWAP1 PUSH1 0x20 ADD KECCAK256 SUB PUSH2 0x82D JUMPI PUSH1 0x3 SWAP1 POP PUSH2 0x884 JUMP JUMPDEST PUSH1 0x40 MLOAD DUP1 PUSH1 0x40 ADD PUSH1 0x40 MSTORE DUP1 PUSH1 0x8 DUP2 MSTORE PUSH1 0x20 ADD PUSH32 0x43616E63656C6564000000000000000000000000000000000000000000000000 DUP2 MSTORE POP DUP1 MLOAD SWAP1 PUSH1 0x20 ADD KECCAK256 DUP3 DUP1 MLOAD SWAP1 PUSH1 0x20 ADD KECCAK256 SUB PUSH2 0x880 JUMPI PUSH1 0x4 SWAP1 POP PUSH2 0x884 JUMP JUMPDEST PUSH0 PUSH0 REVERT JUMPDEST SWAP2 SWAP1 POP JUMP JUMPDEST PUSH0 PUSH1 0x40 MLOAD SWAP1 POP SWAP1 JUMP JUMPDEST PUSH0 PUSH0 REVERT JUMPDEST PUSH0 PUSH0 REVERT JUMPDEST PUSH1 0x5 DUP2 LT PUSH2 0x8A6 JUMPI PUSH0 PUSH0 REVERT JUMPDEST POP JUMP JUMPDEST PUSH0 DUP2 CALLDATALOAD SWAP1 POP PUSH2 0x8B7 DUP2 PUSH2 0x89A JUMP JUMPDEST SWAP3 SWAP2 POP POP JUMP JUMPDEST PUSH0 PUSH1 0x20 DUP3 DUP5 SUB SLT ISZERO PUSH2 0x8D2 JUMPI PUSH2 0x8D1 PUSH2 0x892 JUMP JUMPDEST JUMPDEST PUSH0 PUSH2 0x8DF DUP5 DUP3 DUP6 ADD PUSH2 0x8A9 JUMP JUMPDEST SWAP2 POP POP SWAP3 SWAP2 POP POP JUMP JUMPDEST PUSH0 DUP2 SWAP1 POP SWAP2 SWAP1 POP JUMP JUMPDEST PUSH2 0x8FA DUP2 PUSH2 0x8E8 JUMP JUMPDEST DUP2 EQ PUSH2 0x904 JUMPI PUSH0 PUSH0 REVERT JUMPDEST POP JUMP JUMPDEST PUSH0 DUP2 CALLDATALOAD SWAP1 POP PUSH2 0x915 DUP2 PUSH2 0x8F1 JUMP JUMPDEST SWAP3 SWAP2 POP POP JUMP JUMPDEST PUSH0 PUSH1 0x20 DUP3 DUP5 SUB SLT ISZERO PUSH2 0x930 JUMPI PUSH2 0x92F PUSH2 0x892 JUMP JUMPDEST JUMPDEST PUSH0 PUSH2 0x93D DUP5 DUP3 DUP6 ADD PUSH2 0x907 JUMP JUMPDEST SWAP2 POP POP SWAP3 SWAP2 POP POP JUMP JUMPDEST PUSH32 0x4E487B7100000000000000000000000000000000000000000000000000000000 PUSH0 MSTORE PUSH1 0x21 PUSH1 0x4 MSTORE PUSH1 0x24 PUSH0 REVERT JUMPDEST PUSH1 0x5 DUP2 LT PUSH2 0x984 JUMPI PUSH2 0x983 PUSH2 0x946 JUMP JUMPDEST JUMPDEST POP JUMP JUMPDEST PUSH0 DUP2 SWAP1 POP PUSH2 0x994 DUP3 PUSH2 0x973 JUMP JUMPDEST SWAP2 SWAP1 POP JUMP JUMPDEST PUSH0 PUSH2 0x9A3 DUP3 PUSH2 0x987 JUMP JUMPDEST SWAP1 POP SWAP2 SWAP1 POP JUMP JUMPDEST PUSH2 0x9B3 DUP2 PUSH2 0x999 JUMP JUMPDEST DUP3 MSTORE POP POP JUMP JUMPDEST PUSH0 PUSH1 0x20 DUP3 ADD SWAP1 POP PUSH2 0x9CC PUSH0 DUP4 ADD DUP5 PUSH2 0x9AA JUMP JUMPDEST SWAP3 SWAP2 POP POP JUMP JUMPDEST PUSH0 DUP2 MLOAD SWAP1 POP SWAP2 SWAP1 POP JUMP JUMPDEST PUSH0 DUP3 DUP3 MSTORE PUSH1 0x20 DUP3 ADD SWAP1 POP SWAP3 SWAP2 POP POP JUMP JUMPDEST DUP3 DUP2 DUP4 MCOPY PUSH0 DUP4 DUP4 ADD MSTORE POP POP POP JUMP JUMPDEST PUSH0 PUSH1 0x1F NOT PUSH1 0x1F DUP4 ADD AND SWAP1 POP SWAP2 SWAP1 POP JUMP JUMPDEST PUSH0 PUSH2 0xA14 DUP3 PUSH2 0x9D2 JUMP JUMPDEST PUSH2 0xA1E DUP2 DUP6 PUSH2 0x9DC JUMP JUMPDEST SWAP4 POP PUSH2 0xA2E DUP2 DUP6 PUSH1 0x20 DUP7 ADD PUSH2 0x9EC JUMP JUMPDEST PUSH2 0xA37 DUP2 PUSH2 0x9FA JUMP JUMPDEST DUP5 ADD SWAP2 POP POP SWAP3 SWAP2 POP POP JUMP JUMPDEST PUSH0 PUSH1 0x20 DUP3 ADD SWAP1 POP DUP2 DUP2 SUB PUSH0 DUP4 ADD MSTORE PUSH2 0xA5A DUP2 DUP5 PUSH2 0xA0A JUMP JUMPDEST SWAP1 POP SWAP3 SWAP2 POP POP JUMP JUMPDEST PUSH2 0xA6B DUP2 PUSH2 0x8E8 JUMP JUMPDEST DUP3 MSTORE POP POP JUMP JUMPDEST PUSH0 PUSH1 0xA0 DUP3 ADD SWAP1 POP PUSH2 0xA84 PUSH0 DUP4 ADD DUP9 PUSH2 0xA62 JUMP JUMPDEST PUSH2 0xA91 PUSH1 0x20 DUP4 ADD DUP8 PUSH2 0xA62 JUMP JUMPDEST PUSH2 0xA9E PUSH1 0x40 DUP4 ADD DUP7 PUSH2 0xA62 JUMP JUMPDEST PUSH2 0xAAB PUSH1 0x60 DUP4 ADD DUP6 PUSH2 0xA62 JUMP JUMPDEST PUSH2 0xAB8 PUSH1 0x80 DUP4 ADD DUP5 PUSH2 0xA62 JUMP JUMPDEST SWAP7 SWAP6 POP POP POP POP POP POP JUMP JUMPDEST PUSH0 PUSH2 0x140 DUP3 ADD SWAP1 POP DUP2 DUP2 SUB PUSH0 DUP4 ADD MSTORE PUSH2 0xADB DUP2 DUP14 PUSH2 0xA0A JUMP JUMPDEST SWAP1 POP PUSH2 0xAEA PUSH1 0x20 DUP4 ADD DUP13 PUSH2 0xA62 JUMP JUMPDEST DUP2 DUP2 SUB PUSH1 0x40 DUP4 ADD MSTORE PUSH2 0xAFC DUP2 DUP12 PUSH2 0xA0A JUMP JUMPDEST SWAP1 POP PUSH2 0xB0B PUSH1 0x60 DUP4 ADD DUP11 PUSH2 0xA62 JUMP JUMPDEST DUP2 DUP2 SUB PUSH1 0x80 DUP4 ADD MSTORE PUSH2 0xB1D DUP2 DUP10 PUSH2 0xA0A JUMP JUMPDEST SWAP1 POP PUSH2 0xB2C PUSH1 0xA0 DUP4 ADD DUP9 PUSH2 0xA62 JUMP JUMPDEST DUP2 DUP2 SUB PUSH1 0xC0 DUP4 ADD MSTORE PUSH2 0xB3E DUP2 DUP8 PUSH2 0xA0A JUMP JUMPDEST SWAP1 POP PUSH2 0xB4D PUSH1 0xE0 DUP4 ADD DUP7 PUSH2 0xA62 JUMP JUMPDEST DUP2 DUP2 SUB PUSH2 0x100 DUP4 ADD MSTORE PUSH2 0xB60 DUP2 DUP6 PUSH2 0xA0A JUMP JUMPDEST SWAP1 POP PUSH2 0xB70 PUSH2 0x120 DUP4 ADD DUP5 PUSH2 0xA62 JUMP JUMPDEST SWAP12 SWAP11 POP POP POP POP POP POP POP POP POP POP POP JUMP JUMPDEST PUSH0 PUSH0 REVERT JUMPDEST PUSH0 PUSH0 REVERT JUMPDEST PUSH32 0x4E487B7100000000000000000000000000000000000000000000000000000000 PUSH0 MSTORE PUSH1 0x41 PUSH1 0x4 MSTORE PUSH1 0x24 PUSH0 REVERT JUMPDEST PUSH2 0xBBD DUP3 PUSH2 0x9FA JUMP JUMPDEST DUP2 ADD DUP2 DUP2 LT PUSH8 0xFFFFFFFFFFFFFFFF DUP3 GT OR ISZERO PUSH2 0xBDC JUMPI PUSH2 0xBDB PUSH2 0xB87 JUMP JUMPDEST JUMPDEST DUP1 PUSH1 0x40 MSTORE POP POP POP JUMP JUMPDEST PUSH0 PUSH2 0xBEE PUSH2 0x889 JUMP JUMPDEST SWAP1 POP PUSH2 0xBFA DUP3 DUP3 PUSH2 0xBB4 JUMP JUMPDEST SWAP2 SWAP1 POP JUMP JUMPDEST PUSH0 PUSH8 0xFFFFFFFFFFFFFFFF DUP3 GT ISZERO PUSH2 0xC19 JUMPI PUSH2 0xC18 PUSH2 0xB87 JUMP JUMPDEST JUMPDEST PUSH2 0xC22 DUP3 PUSH2 0x9FA JUMP JUMPDEST SWAP1 POP PUSH1 0x20 DUP2 ADD SWAP1 POP SWAP2 SWAP1 POP JUMP JUMPDEST DUP3 DUP2 DUP4 CALLDATACOPY PUSH0 DUP4 DUP4 ADD MSTORE POP POP POP JUMP JUMPDEST PUSH0 PUSH2 0xC4F PUSH2 0xC4A DUP5 PUSH2 0xBFF JUMP JUMPDEST PUSH2 0xBE5 JUMP JUMPDEST SWAP1 POP DUP3 DUP2 MSTORE PUSH1 0x20 DUP2 ADD DUP5 DUP5 DUP5 ADD GT ISZERO PUSH2 0xC6B JUMPI PUSH2 0xC6A PUSH2 0xB83 JUMP JUMPDEST JUMPDEST PUSH2 0xC76 DUP5 DUP3 DUP6 PUSH2 0xC2F JUMP JUMPDEST POP SWAP4 SWAP3 POP POP POP JUMP JUMPDEST PUSH0 DUP3 PUSH1 0x1F DUP4 ADD SLT PUSH2 0xC92 JUMPI PUSH2 0xC91 PUSH2 0xB7F JUMP JUMPDEST JUMPDEST DUP2 CALLDATALOAD PUSH2 0xCA2 DUP5 DUP3 PUSH1 0x20 DUP7 ADD PUSH2 0xC3D JUMP JUMPDEST SWAP2 POP POP SWAP3 SWAP2 POP POP JUMP JUMPDEST PUSH0 PUSH1 0x20 DUP3 DUP5 SUB SLT ISZERO PUSH2 0xCC0 JUMPI PUSH2 0xCBF PUSH2 0x892 JUMP JUMPDEST JUMPDEST PUSH0 DUP3 ADD CALLDATALOAD PUSH8 0xFFFFFFFFFFFFFFFF DUP2 GT ISZERO PUSH2 0xCDD JUMPI PUSH2 0xCDC PUSH2 0x896 JUMP JUMPDEST JUMPDEST PUSH2 0xCE9 DUP5 DUP3 DUP6 ADD PUSH2 0xC7E JUMP JUMPDEST SWAP2 POP POP SWAP3 SWAP2 POP POP JUMP JUMPDEST PUSH32 0x4E6F7420612076616C6964207374617475730000000000000000000000000000 PUSH0 DUP3 ADD MSTORE POP JUMP JUMPDEST PUSH0 PUSH2 0xD26 PUSH1 0x12 DUP4 PUSH2 0x9DC JUMP JUMPDEST SWAP2 POP PUSH2 0xD31 DUP3 PUSH2 0xCF2 JUMP JUMPDEST PUSH1 0x20 DUP3 ADD SWAP1 POP SWAP2 SWAP1 POP JUMP JUMPDEST PUSH0 PUSH1 0x20 DUP3 ADD SWAP1 POP DUP2 DUP2 SUB PUSH0 DUP4 ADD MSTORE PUSH2 0xD53 DUP2 PUSH2 0xD1A JUMP JUMPDEST SWAP1 POP SWAP2 SWAP1 POP JUMP INVALID LOG2 PUSH5 0x6970667358 0x22 SLT KECCAK256 0xC0 SLOAD 0xC5 0xD7 DATALOADN 0x153F 0xB4 0x21 PUSH28 0x4FA66808D697984BDAB31A29F9F6FB4B56A4E2FB7F3664736F6C6343 STOP ADDMOD 0x1E STOP CALLER "
		},
		"gasEstimates": {
			"creation": {
				"codeDepositCost": "694400",
				"executionCost": "726",
				"totalCost": "695126"
			},
			"external": {
				"StringTostatus(string)": "infinite",
				"get()": "2605",
				"reset()": "24427",
				"set(uint256)": "24791",
				"setStatus(uint8)": "24645",
				"showEnumMapping()": "infinite",
				"statusToString(uint8)": "infinite",
				"testEnumValues()": "infinite"
			}
		},
		"methodIdentifiers": {
			"StringTostatus(string)": "ebf9dced",
			"get()": "6d4ce63c",
			"reset()": "d826f88f",
			"set(uint256)": "60fe47b1",
			"setStatus(uint8)": "2e49d78b",
			"showEnumMapping()": "b3cd722b",
			"statusToString(uint8)": "6d7b7fc9",
			"testEnumValues()": "7340e9bd"
		}
	},
	"abi": [
		{
			"inputs": [
				{
					"internalType": "string",
					"name": "_status",
					"type": "string"
				}
			],
			"name": "StringTostatus",
			"outputs": [
				{
					"internalType": "enum ExampleEnum.Status",
					"name": "",
					"type": "uint8"
				}
			],
			"stateMutability": "pure",
			"type": "function"
		},
		{
			"inputs": [],
			"name": "get",
			"outputs": [
				{
					"internalType": "enum ExampleEnum.Status",
					"name": "",
					"type": "uint8"
				}
			],
			"stateMutability": "view",
			"type": "function"
		},
		{
			"inputs": [],
			"name": "reset",
			"outputs": [],
			"stateMutability": "nonpayable",
			"type": "function"
		},
		{
			"inputs": [
				{
					"internalType": "uint256",
					"name": "_status",
					"type": "uint256"
				}
			],
			"name": "set",
			"outputs": [],
			"stateMutability": "nonpayable",
			"type": "function"
		},
		{
			"inputs": [
				{
					"internalType": "enum ExampleEnum.Status",
					"name": "_status",
					"type": "uint8"
				}
			],
			"name": "setStatus",
			"outputs": [],
			"stateMutability": "nonpayable",
			"type": "function"
		},
		{
			"inputs": [],
			"name": "showEnumMapping",
			"outputs": [
				{
					"internalType": "string",
					"name": "key0",
					"type": "string"
				},
				{
					"internalType": "uint256",
					"name": "value0",
					"type": "uint256"
				},
				{
					"internalType": "string",
					"name": "key1",
					"type": "string"
				},
				{
					"internalType": "uint256",
					"name": "value1",
					"type": "uint256"
				},
				{
					"internalType": "string",
					"name": "key2",
					"type": "string"
				},
				{
					"internalType": "uint256",
					"name": "value2",
					"type": "uint256"
				},
				{
					"internalType": "string",
					"name": "key3",
					"type": "string"
				},
				{
					"internalType": "uint256",
					"name": "value3",
					"type": "uint256"
				},
				{
					"internalType": "string",
					"name": "key4",
					"type": "string"
				},
				{
					"internalType": "uint256",
					"name": "value4",
					"type": "uint256"
				}
			],
			"stateMutability": "pure",
			"type": "function"
		},
		{
			"inputs": [
				{
					"internalType": "enum ExampleEnum.Status",
					"name": "_status",
					"type": "uint8"
				}
			],
			"name": "statusToString",
			"outputs": [
				{
					"internalType": "string",
					"name": "",
					"type": "string"
				}
			],
			"stateMutability": "pure",
			"type": "function"
		},
		{
			"inputs": [],
			"name": "testEnumValues",
			"outputs": [
				{
					"internalType": "uint256",
					"name": "",
					"type": "uint256"
				},
				{
					"internalType": "uint256",
					"name": "",
					"type": "uint256"
				},
				{
					"internalType": "uint256",
					"name": "",
					"type": "uint256"
				},
				{
					"internalType": "uint256",
					"name": "",
					"type": "uint256"
				},
				{
					"internalType": "uint256",
					"name": "",
					"type": "uint256"
				}
			],
			"stateMutability": "pure",
			"type": "function"
		}
	]
}