{
	"data": {
		"bytecode": {
			"linkReferences": {},
			"object": "6080604052335f806101000a81548173ffffffffffffffffffffffffffffffffffffffff021916908373ffffffffffffffffffffffffffffffffffffffff16021790555034801561004e575f80fd5b506102268061005c5f395ff3fe608060405234801561000f575f80fd5b5060043610610029575f3560e01c8063e850497a1461002d575b5f80fd5b610035610037565b005b5f8054906101000a900473ffffffffffffffffffffffffffffffffffffffff1673ffffffffffffffffffffffffffffffffffffffff163373ffffffffffffffffffffffffffffffffffffffff16146100c657336040517f09ab81ed0000000000000000000000000000000000000000000000000000000081526004016100bd91906101c4565b60405180910390fd5b5f8054906101000a900473ffffffffffffffffffffffffffffffffffffffff1673ffffffffffffffffffffffffffffffffffffffff166108fc4790811502906040515f60405180830381858888f19350505050158015610128573d5f803e3d5ffd5b50565b5f82825260208201905092915050565b7f696e76616c6964207573657200000000000000000000000000000000000000005f82015250565b5f61016f600c8361012b565b915061017a8261013b565b602082019050919050565b5f73ffffffffffffffffffffffffffffffffffffffff82169050919050565b5f6101ae82610185565b9050919050565b6101be816101a4565b82525050565b5f6040820190508181035f8301526101db81610163565b90506101ea60208301846101b5565b9291505056fea2646970667358221220cd5ff3d731b555bb2abaa523644112605fc0dff17e74f316eee3e0713329c06064736f6c63430008160033",
			"opcodes": "PUSH1 0x80 PUSH1 0x40 MSTORE CALLER PUSH0 DUP1 PUSH2 0x100 EXP DUP2 SLOAD DUP2 PUSH20 0xFFFFFFFFFFFFFFFFFFFFFFFFFFFFFFFFFFFFFFFF MUL NOT AND SWAP1 DUP4 PUSH20 0xFFFFFFFFFFFFFFFFFFFFFFFFFFFFFFFFFFFFFFFF AND MUL OR SWAP1 SSTORE POP CALLVALUE DUP1 ISZERO PUSH2 0x4E JUMPI PUSH0 DUP1 REVERT JUMPDEST POP PUSH2 0x226 DUP1 PUSH2 0x5C PUSH0 CODECOPY PUSH0 RETURN INVALID PUSH1 0x80 PUSH1 0x40 MSTORE CALLVALUE DUP1 ISZERO PUSH2 0xF JUMPI PUSH0 DUP1 REVERT JUMPDEST POP PUSH1 0x4 CALLDATASIZE LT PUSH2 0x29 JUMPI PUSH0 CALLDATALOAD PUSH1 0xE0 SHR DUP1 PUSH4 0xE850497A EQ PUSH2 0x2D JUMPI JUMPDEST PUSH0 DUP1 REVERT JUMPDEST PUSH2 0x35 PUSH2 0x37 JUMP JUMPDEST STOP JUMPDEST PUSH0 DUP1 SLOAD SWAP1 PUSH2 0x100 EXP SWAP1 DIV PUSH20 0xFFFFFFFFFFFFFFFFFFFFFFFFFFFFFFFFFFFFFFFF AND PUSH20 0xFFFFFFFFFFFFFFFFFFFFFFFFFFFFFFFFFFFFFFFF AND CALLER PUSH20 0xFFFFFFFFFFFFFFFFFFFFFFFFFFFFFFFFFFFFFFFF AND EQ PUSH2 0xC6 JUMPI CALLER PUSH1 0x40 MLOAD PUSH32 0x9AB81ED00000000000000000000000000000000000000000000000000000000 DUP2 MSTORE PUSH1 0x4 ADD PUSH2 0xBD SWAP2 SWAP1 PUSH2 0x1C4 JUMP JUMPDEST PUSH1 0x40 MLOAD DUP1 SWAP2 SUB SWAP1 REVERT JUMPDEST PUSH0 DUP1 SLOAD SWAP1 PUSH2 0x100 EXP SWAP1 DIV PUSH20 0xFFFFFFFFFFFFFFFFFFFFFFFFFFFFFFFFFFFFFFFF AND PUSH20 0xFFFFFFFFFFFFFFFFFFFFFFFFFFFFFFFFFFFFFFFF AND PUSH2 0x8FC SELFBALANCE SWAP1 DUP2 ISZERO MUL SWAP1 PUSH1 0x40 MLOAD PUSH0 PUSH1 0x40 MLOAD DUP1 DUP4 SUB DUP2 DUP6 DUP9 DUP9 CALL SWAP4 POP POP POP POP ISZERO DUP1 ISZERO PUSH2 0x128 JUMPI RETURNDATASIZE PUSH0 DUP1 RETURNDATACOPY RETURNDATASIZE PUSH0 REVERT JUMPDEST POP JUMP JUMPDEST PUSH0 DUP3 DUP3 MSTORE PUSH1 0x20 DUP3 ADD SWAP1 POP SWAP3 SWAP2 POP POP JUMP JUMPDEST PUSH32 0x696E76616C696420757365720000000000000000000000000000000000000000 PUSH0 DUP3 ADD MSTORE POP JUMP JUMPDEST PUSH0 PUSH2 0x16F PUSH1 0xC DUP4 PUSH2 0x12B JUMP JUMPDEST SWAP2 POP PUSH2 0x17A DUP3 PUSH2 0x13B JUMP JUMPDEST PUSH1 0x20 DUP3 ADD SWAP1 POP SWAP2 SWAP1 POP JUMP JUMPDEST PUSH0 PUSH20 0xFFFFFFFFFFFFFFFFFFFFFFFFFFFFFFFFFFFFFFFF DUP3 AND SWAP1 POP SWAP2 SWAP1 POP JUMP JUMPDEST PUSH0 PUSH2 0x1AE DUP3 PUSH2 0x185 JUMP JUMPDEST SWAP1 POP SWAP2 SWAP1 POP JUMP JUMPDEST PUSH2 0x1BE DUP2 PUSH2 0x1A4 JUMP JUMPDEST DUP3 MSTORE POP POP JUMP JUMPDEST PUSH0 PUSH1 0x40 DUP3 ADD SWAP1 POP DUP2 DUP2 SUB PUSH0 DUP4 ADD MSTORE PUSH2 0x1DB DUP2 PUSH2 0x163 JUMP JUMPDEST SWAP1 POP PUSH2 0x1EA PUSH1 0x20 DUP4 ADD DUP5 PUSH2 0x1B5 JUMP JUMPDEST SWAP3 SWAP2 POP POP JUMP INVALID LOG2 PUSH5 0x6970667358 0x22 SLT KECCAK256 0xCD PUSH0 RETURN 0xD7 BALANCE 0xB5 SSTORE 0xBB 0x2A 0xBA 0xA5 0x23 PUSH5 0x4112605FC0 0xDF CALL PUSH31 0x74F316EEE3E0713329C06064736F6C63430008160033000000000000000000 "
		},
		"gasEstimates": {
			"creation": {
				"codeDepositCost": "110000",
				"executionCost": "24422",
				"totalCost": "134422"
			},
			"external": {
				"withraw()": "infinite"
			}
		},
		"methodIdentifiers": {
			"withraw()": "e850497a"
		}
	},
	"abi": [
		{
			"inputs": [
				{
					"internalType": "string",
					"name": "error",
					"type": "string"
				},
				{
					"internalType": "address",
					"name": "_address",
					"type": "address"
				}
			],
			"name": "Unauthorized",
			"type": "error"
		},
		{
			"inputs": [],
			"name": "withraw",
			"outputs": [],
			"stateMutability": "nonpayable",
			"type": "function"
		}
	]
}