{
	"data": {
		"bytecode": {
			"linkReferences": {},
			"object": "6080604052348015600e575f5ffd5b50335f5f6101000a81548173ffffffffffffffffffffffffffffffffffffffff021916908373ffffffffffffffffffffffffffffffffffffffff1602179055506103218061005b5f395ff3fe608060405234801561000f575f5ffd5b5060043610610060575f3560e01c806312065fe01461006457806332a2c5d0146100845780634d6849d2146100a2578063893d20e8146100d25780638da5cb5b146100f0578063e97afe391461010e575b5f5ffd5b61006c61012c565b60405161007b93929190610205565b60405180910390f35b61008c61018b565b6040516100999190610279565b60405180910390f35b6100bc60048036038101906100b791906102c0565b610192565b6040516100c99190610279565b60405180910390f35b6100da61019b565b6040516100e79190610279565b60405180910390f35b6100f86101c2565b6040516101059190610279565b60405180910390f35b6101166101e6565b6040516101239190610279565b60405180910390f35b5f5f5f475f5f9054906101000a900473ffffffffffffffffffffffffffffffffffffffff1673ffffffffffffffffffffffffffffffffffffffff16313373ffffffffffffffffffffffffffffffffffffffff1631925092509250909192565b5f30905090565b5f819050919050565b5f5f5f9054906101000a900473ffffffffffffffffffffffffffffffffffffffff16905090565b5f5f9054906101000a900473ffffffffffffffffffffffffffffffffffffffff1681565b5f33905090565b5f819050919050565b6101ff816101ed565b82525050565b5f6060820190506102185f8301866101f6565b61022560208301856101f6565b61023260408301846101f6565b949350505050565b5f73ffffffffffffffffffffffffffffffffffffffff82169050919050565b5f6102638261023a565b9050919050565b61027381610259565b82525050565b5f60208201905061028c5f83018461026a565b92915050565b5f5ffd5b61029f81610259565b81146102a9575f5ffd5b50565b5f813590506102ba81610296565b92915050565b5f602082840312156102d5576102d4610292565b5b5f6102e2848285016102ac565b9150509291505056fea26469706673582212206677b47af781c597deabf95ee2c427d31a21b837db2f3c36ca1dd6df150a618464736f6c634300081e0033",
			"opcodes": "PUSH1 0x80 PUSH1 0x40 MSTORE CALLVALUE DUP1 ISZERO PUSH1 0xE JUMPI PUSH0 PUSH0 REVERT JUMPDEST POP CALLER PUSH0 PUSH0 PUSH2 0x100 EXP DUP2 SLOAD DUP2 PUSH20 0xFFFFFFFFFFFFFFFFFFFFFFFFFFFFFFFFFFFFFFFF MUL NOT AND SWAP1 DUP4 PUSH20 0xFFFFFFFFFFFFFFFFFFFFFFFFFFFFFFFFFFFFFFFF AND MUL OR SWAP1 SSTORE POP PUSH2 0x321 DUP1 PUSH2 0x5B PUSH0 CODECOPY PUSH0 RETURN INVALID PUSH1 0x80 PUSH1 0x40 MSTORE CALLVALUE DUP1 ISZERO PUSH2 0xF JUMPI PUSH0 PUSH0 REVERT JUMPDEST POP PUSH1 0x4 CALLDATASIZE LT PUSH2 0x60 JUMPI PUSH0 CALLDATALOAD PUSH1 0xE0 SHR DUP1 PUSH4 0x12065FE0 EQ PUSH2 0x64 JUMPI DUP1 PUSH4 0x32A2C5D0 EQ PUSH2 0x84 JUMPI DUP1 PUSH4 0x4D6849D2 EQ PUSH2 0xA2 JUMPI DUP1 PUSH4 0x893D20E8 EQ PUSH2 0xD2 JUMPI DUP1 PUSH4 0x8DA5CB5B EQ PUSH2 0xF0 JUMPI DUP1 PUSH4 0xE97AFE39 EQ PUSH2 0x10E JUMPI JUMPDEST PUSH0 PUSH0 REVERT JUMPDEST PUSH2 0x6C PUSH2 0x12C JUMP JUMPDEST PUSH1 0x40 MLOAD PUSH2 0x7B SWAP4 SWAP3 SWAP2 SWAP1 PUSH2 0x205 JUMP JUMPDEST PUSH1 0x40 MLOAD DUP1 SWAP2 SUB SWAP1 RETURN JUMPDEST PUSH2 0x8C PUSH2 0x18B JUMP JUMPDEST PUSH1 0x40 MLOAD PUSH2 0x99 SWAP2 SWAP1 PUSH2 0x279 JUMP JUMPDEST PUSH1 0x40 MLOAD DUP1 SWAP2 SUB SWAP1 RETURN JUMPDEST PUSH2 0xBC PUSH1 0x4 DUP1 CALLDATASIZE SUB DUP2 ADD SWAP1 PUSH2 0xB7 SWAP2 SWAP1 PUSH2 0x2C0 JUMP JUMPDEST PUSH2 0x192 JUMP JUMPDEST PUSH1 0x40 MLOAD PUSH2 0xC9 SWAP2 SWAP1 PUSH2 0x279 JUMP JUMPDEST PUSH1 0x40 MLOAD DUP1 SWAP2 SUB SWAP1 RETURN JUMPDEST PUSH2 0xDA PUSH2 0x19B JUMP JUMPDEST PUSH1 0x40 MLOAD PUSH2 0xE7 SWAP2 SWAP1 PUSH2 0x279 JUMP JUMPDEST PUSH1 0x40 MLOAD DUP1 SWAP2 SUB SWAP1 RETURN JUMPDEST PUSH2 0xF8 PUSH2 0x1C2 JUMP JUMPDEST PUSH1 0x40 MLOAD PUSH2 0x105 SWAP2 SWAP1 PUSH2 0x279 JUMP JUMPDEST PUSH1 0x40 MLOAD DUP1 SWAP2 SUB SWAP1 RETURN JUMPDEST PUSH2 0x116 PUSH2 0x1E6 JUMP JUMPDEST PUSH1 0x40 MLOAD PUSH2 0x123 SWAP2 SWAP1 PUSH2 0x279 JUMP JUMPDEST PUSH1 0x40 MLOAD DUP1 SWAP2 SUB SWAP1 RETURN JUMPDEST PUSH0 PUSH0 PUSH0 SELFBALANCE PUSH0 PUSH0 SWAP1 SLOAD SWAP1 PUSH2 0x100 EXP SWAP1 DIV PUSH20 0xFFFFFFFFFFFFFFFFFFFFFFFFFFFFFFFFFFFFFFFF AND PUSH20 0xFFFFFFFFFFFFFFFFFFFFFFFFFFFFFFFFFFFFFFFF AND BALANCE CALLER PUSH20 0xFFFFFFFFFFFFFFFFFFFFFFFFFFFFFFFFFFFFFFFF AND BALANCE SWAP3 POP SWAP3 POP SWAP3 POP SWAP1 SWAP2 SWAP3 JUMP JUMPDEST PUSH0 ADDRESS SWAP1 POP SWAP1 JUMP JUMPDEST PUSH0 DUP2 SWAP1 POP SWAP2 SWAP1 POP JUMP JUMPDEST PUSH0 PUSH0 PUSH0 SWAP1 SLOAD SWAP1 PUSH2 0x100 EXP SWAP1 DIV PUSH20 0xFFFFFFFFFFFFFFFFFFFFFFFFFFFFFFFFFFFFFFFF AND SWAP1 POP SWAP1 JUMP JUMPDEST PUSH0 PUSH0 SWAP1 SLOAD SWAP1 PUSH2 0x100 EXP SWAP1 DIV PUSH20 0xFFFFFFFFFFFFFFFFFFFFFFFFFFFFFFFFFFFFFFFF AND DUP2 JUMP JUMPDEST PUSH0 CALLER SWAP1 POP SWAP1 JUMP JUMPDEST PUSH0 DUP2 SWAP1 POP SWAP2 SWAP1 POP JUMP JUMPDEST PUSH2 0x1FF DUP2 PUSH2 0x1ED JUMP JUMPDEST DUP3 MSTORE POP POP JUMP JUMPDEST PUSH0 PUSH1 0x60 DUP3 ADD SWAP1 POP PUSH2 0x218 PUSH0 DUP4 ADD DUP7 PUSH2 0x1F6 JUMP JUMPDEST PUSH2 0x225 PUSH1 0x20 DUP4 ADD DUP6 PUSH2 0x1F6 JUMP JUMPDEST PUSH2 0x232 PUSH1 0x40 DUP4 ADD DUP5 PUSH2 0x1F6 JUMP JUMPDEST SWAP5 SWAP4 POP POP POP POP JUMP JUMPDEST PUSH0 PUSH20 0xFFFFFFFFFFFFFFFFFFFFFFFFFFFFFFFFFFFFFFFF DUP3 AND SWAP1 POP SWAP2 SWAP1 POP JUMP JUMPDEST PUSH0 PUSH2 0x263 DUP3 PUSH2 0x23A JUMP JUMPDEST SWAP1 POP SWAP2 SWAP1 POP JUMP JUMPDEST PUSH2 0x273 DUP2 PUSH2 0x259 JUMP JUMPDEST DUP3 MSTORE POP POP JUMP JUMPDEST PUSH0 PUSH1 0x20 DUP3 ADD SWAP1 POP PUSH2 0x28C PUSH0 DUP4 ADD DUP5 PUSH2 0x26A JUMP JUMPDEST SWAP3 SWAP2 POP POP JUMP JUMPDEST PUSH0 PUSH0 REVERT JUMPDEST PUSH2 0x29F DUP2 PUSH2 0x259 JUMP JUMPDEST DUP2 EQ PUSH2 0x2A9 JUMPI PUSH0 PUSH0 REVERT JUMPDEST POP JUMP JUMPDEST PUSH0 DUP2 CALLDATALOAD SWAP1 POP PUSH2 0x2BA DUP2 PUSH2 0x296 JUMP JUMPDEST SWAP3 SWAP2 POP POP JUMP JUMPDEST PUSH0 PUSH1 0x20 DUP3 DUP5 SUB SLT ISZERO PUSH2 0x2D5 JUMPI PUSH2 0x2D4 PUSH2 0x292 JUMP JUMPDEST JUMPDEST PUSH0 PUSH2 0x2E2 DUP5 DUP3 DUP6 ADD PUSH2 0x2AC JUMP JUMPDEST SWAP2 POP POP SWAP3 SWAP2 POP POP JUMP INVALID LOG2 PUSH5 0x6970667358 0x22 SLT KECCAK256 PUSH7 0x77B47AF781C597 0xDE 0xAB EXTDELEGATECALL MCOPY 0xE2 0xC4 0x27 0xD3 BYTE 0x21 0xB8 CALLDATACOPY 0xDB 0x2F EXTCODECOPY CALLDATASIZE 0xCA SAR 0xD6 0xDF ISZERO EXP PUSH2 0x8464 PUSH20 0x6F6C634300081E00330000000000000000000000 "
		},
		"gasEstimates": {
			"creation": {
				"codeDepositCost": "160200",
				"executionCost": "24470",
				"totalCost": "184670"
			},
			"external": {
				"getBalance()": "infinite",
				"getContractAddress()": "379",
				"getMsgAddress()": "467",
				"getOwner()": "2558",
				"getUserAddress(address)": "infinite",
				"owner()": "2573"
			}
		},
		"methodIdentifiers": {
			"getBalance()": "12065fe0",
			"getContractAddress()": "32a2c5d0",
			"getMsgAddress()": "e97afe39",
			"getOwner()": "893d20e8",
			"getUserAddress(address)": "4d6849d2",
			"owner()": "8da5cb5b"
		}
	},
	"abi": [
		{
			"inputs": [],
			"stateMutability": "nonpayable",
			"type": "constructor"
		},
		{
			"inputs": [],
			"name": "getBalance",
			"outputs": [
				{
					"internalType": "uint256",
					"name": "",
					"type": "uint256"
				},
				{
					"internalType": "uint256",
					"name": "",
					"type": "uint256"
				},
				{
					"internalType": "uint256",
					"name": "",
					"type": "uint256"
				}
			],
			"stateMutability": "view",
			"type": "function"
		},
		{
			"inputs": [],
			"name": "getContractAddress",
			"outputs": [
				{
					"internalType": "address",
					"name": "",
					"type": "address"
				}
			],
			"stateMutability": "view",
			"type": "function"
		},
		{
			"inputs": [],
			"name": "getMsgAddress",
			"outputs": [
				{
					"internalType": "address",
					"name": "",
					"type": "address"
				}
			],
			"stateMutability": "view",
			"type": "function"
		},
		{
			"inputs": [],
			"name": "getOwner",
			"outputs": [
				{
					"internalType": "address",
					"name": "",
					"type": "address"
				}
			],
			"stateMutability": "view",
			"type": "function"
		},
		{
			"inputs": [
				{
					"internalType": "address",
					"name": "_address",
					"type": "address"
				}
			],
			"name": "getUserAddress",
			"outputs": [
				{
					"internalType": "address",
					"name": "",
					"type": "address"
				}
			],
			"stateMutability": "pure",
			"type": "function"
		},
		{
			"inputs": [],
			"name": "owner",
			"outputs": [
				{
					"internalType": "address",
					"name": "",
					"type": "address"
				}
			],
			"stateMutability": "view",
			"type": "function"
		}
	]
}