{
	"data": {
		"bytecode": {
			"linkReferences": {},
			"object": "608060405260645f55348015610013575f80fd5b5061015b806100215f395ff3fe608060405234801561000f575f80fd5b506004361061004a575f3560e01c8063262a9dff1461004e578063755acde41461006c578063a114485a14610076578063d686b67114610094575b5f80fd5b6100566100b2565b604051610063919061010c565b60405180910390f35b6100746100b7565b005b61007e6100d4565b60405161008b919061010c565b60405180910390f35b61009c6100dc565b6040516100a9919061010c565b60405180910390f35b5f5481565b6100bf6100e4565b506100c86100ec565b506100d16100dc565b50565b5f8054905090565b5f8054905090565b5f8054905090565b5f8054905090565b5f819050919050565b610106816100f4565b82525050565b5f60208201905061011f5f8301846100fd565b9291505056fea264697066735822122056b2a4e6bb1e11ef79c0199507f34bcca5a1d17c4a02fb9a7c1bcb984413e66b64736f6c63430008160033",
			"opcodes": "PUSH1 0x80 PUSH1 0x40 MSTORE PUSH1 0x64 PUSH0 SSTORE CALLVALUE DUP1 ISZERO PUSH2 0x13 JUMPI PUSH0 DUP1 REVERT JUMPDEST POP PUSH2 0x15B DUP1 PUSH2 0x21 PUSH0 CODECOPY PUSH0 RETURN INVALID PUSH1 0x80 PUSH1 0x40 MSTORE CALLVALUE DUP1 ISZERO PUSH2 0xF JUMPI PUSH0 DUP1 REVERT JUMPDEST POP PUSH1 0x4 CALLDATASIZE LT PUSH2 0x4A JUMPI PUSH0 CALLDATALOAD PUSH1 0xE0 SHR DUP1 PUSH4 0x262A9DFF EQ PUSH2 0x4E JUMPI DUP1 PUSH4 0x755ACDE4 EQ PUSH2 0x6C JUMPI DUP1 PUSH4 0xA114485A EQ PUSH2 0x76 JUMPI DUP1 PUSH4 0xD686B671 EQ PUSH2 0x94 JUMPI JUMPDEST PUSH0 DUP1 REVERT JUMPDEST PUSH2 0x56 PUSH2 0xB2 JUMP JUMPDEST PUSH1 0x40 MLOAD PUSH2 0x63 SWAP2 SWAP1 PUSH2 0x10C JUMP JUMPDEST PUSH1 0x40 MLOAD DUP1 SWAP2 SUB SWAP1 RETURN JUMPDEST PUSH2 0x74 PUSH2 0xB7 JUMP JUMPDEST STOP JUMPDEST PUSH2 0x7E PUSH2 0xD4 JUMP JUMPDEST PUSH1 0x40 MLOAD PUSH2 0x8B SWAP2 SWAP1 PUSH2 0x10C JUMP JUMPDEST PUSH1 0x40 MLOAD DUP1 SWAP2 SUB SWAP1 RETURN JUMPDEST PUSH2 0x9C PUSH2 0xDC JUMP JUMPDEST PUSH1 0x40 MLOAD PUSH2 0xA9 SWAP2 SWAP1 PUSH2 0x10C JUMP JUMPDEST PUSH1 0x40 MLOAD DUP1 SWAP2 SUB SWAP1 RETURN JUMPDEST PUSH0 SLOAD DUP2 JUMP JUMPDEST PUSH2 0xBF PUSH2 0xE4 JUMP JUMPDEST POP PUSH2 0xC8 PUSH2 0xEC JUMP JUMPDEST POP PUSH2 0xD1 PUSH2 0xDC JUMP JUMPDEST POP JUMP JUMPDEST PUSH0 DUP1 SLOAD SWAP1 POP SWAP1 JUMP JUMPDEST PUSH0 DUP1 SLOAD SWAP1 POP SWAP1 JUMP JUMPDEST PUSH0 DUP1 SLOAD SWAP1 POP SWAP1 JUMP JUMPDEST PUSH0 DUP1 SLOAD SWAP1 POP SWAP1 JUMP JUMPDEST PUSH0 DUP2 SWAP1 POP SWAP2 SWAP1 POP JUMP JUMPDEST PUSH2 0x106 DUP2 PUSH2 0xF4 JUMP JUMPDEST DUP3 MSTORE POP POP JUMP JUMPDEST PUSH0 PUSH1 0x20 DUP3 ADD SWAP1 POP PUSH2 0x11F PUSH0 DUP4 ADD DUP5 PUSH2 0xFD JUMP JUMPDEST SWAP3 SWAP2 POP POP JUMP INVALID LOG2 PUSH5 0x6970667358 0x22 SLT KECCAK256 JUMP 0xB2 LOG4 0xE6 0xBB 0x1E GT 0xEF PUSH26 0xC0199507F34BCCA5A1D17C4A02FB9A7C1BCB984413E66B64736F PUSH13 0x63430008160033000000000000 "
		},
		"gasEstimates": {
			"creation": {
				"codeDepositCost": "69400",
				"executionCost": "22220",
				"totalCost": "91620"
			},
			"external": {
				"age()": "2402",
				"scopeCall()": "6560",
				"scopeExternal()": "2454",
				"scopePublic()": "2476"
			},
			"internal": {
				"scopeInternal()": "2122",
				"scopePrivate()": "2122"
			}
		},
		"methodIdentifiers": {
			"age()": "262a9dff",
			"scopeCall()": "755acde4",
			"scopeExternal()": "a114485a",
			"scopePublic()": "d686b671"
		}
	},
	"abi": [
		{
			"inputs": [],
			"name": "age",
			"outputs": [
				{
					"internalType": "uint256",
					"name": "",
					"type": "uint256"
				}
			],
			"stateMutability": "view",
			"type": "function"
		},
		{
			"inputs": [],
			"name": "scopeCall",
			"outputs": [],
			"stateMutability": "view",
			"type": "function"
		},
		{
			"inputs": [],
			"name": "scopeExternal",
			"outputs": [
				{
					"internalType": "uint256",
					"name": "",
					"type": "uint256"
				}
			],
			"stateMutability": "view",
			"type": "function"
		},
		{
			"inputs": [],
			"name": "scopePublic",
			"outputs": [
				{
					"internalType": "uint256",
					"name": "",
					"type": "uint256"
				}
			],
			"stateMutability": "view",
			"type": "function"
		}
	]
}