{
	"data": {
		"bytecode": {
			"linkReferences": {},
			"object": "608060405234801561000f575f80fd5b506103528061001d5f395ff3fe60806040526004361061001d575f3560e01c8063a26e118614610021575b5f80fd5b61003b600480360381019061003691906101c8565b61003d565b005b7f2d4b597935f3cd67fb2eebf1db4debc934cee5c7baa7153f980fdbeb2e74084e338234604051610070939291906102e0565b60405180910390a150565b5f604051905090565b5f80fd5b5f80fd5b5f80fd5b5f80fd5b5f601f19601f8301169050919050565b7f4e487b71000000000000000000000000000000000000000000000000000000005f52604160045260245ffd5b6100da82610094565b810181811067ffffffffffffffff821117156100f9576100f86100a4565b5b80604052505050565b5f61010b61007b565b905061011782826100d1565b919050565b5f67ffffffffffffffff821115610136576101356100a4565b5b61013f82610094565b9050602081019050919050565b828183375f83830152505050565b5f61016c6101678461011c565b610102565b90508281526020810184848401111561018857610187610090565b5b61019384828561014c565b509392505050565b5f82601f8301126101af576101ae61008c565b5b81356101bf84826020860161015a565b91505092915050565b5f602082840312156101dd576101dc610084565b5b5f82013567ffffffffffffffff8111156101fa576101f9610088565b5b6102068482850161019b565b91505092915050565b5f73ffffffffffffffffffffffffffffffffffffffff82169050919050565b5f6102388261020f565b9050919050565b6102488161022e565b82525050565b5f81519050919050565b5f82825260208201905092915050565b5f5b8381101561028557808201518184015260208101905061026a565b5f8484015250505050565b5f61029a8261024e565b6102a48185610258565b93506102b4818560208601610268565b6102bd81610094565b840191505092915050565b5f819050919050565b6102da816102c8565b82525050565b5f6060820190506102f35f83018661023f565b81810360208301526103058185610290565b905061031460408301846102d1565b94935050505056fea26469706673582212201eb136135e037daaeced38e1aae3eeb62cbc898ac917ddab61b95921a71ed74e64736f6c63430008160033",
			"opcodes": "PUSH1 0x80 PUSH1 0x40 MSTORE CALLVALUE DUP1 ISZERO PUSH2 0xF JUMPI PUSH0 DUP1 REVERT JUMPDEST POP PUSH2 0x352 DUP1 PUSH2 0x1D PUSH0 CODECOPY PUSH0 RETURN INVALID PUSH1 0x80 PUSH1 0x40 MSTORE PUSH1 0x4 CALLDATASIZE LT PUSH2 0x1D JUMPI PUSH0 CALLDATALOAD PUSH1 0xE0 SHR DUP1 PUSH4 0xA26E1186 EQ PUSH2 0x21 JUMPI JUMPDEST PUSH0 DUP1 REVERT JUMPDEST PUSH2 0x3B PUSH1 0x4 DUP1 CALLDATASIZE SUB DUP2 ADD SWAP1 PUSH2 0x36 SWAP2 SWAP1 PUSH2 0x1C8 JUMP JUMPDEST PUSH2 0x3D JUMP JUMPDEST STOP JUMPDEST PUSH32 0x2D4B597935F3CD67FB2EEBF1DB4DEBC934CEE5C7BAA7153F980FDBEB2E74084E CALLER DUP3 CALLVALUE PUSH1 0x40 MLOAD PUSH2 0x70 SWAP4 SWAP3 SWAP2 SWAP1 PUSH2 0x2E0 JUMP JUMPDEST PUSH1 0x40 MLOAD DUP1 SWAP2 SUB SWAP1 LOG1 POP JUMP JUMPDEST PUSH0 PUSH1 0x40 MLOAD SWAP1 POP SWAP1 JUMP JUMPDEST PUSH0 DUP1 REVERT JUMPDEST PUSH0 DUP1 REVERT JUMPDEST PUSH0 DUP1 REVERT JUMPDEST PUSH0 DUP1 REVERT JUMPDEST PUSH0 PUSH1 0x1F NOT PUSH1 0x1F DUP4 ADD AND SWAP1 POP SWAP2 SWAP1 POP JUMP JUMPDEST PUSH32 0x4E487B7100000000000000000000000000000000000000000000000000000000 PUSH0 MSTORE PUSH1 0x41 PUSH1 0x4 MSTORE PUSH1 0x24 PUSH0 REVERT JUMPDEST PUSH2 0xDA DUP3 PUSH2 0x94 JUMP JUMPDEST DUP2 ADD DUP2 DUP2 LT PUSH8 0xFFFFFFFFFFFFFFFF DUP3 GT OR ISZERO PUSH2 0xF9 JUMPI PUSH2 0xF8 PUSH2 0xA4 JUMP JUMPDEST JUMPDEST DUP1 PUSH1 0x40 MSTORE POP POP POP JUMP JUMPDEST PUSH0 PUSH2 0x10B PUSH2 0x7B JUMP JUMPDEST SWAP1 POP PUSH2 0x117 DUP3 DUP3 PUSH2 0xD1 JUMP JUMPDEST SWAP2 SWAP1 POP JUMP JUMPDEST PUSH0 PUSH8 0xFFFFFFFFFFFFFFFF DUP3 GT ISZERO PUSH2 0x136 JUMPI PUSH2 0x135 PUSH2 0xA4 JUMP JUMPDEST JUMPDEST PUSH2 0x13F DUP3 PUSH2 0x94 JUMP JUMPDEST SWAP1 POP PUSH1 0x20 DUP2 ADD SWAP1 POP SWAP2 SWAP1 POP JUMP JUMPDEST DUP3 DUP2 DUP4 CALLDATACOPY PUSH0 DUP4 DUP4 ADD MSTORE POP POP POP JUMP JUMPDEST PUSH0 PUSH2 0x16C PUSH2 0x167 DUP5 PUSH2 0x11C JUMP JUMPDEST PUSH2 0x102 JUMP JUMPDEST SWAP1 POP DUP3 DUP2 MSTORE PUSH1 0x20 DUP2 ADD DUP5 DUP5 DUP5 ADD GT ISZERO PUSH2 0x188 JUMPI PUSH2 0x187 PUSH2 0x90 JUMP JUMPDEST JUMPDEST PUSH2 0x193 DUP5 DUP3 DUP6 PUSH2 0x14C JUMP JUMPDEST POP SWAP4 SWAP3 POP POP POP JUMP JUMPDEST PUSH0 DUP3 PUSH1 0x1F DUP4 ADD SLT PUSH2 0x1AF JUMPI PUSH2 0x1AE PUSH2 0x8C JUMP JUMPDEST JUMPDEST DUP2 CALLDATALOAD PUSH2 0x1BF DUP5 DUP3 PUSH1 0x20 DUP7 ADD PUSH2 0x15A JUMP JUMPDEST SWAP2 POP POP SWAP3 SWAP2 POP POP JUMP JUMPDEST PUSH0 PUSH1 0x20 DUP3 DUP5 SUB SLT ISZERO PUSH2 0x1DD JUMPI PUSH2 0x1DC PUSH2 0x84 JUMP JUMPDEST JUMPDEST PUSH0 DUP3 ADD CALLDATALOAD PUSH8 0xFFFFFFFFFFFFFFFF DUP2 GT ISZERO PUSH2 0x1FA JUMPI PUSH2 0x1F9 PUSH2 0x88 JUMP JUMPDEST JUMPDEST PUSH2 0x206 DUP5 DUP3 DUP6 ADD PUSH2 0x19B JUMP JUMPDEST SWAP2 POP POP SWAP3 SWAP2 POP POP JUMP JUMPDEST PUSH0 PUSH20 0xFFFFFFFFFFFFFFFFFFFFFFFFFFFFFFFFFFFFFFFF DUP3 AND SWAP1 POP SWAP2 SWAP1 POP JUMP JUMPDEST PUSH0 PUSH2 0x238 DUP3 PUSH2 0x20F JUMP JUMPDEST SWAP1 POP SWAP2 SWAP1 POP JUMP JUMPDEST PUSH2 0x248 DUP2 PUSH2 0x22E JUMP JUMPDEST DUP3 MSTORE POP POP JUMP JUMPDEST PUSH0 DUP2 MLOAD SWAP1 POP SWAP2 SWAP1 POP JUMP JUMPDEST PUSH0 DUP3 DUP3 MSTORE PUSH1 0x20 DUP3 ADD SWAP1 POP SWAP3 SWAP2 POP POP JUMP JUMPDEST PUSH0 JUMPDEST DUP4 DUP2 LT ISZERO PUSH2 0x285 JUMPI DUP1 DUP3 ADD MLOAD DUP2 DUP5 ADD MSTORE PUSH1 0x20 DUP2 ADD SWAP1 POP PUSH2 0x26A JUMP JUMPDEST PUSH0 DUP5 DUP5 ADD MSTORE POP POP POP POP JUMP JUMPDEST PUSH0 PUSH2 0x29A DUP3 PUSH2 0x24E JUMP JUMPDEST PUSH2 0x2A4 DUP2 DUP6 PUSH2 0x258 JUMP JUMPDEST SWAP4 POP PUSH2 0x2B4 DUP2 DUP6 PUSH1 0x20 DUP7 ADD PUSH2 0x268 JUMP JUMPDEST PUSH2 0x2BD DUP2 PUSH2 0x94 JUMP JUMPDEST DUP5 ADD SWAP2 POP POP SWAP3 SWAP2 POP POP JUMP JUMPDEST PUSH0 DUP2 SWAP1 POP SWAP2 SWAP1 POP JUMP JUMPDEST PUSH2 0x2DA DUP2 PUSH2 0x2C8 JUMP JUMPDEST DUP3 MSTORE POP POP JUMP JUMPDEST PUSH0 PUSH1 0x60 DUP3 ADD SWAP1 POP PUSH2 0x2F3 PUSH0 DUP4 ADD DUP7 PUSH2 0x23F JUMP JUMPDEST DUP2 DUP2 SUB PUSH1 0x20 DUP4 ADD MSTORE PUSH2 0x305 DUP2 DUP6 PUSH2 0x290 JUMP JUMPDEST SWAP1 POP PUSH2 0x314 PUSH1 0x40 DUP4 ADD DUP5 PUSH2 0x2D1 JUMP JUMPDEST SWAP5 SWAP4 POP POP POP POP JUMP INVALID LOG2 PUSH5 0x6970667358 0x22 SLT KECCAK256 0x1E 0xB1 CALLDATASIZE SGT 0x5E SUB PUSH30 0xAAECED38E1AAE3EEB62CBC898AC917DDAB61B95921A71ED74E64736F6C63 NUMBER STOP ADDMOD AND STOP CALLER "
		},
		"gasEstimates": {
			"creation": {
				"codeDepositCost": "170000",
				"executionCost": "212",
				"totalCost": "170212"
			},
			"external": {
				"deposit(string)": "infinite"
			}
		},
		"methodIdentifiers": {
			"deposit(string)": "a26e1186"
		}
	},
	"abi": [
		{
			"anonymous": false,
			"inputs": [
				{
					"indexed": false,
					"internalType": "address",
					"name": "from",
					"type": "address"
				},
				{
					"indexed": false,
					"internalType": "string",
					"name": "name",
					"type": "string"
				},
				{
					"indexed": false,
					"internalType": "uint256",
					"name": "value",
					"type": "uint256"
				}
			],
			"name": "Deposit",
			"type": "event"
		},
		{
			"inputs": [
				{
					"internalType": "string",
					"name": "name",
					"type": "string"
				}
			],
			"name": "deposit",
			"outputs": [],
			"stateMutability": "payable",
			"type": "function"
		}
	]
}